{
  "_format": "hh-sol-artifact-1",
  "contractName": "WQBridge",
  "sourceName": "contracts/WQBridge.sol",
  "abi": [
    {
      "anonymous": false,
      "inputs": [
        {
          "indexed": false,
          "internalType": "address",
          "name": "account",
          "type": "address"
        }
      ],
      "name": "Paused",
      "type": "event"
    },
    {
      "anonymous": false,
      "inputs": [
        {
          "indexed": true,
          "internalType": "bytes32",
          "name": "role",
          "type": "bytes32"
        },
        {
          "indexed": true,
          "internalType": "bytes32",
          "name": "previousAdminRole",
          "type": "bytes32"
        },
        {
          "indexed": true,
          "internalType": "bytes32",
          "name": "newAdminRole",
          "type": "bytes32"
        }
      ],
      "name": "RoleAdminChanged",
      "type": "event"
    },
    {
      "anonymous": false,
      "inputs": [
        {
          "indexed": true,
          "internalType": "bytes32",
          "name": "role",
          "type": "bytes32"
        },
        {
          "indexed": true,
          "internalType": "address",
          "name": "account",
          "type": "address"
        },
        {
          "indexed": true,
          "internalType": "address",
          "name": "sender",
          "type": "address"
        }
      ],
      "name": "RoleGranted",
      "type": "event"
    },
    {
      "anonymous": false,
      "inputs": [
        {
          "indexed": true,
          "internalType": "bytes32",
          "name": "role",
          "type": "bytes32"
        },
        {
          "indexed": true,
          "internalType": "address",
          "name": "account",
          "type": "address"
        },
        {
          "indexed": true,
          "internalType": "address",
          "name": "sender",
          "type": "address"
        }
      ],
      "name": "RoleRevoked",
      "type": "event"
    },
    {
      "anonymous": false,
      "inputs": [
        {
          "indexed": false,
          "internalType": "uint256",
          "name": "timestamp",
          "type": "uint256"
        },
        {
          "indexed": true,
          "internalType": "address",
          "name": "sender",
          "type": "address"
        },
        {
          "indexed": false,
          "internalType": "address",
          "name": "recipient",
          "type": "address"
        },
        {
          "indexed": false,
          "internalType": "uint256",
          "name": "amount",
          "type": "uint256"
        },
        {
          "indexed": false,
          "internalType": "uint256",
          "name": "chainFrom",
          "type": "uint256"
        },
        {
          "indexed": false,
          "internalType": "uint256",
          "name": "chainTo",
          "type": "uint256"
        },
        {
          "indexed": false,
          "internalType": "uint256",
          "name": "nonce",
          "type": "uint256"
        },
        {
          "indexed": false,
          "internalType": "string",
          "name": "symbol",
          "type": "string"
        }
      ],
      "name": "SwapInitialized",
      "type": "event"
    },
    {
      "anonymous": false,
      "inputs": [
        {
          "indexed": false,
          "internalType": "uint256",
          "name": "timestamp",
          "type": "uint256"
        },
        {
          "indexed": true,
          "internalType": "address",
          "name": "sender",
          "type": "address"
        },
        {
          "indexed": false,
          "internalType": "address",
          "name": "recipient",
          "type": "address"
        },
        {
          "indexed": false,
          "internalType": "uint256",
          "name": "amount",
          "type": "uint256"
        },
        {
          "indexed": false,
          "internalType": "uint256",
          "name": "chainFrom",
          "type": "uint256"
        },
        {
          "indexed": false,
          "internalType": "uint256",
          "name": "chainTo",
          "type": "uint256"
        },
        {
          "indexed": false,
          "internalType": "uint256",
          "name": "nonce",
          "type": "uint256"
        },
        {
          "indexed": false,
          "internalType": "string",
          "name": "symbol",
          "type": "string"
        }
      ],
      "name": "SwapRedeemed",
      "type": "event"
    },
    {
      "anonymous": false,
      "inputs": [
        {
          "indexed": false,
          "internalType": "address",
          "name": "token",
          "type": "address"
        },
        {
          "indexed": false,
          "internalType": "address",
          "name": "recipient",
          "type": "address"
        },
        {
          "indexed": false,
          "internalType": "uint256",
          "name": "amount",
          "type": "uint256"
        }
      ],
      "name": "Transferred",
      "type": "event"
    },
    {
      "anonymous": false,
      "inputs": [
        {
          "indexed": false,
          "internalType": "address",
          "name": "account",
          "type": "address"
        }
      ],
      "name": "Unpaused",
      "type": "event"
    },
    {
      "inputs": [],
      "name": "ADMIN_ROLE",
      "outputs": [
        {
          "internalType": "bytes32",
          "name": "",
          "type": "bytes32"
        }
      ],
      "stateMutability": "view",
      "type": "function"
    },
    {
      "inputs": [],
      "name": "DEFAULT_ADMIN_ROLE",
      "outputs": [
        {
          "internalType": "bytes32",
          "name": "",
          "type": "bytes32"
        }
      ],
      "stateMutability": "view",
      "type": "function"
    },
    {
      "inputs": [],
      "name": "VALIDATOR_ROLE",
      "outputs": [
        {
          "internalType": "bytes32",
          "name": "",
          "type": "bytes32"
        }
      ],
      "stateMutability": "view",
      "type": "function"
    },
    {
      "inputs": [],
      "name": "chainId",
      "outputs": [
        {
          "internalType": "uint256",
          "name": "",
          "type": "uint256"
        }
      ],
      "stateMutability": "view",
      "type": "function"
    },
    {
      "inputs": [
        {
          "internalType": "uint256",
          "name": "",
          "type": "uint256"
        }
      ],
      "name": "chains",
      "outputs": [
        {
          "internalType": "bool",
          "name": "",
          "type": "bool"
        }
      ],
      "stateMutability": "view",
      "type": "function"
    },
    {
      "inputs": [
        {
          "internalType": "bytes32",
          "name": "role",
          "type": "bytes32"
        }
      ],
      "name": "getRoleAdmin",
      "outputs": [
        {
          "internalType": "bytes32",
          "name": "",
          "type": "bytes32"
        }
      ],
      "stateMutability": "view",
      "type": "function"
    },
    {
      "inputs": [
        {
          "internalType": "bytes32",
          "name": "message",
          "type": "bytes32"
        }
      ],
      "name": "getSwapState",
      "outputs": [
        {
          "internalType": "enum WQBridge.State",
          "name": "state",
          "type": "uint8"
        }
      ],
      "stateMutability": "view",
      "type": "function"
    },
    {
      "inputs": [
        {
          "internalType": "bytes32",
          "name": "role",
          "type": "bytes32"
        },
        {
          "internalType": "address",
          "name": "account",
          "type": "address"
        }
      ],
      "name": "grantRole",
      "outputs": [],
      "stateMutability": "nonpayable",
      "type": "function"
    },
    {
      "inputs": [
        {
          "internalType": "bytes32",
          "name": "role",
          "type": "bytes32"
        },
        {
          "internalType": "address",
          "name": "account",
          "type": "address"
        }
      ],
      "name": "hasRole",
      "outputs": [
        {
          "internalType": "bool",
          "name": "",
          "type": "bool"
        }
      ],
      "stateMutability": "view",
      "type": "function"
    },
    {
      "inputs": [
        {
          "internalType": "uint256",
          "name": "_chainId",
          "type": "uint256"
        },
        {
          "internalType": "address payable",
          "name": "_pool",
          "type": "address"
        },
        {
          "internalType": "address",
          "name": "validator",
          "type": "address"
        }
      ],
      "name": "initialize",
      "outputs": [],
      "stateMutability": "nonpayable",
      "type": "function"
    },
    {
      "inputs": [],
      "name": "pause",
      "outputs": [],
      "stateMutability": "nonpayable",
      "type": "function"
    },
    {
      "inputs": [],
      "name": "paused",
      "outputs": [
        {
          "internalType": "bool",
          "name": "",
          "type": "bool"
        }
      ],
      "stateMutability": "view",
      "type": "function"
    },
    {
      "inputs": [],
      "name": "pool",
      "outputs": [
        {
          "internalType": "address payable",
          "name": "",
          "type": "address"
        }
      ],
      "stateMutability": "view",
      "type": "function"
    },
    {
      "inputs": [
        {
          "internalType": "uint256",
          "name": "nonce",
          "type": "uint256"
        },
        {
          "internalType": "uint256",
          "name": "chainFrom",
          "type": "uint256"
        },
        {
          "internalType": "uint256",
          "name": "amount",
          "type": "uint256"
        },
        {
          "internalType": "address payable",
          "name": "recipient",
          "type": "address"
        },
        {
          "internalType": "uint8",
          "name": "v",
          "type": "uint8"
        },
        {
          "internalType": "bytes32",
          "name": "r",
          "type": "bytes32"
        },
        {
          "internalType": "bytes32",
          "name": "s",
          "type": "bytes32"
        },
        {
          "internalType": "string",
          "name": "symbol",
          "type": "string"
        }
      ],
      "name": "redeem",
      "outputs": [],
      "stateMutability": "nonpayable",
      "type": "function"
    },
    {
      "inputs": [
        {
          "internalType": "address payable",
          "name": "recipient",
          "type": "address"
        },
        {
          "internalType": "uint256",
          "name": "amount",
          "type": "uint256"
        },
        {
          "internalType": "address",
          "name": "token",
          "type": "address"
        }
      ],
      "name": "removeLiquidity",
      "outputs": [],
      "stateMutability": "nonpayable",
      "type": "function"
    },
    {
      "inputs": [
        {
          "internalType": "bytes32",
          "name": "role",
          "type": "bytes32"
        },
        {
          "internalType": "address",
          "name": "account",
          "type": "address"
        }
      ],
      "name": "renounceRole",
      "outputs": [],
      "stateMutability": "nonpayable",
      "type": "function"
    },
    {
      "inputs": [
        {
          "internalType": "bytes32",
          "name": "role",
          "type": "bytes32"
        },
        {
          "internalType": "address",
          "name": "account",
          "type": "address"
        }
      ],
      "name": "revokeRole",
      "outputs": [],
      "stateMutability": "nonpayable",
      "type": "function"
    },
    {
      "inputs": [
        {
          "internalType": "bytes4",
          "name": "interfaceId",
          "type": "bytes4"
        }
      ],
      "name": "supportsInterface",
      "outputs": [
        {
          "internalType": "bool",
          "name": "",
          "type": "bool"
        }
      ],
      "stateMutability": "view",
      "type": "function"
    },
    {
      "inputs": [
        {
          "internalType": "uint256",
          "name": "nonce",
          "type": "uint256"
        },
        {
          "internalType": "uint256",
          "name": "chainTo",
          "type": "uint256"
        },
        {
          "internalType": "uint256",
          "name": "amount",
          "type": "uint256"
        },
        {
          "internalType": "address",
          "name": "recipient",
          "type": "address"
        },
        {
          "internalType": "string",
          "name": "symbol",
          "type": "string"
        }
      ],
      "name": "swap",
      "outputs": [],
      "stateMutability": "payable",
      "type": "function"
    },
    {
      "inputs": [
        {
          "internalType": "bytes32",
          "name": "",
          "type": "bytes32"
        }
      ],
      "name": "swaps",
      "outputs": [
        {
          "internalType": "uint256",
          "name": "nonce",
          "type": "uint256"
        },
        {
          "internalType": "enum WQBridge.State",
          "name": "state",
          "type": "uint8"
        }
      ],
      "stateMutability": "view",
      "type": "function"
    },
    {
      "inputs": [
        {
          "internalType": "string",
          "name": "",
          "type": "string"
        }
      ],
      "name": "tokens",
      "outputs": [
        {
          "internalType": "address",
          "name": "token",
          "type": "address"
        },
        {
          "internalType": "bool",
          "name": "enabled",
          "type": "bool"
        },
        {
          "internalType": "bool",
          "name": "native",
          "type": "bool"
        },
        {
          "internalType": "bool",
          "name": "lockable",
          "type": "bool"
        }
      ],
      "stateMutability": "view",
      "type": "function"
    },
    {
      "inputs": [],
      "name": "unpause",
      "outputs": [],
      "stateMutability": "nonpayable",
      "type": "function"
    },
    {
      "inputs": [
        {
          "internalType": "uint256",
          "name": "_chainId",
          "type": "uint256"
        },
        {
          "internalType": "bool",
          "name": "enabled",
          "type": "bool"
        }
      ],
      "name": "updateChain",
      "outputs": [],
      "stateMutability": "nonpayable",
      "type": "function"
    },
    {
      "inputs": [
        {
          "internalType": "address payable",
          "name": "_pool",
          "type": "address"
        }
      ],
      "name": "updatePool",
      "outputs": [],
      "stateMutability": "nonpayable",
      "type": "function"
    },
    {
      "inputs": [
        {
          "internalType": "address",
          "name": "token",
          "type": "address"
        },
        {
          "internalType": "bool",
          "name": "enabled",
          "type": "bool"
        },
        {
          "internalType": "bool",
          "name": "native",
          "type": "bool"
        },
        {
          "internalType": "bool",
          "name": "lockable",
          "type": "bool"
        },
        {
          "internalType": "string",
          "name": "symbol",
          "type": "string"
        }
      ],
      "name": "updateToken",
      "outputs": [],
      "stateMutability": "nonpayable",
      "type": "function"
    }
  ],
  "bytecode": "0x608060405234801561001057600080fd5b506128f2806100206000396000f3fe6080604052600436106101665760003560e01c80637b46c54f116100d1578063b4988fd01161008a578063db9b6d0611610064578063db9b6d06146104a1578063dbe77e54146104e1578063e370fc7f14610501578063eb84e7f21461052157600080fd5b8063b4988fd01461043f578063c49baebe1461045f578063d547741f1461048157600080fd5b80637b46c54f1461039f5780638456cb59146103bf57806391d14854146103d45780639a8a0592146103f45780639e1dcc781461040a578063a217fddf1461042a57600080fd5b80633f4ba83a116101235780633f4ba83a146102ed57806347fdbc8e14610302578063550325b5146103225780635c975abb1461035257806368ea06961461036a57806375b238fc1461037d57600080fd5b806301ffc9a71461016b57806304c2320b146101a057806316f0115b14610235578063248a9ca31461026d5780632f2ff15d146102ab57806336568abe146102cd575b600080fd5b34801561017757600080fd5b5061018b610186366004612340565b610566565b60405190151581526020015b60405180910390f35b3480156101ac57600080fd5b506102036101bb366004612368565b80518082016020908101805160cc825292820191909301209152546001600160a01b0381169060ff600160a01b8204811691600160a81b8104821691600160b01b9091041684565b604080516001600160a01b03909516855292151560208501529015159183019190915215156060820152608001610197565b34801561024157600080fd5b5060ca54610255906001600160a01b031681565b6040516001600160a01b039091168152602001610197565b34801561027957600080fd5b5061029d6102883660046122f9565b60009081526065602052604090206001015490565b604051908152602001610197565b3480156102b757600080fd5b506102cb6102c6366004612311565b61059d565b005b3480156102d957600080fd5b506102cb6102e8366004612311565b6105c8565b3480156102f957600080fd5b506102cb61064b565b34801561030e57600080fd5b506102cb61031d366004612216565b61066f565b34801561032e57600080fd5b5061018b61033d3660046122f9565b60cb6020526000908152604090205460ff1681565b34801561035e57600080fd5b5060975460ff1661018b565b6102cb61037836600461248b565b61079b565b34801561038957600080fd5b5061029d60008051602061289d83398151915281565b3480156103ab57600080fd5b506102cb6103ba3660046121fa565b610b4c565b3480156103cb57600080fd5b506102cb610bde565b3480156103e057600080fd5b5061018b6103ef366004612311565b610bff565b34801561040057600080fd5b5061029d60c95481565b34801561041657600080fd5b506102cb610425366004612257565b610c2a565b34801561043657600080fd5b5061029d600081565b34801561044b57600080fd5b506102cb61045a36600461239b565b610d77565b34801561046b57600080fd5b5061029d60008051602061287d83398151915281565b34801561048d57600080fd5b506102cb61049c366004612311565b610e77565b3480156104ad57600080fd5b506104d46104bc3660046122f9565b600090815260cd602052604090206001015460ff1690565b60405161019791906125f5565b3480156104ed57600080fd5b506102cb6104fc3660046123d1565b610e9d565b34801561050d57600080fd5b506102cb61051c3660046123f5565b610ed7565b34801561052d57600080fd5b5061055861053c3660046122f9565b60cd602052600090815260409020805460019091015460ff1682565b60405161019792919061279f565b60006001600160e01b03198216637965db0b60e01b148061059757506301ffc9a760e01b6001600160e01b03198316145b92915050565b6000828152606560205260409020600101546105b9813361141c565b6105c38383611480565b505050565b6001600160a01b038116331461063d5760405162461bcd60e51b815260206004820152602f60248201527f416363657373436f6e74726f6c3a2063616e206f6e6c792072656e6f756e636560448201526e103937b632b9903337b91039b2b63360891b60648201526084015b60405180910390fd5b6106478282611506565b5050565b60008051602061289d833981519152610664813361141c565b61066c61156d565b50565b60008051602061289d833981519152610688813361141c565b6001600160a01b0384166106ea5760405162461bcd60e51b815260206004820152602360248201527f57514272696467653a20696e76616c696420726563697069656e74206164647260448201526265737360e81b6064820152608401610634565b6001600160a01b038216156107125761070d6001600160a01b0383168585611600565b61074a565b6040516001600160a01b0385169084156108fc029085906000818181858888f19350505050158015610748573d6000803e3d6000fd5b505b604080516001600160a01b038085168252861660208201529081018490527fd1ba4ac2e2a11b5101f6cb4d978f514a155b421e8ec396d2d9abaf0bb02917ee9060600160405180910390a150505050565b60975460ff16156107be5760405162461bcd60e51b8152600401610634906126db565b60c95484141561081c5760405162461bcd60e51b8152602060048201526024808201527f576f726b5175657374204272696467653a20496e76616c696420636861696e546044820152631bc81a5960e21b6064820152608401610634565b600084815260cb602052604090205460ff1661088e5760405162461bcd60e51b815260206004820152602b60248201527f576f726b5175657374204272696467653a20436861696e546f2049442069732060448201526a1b9bdd08185b1b1bddd95960aa1b6064820152608401610634565b600060cc826040516108a09190612510565b908152604051908190036020019020805490915060ff600160a01b909104166108db5760405162461bcd60e51b815260040161063490612616565b600086858560c95489876040516020016108fa969594939291906125a1565b60408051601f198184030181529190528051602090910120905060008082815260cd602052604090206001015460ff16600281111561094957634e487b7160e01b600052602160045260246000fd5b146109665760405162461bcd60e51b815260040161063490612673565b60408051808201825288815260016020808301828152600086815260cd90925293902082518155925183820180549394939192909160ff1916908360028111156109c057634e487b7160e01b600052602160045260246000fd5b0217905550508254600160b01b900460ff161590506109fc5760ca5482546109f7916001600160a01b039182169133911688611663565b610afc565b8154600160a81b900460ff1615610a9857843414610a825760405162461bcd60e51b815260206004820152603f60248201527f576f726b5175657374204272696467653a20416d6f756e742076616c7565206960448201527f73206e6f7420657175616c20746f207472616e7366657265642066756e6473006064820152608401610634565b60ca546109f7906001600160a01b03168661169b565b8154604051632770a7eb60e21b8152336004820152602481018790526001600160a01b0390911690639dc29fac90604401600060405180830381600087803b158015610ae357600080fd5b505af1158015610af7573d6000803e3d6000fd5b505050505b60c95460405133917fea842d70934a7ab216e045502125aefb31c2d7f0b93118ede85eef7b9d643fd891610b3b91429189918b918d908f908c90612753565b60405180910390a250505050505050565b60008051602061289d833981519152610b65813361141c565b6001600160a01b038216610bbb5760405162461bcd60e51b815260206004820152601e60248201527f57514272696467653a20696e76616c696420706f6f6c206164647265737300006044820152606401610634565b5060ca80546001600160a01b0319166001600160a01b0392909216919091179055565b60008051602061289d833981519152610bf7813361141c565b61066c6117b4565b60009182526065602090815260408084206001600160a01b0393909316845291905290205460ff1690565b60008051602061289d833981519152610c43813361141c565b6000825111610cb35760405162461bcd60e51b815260206004820152603660248201527f576f726b5175657374204272696467653a2053796d626f6c206c656e6774682060448201527506d7573742062652067726561746572207468616e20360541b6064820152608401610634565b6040518060800160405280876001600160a01b031681526020018615158152602001851515815260200184151581525060cc83604051610cf39190612510565b90815260408051602092819003830190208351815493850151928501516060909501516001600160a01b039091166001600160a81b031990941693909317600160a01b921515929092029190911761ffff60a81b1916600160a81b9315159390930260ff60b01b191692909217600160b01b91151591909102179055505050505050565b600054610100900460ff1680610d90575060005460ff16155b610dac5760405162461bcd60e51b815260040161063490612705565b600054610100900460ff16158015610dce576000805461ffff19166101011790555b610dd661180c565b610dde61188f565b610de96000336118f6565b610e0160008051602061289d833981519152336118f6565b610e2760008051602061287d83398151915260008051602061289d833981519152611900565b610e3f60008051602061287d833981519152836118f6565b60c984905560ca80546001600160a01b0319166001600160a01b0385161790558015610e71576000805461ff00191690555b50505050565b600082815260656020526040902060010154610e93813361141c565b6105c38383611506565b60008051602061289d833981519152610eb6813361141c565b50600091825260cb6020526040909120805460ff1916911515919091179055565b60975460ff1615610efa5760405162461bcd60e51b8152600401610634906126db565b60c954871415610f5b5760405162461bcd60e51b815260206004820152602660248201527f576f726b5175657374204272696467653a20496e76616c696420636861696e466044820152651c9bdb48125160d21b6064820152608401610634565b600087815260cb602052604090205460ff16610fcf5760405162461bcd60e51b815260206004820152602d60248201527f576f726b5175657374204272696467653a20636861696e46726f6d204944206960448201526c1cc81b9bdd08185b1b1bddd959609a1b6064820152608401610634565b60cc81604051610fdf9190612510565b9081526040519081900360200190205460ff600160a01b909104166110165760405162461bcd60e51b815260040161063490612616565b60008887878a60c95486604051602001611035969594939291906125a1565b60408051601f198184030181529190528051602090910120905060008082815260cd602052604090206001015460ff16600281111561108457634e487b7160e01b600052602160045260246000fd5b146110a15760405162461bcd60e51b815260040161063490612673565b61111860008051602061287d8339815191526103ef878787611110876040517f19457468657265756d205369676e6564204d6573736167653a0a3332000000006020820152603c8101829052600090605c01604051602081830303815290604052805190602001209050919050565b92919061194b565b6111985760405162461bcd60e51b8152602060048201526044602482018190527f576f726b5175657374204272696467653a2056616c696461746f722061646472908201527f65737320697320696e76616c6964206f72207369676e61747572652069732066606482015263185ad95960e21b608482015260a401610634565b604080518082019091528981526020810160029052600082815260cd60209081526040909120825181559082015160018083018054909160ff19909116908360028111156111f657634e487b7160e01b600052602160045260246000fd5b021790555090505060cc8260405161120e9190612510565b9081526040519081900360200190205460ff600160b01b90910416156112d35760ca546040516001600160a01b039091169063dbba0f019088908a9060cc90611258908890612510565b908152604051908190036020018120546001600160e01b031960e086901b1682526001600160a01b0393841660048301526024820192909252911660448201526064015b600060405180830381600087803b1580156112b657600080fd5b505af11580156112ca573d6000803e3d6000fd5b505050506113c2565b60cc826040516112e39190612510565b9081526040519081900360200190205460ff600160a81b90910416156113435760ca5460405163dbba0f0160e01b81526001600160a01b038881166004830152602482018a9052600060448301529091169063dbba0f019060640161129c565b60cc826040516113539190612510565b908152604051908190036020018120546340c10f1960e01b82526001600160a01b038881166004840152602483018a905216906340c10f1990604401600060405180830381600087803b1580156113a957600080fd5b505af11580156113bd573d6000803e3d6000fd5b505050505b336001600160a01b03167fb447227a69ee34b11b81842cb6c883a574cacec7fde4c8e0817d35802c5df21a42888a8c60c9548f896040516114099796959493929190612753565b60405180910390a2505050505050505050565b6114268282610bff565b6106475761143e816001600160a01b03166014611973565b611449836020611973565b60405160200161145a92919061252c565b60408051601f198184030181529082905262461bcd60e51b825261063491600401612603565b61148a8282610bff565b6106475760008281526065602090815260408083206001600160a01b03851684529091529020805460ff191660011790556114c23390565b6001600160a01b0316816001600160a01b0316837f2f8788117e7eff1d82e926ec794901d17c78024a50270940304540a733656f0d60405160405180910390a45050565b6115108282610bff565b156106475760008281526065602090815260408083206001600160a01b0385168085529252808320805460ff1916905551339285917ff6391f5c32d9c69d2a47ea670b442974b53935d1edc7fd64eb21e047a839171b9190a45050565b60975460ff166115b65760405162461bcd60e51b815260206004820152601460248201527314185d5cd8589b194e881b9bdd081c185d5cd95960621b6044820152606401610634565b6097805460ff191690557f5db9ee0a495bf2e6ff9c91a7834c1ba4fdd244a5e8aa4e537bd38aeae4b073aa335b6040516001600160a01b03909116815260200160405180910390a1565b6040516001600160a01b0383166024820152604481018290526105c390849063a9059cbb60e01b906064015b60408051601f198184030181529190526020810180516001600160e01b03166001600160e01b031990931692909217909152611b5c565b6040516001600160a01b0380851660248301528316604482015260648101829052610e719085906323b872dd60e01b9060840161162c565b804710156116eb5760405162461bcd60e51b815260206004820152601d60248201527f416464726573733a20696e73756666696369656e742062616c616e63650000006044820152606401610634565b6000826001600160a01b03168260405160006040518083038185875af1925050503d8060008114611738576040519150601f19603f3d011682016040523d82523d6000602084013e61173d565b606091505b50509050806105c35760405162461bcd60e51b815260206004820152603a60248201527f416464726573733a20756e61626c6520746f2073656e642076616c75652c207260448201527f6563697069656e74206d617920686176652072657665727465640000000000006064820152608401610634565b60975460ff16156117d75760405162461bcd60e51b8152600401610634906126db565b6097805460ff191660011790557f62e78cea01bee320cd4e420270b5ea74000d11b0c9f74754ebdbfc544b05a2586115e33390565b600054610100900460ff1680611825575060005460ff16155b6118415760405162461bcd60e51b815260040161063490612705565b600054610100900460ff16158015611863576000805461ffff19166101011790555b61186b611c2e565b611873611c2e565b61187b611c2e565b801561066c576000805461ff001916905550565b600054610100900460ff16806118a8575060005460ff16155b6118c45760405162461bcd60e51b815260040161063490612705565b600054610100900460ff161580156118e6576000805461ffff19166101011790555b6118ee611c2e565b61187b611c98565b6106478282611480565b600082815260656020526040808220600101805490849055905190918391839186917fbd79b86ffe0ab8e8776151514217cd7cacd52c909f66475c3af44e129f0b00ff9190a4505050565b600080600061195c87878787611d0d565b9150915061196981611dfa565b5095945050505050565b606060006119828360026127cb565b61198d9060026127b3565b67ffffffffffffffff8111156119b357634e487b7160e01b600052604160045260246000fd5b6040519080825280601f01601f1916602001820160405280156119dd576020820181803683370190505b509050600360fc1b81600081518110611a0657634e487b7160e01b600052603260045260246000fd5b60200101906001600160f81b031916908160001a905350600f60fb1b81600181518110611a4357634e487b7160e01b600052603260045260246000fd5b60200101906001600160f81b031916908160001a9053506000611a678460026127cb565b611a729060016127b3565b90505b6001811115611b06576f181899199a1a9b1b9c1cb0b131b232b360811b85600f1660108110611ab457634e487b7160e01b600052603260045260246000fd5b1a60f81b828281518110611ad857634e487b7160e01b600052603260045260246000fd5b60200101906001600160f81b031916908160001a90535060049490941c93611aff81612816565b9050611a75565b508315611b555760405162461bcd60e51b815260206004820181905260248201527f537472696e67733a20686578206c656e67746820696e73756666696369656e746044820152606401610634565b9392505050565b6000611bb1826040518060400160405280602081526020017f5361666545524332303a206c6f772d6c6576656c2063616c6c206661696c6564815250856001600160a01b0316611ffb9092919063ffffffff16565b8051909150156105c35780806020019051810190611bcf91906122dd565b6105c35760405162461bcd60e51b815260206004820152602a60248201527f5361666545524332303a204552433230206f7065726174696f6e20646964206e6044820152691bdd081cdd58d8d9595960b21b6064820152608401610634565b600054610100900460ff1680611c47575060005460ff16155b611c635760405162461bcd60e51b815260040161063490612705565b600054610100900460ff1615801561187b576000805461ffff1916610101179055801561066c576000805461ff001916905550565b600054610100900460ff1680611cb1575060005460ff16155b611ccd5760405162461bcd60e51b815260040161063490612705565b600054610100900460ff16158015611cef576000805461ffff19166101011790555b6097805460ff19169055801561066c576000805461ff001916905550565b6000807f7fffffffffffffffffffffffffffffff5d576e7357a4501ddfe92f46681b20a0831115611d445750600090506003611df1565b8460ff16601b14158015611d5c57508460ff16601c14155b15611d6d5750600090506004611df1565b6040805160008082526020820180845289905260ff881692820192909252606081018690526080810185905260019060a0016020604051602081039080840390855afa158015611dc1573d6000803e3d6000fd5b5050604051601f1901519150506001600160a01b038116611dea57600060019250925050611df1565b9150600090505b94509492505050565b6000816004811115611e1c57634e487b7160e01b600052602160045260246000fd5b1415611e255750565b6001816004811115611e4757634e487b7160e01b600052602160045260246000fd5b1415611e955760405162461bcd60e51b815260206004820152601860248201527f45434453413a20696e76616c6964207369676e617475726500000000000000006044820152606401610634565b6002816004811115611eb757634e487b7160e01b600052602160045260246000fd5b1415611f055760405162461bcd60e51b815260206004820152601f60248201527f45434453413a20696e76616c6964207369676e6174757265206c656e677468006044820152606401610634565b6003816004811115611f2757634e487b7160e01b600052602160045260246000fd5b1415611f805760405162461bcd60e51b815260206004820152602260248201527f45434453413a20696e76616c6964207369676e6174757265202773272076616c604482015261756560f01b6064820152608401610634565b6004816004811115611fa257634e487b7160e01b600052602160045260246000fd5b141561066c5760405162461bcd60e51b815260206004820152602260248201527f45434453413a20696e76616c6964207369676e6174757265202776272076616c604482015261756560f01b6064820152608401610634565b606061200a8484600085612012565b949350505050565b6060824710156120735760405162461bcd60e51b815260206004820152602660248201527f416464726573733a20696e73756666696369656e742062616c616e636520666f6044820152651c8818d85b1b60d21b6064820152608401610634565b843b6120c15760405162461bcd60e51b815260206004820152601d60248201527f416464726573733a2063616c6c20746f206e6f6e2d636f6e74726163740000006044820152606401610634565b600080866001600160a01b031685876040516120dd9190612510565b60006040518083038185875af1925050503d806000811461211a576040519150601f19603f3d011682016040523d82523d6000602084013e61211f565b606091505b509150915061212f82828661213a565b979650505050505050565b60608315612149575081611b55565b8251156121595782518084602001fd5b8160405162461bcd60e51b81526004016106349190612603565b600082601f830112612183578081fd5b813567ffffffffffffffff8082111561219e5761219e612843565b604051601f8301601f19908116603f011681019082821181831017156121c6576121c6612843565b816040528381528660208588010111156121de578485fd5b8360208701602083013792830160200193909352509392505050565b60006020828403121561220b578081fd5b8135611b5581612859565b60008060006060848603121561222a578182fd5b833561223581612859565b925060208401359150604084013561224c81612859565b809150509250925092565b600080600080600060a0868803121561226e578081fd5b853561227981612859565b945060208601356122898161286e565b935060408601356122998161286e565b925060608601356122a98161286e565b9150608086013567ffffffffffffffff8111156122c4578182fd5b6122d088828901612173565b9150509295509295909350565b6000602082840312156122ee578081fd5b8151611b558161286e565b60006020828403121561230a578081fd5b5035919050565b60008060408385031215612323578182fd5b82359150602083013561233581612859565b809150509250929050565b600060208284031215612351578081fd5b81356001600160e01b031981168114611b55578182fd5b600060208284031215612379578081fd5b813567ffffffffffffffff81111561238f578182fd5b61200a84828501612173565b6000806000606084860312156123af578283fd5b8335925060208401356123c181612859565b9150604084013561224c81612859565b600080604083850312156123e3578182fd5b8235915060208301356123358161286e565b600080600080600080600080610100898b031215612411578283fd5b883597506020890135965060408901359550606089013561243181612859565b9450608089013560ff81168114612446578384fd5b935060a0890135925060c0890135915060e089013567ffffffffffffffff81111561246f578182fd5b61247b8b828c01612173565b9150509295985092959890939650565b600080600080600060a086880312156124a2578283fd5b85359450602086013593506040860135925060608601356122a981612859565b600381106124e057634e487b7160e01b600052602160045260246000fd5b9052565b600081518084526124fc8160208601602086016127ea565b601f01601f19169290920160200192915050565b600082516125228184602087016127ea565b9190910192915050565b7f416363657373436f6e74726f6c3a206163636f756e74200000000000000000008152600083516125648160178501602088016127ea565b7001034b99036b4b9b9b4b733903937b6329607d1b60179184019182015283516125958160288401602088016127ea565b01602801949350505050565b8681528560208201526bffffffffffffffffffffffff198560601b166040820152836054820152826074820152600082516125e38160948501602087016127ea565b91909101609401979650505050505050565b6020810161059782846124c2565b602081526000611b5560208301846124e4565b60208082526037908201527f576f726b5175657374204272696467653a205468697320746f6b656e206e6f7460408201527f2072656769737465726564206f722064697361626c6564000000000000000000606082015260800190565b60208082526042908201527f576f726b5175657374204272696467653a2053776170206973206e6f7420656d60408201527f707479207374617465206f72206475706c6963617465207472616e736163746960608201526137b760f11b608082015260a00190565b60208082526010908201526f14185d5cd8589b194e881c185d5cd95960821b604082015260600190565b6020808252602e908201527f496e697469616c697a61626c653a20636f6e747261637420697320616c72656160408201526d191e481a5b9a5d1a585b1a5e995960921b606082015260800190565b87815260018060a01b03871660208201528560408201528460608201528360808201528260a082015260e060c0820152600061279260e08301846124e4565b9998505050505050505050565b82815260408101611b5560208301846124c2565b600082198211156127c6576127c661282d565b500190565b60008160001904831182151516156127e5576127e561282d565b500290565b60005b838110156128055781810151838201526020016127ed565b83811115610e715750506000910152565b6000816128255761282561282d565b506000190190565b634e487b7160e01b600052601160045260246000fd5b634e487b7160e01b600052604160045260246000fd5b6001600160a01b038116811461066c57600080fd5b801515811461066c57600080fdfe21702c8af46127c7fa207f89d0b0a8441bb32959a0ac7df790e9ab1a25c98926a49807205ce4d355092ef5a8a18f56e8913cf4a201fbe287825b095693c21775a264697066735822122009b52d5c19ffdf6611157b50c6985d0ff3f7fc4ed8acd17a3074bc42a311297164736f6c63430008040033",
  "linkReferences": {},
  "deployedLinkReferences": {}
}