{
  "_format": "hh-sol-artifact-1",
  "contractName": "WQSavingProduct",
  "sourceName": "contracts/WQSavingProduct.sol",
  "abi": [
    {
      "inputs": [],
      "stateMutability": "nonpayable",
      "type": "constructor"
    },
    {
      "anonymous": false,
      "inputs": [
        {
          "indexed": false,
          "internalType": "address",
          "name": "previousAdmin",
          "type": "address"
        },
        {
          "indexed": false,
          "internalType": "address",
          "name": "newAdmin",
          "type": "address"
        }
      ],
      "name": "AdminChanged",
      "type": "event"
    },
    {
      "anonymous": false,
      "inputs": [
        {
          "indexed": true,
          "internalType": "address",
          "name": "beacon",
          "type": "address"
        }
      ],
      "name": "BeaconUpgraded",
      "type": "event"
    },
    {
      "anonymous": false,
      "inputs": [
        {
          "indexed": false,
          "internalType": "address",
          "name": "user",
          "type": "address"
        },
        {
          "indexed": false,
          "internalType": "uint256",
          "name": "amount",
          "type": "uint256"
        }
      ],
      "name": "Borrowed",
      "type": "event"
    },
    {
      "anonymous": false,
      "inputs": [
        {
          "indexed": false,
          "internalType": "address",
          "name": "user",
          "type": "address"
        },
        {
          "indexed": false,
          "internalType": "uint256",
          "name": "amount",
          "type": "uint256"
        }
      ],
      "name": "Claimed",
      "type": "event"
    },
    {
      "anonymous": false,
      "inputs": [
        {
          "indexed": false,
          "internalType": "address",
          "name": "user",
          "type": "address"
        },
        {
          "indexed": false,
          "internalType": "uint256",
          "name": "amount",
          "type": "uint256"
        }
      ],
      "name": "Received",
      "type": "event"
    },
    {
      "anonymous": false,
      "inputs": [
        {
          "indexed": false,
          "internalType": "address",
          "name": "user",
          "type": "address"
        },
        {
          "indexed": false,
          "internalType": "uint256",
          "name": "amount",
          "type": "uint256"
        }
      ],
      "name": "Refunded",
      "type": "event"
    },
    {
      "anonymous": false,
      "inputs": [
        {
          "indexed": true,
          "internalType": "bytes32",
          "name": "role",
          "type": "bytes32"
        },
        {
          "indexed": true,
          "internalType": "bytes32",
          "name": "previousAdminRole",
          "type": "bytes32"
        },
        {
          "indexed": true,
          "internalType": "bytes32",
          "name": "newAdminRole",
          "type": "bytes32"
        }
      ],
      "name": "RoleAdminChanged",
      "type": "event"
    },
    {
      "anonymous": false,
      "inputs": [
        {
          "indexed": true,
          "internalType": "bytes32",
          "name": "role",
          "type": "bytes32"
        },
        {
          "indexed": true,
          "internalType": "address",
          "name": "account",
          "type": "address"
        },
        {
          "indexed": true,
          "internalType": "address",
          "name": "sender",
          "type": "address"
        }
      ],
      "name": "RoleGranted",
      "type": "event"
    },
    {
      "anonymous": false,
      "inputs": [
        {
          "indexed": true,
          "internalType": "bytes32",
          "name": "role",
          "type": "bytes32"
        },
        {
          "indexed": true,
          "internalType": "address",
          "name": "account",
          "type": "address"
        },
        {
          "indexed": true,
          "internalType": "address",
          "name": "sender",
          "type": "address"
        }
      ],
      "name": "RoleRevoked",
      "type": "event"
    },
    {
      "anonymous": false,
      "inputs": [
        {
          "indexed": true,
          "internalType": "address",
          "name": "implementation",
          "type": "address"
        }
      ],
      "name": "Upgraded",
      "type": "event"
    },
    {
      "anonymous": false,
      "inputs": [
        {
          "indexed": false,
          "internalType": "address",
          "name": "user",
          "type": "address"
        },
        {
          "indexed": false,
          "internalType": "uint256",
          "name": "amount",
          "type": "uint256"
        }
      ],
      "name": "Withdrew",
      "type": "event"
    },
    {
      "inputs": [],
      "name": "ADMIN_ROLE",
      "outputs": [
        {
          "internalType": "bytes32",
          "name": "",
          "type": "bytes32"
        }
      ],
      "stateMutability": "view",
      "type": "function"
    },
    {
      "inputs": [],
      "name": "BORROWER_ROLE",
      "outputs": [
        {
          "internalType": "bytes32",
          "name": "",
          "type": "bytes32"
        }
      ],
      "stateMutability": "view",
      "type": "function"
    },
    {
      "inputs": [],
      "name": "DEFAULT_ADMIN_ROLE",
      "outputs": [
        {
          "internalType": "bytes32",
          "name": "",
          "type": "bytes32"
        }
      ],
      "stateMutability": "view",
      "type": "function"
    },
    {
      "inputs": [],
      "name": "UPGRADER_ROLE",
      "outputs": [
        {
          "internalType": "bytes32",
          "name": "",
          "type": "bytes32"
        }
      ],
      "stateMutability": "view",
      "type": "function"
    },
    {
      "inputs": [],
      "name": "YEAR",
      "outputs": [
        {
          "internalType": "uint256",
          "name": "",
          "type": "uint256"
        }
      ],
      "stateMutability": "view",
      "type": "function"
    },
    {
      "inputs": [
        {
          "internalType": "uint256",
          "name": "",
          "type": "uint256"
        }
      ],
      "name": "apys",
      "outputs": [
        {
          "internalType": "uint256",
          "name": "",
          "type": "uint256"
        }
      ],
      "stateMutability": "view",
      "type": "function"
    },
    {
      "inputs": [],
      "name": "balanceOf",
      "outputs": [
        {
          "internalType": "uint256",
          "name": "",
          "type": "uint256"
        }
      ],
      "stateMutability": "view",
      "type": "function"
    },
    {
      "inputs": [
        {
          "internalType": "uint256",
          "name": "amount",
          "type": "uint256"
        }
      ],
      "name": "borrow",
      "outputs": [],
      "stateMutability": "nonpayable",
      "type": "function"
    },
    {
      "inputs": [],
      "name": "borrowed",
      "outputs": [
        {
          "internalType": "uint256",
          "name": "",
          "type": "uint256"
        }
      ],
      "stateMutability": "view",
      "type": "function"
    },
    {
      "inputs": [],
      "name": "claim",
      "outputs": [],
      "stateMutability": "nonpayable",
      "type": "function"
    },
    {
      "inputs": [],
      "name": "contributed",
      "outputs": [
        {
          "internalType": "uint256",
          "name": "",
          "type": "uint256"
        }
      ],
      "stateMutability": "view",
      "type": "function"
    },
    {
      "inputs": [
        {
          "internalType": "uint256",
          "name": "lockTime",
          "type": "uint256"
        }
      ],
      "name": "deposit",
      "outputs": [],
      "stateMutability": "payable",
      "type": "function"
    },
    {
      "inputs": [
        {
          "internalType": "uint256",
          "name": "amount",
          "type": "uint256"
        },
        {
          "internalType": "uint256",
          "name": "elapsedTime",
          "type": "uint256"
        },
        {
          "internalType": "uint256",
          "name": "duration",
          "type": "uint256"
        }
      ],
      "name": "getCurrentRewards",
      "outputs": [
        {
          "internalType": "uint256",
          "name": "",
          "type": "uint256"
        }
      ],
      "stateMutability": "view",
      "type": "function"
    },
    {
      "inputs": [
        {
          "internalType": "address",
          "name": "user",
          "type": "address"
        }
      ],
      "name": "getRewards",
      "outputs": [
        {
          "internalType": "uint256",
          "name": "",
          "type": "uint256"
        }
      ],
      "stateMutability": "view",
      "type": "function"
    },
    {
      "inputs": [
        {
          "internalType": "bytes32",
          "name": "role",
          "type": "bytes32"
        }
      ],
      "name": "getRoleAdmin",
      "outputs": [
        {
          "internalType": "bytes32",
          "name": "",
          "type": "bytes32"
        }
      ],
      "stateMutability": "view",
      "type": "function"
    },
    {
      "inputs": [
        {
          "internalType": "bytes32",
          "name": "role",
          "type": "bytes32"
        },
        {
          "internalType": "address",
          "name": "account",
          "type": "address"
        }
      ],
      "name": "grantRole",
      "outputs": [],
      "stateMutability": "nonpayable",
      "type": "function"
    },
    {
      "inputs": [
        {
          "internalType": "bytes32",
          "name": "role",
          "type": "bytes32"
        },
        {
          "internalType": "address",
          "name": "account",
          "type": "address"
        }
      ],
      "name": "hasRole",
      "outputs": [
        {
          "internalType": "bool",
          "name": "",
          "type": "bool"
        }
      ],
      "stateMutability": "view",
      "type": "function"
    },
    {
      "inputs": [],
      "name": "initialize",
      "outputs": [],
      "stateMutability": "nonpayable",
      "type": "function"
    },
    {
      "inputs": [],
      "name": "proxiableUUID",
      "outputs": [
        {
          "internalType": "bytes32",
          "name": "",
          "type": "bytes32"
        }
      ],
      "stateMutability": "view",
      "type": "function"
    },
    {
      "inputs": [
        {
          "internalType": "uint256",
          "name": "amount",
          "type": "uint256"
        },
        {
          "internalType": "uint256",
          "name": "elapsedTime",
          "type": "uint256"
        },
        {
          "internalType": "uint256",
          "name": "duration",
          "type": "uint256"
        }
      ],
      "name": "refund",
      "outputs": [],
      "stateMutability": "payable",
      "type": "function"
    },
    {
      "inputs": [
        {
          "internalType": "bytes32",
          "name": "role",
          "type": "bytes32"
        },
        {
          "internalType": "address",
          "name": "account",
          "type": "address"
        }
      ],
      "name": "renounceRole",
      "outputs": [],
      "stateMutability": "nonpayable",
      "type": "function"
    },
    {
      "inputs": [
        {
          "internalType": "bytes32",
          "name": "role",
          "type": "bytes32"
        },
        {
          "internalType": "address",
          "name": "account",
          "type": "address"
        }
      ],
      "name": "revokeRole",
      "outputs": [],
      "stateMutability": "nonpayable",
      "type": "function"
    },
    {
      "inputs": [],
      "name": "rewardsDistributed",
      "outputs": [
        {
          "internalType": "uint256",
          "name": "",
          "type": "uint256"
        }
      ],
      "stateMutability": "view",
      "type": "function"
    },
    {
      "inputs": [],
      "name": "rewardsPerContributed",
      "outputs": [
        {
          "internalType": "uint256",
          "name": "",
          "type": "uint256"
        }
      ],
      "stateMutability": "view",
      "type": "function"
    },
    {
      "inputs": [],
      "name": "rewardsProduced",
      "outputs": [
        {
          "internalType": "uint256",
          "name": "",
          "type": "uint256"
        }
      ],
      "stateMutability": "view",
      "type": "function"
    },
    {
      "inputs": [
        {
          "internalType": "uint256",
          "name": "duration",
          "type": "uint256"
        },
        {
          "internalType": "uint256",
          "name": "apy",
          "type": "uint256"
        }
      ],
      "name": "setApy",
      "outputs": [],
      "stateMutability": "nonpayable",
      "type": "function"
    },
    {
      "inputs": [
        {
          "internalType": "bytes4",
          "name": "interfaceId",
          "type": "bytes4"
        }
      ],
      "name": "supportsInterface",
      "outputs": [
        {
          "internalType": "bool",
          "name": "",
          "type": "bool"
        }
      ],
      "stateMutability": "view",
      "type": "function"
    },
    {
      "inputs": [
        {
          "internalType": "address",
          "name": "newImplementation",
          "type": "address"
        }
      ],
      "name": "upgradeTo",
      "outputs": [],
      "stateMutability": "nonpayable",
      "type": "function"
    },
    {
      "inputs": [
        {
          "internalType": "address",
          "name": "newImplementation",
          "type": "address"
        },
        {
          "internalType": "bytes",
          "name": "data",
          "type": "bytes"
        }
      ],
      "name": "upgradeToAndCall",
      "outputs": [],
      "stateMutability": "payable",
      "type": "function"
    },
    {
      "inputs": [
        {
          "internalType": "address",
          "name": "",
          "type": "address"
        }
      ],
      "name": "wallets",
      "outputs": [
        {
          "internalType": "uint256",
          "name": "amount",
          "type": "uint256"
        },
        {
          "internalType": "uint256",
          "name": "rewardAllowed",
          "type": "uint256"
        },
        {
          "internalType": "uint256",
          "name": "rewardDebt",
          "type": "uint256"
        },
        {
          "internalType": "uint256",
          "name": "rewardDistributed",
          "type": "uint256"
        },
        {
          "internalType": "uint256",
          "name": "unlockDate",
          "type": "uint256"
        },
        {
          "internalType": "uint256",
          "name": "duration",
          "type": "uint256"
        }
      ],
      "stateMutability": "view",
      "type": "function"
    },
    {
      "inputs": [
        {
          "internalType": "uint256",
          "name": "amount",
          "type": "uint256"
        }
      ],
      "name": "withdraw",
      "outputs": [],
      "stateMutability": "nonpayable",
      "type": "function"
    }
  ],
  "bytecode": "0x60a0604052306080523480156200001557600080fd5b50600054610100900460ff16620000335760005460ff16156200003d565b6200003d620000e2565b620000a55760405162461bcd60e51b815260206004820152602e60248201527f496e697469616c697a61626c653a20636f6e747261637420697320616c72656160448201526d191e481a5b9a5d1a585b1a5e995960921b606482015260840160405180910390fd5b600054610100900460ff16158015620000c8576000805461ffff19166101011790555b8015620000db576000805461ff00191690555b506200010f565b6000620000fa306200010060201b620013031760201c565b15905090565b6001600160a01b03163b151590565b608051612119620001476000396000818161089a015281816108da01528181610a6001528181610aa00152610b2f01526121196000f3fe6080604052600436106101d85760003560e01c806375b238fc11610102578063a217fddf11610095578063d547741f11610064578063d547741f14610561578063daf8bc1014610581578063f19bb917146105a1578063f72c0d8b146105c157600080fd5b8063a217fddf14610506578063af191a0c1461051b578063b6b55f251461052e578063c5ebeaec1461054157600080fd5b806383914540116100d1578063839145401461043957806389b08f111461045157806391d14854146104cf5780639c1454d4146104ef57600080fd5b806375b238fc146103b457806379ee54f7146103d65780638129fc1c146103f657806381ce1c231461040b57600080fd5b80633659cfe61161017a57806352d1902d1161014957806352d1902d1461035c57806353b966571461037157806369609c4214610388578063722713f71461039f57600080fd5b80633659cfe6146102fd57806344c56e591461031d5780634e71d92d146103345780634f1ef2861461034957600080fd5b8063248a9ca3116101b6578063248a9ca31461026b5780632e1a7d4d1461029b5780632f2ff15d146102bd57806336568abe146102dd57600080fd5b806301ffc9a7146101dd5780630e7b949e14610212578063112f190714610254575b600080fd5b3480156101e957600080fd5b506101fd6101f8366004611bba565b6105e3565b60405190151581526020015b60405180910390f35b34801561021e57600080fd5b506102467f2344277e405079ec07749d374ba0b5862a4e45a6a05ac889dbb4a991c6f9354d81565b604051908152602001610209565b34801561026057600080fd5b5061024661012d5481565b34801561027757600080fd5b50610246610286366004611be4565b60009081526065602052604090206001015490565b3480156102a757600080fd5b506102bb6102b6366004611be4565b61061a565b005b3480156102c957600080fd5b506102bb6102d8366004611c19565b6107e6565b3480156102e957600080fd5b506102bb6102f8366004611c19565b610811565b34801561030957600080fd5b506102bb610318366004611c45565b61088f565b34801561032957600080fd5b5061024661012f5481565b34801561034057600080fd5b506102bb61096f565b6102bb610357366004611c76565b610a55565b34801561036857600080fd5b50610246610b22565b34801561037d57600080fd5b5061024661012e5481565b34801561039457600080fd5b506102466101315481565b3480156103ab57600080fd5b50610246610bd5565b3480156103c057600080fd5b506102466000805160206120c483398151915281565b3480156103e257600080fd5b506102466103f1366004611c45565b610bee565b34801561040257600080fd5b506102bb610c5f565b34801561041757600080fd5b50610246610426366004611be4565b6101326020526000908152604090205481565b34801561044557600080fd5b506102466301e1338081565b34801561045d57600080fd5b506104a261046c366004611c45565b61013360205260009081526040902080546001820154600283015460038401546004850154600590950154939492939192909186565b604080519687526020870195909552938501929092526060840152608083015260a082015260c001610209565b3480156104db57600080fd5b506101fd6104ea366004611c19565b610d90565b3480156104fb57600080fd5b506102466101305481565b34801561051257600080fd5b50610246600081565b6102bb610529366004611d38565b610dbb565b6102bb61053c366004611be4565b610fd6565b34801561054d57600080fd5b506102bb61055c366004611be4565b611146565b34801561056d57600080fd5b506102bb61057c366004611c19565b61125f565b34801561058d57600080fd5b506102bb61059c366004611d64565b611285565b3480156105ad57600080fd5b506102466105bc366004611d38565b6112b2565b3480156105cd57600080fd5b5061024660008051602061205d83398151915281565b60006001600160e01b03198216637965db0b60e01b148061061457506301ffc9a760e01b6001600160e01b03198316145b92915050565b600260975414156106465760405162461bcd60e51b815260040161063d90611d86565b60405180910390fd5b60026097553360009081526101336020526040902060048101544210156106c25760405162461bcd60e51b815260206004820152602a60248201527f5751536176696e6750726f647563743a204c6f636b2074696d65206973206e6f6044820152691d081bdd995c881e595d60b21b606482015260840161063d565b805482111561071e5760405162461bcd60e51b815260206004820152602260248201527f5751536176696e6750726f647563743a20416d6f756e7420697320696e76616c6044820152611a5960f21b606482015260840161063d565b68056bc75e2d6310000061012e54836107379190611dd3565b6107419190611df2565b8160010160008282546107549190611e14565b909155505080548290829060009061076d908490611e2c565b9091555050805461078057600060048201555b8161012d60008282546107939190611e2c565b909155506107a390503383611312565b60408051338152602081018490527fb244b9a17ad633c6e83b7983ee04320484956a68ddbe96a0b70dfca1cf19d72391015b60405180910390a150506001609755565b600082815260656020526040902060010154610802813361142b565b61080c838361148f565b505050565b6001600160a01b03811633146108815760405162461bcd60e51b815260206004820152602f60248201527f416363657373436f6e74726f6c3a2063616e206f6e6c792072656e6f756e636560448201526e103937b632b9903337b91039b2b63360891b606482015260840161063d565b61088b8282611515565b5050565b306001600160a01b037f00000000000000000000000000000000000000000000000000000000000000001614156108d85760405162461bcd60e51b815260040161063d90611e43565b7f00000000000000000000000000000000000000000000000000000000000000006001600160a01b031661092160008051602061207d833981519152546001600160a01b031690565b6001600160a01b0316146109475760405162461bcd60e51b815260040161063d90611e8f565b6109508161157c565b6040805160008082526020820190925261096c91839190611595565b50565b600260975414156109925760405162461bcd60e51b815260040161063d90611d86565b600260975533600090815261013360205260409020600401544210156109b757600080fd5b60006109c233610bee565b33600090815261013360205260408120600301805492935083929091906109ea908490611e14565b92505081905550806101306000828254610a049190611e14565b90915550610a1490503382611312565b60408051338152602081018390527fd8138f8a3f377c5259ca548e70e4c2de94f129f5a11036a15b69513cba2b426a910160405180910390a1506001609755565b306001600160a01b037f0000000000000000000000000000000000000000000000000000000000000000161415610a9e5760405162461bcd60e51b815260040161063d90611e43565b7f00000000000000000000000000000000000000000000000000000000000000006001600160a01b0316610ae760008051602061207d833981519152546001600160a01b031690565b6001600160a01b031614610b0d5760405162461bcd60e51b815260040161063d90611e8f565b610b168261157c565b61088b82826001611595565b6000306001600160a01b037f00000000000000000000000000000000000000000000000000000000000000001614610bc25760405162461bcd60e51b815260206004820152603860248201527f555550535570677261646561626c653a206d757374206e6f742062652063616c60448201527f6c6564207468726f7567682064656c656761746563616c6c0000000000000000606482015260840161063d565b5060008051602061207d83398151915290565b60006101315461012d54610be99190611e2c565b905090565b6001600160a01b03811660009081526101336020526040812060028101546003820154600183015461012e54845468056bc75e2d6310000091610c3091611dd3565b610c3a9190611df2565b610c449190611e14565b610c4e9190611e2c565b610c589190611e2c565b9392505050565b600054610100900460ff16610c7a5760005460ff1615610c7e565b303b155b610ce15760405162461bcd60e51b815260206004820152602e60248201527f496e697469616c697a61626c653a20636f6e747261637420697320616c72656160448201526d191e481a5b9a5d1a585b1a5e995960921b606482015260840161063d565b600054610100900460ff16158015610d03576000805461ffff19166101011790555b610d0b61170f565b610d13611738565b610d1b61170f565b610d26600033611767565b610d3e6000805160206120c483398151915233611767565b610d5660008051602061205d83398151915233611767565b610d7c60008051602061205d8339815191526000805160206120c4833981519152611771565b801561096c576000805461ff001916905550565b60009182526065602090815260408084206001600160a01b0393909316845291905290205460ff1690565b60026097541415610dde5760405162461bcd60e51b815260040161063d90611d86565b60026097557f2344277e405079ec07749d374ba0b5862a4e45a6a05ac889dbb4a991c6f9354d610e0e813361142b565b60008281526101326020526040902054610e745760405162461bcd60e51b815260206004820152602160248201527f5751536176696e6750726f647563743a20696e76616c6964206475726174696f6044820152603760f91b606482015260840161063d565b6000610e808534611e2c565b600084815261013260205260409020549091506301e1338090610ea4908690611dd3565b610eae9190611df2565b85610ec183670de0b6b3a7640000611dd3565b610ecb9190611df2565b1015610f275760405162461bcd60e51b815260206004820152602560248201527f5751536176696e6750726f647563743a20496e73756666696369656e74207265604482015264776172647360d81b606482015260840161063d565b846101316000828254610f3a9190611e2c565b925050819055508061012f6000828254610f549190611e14565b909155505061012d54610f708268056bc75e2d63100000611dd3565b610f7a9190611df2565b61012e6000828254610f8c9190611e14565b909155505060408051338152602081018790527fd7dee2702d63ad89917b6a4da9981c90c4d24f8c2bdfd64c604ecae57d8d0651910160405180910390a150506001609755505050565b60026097541415610ff95760405162461bcd60e51b815260040161063d90611d86565b6002609755600081815261013260205260409020546110665760405162461bcd60e51b8152602060048201526024808201527f5751536176696e6750726f647563743a206c6f636b54696d6520697320696e76604482015263185b1a5960e21b606482015260840161063d565b3360009081526101336020526040902060048101546110a35761108c8262015180611dd3565b6110969042611e14565b6004820155600581018290555b68056bc75e2d6310000061012e54346110bc9190611dd3565b6110c69190611df2565b8160020160008282546110d99190611e14565b90915550508054349082906000906110f2908490611e14565b925050819055503461012d600082825461110c9190611e14565b9091555050604080513381523460208201527f88a5966d370b9919b20f3e2c13ff65706f196a4e32cc2c12bf57088f8852587491016107d5565b600260975414156111695760405162461bcd60e51b815260040161063d90611d86565b60026097557f2344277e405079ec07749d374ba0b5862a4e45a6a05ac889dbb4a991c6f9354d611199813361142b565b6101315461012d546111ab9190611e2c565b8211156112065760405162461bcd60e51b8152602060048201526024808201527f5751536176696e6750726f647563743a20496e73756666696369656e7420616d6044820152631bdd5b9d60e21b606482015260840161063d565b8161013160008282546112199190611e14565b9091555061122990503383611312565b60408051338152602081018490527fac59582e5396aca512fa873a2047e7f4c80f8f55d4a06cb34a78a0187f62719f91016107d5565b60008281526065602052604090206001015461127b813361142b565b61080c8383611515565b6000805160206120c483398151915261129e813361142b565b506000918252610132602052604090912055565b60008181526101326020526040812054670de0b6b3a7640000906301e13380906112dd908690611dd3565b6112e79087611dd3565b6112f19190611df2565b6112fb9190611df2565b949350505050565b6001600160a01b03163b151590565b804710156113625760405162461bcd60e51b815260206004820152601d60248201527f416464726573733a20696e73756666696369656e742062616c616e6365000000604482015260640161063d565b6000826001600160a01b03168260405160006040518083038185875af1925050503d80600081146113af576040519150601f19603f3d011682016040523d82523d6000602084013e6113b4565b606091505b505090508061080c5760405162461bcd60e51b815260206004820152603a60248201527f416464726573733a20756e61626c6520746f2073656e642076616c75652c207260448201527f6563697069656e74206d61792068617665207265766572746564000000000000606482015260840161063d565b6114358282610d90565b61088b5761144d816001600160a01b031660146117bc565b6114588360206117bc565b604051602001611469929190611f07565b60408051601f198184030181529082905262461bcd60e51b825261063d91600401611f7c565b6114998282610d90565b61088b5760008281526065602090815260408083206001600160a01b03851684529091529020805460ff191660011790556114d13390565b6001600160a01b0316816001600160a01b0316837f2f8788117e7eff1d82e926ec794901d17c78024a50270940304540a733656f0d60405160405180910390a45050565b61151f8282610d90565b1561088b5760008281526065602090815260408083206001600160a01b0385168085529252808320805460ff1916905551339285917ff6391f5c32d9c69d2a47ea670b442974b53935d1edc7fd64eb21e047a839171b9190a45050565b60008051602061205d83398151915261088b813361142b565b7f4910fdfa16fed3260ed0e7147f7cc6da11a60208b5b9406d12a635614ffd91435460ff16156115c85761080c83611958565b826001600160a01b03166352d1902d6040518163ffffffff1660e01b815260040160206040518083038186803b15801561160157600080fd5b505afa925050508015611631575060408051601f3d908101601f1916820190925261162e91810190611faf565b60015b6116945760405162461bcd60e51b815260206004820152602e60248201527f45524331393637557067726164653a206e657720696d706c656d656e7461746960448201526d6f6e206973206e6f74205555505360901b606482015260840161063d565b60008051602061207d83398151915281146117035760405162461bcd60e51b815260206004820152602960248201527f45524331393637557067726164653a20756e737570706f727465642070726f786044820152681a58589b195555525160ba1b606482015260840161063d565b5061080c8383836119f4565b600054610100900460ff166117365760405162461bcd60e51b815260040161063d90611fc8565b565b600054610100900460ff1661175f5760405162461bcd60e51b815260040161063d90611fc8565b611736611a1f565b61088b828261148f565b600082815260656020526040808220600101805490849055905190918391839186917fbd79b86ffe0ab8e8776151514217cd7cacd52c909f66475c3af44e129f0b00ff9190a4505050565b606060006117cb836002611dd3565b6117d6906002611e14565b67ffffffffffffffff8111156117ee576117ee611c60565b6040519080825280601f01601f191660200182016040528015611818576020820181803683370190505b509050600360fc1b8160008151811061183357611833612013565b60200101906001600160f81b031916908160001a905350600f60fb1b8160018151811061186257611862612013565b60200101906001600160f81b031916908160001a9053506000611886846002611dd3565b611891906001611e14565b90505b6001811115611909576f181899199a1a9b1b9c1cb0b131b232b360811b85600f16601081106118c5576118c5612013565b1a60f81b8282815181106118db576118db612013565b60200101906001600160f81b031916908160001a90535060049490941c9361190281612029565b9050611894565b508315610c585760405162461bcd60e51b815260206004820181905260248201527f537472696e67733a20686578206c656e67746820696e73756666696369656e74604482015260640161063d565b6001600160a01b0381163b6119c55760405162461bcd60e51b815260206004820152602d60248201527f455243313936373a206e657720696d706c656d656e746174696f6e206973206e60448201526c1bdd08184818dbdb9d1c9858dd609a1b606482015260840161063d565b60008051602061207d83398151915280546001600160a01b0319166001600160a01b0392909216919091179055565b6119fd83611a4d565b600082511180611a0a5750805b1561080c57611a198383611a8d565b50505050565b600054610100900460ff16611a465760405162461bcd60e51b815260040161063d90611fc8565b6001609755565b611a5681611958565b6040516001600160a01b038216907fbc7cd75a20ee27fd9adebab32041f755214dbc6bffa90cc0225b39da2e5c2d3b90600090a250565b60606001600160a01b0383163b611af55760405162461bcd60e51b815260206004820152602660248201527f416464726573733a2064656c65676174652063616c6c20746f206e6f6e2d636f6044820152651b9d1c9858dd60d21b606482015260840161063d565b600080846001600160a01b031684604051611b109190612040565b600060405180830381855af49150503d8060008114611b4b576040519150601f19603f3d011682016040523d82523d6000602084013e611b50565b606091505b5091509150611b78828260405180606001604052806027815260200161209d60279139611b81565b95945050505050565b60608315611b90575081610c58565b825115611ba05782518084602001fd5b8160405162461bcd60e51b815260040161063d9190611f7c565b600060208284031215611bcc57600080fd5b81356001600160e01b031981168114610c5857600080fd5b600060208284031215611bf657600080fd5b5035919050565b80356001600160a01b0381168114611c1457600080fd5b919050565b60008060408385031215611c2c57600080fd5b82359150611c3c60208401611bfd565b90509250929050565b600060208284031215611c5757600080fd5b610c5882611bfd565b634e487b7160e01b600052604160045260246000fd5b60008060408385031215611c8957600080fd5b611c9283611bfd565b9150602083013567ffffffffffffffff80821115611caf57600080fd5b818501915085601f830112611cc357600080fd5b813581811115611cd557611cd5611c60565b604051601f8201601f19908116603f01168101908382118183101715611cfd57611cfd611c60565b81604052828152886020848701011115611d1657600080fd5b8260208601602083013760006020848301015280955050505050509250929050565b600080600060608486031215611d4d57600080fd5b505081359360208301359350604090920135919050565b60008060408385031215611d7757600080fd5b50508035926020909101359150565b6020808252601f908201527f5265656e7472616e637947756172643a207265656e7472616e742063616c6c00604082015260600190565b634e487b7160e01b600052601160045260246000fd5b6000816000190483118215151615611ded57611ded611dbd565b500290565b600082611e0f57634e487b7160e01b600052601260045260246000fd5b500490565b60008219821115611e2757611e27611dbd565b500190565b600082821015611e3e57611e3e611dbd565b500390565b6020808252602c908201527f46756e6374696f6e206d7573742062652063616c6c6564207468726f7567682060408201526b19195b1959d85d1958d85b1b60a21b606082015260800190565b6020808252602c908201527f46756e6374696f6e206d7573742062652063616c6c6564207468726f7567682060408201526b6163746976652070726f787960a01b606082015260800190565b60005b83811015611ef6578181015183820152602001611ede565b83811115611a195750506000910152565b7f416363657373436f6e74726f6c3a206163636f756e7420000000000000000000815260008351611f3f816017850160208801611edb565b7001034b99036b4b9b9b4b733903937b6329607d1b6017918401918201528351611f70816028840160208801611edb565b01602801949350505050565b6020815260008251806020840152611f9b816040850160208701611edb565b601f01601f19169190910160400192915050565b600060208284031215611fc157600080fd5b5051919050565b6020808252602b908201527f496e697469616c697a61626c653a20636f6e7472616374206973206e6f74206960408201526a6e697469616c697a696e6760a81b606082015260800190565b634e487b7160e01b600052603260045260246000fd5b60008161203857612038611dbd565b506000190190565b60008251612052818460208701611edb565b919091019291505056fe189ab7a9244df0848122154315af71fe140f3db0fe014031783b0946b8c9d2e3360894a13ba1a3210667c828492db98dca3e2076cc3735a920a3ca505d382bbc416464726573733a206c6f772d6c6576656c2064656c65676174652063616c6c206661696c6564a49807205ce4d355092ef5a8a18f56e8913cf4a201fbe287825b095693c21775a2646970667358221220cda7267da73135b48428d5461ad890eef485b4bc4731de9db61070d35fd4ad4464736f6c63430008090033",
  "linkReferences": {},
  "deployedLinkReferences": {}
}