{
  "_format": "hh-sol-artifact-1",
  "contractName": "WQReferral",
  "sourceName": "contracts/WQReferral.sol",
  "abi": [
    {
      "inputs": [],
      "stateMutability": "nonpayable",
      "type": "constructor"
    },
    {
      "anonymous": false,
      "inputs": [
        {
          "indexed": false,
          "internalType": "address",
          "name": "previousAdmin",
          "type": "address"
        },
        {
          "indexed": false,
          "internalType": "address",
          "name": "newAdmin",
          "type": "address"
        }
      ],
      "name": "AdminChanged",
      "type": "event"
    },
    {
      "anonymous": false,
      "inputs": [
        {
          "indexed": true,
          "internalType": "address",
          "name": "beacon",
          "type": "address"
        }
      ],
      "name": "BeaconUpgraded",
      "type": "event"
    },
    {
      "anonymous": false,
      "inputs": [
        {
          "indexed": false,
          "internalType": "address",
          "name": "referral",
          "type": "address"
        },
        {
          "indexed": false,
          "internalType": "address",
          "name": "affiliate",
          "type": "address"
        },
        {
          "indexed": false,
          "internalType": "uint256",
          "name": "amount",
          "type": "uint256"
        }
      ],
      "name": "PaidReferral",
      "type": "event"
    },
    {
      "anonymous": false,
      "inputs": [
        {
          "indexed": false,
          "internalType": "uint256",
          "name": "amount",
          "type": "uint256"
        }
      ],
      "name": "Received",
      "type": "event"
    },
    {
      "anonymous": false,
      "inputs": [
        {
          "indexed": false,
          "internalType": "address",
          "name": "referral",
          "type": "address"
        },
        {
          "indexed": false,
          "internalType": "address",
          "name": "affiliate",
          "type": "address"
        }
      ],
      "name": "RegisteredAffiliat",
      "type": "event"
    },
    {
      "anonymous": false,
      "inputs": [
        {
          "indexed": false,
          "internalType": "address",
          "name": "affiliate",
          "type": "address"
        },
        {
          "indexed": false,
          "internalType": "uint256",
          "name": "amount",
          "type": "uint256"
        }
      ],
      "name": "RewardClaimed",
      "type": "event"
    },
    {
      "anonymous": false,
      "inputs": [
        {
          "indexed": true,
          "internalType": "bytes32",
          "name": "role",
          "type": "bytes32"
        },
        {
          "indexed": true,
          "internalType": "bytes32",
          "name": "previousAdminRole",
          "type": "bytes32"
        },
        {
          "indexed": true,
          "internalType": "bytes32",
          "name": "newAdminRole",
          "type": "bytes32"
        }
      ],
      "name": "RoleAdminChanged",
      "type": "event"
    },
    {
      "anonymous": false,
      "inputs": [
        {
          "indexed": true,
          "internalType": "bytes32",
          "name": "role",
          "type": "bytes32"
        },
        {
          "indexed": true,
          "internalType": "address",
          "name": "account",
          "type": "address"
        },
        {
          "indexed": true,
          "internalType": "address",
          "name": "sender",
          "type": "address"
        }
      ],
      "name": "RoleGranted",
      "type": "event"
    },
    {
      "anonymous": false,
      "inputs": [
        {
          "indexed": true,
          "internalType": "bytes32",
          "name": "role",
          "type": "bytes32"
        },
        {
          "indexed": true,
          "internalType": "address",
          "name": "account",
          "type": "address"
        },
        {
          "indexed": true,
          "internalType": "address",
          "name": "sender",
          "type": "address"
        }
      ],
      "name": "RoleRevoked",
      "type": "event"
    },
    {
      "anonymous": false,
      "inputs": [
        {
          "indexed": true,
          "internalType": "address",
          "name": "implementation",
          "type": "address"
        }
      ],
      "name": "Upgraded",
      "type": "event"
    },
    {
      "inputs": [],
      "name": "ADMIN_ROLE",
      "outputs": [
        {
          "internalType": "bytes32",
          "name": "",
          "type": "bytes32"
        }
      ],
      "stateMutability": "view",
      "type": "function"
    },
    {
      "inputs": [],
      "name": "DEFAULT_ADMIN_ROLE",
      "outputs": [
        {
          "internalType": "bytes32",
          "name": "",
          "type": "bytes32"
        }
      ],
      "stateMutability": "view",
      "type": "function"
    },
    {
      "inputs": [],
      "name": "SERVICE_ROLE",
      "outputs": [
        {
          "internalType": "bytes32",
          "name": "",
          "type": "bytes32"
        }
      ],
      "stateMutability": "view",
      "type": "function"
    },
    {
      "inputs": [],
      "name": "UPGRADER_ROLE",
      "outputs": [
        {
          "internalType": "bytes32",
          "name": "",
          "type": "bytes32"
        }
      ],
      "stateMutability": "view",
      "type": "function"
    },
    {
      "inputs": [
        {
          "internalType": "uint8",
          "name": "v",
          "type": "uint8"
        },
        {
          "internalType": "bytes32",
          "name": "r",
          "type": "bytes32"
        },
        {
          "internalType": "bytes32",
          "name": "s",
          "type": "bytes32"
        },
        {
          "internalType": "address[]",
          "name": "referral",
          "type": "address[]"
        }
      ],
      "name": "addReferrals",
      "outputs": [],
      "stateMutability": "nonpayable",
      "type": "function"
    },
    {
      "inputs": [
        {
          "internalType": "address",
          "name": "referral",
          "type": "address"
        },
        {
          "internalType": "uint256",
          "name": "earnedAmount",
          "type": "uint256"
        }
      ],
      "name": "calcReferral",
      "outputs": [],
      "stateMutability": "nonpayable",
      "type": "function"
    },
    {
      "inputs": [],
      "name": "claim",
      "outputs": [],
      "stateMutability": "nonpayable",
      "type": "function"
    },
    {
      "inputs": [
        {
          "internalType": "address",
          "name": "referral",
          "type": "address"
        }
      ],
      "name": "delAffiliate",
      "outputs": [],
      "stateMutability": "nonpayable",
      "type": "function"
    },
    {
      "inputs": [],
      "name": "earnedThreshold",
      "outputs": [
        {
          "internalType": "uint256",
          "name": "",
          "type": "uint256"
        }
      ],
      "stateMutability": "view",
      "type": "function"
    },
    {
      "inputs": [],
      "name": "factory",
      "outputs": [
        {
          "internalType": "contract WorkQuestFactory",
          "name": "",
          "type": "address"
        }
      ],
      "stateMutability": "view",
      "type": "function"
    },
    {
      "inputs": [
        {
          "internalType": "address",
          "name": "user",
          "type": "address"
        }
      ],
      "name": "getRewards",
      "outputs": [
        {
          "internalType": "uint256",
          "name": "",
          "type": "uint256"
        }
      ],
      "stateMutability": "view",
      "type": "function"
    },
    {
      "inputs": [
        {
          "internalType": "bytes32",
          "name": "role",
          "type": "bytes32"
        }
      ],
      "name": "getRoleAdmin",
      "outputs": [
        {
          "internalType": "bytes32",
          "name": "",
          "type": "bytes32"
        }
      ],
      "stateMutability": "view",
      "type": "function"
    },
    {
      "inputs": [
        {
          "internalType": "bytes32",
          "name": "role",
          "type": "bytes32"
        },
        {
          "internalType": "address",
          "name": "account",
          "type": "address"
        }
      ],
      "name": "grantRole",
      "outputs": [],
      "stateMutability": "nonpayable",
      "type": "function"
    },
    {
      "inputs": [
        {
          "internalType": "bytes32",
          "name": "role",
          "type": "bytes32"
        },
        {
          "internalType": "address",
          "name": "account",
          "type": "address"
        }
      ],
      "name": "hasRole",
      "outputs": [
        {
          "internalType": "bool",
          "name": "",
          "type": "bool"
        }
      ],
      "stateMutability": "view",
      "type": "function"
    },
    {
      "inputs": [
        {
          "internalType": "address",
          "name": "_oracle",
          "type": "address"
        },
        {
          "internalType": "address",
          "name": "_service",
          "type": "address"
        },
        {
          "internalType": "uint256",
          "name": "_referralBonus",
          "type": "uint256"
        },
        {
          "internalType": "uint256",
          "name": "_earnedThreshold",
          "type": "uint256"
        }
      ],
      "name": "initialize",
      "outputs": [],
      "stateMutability": "nonpayable",
      "type": "function"
    },
    {
      "inputs": [],
      "name": "oracle",
      "outputs": [
        {
          "internalType": "contract WQPriceOracleInterface",
          "name": "",
          "type": "address"
        }
      ],
      "stateMutability": "view",
      "type": "function"
    },
    {
      "inputs": [],
      "name": "proxiableUUID",
      "outputs": [
        {
          "internalType": "bytes32",
          "name": "",
          "type": "bytes32"
        }
      ],
      "stateMutability": "view",
      "type": "function"
    },
    {
      "inputs": [],
      "name": "referralBonus",
      "outputs": [
        {
          "internalType": "uint256",
          "name": "",
          "type": "uint256"
        }
      ],
      "stateMutability": "view",
      "type": "function"
    },
    {
      "inputs": [
        {
          "internalType": "address",
          "name": "",
          "type": "address"
        }
      ],
      "name": "referrals",
      "outputs": [
        {
          "internalType": "address",
          "name": "affiliat",
          "type": "address"
        },
        {
          "internalType": "uint256",
          "name": "earnedAmount",
          "type": "uint256"
        },
        {
          "internalType": "uint256",
          "name": "rewardTotal",
          "type": "uint256"
        },
        {
          "internalType": "uint256",
          "name": "rewardPaid",
          "type": "uint256"
        },
        {
          "internalType": "uint256",
          "name": "referredCount",
          "type": "uint256"
        },
        {
          "internalType": "bool",
          "name": "paid",
          "type": "bool"
        }
      ],
      "stateMutability": "view",
      "type": "function"
    },
    {
      "inputs": [
        {
          "internalType": "bytes32",
          "name": "role",
          "type": "bytes32"
        },
        {
          "internalType": "address",
          "name": "account",
          "type": "address"
        }
      ],
      "name": "renounceRole",
      "outputs": [],
      "stateMutability": "nonpayable",
      "type": "function"
    },
    {
      "inputs": [
        {
          "internalType": "bytes32",
          "name": "role",
          "type": "bytes32"
        },
        {
          "internalType": "address",
          "name": "account",
          "type": "address"
        }
      ],
      "name": "revokeRole",
      "outputs": [],
      "stateMutability": "nonpayable",
      "type": "function"
    },
    {
      "inputs": [
        {
          "internalType": "address",
          "name": "referral",
          "type": "address"
        }
      ],
      "name": "setEarned",
      "outputs": [],
      "stateMutability": "nonpayable",
      "type": "function"
    },
    {
      "inputs": [
        {
          "internalType": "uint256",
          "name": "_earnedThreshold",
          "type": "uint256"
        }
      ],
      "name": "setEarnedThreshold",
      "outputs": [],
      "stateMutability": "nonpayable",
      "type": "function"
    },
    {
      "inputs": [
        {
          "internalType": "address",
          "name": "_factory",
          "type": "address"
        }
      ],
      "name": "setFactory",
      "outputs": [],
      "stateMutability": "nonpayable",
      "type": "function"
    },
    {
      "inputs": [
        {
          "internalType": "address",
          "name": "_oracle",
          "type": "address"
        }
      ],
      "name": "setOracle",
      "outputs": [],
      "stateMutability": "nonpayable",
      "type": "function"
    },
    {
      "inputs": [
        {
          "internalType": "uint256",
          "name": "_referralBonus",
          "type": "uint256"
        }
      ],
      "name": "setReferralBonus",
      "outputs": [],
      "stateMutability": "nonpayable",
      "type": "function"
    },
    {
      "inputs": [
        {
          "internalType": "bytes4",
          "name": "interfaceId",
          "type": "bytes4"
        }
      ],
      "name": "supportsInterface",
      "outputs": [
        {
          "internalType": "bool",
          "name": "",
          "type": "bool"
        }
      ],
      "stateMutability": "view",
      "type": "function"
    },
    {
      "inputs": [
        {
          "internalType": "address",
          "name": "newImplementation",
          "type": "address"
        }
      ],
      "name": "upgradeTo",
      "outputs": [],
      "stateMutability": "nonpayable",
      "type": "function"
    },
    {
      "inputs": [
        {
          "internalType": "address",
          "name": "newImplementation",
          "type": "address"
        },
        {
          "internalType": "bytes",
          "name": "data",
          "type": "bytes"
        }
      ],
      "name": "upgradeToAndCall",
      "outputs": [],
      "stateMutability": "payable",
      "type": "function"
    },
    {
      "stateMutability": "payable",
      "type": "receive"
    }
  ],
  "bytecode": "0x60a0604052306080523480156200001557600080fd5b50600054610100900460ff16620000335760005460ff16156200003d565b6200003d620000e2565b620000a55760405162461bcd60e51b815260206004820152602e60248201527f496e697469616c697a61626c653a20636f6e747261637420697320616c72656160448201526d191e481a5b9a5d1a585b1a5e995960921b606482015260840160405180910390fd5b600054610100900460ff16158015620000c8576000805461ffff19166101011790555b8015620000db576000805461ff00191690555b506200010f565b6000620000fa306200010060201b620016971760201c565b15905090565b6001600160a01b03163b151590565b6080516128d762000147600039600081816109140152818161095401528181610c6701528181610ca70152610d3601526128d76000f3fe6080604052600436106101c65760003560e01c80637adbf973116100f7578063b3dadae911610095578063ce7842f511610064578063ce7842f5146105b8578063d547741f146105cf578063eb990c59146105ef578063f72c0d8b1461060f57600080fd5b8063b3dadae914610540578063beae308e14610560578063c45a015514610577578063c5e7ea231461059857600080fd5b80639a037aa0116100d15780639a037aa0146104525780639ca423b314610472578063a20e7d4714610509578063a217fddf1461052b57600080fd5b80637adbf973146103d95780637dc0d1d0146103f957806391d148541461043257600080fd5b80633a1808e41161016457806352d1902d1161013e57806352d1902d146103625780635bb478081461037757806375b238fc1461039757806379ee54f7146103b957600080fd5b80633a1808e41461031a5780634e71d92d1461033a5780634f1ef2861461034f57600080fd5b80632a64d4f9116101a05780632a64d4f91461029a5780632f2ff15d146102ba57806336568abe146102da5780633659cfe6146102fa57600080fd5b806301ffc9a714610205578063142c45671461023a578063248a9ca31461025c57600080fd5b36610200576040513481527fa8142743f8f70a4c26f3691cf4ed59718381fb2f18070ec52be1f1022d8555579060200160405180910390a1005b600080fd5b34801561021157600080fd5b50610225610220366004612225565b610631565b60405190151581526020015b60405180910390f35b34801561024657600080fd5b5061025a61025536600461226b565b610668565b005b34801561026857600080fd5b5061028c610277366004612286565b60009081526065602052604090206001015490565b604051908152602001610231565b3480156102a657600080fd5b5061025a6102b536600461226b565b6107f1565b3480156102c657600080fd5b5061025a6102d536600461229f565b61085b565b3480156102e657600080fd5b5061025a6102f536600461229f565b610886565b34801561030657600080fd5b5061025a61031536600461226b565b610909565b34801561032657600080fd5b5061025a610335366004612286565b6109e9565b34801561034657600080fd5b5061025a610a09565b61025a61035d3660046122e1565b610c5c565b34801561036e57600080fd5b5061028c610d29565b34801561038357600080fd5b5061025a61039236600461226b565b610ddc565b3480156103a357600080fd5b5061028c60008051602061288283398151915281565b3480156103c557600080fd5b5061028c6103d436600461226b565b610e19565b3480156103e557600080fd5b5061025a6103f436600461226b565b610e47565b34801561040557600080fd5b5061012e5461041a906001600160a01b031681565b6040516001600160a01b039091168152602001610231565b34801561043e57600080fd5b5061022561044d36600461229f565b610e84565b34801561045e57600080fd5b5061025a61046d366004612286565b610eaf565b34801561047e57600080fd5b506104d061048d36600461226b565b610131602052600090815260409020805460018201546002830154600384015460048501546005909501546001600160a01b039094169492939192909160ff1686565b604080516001600160a01b03909716875260208701959095529385019290925260608401526080830152151560a082015260c001610231565b34801561051557600080fd5b5061028c6000805160206127fb83398151915281565b34801561053757600080fd5b5061028c600081565b34801561054c57600080fd5b5061025a61055b3660046123a3565b610ecf565b34801561056c57600080fd5b5061028c6101305481565b34801561058357600080fd5b5061012f5461041a906001600160a01b031681565b3480156105a457600080fd5b5061025a6105b3366004612442565b6112a4565b3480156105c457600080fd5b5061028c61012d5481565b3480156105db57600080fd5b5061025a6105ea36600461229f565b6114d5565b3480156105fb57600080fd5b5061025a61060a36600461246c565b6114fb565b34801561061b57600080fd5b5061028c60008051602061281b83398151915281565b60006001600160e01b03198216637965db0b60e01b148061066257506301ffc9a760e01b6001600160e01b03198316145b92915050565b60008051602061288283398151915261068181336116a6565b6001600160a01b03828116600090815261013160209081526040808320683635c9adc5dea0000060018083019190915560058201805460ff1916909117905561012e549151630292e0fd60e01b81526004810193909352600360248401526215d45560ea1b6044840152931690630292e0fd9060640160206040518083038186803b15801561070f57600080fd5b505afa158015610723573d6000803e3d6000fd5b505050506040513d601f19601f8201168201806040525081019061074791906124ae565b61012d5461075d90670de0b6b3a76400006124dd565b61076791906124fc565b82546001600160a01b03166000908152610131602052604081206002018054929350839290919061079990849061251e565b90915550508154604080516001600160a01b038088168252909216602083015281018290527fe551749cd3e23ab6ffc45842ff5f66b01e92acbbcc59ecc834d2015ca142e19d9060600160405180910390a150505050565b60008051602061288283398151915261080a81336116a6565b506001600160a01b031660009081526101316020526040812080546001600160a01b03191681556001810182905560028101829055600381018290556004810191909155600501805460ff19169055565b60008281526065602052604090206001015461087781336116a6565b610881838361170a565b505050565b6001600160a01b03811633146108fb5760405162461bcd60e51b815260206004820152602f60248201527f416363657373436f6e74726f6c3a2063616e206f6e6c792072656e6f756e636560448201526e103937b632b9903337b91039b2b63360891b60648201526084015b60405180910390fd5b6109058282611790565b5050565b306001600160a01b037f00000000000000000000000000000000000000000000000000000000000000001614156109525760405162461bcd60e51b81526004016108f290612536565b7f00000000000000000000000000000000000000000000000000000000000000006001600160a01b031661099b60008051602061283b833981519152546001600160a01b031690565b6001600160a01b0316146109c15760405162461bcd60e51b81526004016108f290612582565b6109ca816117f7565b604080516000808252602082019092526109e691839190611810565b50565b600080516020612882833981519152610a0281336116a6565b5061013055565b60026097541415610a5c5760405162461bcd60e51b815260206004820152601f60248201527f5265656e7472616e637947756172643a207265656e7472616e742063616c6c0060448201526064016108f2565b600260978190553360009081526101316020526040812060038101549201549091610a86916125ce565b905060008111610ae65760405162461bcd60e51b815260206004820152602560248201527f5751526566657272616c3a207468657265206973206e6f7468696e6720746f20604482015264636c61696d60d81b60648201526084016108f2565b804711610b455760405162461bcd60e51b815260206004820152602760248201527f5751526566657272616c3a2042616c616e6365206f6e20636f6e747261637420604482015266746f6f206c6f7760c81b60648201526084016108f2565b61012e54604051630292e0fd60e01b815260206004820152600360248201526215d45560ea1b60448201526000916001600160a01b031690630292e0fd9060640160206040518083038186803b158015610b9e57600080fd5b505afa158015610bb2573d6000803e3d6000fd5b505050506040513d601f19601f82011682018060405250810190610bd691906124ae565b610be883670de0b6b3a76400006124dd565b610bf291906124fc565b336000818152610131602052604090206002810154600390910155909150610c1a908261198a565b60408051338152602081018390527f106f923f993c2149d49b4255ff723acafa1f2d94393f561d3eda32ae348f7241910160405180910390a150506001609755565b306001600160a01b037f0000000000000000000000000000000000000000000000000000000000000000161415610ca55760405162461bcd60e51b81526004016108f290612536565b7f00000000000000000000000000000000000000000000000000000000000000006001600160a01b0316610cee60008051602061283b833981519152546001600160a01b031690565b6001600160a01b031614610d145760405162461bcd60e51b81526004016108f290612582565b610d1d826117f7565b61090582826001611810565b6000306001600160a01b037f00000000000000000000000000000000000000000000000000000000000000001614610dc95760405162461bcd60e51b815260206004820152603860248201527f555550535570677261646561626c653a206d757374206e6f742062652063616c60448201527f6c6564207468726f7567682064656c656761746563616c6c000000000000000060648201526084016108f2565b5060008051602061283b83398151915290565b600080516020612882833981519152610df581336116a6565b5061012f80546001600160a01b0319166001600160a01b0392909216919091179055565b6001600160a01b038116600090815261013160205260408120600381015460029091015461066291906125ce565b600080516020612882833981519152610e6081336116a6565b5061012e80546001600160a01b0319166001600160a01b0392909216919091179055565b60009182526065602090815260408084206001600160a01b0393909316845291905290205460ff1690565b600080516020612882833981519152610ec881336116a6565b5061012d55565b610f676000805160206127fb83398151915261044d878787610f5f338989604051602001610eff939291906125e5565b60408051601f1981840301815282825280516020918201207f19457468657265756d205369676e6564204d6573736167653a0a33320000000084830152603c8085019190915282518085039091018152605c909301909152815191012090565b929190611aa3565b610fc15760405162461bcd60e51b815260206004820152602560248201527f57515265666572616c3a2076616c696461746f72206973206e6f742061207365604482015264727669636560d81b60648201526084016108f2565b60005b8181101561129c576000838383818110610fe057610fe061263f565b9050602002016020810190610ff5919061226b565b6001600160a01b031614156110615760405162461bcd60e51b815260206004820152602c60248201527f5751526566657272616c3a20616666696c696174652063616e6e6f742062652060448201526b7a65726f206164647265737360a01b60648201526084016108f2565b338383838181106110745761107461263f565b9050602002016020810190611089919061226b565b6001600160a01b031614156110f75760405162461bcd60e51b815260206004820152602e60248201527f5751526566657272616c3a20616666696c696174652063616e6e6f742062652060448201526d73656e646572206164647265737360901b60648201526084016108f2565b60006101318185858581811061110f5761110f61263f565b9050602002016020810190611124919061226b565b6001600160a01b03908116825260208201929092526040016000205416146111a05760405162461bcd60e51b815260206004820152602960248201527f5751526566657272616c3a204164647265737320697320616c726561647920726044820152681959da5cdd195c995960ba1b60648201526084016108f2565b3361013160008585858181106111b8576111b861263f565b90506020020160208101906111cd919061226b565b6001600160a01b0390811682526020808301939093526040918201600090812080546001600160a01b03191695909216949094179055338352610131909152812060040180549161121d83612655565b91905055507f55af10c9d5e5b63aa622c225c81dfe6d7d48b5cec3df65785d0234f2f4555ddd8383838181106112555761125561263f565b905060200201602081019061126a919061226b565b604080516001600160a01b0390921682523360208301520160405180910390a18061129481612655565b915050610fc4565b505050505050565b600260975414156112f75760405162461bcd60e51b815260206004820152601f60248201527f5265656e7472616e637947756172643a207265656e7472616e742063616c6c0060448201526064016108f2565b600260975561012f546040516308dc900f60e21b81523360048201526001600160a01b0390911690632372403c9060240160206040518083038186803b15801561134057600080fd5b505afa158015611354573d6000803e3d6000fd5b505050506040513d601f19601f820116820180604052508101906113789190612670565b6113d85760405162461bcd60e51b815260206004820152602b60248201527f57515265666572616c3a2053656e646572206973206e6f7420576f726b51756560448201526a1cdd0818dbdb9d1c9858dd60aa1b60648201526084016108f2565b6001600160a01b0380831660009081526101316020526040902080549091161580159061140a5750600581015460ff16155b156114cb5781816001016000828254611423919061251e565b9091555050610130546001820154106114cb5760058101805460ff1916600117905561012d5481546001600160a01b0316600090815261013160205260408120600201805490919061147690849061251e565b9091555050805461012d54604080516001600160a01b03808816825290931660208401528201527fe551749cd3e23ab6ffc45842ff5f66b01e92acbbcc59ecc834d2015ca142e19d9060600160405180910390a15b5050600160975550565b6000828152606560205260409020600101546114f181336116a6565b6108818383611790565b600054610100900460ff166115165760005460ff161561151a565b303b155b61157d5760405162461bcd60e51b815260206004820152602e60248201527f496e697469616c697a61626c653a20636f6e747261637420697320616c72656160448201526d191e481a5b9a5d1a585b1a5e995960921b60648201526084016108f2565b600054610100900460ff1615801561159f576000805461ffff19166101011790555b6115a7611acb565b6115af611af4565b6115b7611acb565b6115c2600033611b23565b6115da60008051602061288283398151915233611b23565b6115f260008051602061281b83398151915233611b23565b61160a6000805160206127fb83398151915285611b23565b61163060008051602061281b833981519152600080516020612882833981519152611b2d565b6116566000805160206127fb833981519152600080516020612882833981519152611b2d565b61012e80546001600160a01b0319166001600160a01b03871617905561012d8390556101308290558015611690576000805461ff00191690555b5050505050565b6001600160a01b03163b151590565b6116b08282610e84565b610905576116c8816001600160a01b03166014611b78565b6116d3836020611b78565b6040516020016116e49291906126be565b60408051601f198184030181529082905262461bcd60e51b82526108f291600401612733565b6117148282610e84565b6109055760008281526065602090815260408083206001600160a01b03851684529091529020805460ff1916600117905561174c3390565b6001600160a01b0316816001600160a01b0316837f2f8788117e7eff1d82e926ec794901d17c78024a50270940304540a733656f0d60405160405180910390a45050565b61179a8282610e84565b156109055760008281526065602090815260408083206001600160a01b0385168085529252808320805460ff1916905551339285917ff6391f5c32d9c69d2a47ea670b442974b53935d1edc7fd64eb21e047a839171b9190a45050565b60008051602061281b83398151915261090581336116a6565b7f4910fdfa16fed3260ed0e7147f7cc6da11a60208b5b9406d12a635614ffd91435460ff16156118435761088183611d1b565b826001600160a01b03166352d1902d6040518163ffffffff1660e01b815260040160206040518083038186803b15801561187c57600080fd5b505afa9250505080156118ac575060408051601f3d908101601f191682019092526118a9918101906124ae565b60015b61190f5760405162461bcd60e51b815260206004820152602e60248201527f45524331393637557067726164653a206e657720696d706c656d656e7461746960448201526d6f6e206973206e6f74205555505360901b60648201526084016108f2565b60008051602061283b833981519152811461197e5760405162461bcd60e51b815260206004820152602960248201527f45524331393637557067726164653a20756e737570706f727465642070726f786044820152681a58589b195555525160ba1b60648201526084016108f2565b50610881838383611db7565b804710156119da5760405162461bcd60e51b815260206004820152601d60248201527f416464726573733a20696e73756666696369656e742062616c616e636500000060448201526064016108f2565b6000826001600160a01b03168260405160006040518083038185875af1925050503d8060008114611a27576040519150601f19603f3d011682016040523d82523d6000602084013e611a2c565b606091505b50509050806108815760405162461bcd60e51b815260206004820152603a60248201527f416464726573733a20756e61626c6520746f2073656e642076616c75652c207260448201527f6563697069656e74206d6179206861766520726576657274656400000000000060648201526084016108f2565b6000806000611ab487878787611de2565b91509150611ac181611ecf565b5095945050505050565b600054610100900460ff16611af25760405162461bcd60e51b81526004016108f290612766565b565b600054610100900460ff16611b1b5760405162461bcd60e51b81526004016108f290612766565b611af261208a565b610905828261170a565b600082815260656020526040808220600101805490849055905190918391839186917fbd79b86ffe0ab8e8776151514217cd7cacd52c909f66475c3af44e129f0b00ff9190a4505050565b60606000611b878360026124dd565b611b9290600261251e565b67ffffffffffffffff811115611baa57611baa6122cb565b6040519080825280601f01601f191660200182016040528015611bd4576020820181803683370190505b509050600360fc1b81600081518110611bef57611bef61263f565b60200101906001600160f81b031916908160001a905350600f60fb1b81600181518110611c1e57611c1e61263f565b60200101906001600160f81b031916908160001a9053506000611c428460026124dd565b611c4d90600161251e565b90505b6001811115611cc5576f181899199a1a9b1b9c1cb0b131b232b360811b85600f1660108110611c8157611c8161263f565b1a60f81b828281518110611c9757611c9761263f565b60200101906001600160f81b031916908160001a90535060049490941c93611cbe816127b1565b9050611c50565b508315611d145760405162461bcd60e51b815260206004820181905260248201527f537472696e67733a20686578206c656e67746820696e73756666696369656e7460448201526064016108f2565b9392505050565b6001600160a01b0381163b611d885760405162461bcd60e51b815260206004820152602d60248201527f455243313936373a206e657720696d706c656d656e746174696f6e206973206e60448201526c1bdd08184818dbdb9d1c9858dd609a1b60648201526084016108f2565b60008051602061283b83398151915280546001600160a01b0319166001600160a01b0392909216919091179055565b611dc0836120b8565b600082511180611dcd5750805b1561088157611ddc83836120f8565b50505050565b6000807f7fffffffffffffffffffffffffffffff5d576e7357a4501ddfe92f46681b20a0831115611e195750600090506003611ec6565b8460ff16601b14158015611e3157508460ff16601c14155b15611e425750600090506004611ec6565b6040805160008082526020820180845289905260ff881692820192909252606081018690526080810185905260019060a0016020604051602081039080840390855afa158015611e96573d6000803e3d6000fd5b5050604051601f1901519150506001600160a01b038116611ebf57600060019250925050611ec6565b9150600090505b94509492505050565b6000816004811115611ee357611ee36127c8565b1415611eec5750565b6001816004811115611f0057611f006127c8565b1415611f4e5760405162461bcd60e51b815260206004820152601860248201527f45434453413a20696e76616c6964207369676e6174757265000000000000000060448201526064016108f2565b6002816004811115611f6257611f626127c8565b1415611fb05760405162461bcd60e51b815260206004820152601f60248201527f45434453413a20696e76616c6964207369676e6174757265206c656e6774680060448201526064016108f2565b6003816004811115611fc457611fc46127c8565b141561201d5760405162461bcd60e51b815260206004820152602260248201527f45434453413a20696e76616c6964207369676e6174757265202773272076616c604482015261756560f01b60648201526084016108f2565b6004816004811115612031576120316127c8565b14156109e65760405162461bcd60e51b815260206004820152602260248201527f45434453413a20696e76616c6964207369676e6174757265202776272076616c604482015261756560f01b60648201526084016108f2565b600054610100900460ff166120b15760405162461bcd60e51b81526004016108f290612766565b6001609755565b6120c181611d1b565b6040516001600160a01b038216907fbc7cd75a20ee27fd9adebab32041f755214dbc6bffa90cc0225b39da2e5c2d3b90600090a250565b60606001600160a01b0383163b6121605760405162461bcd60e51b815260206004820152602660248201527f416464726573733a2064656c65676174652063616c6c20746f206e6f6e2d636f6044820152651b9d1c9858dd60d21b60648201526084016108f2565b600080846001600160a01b03168460405161217b91906127de565b600060405180830381855af49150503d80600081146121b6576040519150601f19603f3d011682016040523d82523d6000602084013e6121bb565b606091505b50915091506121e3828260405180606001604052806027815260200161285b602791396121ec565b95945050505050565b606083156121fb575081611d14565b82511561220b5782518084602001fd5b8160405162461bcd60e51b81526004016108f29190612733565b60006020828403121561223757600080fd5b81356001600160e01b031981168114611d1457600080fd5b80356001600160a01b038116811461226657600080fd5b919050565b60006020828403121561227d57600080fd5b611d148261224f565b60006020828403121561229857600080fd5b5035919050565b600080604083850312156122b257600080fd5b823591506122c26020840161224f565b90509250929050565b634e487b7160e01b600052604160045260246000fd5b600080604083850312156122f457600080fd5b6122fd8361224f565b9150602083013567ffffffffffffffff8082111561231a57600080fd5b818501915085601f83011261232e57600080fd5b813581811115612340576123406122cb565b604051601f8201601f19908116603f01168101908382118183101715612368576123686122cb565b8160405282815288602084870101111561238157600080fd5b8260208601602083013760006020848301015280955050505050509250929050565b6000806000806000608086880312156123bb57600080fd5b853560ff811681146123cc57600080fd5b94506020860135935060408601359250606086013567ffffffffffffffff808211156123f757600080fd5b818801915088601f83011261240b57600080fd5b81358181111561241a57600080fd5b8960208260051b850101111561242f57600080fd5b9699959850939650602001949392505050565b6000806040838503121561245557600080fd5b61245e8361224f565b946020939093013593505050565b6000806000806080858703121561248257600080fd5b61248b8561224f565b93506124996020860161224f565b93969395505050506040820135916060013590565b6000602082840312156124c057600080fd5b5051919050565b634e487b7160e01b600052601160045260246000fd5b60008160001904831182151516156124f7576124f76124c7565b500290565b60008261251957634e487b7160e01b600052601260045260246000fd5b500490565b60008219821115612531576125316124c7565b500190565b6020808252602c908201527f46756e6374696f6e206d7573742062652063616c6c6564207468726f7567682060408201526b19195b1959d85d1958d85b1b60a21b606082015260800190565b6020808252602c908201527f46756e6374696f6e206d7573742062652063616c6c6564207468726f7567682060408201526b6163746976652070726f787960a01b606082015260800190565b6000828210156125e0576125e06124c7565b500390565b6bffffffffffffffffffffffff198460601b1681526000601482018460005b85811015612633576001600160a01b0361261d8361224f565b1683526020928301929190910190600101612604565b50909695505050505050565b634e487b7160e01b600052603260045260246000fd5b6000600019821415612669576126696124c7565b5060010190565b60006020828403121561268257600080fd5b81518015158114611d1457600080fd5b60005b838110156126ad578181015183820152602001612695565b83811115611ddc5750506000910152565b7f416363657373436f6e74726f6c3a206163636f756e74200000000000000000008152600083516126f6816017850160208801612692565b7001034b99036b4b9b9b4b733903937b6329607d1b6017918401918201528351612727816028840160208801612692565b01602801949350505050565b6020815260008251806020840152612752816040850160208701612692565b601f01601f19169190910160400192915050565b6020808252602b908201527f496e697469616c697a61626c653a20636f6e7472616374206973206e6f74206960408201526a6e697469616c697a696e6760a81b606082015260800190565b6000816127c0576127c06124c7565b506000190190565b634e487b7160e01b600052602160045260246000fd5b600082516127f0818460208701612692565b919091019291505056fed8a7a79547af723ee3e12b59a480111268d8969c634e1a34a144d2c8b91d635b189ab7a9244df0848122154315af71fe140f3db0fe014031783b0946b8c9d2e3360894a13ba1a3210667c828492db98dca3e2076cc3735a920a3ca505d382bbc416464726573733a206c6f772d6c6576656c2064656c65676174652063616c6c206661696c6564a49807205ce4d355092ef5a8a18f56e8913cf4a201fbe287825b095693c21775a2646970667358221220e1622c6c766776def86d44ce917a7971445377369bc3f6151736a5f87325103e64736f6c63430008090033",
  "linkReferences": {},
  "deployedLinkReferences": {}
}