{
  "_format": "hh-sol-artifact-1",
  "contractName": "WQReferral",
  "sourceName": "contracts/WQReferral.sol",
  "abi": [
    {
      "inputs": [],
      "stateMutability": "nonpayable",
      "type": "constructor"
    },
    {
      "anonymous": false,
      "inputs": [
        {
          "indexed": false,
          "internalType": "address",
          "name": "previousAdmin",
          "type": "address"
        },
        {
          "indexed": false,
          "internalType": "address",
          "name": "newAdmin",
          "type": "address"
        }
      ],
      "name": "AdminChanged",
      "type": "event"
    },
    {
      "anonymous": false,
      "inputs": [
        {
          "indexed": true,
          "internalType": "address",
          "name": "beacon",
          "type": "address"
        }
      ],
      "name": "BeaconUpgraded",
      "type": "event"
    },
    {
      "anonymous": false,
      "inputs": [
        {
          "indexed": false,
          "internalType": "address",
          "name": "referral",
          "type": "address"
        },
        {
          "indexed": false,
          "internalType": "address",
          "name": "affiliat",
          "type": "address"
        },
        {
          "indexed": false,
          "internalType": "uint256",
          "name": "amount",
          "type": "uint256"
        }
      ],
      "name": "PaidReferral",
      "type": "event"
    },
    {
      "anonymous": false,
      "inputs": [
        {
          "indexed": false,
          "internalType": "uint256",
          "name": "amount",
          "type": "uint256"
        }
      ],
      "name": "Received",
      "type": "event"
    },
    {
      "anonymous": false,
      "inputs": [
        {
          "indexed": false,
          "internalType": "address",
          "name": "referral",
          "type": "address"
        },
        {
          "indexed": false,
          "internalType": "address",
          "name": "affiliat",
          "type": "address"
        }
      ],
      "name": "RegisteredAffiliat",
      "type": "event"
    },
    {
      "anonymous": false,
      "inputs": [
        {
          "indexed": false,
          "internalType": "address",
          "name": "affiliat",
          "type": "address"
        },
        {
          "indexed": false,
          "internalType": "uint256",
          "name": "amount",
          "type": "uint256"
        }
      ],
      "name": "RewardClaimed",
      "type": "event"
    },
    {
      "anonymous": false,
      "inputs": [
        {
          "indexed": true,
          "internalType": "bytes32",
          "name": "role",
          "type": "bytes32"
        },
        {
          "indexed": true,
          "internalType": "bytes32",
          "name": "previousAdminRole",
          "type": "bytes32"
        },
        {
          "indexed": true,
          "internalType": "bytes32",
          "name": "newAdminRole",
          "type": "bytes32"
        }
      ],
      "name": "RoleAdminChanged",
      "type": "event"
    },
    {
      "anonymous": false,
      "inputs": [
        {
          "indexed": true,
          "internalType": "bytes32",
          "name": "role",
          "type": "bytes32"
        },
        {
          "indexed": true,
          "internalType": "address",
          "name": "account",
          "type": "address"
        },
        {
          "indexed": true,
          "internalType": "address",
          "name": "sender",
          "type": "address"
        }
      ],
      "name": "RoleGranted",
      "type": "event"
    },
    {
      "anonymous": false,
      "inputs": [
        {
          "indexed": true,
          "internalType": "bytes32",
          "name": "role",
          "type": "bytes32"
        },
        {
          "indexed": true,
          "internalType": "address",
          "name": "account",
          "type": "address"
        },
        {
          "indexed": true,
          "internalType": "address",
          "name": "sender",
          "type": "address"
        }
      ],
      "name": "RoleRevoked",
      "type": "event"
    },
    {
      "anonymous": false,
      "inputs": [
        {
          "indexed": true,
          "internalType": "address",
          "name": "implementation",
          "type": "address"
        }
      ],
      "name": "Upgraded",
      "type": "event"
    },
    {
      "inputs": [],
      "name": "ADMIN_ROLE",
      "outputs": [
        {
          "internalType": "bytes32",
          "name": "",
          "type": "bytes32"
        }
      ],
      "stateMutability": "view",
      "type": "function"
    },
    {
      "inputs": [],
      "name": "DEFAULT_ADMIN_ROLE",
      "outputs": [
        {
          "internalType": "bytes32",
          "name": "",
          "type": "bytes32"
        }
      ],
      "stateMutability": "view",
      "type": "function"
    },
    {
      "inputs": [],
      "name": "SERVICE_ROLE",
      "outputs": [
        {
          "internalType": "bytes32",
          "name": "",
          "type": "bytes32"
        }
      ],
      "stateMutability": "view",
      "type": "function"
    },
    {
      "inputs": [],
      "name": "UPGRADER_ROLE",
      "outputs": [
        {
          "internalType": "bytes32",
          "name": "",
          "type": "bytes32"
        }
      ],
      "stateMutability": "view",
      "type": "function"
    },
    {
      "inputs": [
        {
          "internalType": "uint8",
          "name": "v",
          "type": "uint8"
        },
        {
          "internalType": "bytes32",
          "name": "r",
          "type": "bytes32"
        },
        {
          "internalType": "bytes32",
          "name": "s",
          "type": "bytes32"
        },
        {
          "internalType": "address[]",
          "name": "referral",
          "type": "address[]"
        }
      ],
      "name": "addReferrals",
      "outputs": [],
      "stateMutability": "nonpayable",
      "type": "function"
    },
    {
      "inputs": [
        {
          "internalType": "address",
          "name": "referral",
          "type": "address"
        },
        {
          "internalType": "uint256",
          "name": "earnedAmount",
          "type": "uint256"
        }
      ],
      "name": "calcReferral",
      "outputs": [],
      "stateMutability": "nonpayable",
      "type": "function"
    },
    {
      "inputs": [],
      "name": "claim",
      "outputs": [],
      "stateMutability": "nonpayable",
      "type": "function"
    },
    {
      "inputs": [],
      "name": "earnedThreshold",
      "outputs": [
        {
          "internalType": "uint256",
          "name": "",
          "type": "uint256"
        }
      ],
      "stateMutability": "view",
      "type": "function"
    },
    {
      "inputs": [],
      "name": "factory",
      "outputs": [
        {
          "internalType": "contract WorkQuestFactory",
          "name": "",
          "type": "address"
        }
      ],
      "stateMutability": "view",
      "type": "function"
    },
    {
      "inputs": [
        {
          "internalType": "address",
          "name": "user",
          "type": "address"
        }
      ],
      "name": "getRewards",
      "outputs": [
        {
          "internalType": "uint256",
          "name": "",
          "type": "uint256"
        }
      ],
      "stateMutability": "view",
      "type": "function"
    },
    {
      "inputs": [
        {
          "internalType": "bytes32",
          "name": "role",
          "type": "bytes32"
        }
      ],
      "name": "getRoleAdmin",
      "outputs": [
        {
          "internalType": "bytes32",
          "name": "",
          "type": "bytes32"
        }
      ],
      "stateMutability": "view",
      "type": "function"
    },
    {
      "inputs": [
        {
          "internalType": "bytes32",
          "name": "role",
          "type": "bytes32"
        },
        {
          "internalType": "address",
          "name": "account",
          "type": "address"
        }
      ],
      "name": "grantRole",
      "outputs": [],
      "stateMutability": "nonpayable",
      "type": "function"
    },
    {
      "inputs": [
        {
          "internalType": "bytes32",
          "name": "role",
          "type": "bytes32"
        },
        {
          "internalType": "address",
          "name": "account",
          "type": "address"
        }
      ],
      "name": "hasRole",
      "outputs": [
        {
          "internalType": "bool",
          "name": "",
          "type": "bool"
        }
      ],
      "stateMutability": "view",
      "type": "function"
    },
    {
      "inputs": [
        {
          "internalType": "address",
          "name": "_token",
          "type": "address"
        },
        {
          "internalType": "address",
          "name": "_oracle",
          "type": "address"
        },
        {
          "internalType": "address",
          "name": "_service",
          "type": "address"
        },
        {
          "internalType": "uint256",
          "name": "_referralBonus",
          "type": "uint256"
        },
        {
          "internalType": "uint256",
          "name": "_earnedThreshold",
          "type": "uint256"
        }
      ],
      "name": "initialize",
      "outputs": [],
      "stateMutability": "nonpayable",
      "type": "function"
    },
    {
      "inputs": [],
      "name": "oracle",
      "outputs": [
        {
          "internalType": "contract WQPriceOracle",
          "name": "",
          "type": "address"
        }
      ],
      "stateMutability": "view",
      "type": "function"
    },
    {
      "inputs": [],
      "name": "referralBonus",
      "outputs": [
        {
          "internalType": "uint256",
          "name": "",
          "type": "uint256"
        }
      ],
      "stateMutability": "view",
      "type": "function"
    },
    {
      "inputs": [
        {
          "internalType": "address",
          "name": "",
          "type": "address"
        }
      ],
      "name": "referrals",
      "outputs": [
        {
          "internalType": "address",
          "name": "affiliat",
          "type": "address"
        },
        {
          "internalType": "uint256",
          "name": "earnedAmount",
          "type": "uint256"
        },
        {
          "internalType": "uint256",
          "name": "rewardTotal",
          "type": "uint256"
        },
        {
          "internalType": "uint256",
          "name": "rewardPaid",
          "type": "uint256"
        },
        {
          "internalType": "uint256",
          "name": "referredCount",
          "type": "uint256"
        },
        {
          "internalType": "bool",
          "name": "paid",
          "type": "bool"
        }
      ],
      "stateMutability": "view",
      "type": "function"
    },
    {
      "inputs": [
        {
          "internalType": "bytes32",
          "name": "role",
          "type": "bytes32"
        },
        {
          "internalType": "address",
          "name": "account",
          "type": "address"
        }
      ],
      "name": "renounceRole",
      "outputs": [],
      "stateMutability": "nonpayable",
      "type": "function"
    },
    {
      "inputs": [
        {
          "internalType": "bytes32",
          "name": "role",
          "type": "bytes32"
        },
        {
          "internalType": "address",
          "name": "account",
          "type": "address"
        }
      ],
      "name": "revokeRole",
      "outputs": [],
      "stateMutability": "nonpayable",
      "type": "function"
    },
    {
      "inputs": [
        {
          "internalType": "uint256",
          "name": "_earnedThreshold",
          "type": "uint256"
        }
      ],
      "name": "setEarnedThreshold",
      "outputs": [],
      "stateMutability": "nonpayable",
      "type": "function"
    },
    {
      "inputs": [
        {
          "internalType": "address",
          "name": "_factory",
          "type": "address"
        }
      ],
      "name": "setFactory",
      "outputs": [],
      "stateMutability": "nonpayable",
      "type": "function"
    },
    {
      "inputs": [
        {
          "internalType": "address",
          "name": "_oracle",
          "type": "address"
        }
      ],
      "name": "setOracle",
      "outputs": [],
      "stateMutability": "nonpayable",
      "type": "function"
    },
    {
      "inputs": [
        {
          "internalType": "uint256",
          "name": "_referralBonus",
          "type": "uint256"
        }
      ],
      "name": "setReferralBonus",
      "outputs": [],
      "stateMutability": "nonpayable",
      "type": "function"
    },
    {
      "inputs": [
        {
          "internalType": "address",
          "name": "_token",
          "type": "address"
        }
      ],
      "name": "setToken",
      "outputs": [],
      "stateMutability": "nonpayable",
      "type": "function"
    },
    {
      "inputs": [
        {
          "internalType": "bytes4",
          "name": "interfaceId",
          "type": "bytes4"
        }
      ],
      "name": "supportsInterface",
      "outputs": [
        {
          "internalType": "bool",
          "name": "",
          "type": "bool"
        }
      ],
      "stateMutability": "view",
      "type": "function"
    },
    {
      "inputs": [],
      "name": "token",
      "outputs": [
        {
          "internalType": "contract IERC20Upgradeable",
          "name": "",
          "type": "address"
        }
      ],
      "stateMutability": "view",
      "type": "function"
    },
    {
      "inputs": [
        {
          "internalType": "address",
          "name": "newImplementation",
          "type": "address"
        }
      ],
      "name": "upgradeTo",
      "outputs": [],
      "stateMutability": "nonpayable",
      "type": "function"
    },
    {
      "inputs": [
        {
          "internalType": "address",
          "name": "newImplementation",
          "type": "address"
        },
        {
          "internalType": "bytes",
          "name": "data",
          "type": "bytes"
        }
      ],
      "name": "upgradeToAndCall",
      "outputs": [],
      "stateMutability": "payable",
      "type": "function"
    },
    {
      "stateMutability": "payable",
      "type": "receive"
    }
  ],
  "bytecode": "0x60a06040523060601b60805234801561001757600080fd5b50600054610100900460ff1680610031575060005460ff16155b6100985760405162461bcd60e51b815260206004820152602e60248201527f496e697469616c697a61626c653a20636f6e747261637420697320616c72656160448201526d191e481a5b9a5d1a585b1a5e995960921b606482015260840160405180910390fd5b600054610100900460ff161580156100ba576000805461ffff19166101011790555b80156100cc576000805461ff00191690555b5060805160601c612996620001016000396000818161073f0152818161077f01528181610a540152610a9401526129966000f3fe6080604052600436106101bb5760003560e01c806391d14854116100ec578063beae308e1161008a578063ce7842f511610064578063ce7842f514610598578063d547741f146105af578063f72c0d8b146105cf578063fc0c546a146105f157600080fd5b8063beae308e14610540578063c45a015514610557578063c5e7ea231461057857600080fd5b8063a20e7d47116100c6578063a20e7d47146104c9578063a217fddf146104eb578063a6b63eb814610500578063b3dadae91461052057600080fd5b806391d14854146103f25780639a037aa0146104125780639ca423b31461043257600080fd5b80634e71d92d1161015957806375b238fc1161013357806375b238fc1461035757806379ee54f7146103795780637adbf973146103995780637dc0d1d0146103b957600080fd5b80634e71d92d1461030f5780634f1ef286146103245780635bb478081461033757600080fd5b80632f2ff15d116101955780632f2ff15d1461028f57806336568abe146102af5780633659cfe6146102cf5780633a1808e4146102ef57600080fd5b806301ffc9a7146101fa578063144fa6d71461022f578063248a9ca31461025157600080fd5b366101f5576040513481527fa8142743f8f70a4c26f3691cf4ed59718381fb2f18070ec52be1f1022d8555579060200160405180910390a1005b600080fd5b34801561020657600080fd5b5061021a610215366004612501565b610612565b60405190151581526020015b60405180910390f35b34801561023b57600080fd5b5061024f61024a36600461234a565b610649565b005b34801561025d57600080fd5b5061028161026c3660046124be565b60009081526065602052604090206001015490565b604051908152602001610226565b34801561029b57600080fd5b5061024f6102aa3660046124d6565b610686565b3480156102bb57600080fd5b5061024f6102ca3660046124d6565b6106b1565b3480156102db57600080fd5b5061024f6102ea36600461234a565b610734565b3480156102fb57600080fd5b5061024f61030a3660046124be565b6107fd565b34801561031b57600080fd5b5061024f61081d565b61024f6103323660046123b8565b610a49565b34801561034357600080fd5b5061024f61035236600461234a565b610aff565b34801561036357600080fd5b5061028160008051602061294183398151915281565b34801561038557600080fd5b5061028161039436600461234a565b610b3c565b3480156103a557600080fd5b5061024f6103b436600461234a565b610b6a565b3480156103c557600080fd5b5061012f546103da906001600160a01b031681565b6040516001600160a01b039091168152602001610226565b3480156103fe57600080fd5b5061021a61040d3660046124d6565b610ba7565b34801561041e57600080fd5b5061024f61042d3660046124be565b610bd2565b34801561043e57600080fd5b5061049061044d36600461234a565b610132602052600090815260409020805460018201546002830154600384015460048501546005909501546001600160a01b039094169492939192909160ff1686565b604080516001600160a01b03909716875260208701959095529385019290925260608401526080830152151560a082015260c001610226565b3480156104d557600080fd5b506102816000805160206128da83398151915281565b3480156104f757600080fd5b50610281600081565b34801561050c57600080fd5b5061024f61051b366004612364565b610bf2565b34801561052c57600080fd5b5061024f61053b366004612541565b610d58565b34801561054c57600080fd5b506102816101315481565b34801561056357600080fd5b50610130546103da906001600160a01b031681565b34801561058457600080fd5b5061024f610593366004612475565b611169565b3480156105a457600080fd5b5061028161012e5481565b3480156105bb57600080fd5b5061024f6105ca3660046124d6565b61144b565b3480156105db57600080fd5b506102816000805160206128fa83398151915281565b3480156105fd57600080fd5b5061012d546103da906001600160a01b031681565b60006001600160e01b03198216637965db0b60e01b148061064357506301ffc9a760e01b6001600160e01b03198316145b92915050565b6000805160206129418339815191526106628133611471565b5061012d80546001600160a01b0319166001600160a01b0392909216919091179055565b6000828152606560205260409020600101546106a28133611471565b6106ac83836114d5565b505050565b6001600160a01b03811633146107265760405162461bcd60e51b815260206004820152602f60248201527f416363657373436f6e74726f6c3a2063616e206f6e6c792072656e6f756e636560448201526e103937b632b9903337b91039b2b63360891b60648201526084015b60405180910390fd5b610730828261155b565b5050565b306001600160a01b037f000000000000000000000000000000000000000000000000000000000000000016141561077d5760405162461bcd60e51b815260040161071d906126f7565b7f00000000000000000000000000000000000000000000000000000000000000006001600160a01b03166107af6115c2565b6001600160a01b0316146107d55760405162461bcd60e51b815260040161071d90612743565b6107de816115f0565b604080516000808252602082019092526107fa91839190611609565b50565b6000805160206129418339815191526108168133611471565b5061013155565b600260975414156108705760405162461bcd60e51b815260206004820152601f60248201527f5265656e7472616e637947756172643a207265656e7472616e742063616c6c00604482015260640161071d565b60026097819055336000908152610132602052604081206003810154920154909161089a91612834565b9050600081116108fa5760405162461bcd60e51b815260206004820152602560248201527f5751526566657272616c3a207468657265206973206e6f7468696e6720746f20604482015264636c61696d60d81b606482015260840161071d565b61012d546040516370a0823160e01b815230600482015282916001600160a01b0316906370a082319060240160206040518083038186803b15801561093e57600080fd5b505afa158015610952573d6000803e3d6000fd5b505050506040513d601f19601f820116820180604052508101906109769190612529565b116109d35760405162461bcd60e51b815260206004820152602760248201527f5751526566657272616c3a2042616c616e6365206f6e20636f6e747261637420604482015266746f6f206c6f7760c81b606482015260840161071d565b33600081815261013260205260409020600281015460039091015561012d54610a08916001600160a01b039091169083611754565b60408051338152602081018390527f106f923f993c2149d49b4255ff723acafa1f2d94393f561d3eda32ae348f7241910160405180910390a1506001609755565b306001600160a01b037f0000000000000000000000000000000000000000000000000000000000000000161415610a925760405162461bcd60e51b815260040161071d906126f7565b7f00000000000000000000000000000000000000000000000000000000000000006001600160a01b0316610ac46115c2565b6001600160a01b031614610aea5760405162461bcd60e51b815260040161071d90612743565b610af3826115f0565b61073082826001611609565b600080516020612941833981519152610b188133611471565b5061013080546001600160a01b0319166001600160a01b0392909216919091179055565b6001600160a01b03811660009081526101326020526040812060038101546002909101546106439190612834565b600080516020612941833981519152610b838133611471565b5061012f80546001600160a01b0319166001600160a01b0392909216919091179055565b60009182526065602090815260408084206001600160a01b0393909316845291905290205460ff1690565b600080516020612941833981519152610beb8133611471565b5061012e55565b600054610100900460ff1680610c0b575060005460ff16155b610c275760405162461bcd60e51b815260040161071d9061278f565b600054610100900460ff16158015610c49576000805461ffff19166101011790555b610c516117a6565b610c59611829565b610c61611888565b610c6c6000336118e6565b610c84600080516020612941833981519152336118e6565b610c9c6000805160206128fa833981519152336118e6565b610cb46000805160206128da833981519152856118e6565b610cda6000805160206128fa8339815191526000805160206129418339815191526118f0565b610d006000805160206128da8339815191526000805160206129418339815191526118f0565b61012d80546001600160a01b038089166001600160a01b03199283161790925561012f80549288169290911691909117905561012e8390556101318290558015610d50576000805461ff00191690555b505050505050565b610df06000805160206128da83398151915261040d878787610de8338989604051602001610d88939291906125da565b60408051601f1981840301815282825280516020918201207f19457468657265756d205369676e6564204d6573736167653a0a33320000000084830152603c8085019190915282518085039091018152605c909301909152815191012090565b92919061193b565b610e4a5760405162461bcd60e51b815260206004820152602560248201527f57515265666572616c3a2076616c696461746f72206973206e6f742061207365604482015264727669636560d81b606482015260840161071d565b60005b81811015610d50576000838383818110610e7757634e487b7160e01b600052603260045260246000fd5b9050602002016020810190610e8c919061234a565b6001600160a01b03161415610ef75760405162461bcd60e51b815260206004820152602b60248201527f5751526566657272616c3a20616666696c6961742063616e6e6f74206265207a60448201526a65726f206164647265737360a81b606482015260840161071d565b33838383818110610f1857634e487b7160e01b600052603260045260246000fd5b9050602002016020810190610f2d919061234a565b6001600160a01b03161415610f9a5760405162461bcd60e51b815260206004820152602d60248201527f5751526566657272616c3a20616666696c6961742063616e6e6f74206265207360448201526c656e646572206164647265737360981b606482015260840161071d565b600061013281858585818110610fc057634e487b7160e01b600052603260045260246000fd5b9050602002016020810190610fd5919061234a565b6001600160a01b03908116825260208201929092526040016000205416146110515760405162461bcd60e51b815260206004820152602960248201527f5751526566657272616c3a204164647265737320697320616c726561647920726044820152681959da5cdd195c995960ba1b606482015260840161071d565b33610132600085858581811061107757634e487b7160e01b600052603260045260246000fd5b905060200201602081019061108c919061234a565b6001600160a01b0390811682526020808301939093526040918201600090812080546001600160a01b0319169590921694909417905533835261013290915281206004018054916110dc83612892565b91905055507f55af10c9d5e5b63aa622c225c81dfe6d7d48b5cec3df65785d0234f2f4555ddd83838381811061112257634e487b7160e01b600052603260045260246000fd5b9050602002016020810190611137919061234a565b604080516001600160a01b0390921682523360208301520160405180910390a18061116181612892565b915050610e4d565b600260975414156111bc5760405162461bcd60e51b815260206004820152601f60248201527f5265656e7472616e637947756172643a207265656e7472616e742063616c6c00604482015260640161071d565b6002609755610130546040516308dc900f60e21b81523360048201526001600160a01b0390911690632372403c9060240160206040518083038186803b15801561120557600080fd5b505afa158015611219573d6000803e3d6000fd5b505050506040513d601f19601f8201168201806040525081019061123d919061249e565b61129d5760405162461bcd60e51b815260206004820152602b60248201527f57515265666572616c3a2053656e646572206973206e6f7420576f726b51756560448201526a1cdd0818dbdb9d1c9858dd60aa1b606482015260840161071d565b6001600160a01b038083166000908152610132602052604090208054909116158015906112cf5750600581015460ff16155b1561144157818160010160008282546112e891906127dd565b9091555050610131546001820154106114415760058101805460ff1916600117905561012f54604051630292e0fd60e01b815260206004820152600360248201526215d45560ea1b60448201526000916001600160a01b031690630292e0fd9060640160206040518083038186803b15801561136357600080fd5b505afa158015611377573d6000803e3d6000fd5b505050506040513d601f19601f8201168201806040525081019061139b9190612529565b61012e546113b190670de0b6b3a7640000612815565b6113bb91906127f5565b82546001600160a01b0316600090815261013260205260408120600201805492935083929091906113ed9084906127dd565b90915550508154604080516001600160a01b038088168252909216602083015281018290527fe551749cd3e23ab6ffc45842ff5f66b01e92acbbcc59ecc834d2015ca142e19d9060600160405180910390a1505b5050600160975550565b6000828152606560205260409020600101546114678133611471565b6106ac838361155b565b61147b8282610ba7565b61073057611493816001600160a01b03166014611963565b61149e836020611963565b6040516020016114af92919061264f565b60408051601f198184030181529082905262461bcd60e51b825261071d916004016126c4565b6114df8282610ba7565b6107305760008281526065602090815260408083206001600160a01b03851684529091529020805460ff191660011790556115173390565b6001600160a01b0316816001600160a01b0316837f2f8788117e7eff1d82e926ec794901d17c78024a50270940304540a733656f0d60405160405180910390a45050565b6115658282610ba7565b156107305760008281526065602090815260408083206001600160a01b0385168085529252808320805460ff1916905551339285917ff6391f5c32d9c69d2a47ea670b442974b53935d1edc7fd64eb21e047a839171b9190a45050565b7f360894a13ba1a3210667c828492db98dca3e2076cc3735a920a3ca505d382bbc546001600160a01b031690565b6000805160206128fa8339815191526107308133611471565b60006116136115c2565b905061161e84611b4c565b60008351118061162b5750815b1561163c5761163a8484611bf1565b505b7f4910fdfa16fed3260ed0e7147f7cc6da11a60208b5b9406d12a635614ffd9143805460ff1661174d57805460ff191660011781556040516001600160a01b03831660248201526116bb90869060440160408051601f198184030181529190526020810180516001600160e01b0316631b2ce7f360e11b179052611bf1565b50805460ff191681556116cc6115c2565b6001600160a01b0316826001600160a01b0316146117445760405162461bcd60e51b815260206004820152602f60248201527f45524331393637557067726164653a207570677261646520627265616b73206660448201526e75727468657220757067726164657360881b606482015260840161071d565b61174d85611cdc565b5050505050565b604080516001600160a01b038416602482015260448082018490528251808303909101815260649091019091526020810180516001600160e01b031663a9059cbb60e01b1790526106ac908490611d1c565b600054610100900460ff16806117bf575060005460ff16155b6117db5760405162461bcd60e51b815260040161071d9061278f565b600054610100900460ff161580156117fd576000805461ffff19166101011790555b611805611dee565b61180d611dee565b611815611dee565b80156107fa576000805461ff001916905550565b600054610100900460ff1680611842575060005460ff16155b61185e5760405162461bcd60e51b815260040161071d9061278f565b600054610100900460ff16158015611880576000805461ffff19166101011790555b611815611e58565b600054610100900460ff16806118a1575060005460ff16155b6118bd5760405162461bcd60e51b815260040161071d9061278f565b600054610100900460ff16158015611805576000805461ffff191661010117905561180d611dee565b61073082826114d5565b600082815260656020526040808220600101805490849055905190918391839186917fbd79b86ffe0ab8e8776151514217cd7cacd52c909f66475c3af44e129f0b00ff9190a4505050565b600080600061194c87878787611ec8565b9150915061195981611fb5565b5095945050505050565b60606000611972836002612815565b61197d9060026127dd565b67ffffffffffffffff8111156119a357634e487b7160e01b600052604160045260246000fd5b6040519080825280601f01601f1916602001820160405280156119cd576020820181803683370190505b509050600360fc1b816000815181106119f657634e487b7160e01b600052603260045260246000fd5b60200101906001600160f81b031916908160001a905350600f60fb1b81600181518110611a3357634e487b7160e01b600052603260045260246000fd5b60200101906001600160f81b031916908160001a9053506000611a57846002612815565b611a629060016127dd565b90505b6001811115611af6576f181899199a1a9b1b9c1cb0b131b232b360811b85600f1660108110611aa457634e487b7160e01b600052603260045260246000fd5b1a60f81b828281518110611ac857634e487b7160e01b600052603260045260246000fd5b60200101906001600160f81b031916908160001a90535060049490941c93611aef8161287b565b9050611a65565b508315611b455760405162461bcd60e51b815260206004820181905260248201527f537472696e67733a20686578206c656e67746820696e73756666696369656e74604482015260640161071d565b9392505050565b803b611bb05760405162461bcd60e51b815260206004820152602d60248201527f455243313936373a206e657720696d706c656d656e746174696f6e206973206e60448201526c1bdd08184818dbdb9d1c9858dd609a1b606482015260840161071d565b7f360894a13ba1a3210667c828492db98dca3e2076cc3735a920a3ca505d382bbc80546001600160a01b0319166001600160a01b0392909216919091179055565b6060823b611c505760405162461bcd60e51b815260206004820152602660248201527f416464726573733a2064656c65676174652063616c6c20746f206e6f6e2d636f6044820152651b9d1c9858dd60d21b606482015260840161071d565b600080846001600160a01b031684604051611c6b9190612633565b600060405180830381855af49150503d8060008114611ca6576040519150601f19603f3d011682016040523d82523d6000602084013e611cab565b606091505b5091509150611cd3828260405180606001604052806027815260200161291a602791396121b6565b95945050505050565b611ce581611b4c565b6040516001600160a01b038216907fbc7cd75a20ee27fd9adebab32041f755214dbc6bffa90cc0225b39da2e5c2d3b90600090a250565b6000611d71826040518060400160405280602081526020017f5361666545524332303a206c6f772d6c6576656c2063616c6c206661696c6564815250856001600160a01b03166121ef9092919063ffffffff16565b8051909150156106ac5780806020019051810190611d8f919061249e565b6106ac5760405162461bcd60e51b815260206004820152602a60248201527f5361666545524332303a204552433230206f7065726174696f6e20646964206e6044820152691bdd081cdd58d8d9595960b21b606482015260840161071d565b600054610100900460ff1680611e07575060005460ff16155b611e235760405162461bcd60e51b815260040161071d9061278f565b600054610100900460ff16158015611815576000805461ffff191661010117905580156107fa576000805461ff001916905550565b600054610100900460ff1680611e71575060005460ff16155b611e8d5760405162461bcd60e51b815260040161071d9061278f565b600054610100900460ff16158015611eaf576000805461ffff19166101011790555b600160975580156107fa576000805461ff001916905550565b6000807f7fffffffffffffffffffffffffffffff5d576e7357a4501ddfe92f46681b20a0831115611eff5750600090506003611fac565b8460ff16601b14158015611f1757508460ff16601c14155b15611f285750600090506004611fac565b6040805160008082526020820180845289905260ff881692820192909252606081018690526080810185905260019060a0016020604051602081039080840390855afa158015611f7c573d6000803e3d6000fd5b5050604051601f1901519150506001600160a01b038116611fa557600060019250925050611fac565b9150600090505b94509492505050565b6000816004811115611fd757634e487b7160e01b600052602160045260246000fd5b1415611fe05750565b600181600481111561200257634e487b7160e01b600052602160045260246000fd5b14156120505760405162461bcd60e51b815260206004820152601860248201527f45434453413a20696e76616c6964207369676e61747572650000000000000000604482015260640161071d565b600281600481111561207257634e487b7160e01b600052602160045260246000fd5b14156120c05760405162461bcd60e51b815260206004820152601f60248201527f45434453413a20696e76616c6964207369676e6174757265206c656e67746800604482015260640161071d565b60038160048111156120e257634e487b7160e01b600052602160045260246000fd5b141561213b5760405162461bcd60e51b815260206004820152602260248201527f45434453413a20696e76616c6964207369676e6174757265202773272076616c604482015261756560f01b606482015260840161071d565b600481600481111561215d57634e487b7160e01b600052602160045260246000fd5b14156107fa5760405162461bcd60e51b815260206004820152602260248201527f45434453413a20696e76616c6964207369676e6174757265202776272076616c604482015261756560f01b606482015260840161071d565b606083156121c5575081611b45565b8251156121d55782518084602001fd5b8160405162461bcd60e51b815260040161071d91906126c4565b60606121fe8484600085612206565b949350505050565b6060824710156122675760405162461bcd60e51b815260206004820152602660248201527f416464726573733a20696e73756666696369656e742062616c616e636520666f6044820152651c8818d85b1b60d21b606482015260840161071d565b843b6122b55760405162461bcd60e51b815260206004820152601d60248201527f416464726573733a2063616c6c20746f206e6f6e2d636f6e7472616374000000604482015260640161071d565b600080866001600160a01b031685876040516122d19190612633565b60006040518083038185875af1925050503d806000811461230e576040519150601f19603f3d011682016040523d82523d6000602084013e612313565b606091505b50915091506123238282866121b6565b979650505050505050565b80356001600160a01b038116811461234557600080fd5b919050565b60006020828403121561235b578081fd5b611b458261232e565b600080600080600060a0868803121561237b578081fd5b6123848661232e565b94506123926020870161232e565b93506123a06040870161232e565b94979396509394606081013594506080013592915050565b600080604083850312156123ca578182fd5b6123d38361232e565b9150602083013567ffffffffffffffff808211156123ef578283fd5b818501915085601f830112612402578283fd5b813581811115612414576124146128c3565b604051601f8201601f19908116603f0116810190838211818310171561243c5761243c6128c3565b81604052828152886020848701011115612454578586fd5b82602086016020830137856020848301015280955050505050509250929050565b60008060408385031215612487578182fd5b6124908361232e565b946020939093013593505050565b6000602082840312156124af578081fd5b81518015158114611b45578182fd5b6000602082840312156124cf578081fd5b5035919050565b600080604083850312156124e8578182fd5b823591506124f86020840161232e565b90509250929050565b600060208284031215612512578081fd5b81356001600160e01b031981168114611b45578182fd5b60006020828403121561253a578081fd5b5051919050565b600080600080600060808688031215612558578081fd5b853560ff81168114612568578182fd5b94506020860135935060408601359250606086013567ffffffffffffffff80821115612592578283fd5b818801915088601f8301126125a5578283fd5b8135818111156125b3578384fd5b8960208260051b85010111156125c7578384fd5b9699959850939650602001949392505050565b6bffffffffffffffffffffffff198460601b16815260006014820184825b85811015612627576001600160a01b036126118361232e565b16835260209283019291909101906001016125f8565b50909695505050505050565b6000825161264581846020870161284b565b9190910192915050565b7f416363657373436f6e74726f6c3a206163636f756e742000000000000000000081526000835161268781601785016020880161284b565b7001034b99036b4b9b9b4b733903937b6329607d1b60179184019182015283516126b881602884016020880161284b565b01602801949350505050565b60208152600082518060208401526126e381604085016020870161284b565b601f01601f19169190910160400192915050565b6020808252602c908201527f46756e6374696f6e206d7573742062652063616c6c6564207468726f7567682060408201526b19195b1959d85d1958d85b1b60a21b606082015260800190565b6020808252602c908201527f46756e6374696f6e206d7573742062652063616c6c6564207468726f7567682060408201526b6163746976652070726f787960a01b606082015260800190565b6020808252602e908201527f496e697469616c697a61626c653a20636f6e747261637420697320616c72656160408201526d191e481a5b9a5d1a585b1a5e995960921b606082015260800190565b600082198211156127f0576127f06128ad565b500190565b60008261281057634e487b7160e01b81526012600452602481fd5b500490565b600081600019048311821515161561282f5761282f6128ad565b500290565b600082821015612846576128466128ad565b500390565b60005b8381101561286657818101518382015260200161284e565b83811115612875576000848401525b50505050565b60008161288a5761288a6128ad565b506000190190565b60006000198214156128a6576128a66128ad565b5060010190565b634e487b7160e01b600052601160045260246000fd5b634e487b7160e01b600052604160045260246000fdfed8a7a79547af723ee3e12b59a480111268d8969c634e1a34a144d2c8b91d635b189ab7a9244df0848122154315af71fe140f3db0fe014031783b0946b8c9d2e3416464726573733a206c6f772d6c6576656c2064656c65676174652063616c6c206661696c6564a49807205ce4d355092ef5a8a18f56e8913cf4a201fbe287825b095693c21775a2646970667358221220e2a506a0acf4ac88da0ba8c0489a43660d1c09e70b667dd3378c607f288f75f964736f6c63430008040033",
  "linkReferences": {},
  "deployedLinkReferences": {}
}