{
  "_format": "hh-sol-artifact-1",
  "contractName": "WQPensionFund",
  "sourceName": "contracts/WQPensionFund.sol",
  "abi": [
    {
      "inputs": [],
      "stateMutability": "nonpayable",
      "type": "constructor"
    },
    {
      "anonymous": false,
      "inputs": [
        {
          "indexed": false,
          "internalType": "address",
          "name": "previousAdmin",
          "type": "address"
        },
        {
          "indexed": false,
          "internalType": "address",
          "name": "newAdmin",
          "type": "address"
        }
      ],
      "name": "AdminChanged",
      "type": "event"
    },
    {
      "anonymous": false,
      "inputs": [
        {
          "indexed": true,
          "internalType": "address",
          "name": "beacon",
          "type": "address"
        }
      ],
      "name": "BeaconUpgraded",
      "type": "event"
    },
    {
      "anonymous": false,
      "inputs": [
        {
          "indexed": true,
          "internalType": "address",
          "name": "user",
          "type": "address"
        },
        {
          "indexed": true,
          "internalType": "uint256",
          "name": "amount",
          "type": "uint256"
        },
        {
          "indexed": false,
          "internalType": "uint256",
          "name": "timestamp",
          "type": "uint256"
        }
      ],
      "name": "Borrowed",
      "type": "event"
    },
    {
      "anonymous": false,
      "inputs": [
        {
          "indexed": true,
          "internalType": "address",
          "name": "user",
          "type": "address"
        },
        {
          "indexed": true,
          "internalType": "uint256",
          "name": "amount",
          "type": "uint256"
        },
        {
          "indexed": false,
          "internalType": "uint256",
          "name": "timestamp",
          "type": "uint256"
        }
      ],
      "name": "Claimed",
      "type": "event"
    },
    {
      "anonymous": false,
      "inputs": [
        {
          "indexed": true,
          "internalType": "address",
          "name": "user",
          "type": "address"
        },
        {
          "indexed": true,
          "internalType": "uint256",
          "name": "amount",
          "type": "uint256"
        },
        {
          "indexed": false,
          "internalType": "uint256",
          "name": "timestamp",
          "type": "uint256"
        }
      ],
      "name": "Received",
      "type": "event"
    },
    {
      "anonymous": false,
      "inputs": [
        {
          "indexed": true,
          "internalType": "address",
          "name": "user",
          "type": "address"
        },
        {
          "indexed": true,
          "internalType": "uint256",
          "name": "amount",
          "type": "uint256"
        },
        {
          "indexed": false,
          "internalType": "uint256",
          "name": "timestamp",
          "type": "uint256"
        }
      ],
      "name": "Refunded",
      "type": "event"
    },
    {
      "anonymous": false,
      "inputs": [
        {
          "indexed": true,
          "internalType": "bytes32",
          "name": "role",
          "type": "bytes32"
        },
        {
          "indexed": true,
          "internalType": "bytes32",
          "name": "previousAdminRole",
          "type": "bytes32"
        },
        {
          "indexed": true,
          "internalType": "bytes32",
          "name": "newAdminRole",
          "type": "bytes32"
        }
      ],
      "name": "RoleAdminChanged",
      "type": "event"
    },
    {
      "anonymous": false,
      "inputs": [
        {
          "indexed": true,
          "internalType": "bytes32",
          "name": "role",
          "type": "bytes32"
        },
        {
          "indexed": true,
          "internalType": "address",
          "name": "account",
          "type": "address"
        },
        {
          "indexed": true,
          "internalType": "address",
          "name": "sender",
          "type": "address"
        }
      ],
      "name": "RoleGranted",
      "type": "event"
    },
    {
      "anonymous": false,
      "inputs": [
        {
          "indexed": true,
          "internalType": "bytes32",
          "name": "role",
          "type": "bytes32"
        },
        {
          "indexed": true,
          "internalType": "address",
          "name": "account",
          "type": "address"
        },
        {
          "indexed": true,
          "internalType": "address",
          "name": "sender",
          "type": "address"
        }
      ],
      "name": "RoleRevoked",
      "type": "event"
    },
    {
      "anonymous": false,
      "inputs": [
        {
          "indexed": true,
          "internalType": "address",
          "name": "implementation",
          "type": "address"
        }
      ],
      "name": "Upgraded",
      "type": "event"
    },
    {
      "anonymous": false,
      "inputs": [
        {
          "indexed": true,
          "internalType": "address",
          "name": "user",
          "type": "address"
        },
        {
          "indexed": true,
          "internalType": "uint256",
          "name": "newFee",
          "type": "uint256"
        },
        {
          "indexed": false,
          "internalType": "uint256",
          "name": "unlockDate",
          "type": "uint256"
        }
      ],
      "name": "WalletUpdated",
      "type": "event"
    },
    {
      "anonymous": false,
      "inputs": [
        {
          "indexed": true,
          "internalType": "address",
          "name": "user",
          "type": "address"
        },
        {
          "indexed": true,
          "internalType": "uint256",
          "name": "amount",
          "type": "uint256"
        },
        {
          "indexed": false,
          "internalType": "uint256",
          "name": "timestamp",
          "type": "uint256"
        }
      ],
      "name": "Withdrew",
      "type": "event"
    },
    {
      "inputs": [],
      "name": "ADMIN_ROLE",
      "outputs": [
        {
          "internalType": "bytes32",
          "name": "",
          "type": "bytes32"
        }
      ],
      "stateMutability": "view",
      "type": "function"
    },
    {
      "inputs": [],
      "name": "BORROWER_ROLE",
      "outputs": [
        {
          "internalType": "bytes32",
          "name": "",
          "type": "bytes32"
        }
      ],
      "stateMutability": "view",
      "type": "function"
    },
    {
      "inputs": [],
      "name": "DEFAULT_ADMIN_ROLE",
      "outputs": [
        {
          "internalType": "bytes32",
          "name": "",
          "type": "bytes32"
        }
      ],
      "stateMutability": "view",
      "type": "function"
    },
    {
      "inputs": [],
      "name": "UPGRADER_ROLE",
      "outputs": [
        {
          "internalType": "bytes32",
          "name": "",
          "type": "bytes32"
        }
      ],
      "stateMutability": "view",
      "type": "function"
    },
    {
      "inputs": [],
      "name": "balanceOf",
      "outputs": [
        {
          "internalType": "uint256",
          "name": "",
          "type": "uint256"
        }
      ],
      "stateMutability": "view",
      "type": "function"
    },
    {
      "inputs": [
        {
          "internalType": "uint256",
          "name": "amount",
          "type": "uint256"
        }
      ],
      "name": "borrow",
      "outputs": [],
      "stateMutability": "nonpayable",
      "type": "function"
    },
    {
      "inputs": [],
      "name": "borrowed",
      "outputs": [
        {
          "internalType": "uint256",
          "name": "",
          "type": "uint256"
        }
      ],
      "stateMutability": "view",
      "type": "function"
    },
    {
      "inputs": [
        {
          "internalType": "address",
          "name": "worker",
          "type": "address"
        }
      ],
      "name": "contribute",
      "outputs": [],
      "stateMutability": "payable",
      "type": "function"
    },
    {
      "inputs": [],
      "name": "contributed",
      "outputs": [
        {
          "internalType": "uint256",
          "name": "",
          "type": "uint256"
        }
      ],
      "stateMutability": "view",
      "type": "function"
    },
    {
      "inputs": [],
      "name": "defaultFee",
      "outputs": [
        {
          "internalType": "uint256",
          "name": "",
          "type": "uint256"
        }
      ],
      "stateMutability": "view",
      "type": "function"
    },
    {
      "inputs": [],
      "name": "extendLockTime",
      "outputs": [],
      "stateMutability": "nonpayable",
      "type": "function"
    },
    {
      "inputs": [
        {
          "internalType": "address",
          "name": "user",
          "type": "address"
        }
      ],
      "name": "getFee",
      "outputs": [
        {
          "internalType": "uint256",
          "name": "",
          "type": "uint256"
        }
      ],
      "stateMutability": "view",
      "type": "function"
    },
    {
      "inputs": [
        {
          "internalType": "address",
          "name": "user",
          "type": "address"
        }
      ],
      "name": "getRewards",
      "outputs": [
        {
          "internalType": "uint256",
          "name": "",
          "type": "uint256"
        }
      ],
      "stateMutability": "view",
      "type": "function"
    },
    {
      "inputs": [
        {
          "internalType": "bytes32",
          "name": "role",
          "type": "bytes32"
        }
      ],
      "name": "getRoleAdmin",
      "outputs": [
        {
          "internalType": "bytes32",
          "name": "",
          "type": "bytes32"
        }
      ],
      "stateMutability": "view",
      "type": "function"
    },
    {
      "inputs": [
        {
          "internalType": "bytes32",
          "name": "role",
          "type": "bytes32"
        },
        {
          "internalType": "address",
          "name": "account",
          "type": "address"
        }
      ],
      "name": "grantRole",
      "outputs": [],
      "stateMutability": "nonpayable",
      "type": "function"
    },
    {
      "inputs": [
        {
          "internalType": "bytes32",
          "name": "role",
          "type": "bytes32"
        },
        {
          "internalType": "address",
          "name": "account",
          "type": "address"
        }
      ],
      "name": "hasRole",
      "outputs": [
        {
          "internalType": "bool",
          "name": "",
          "type": "bool"
        }
      ],
      "stateMutability": "view",
      "type": "function"
    },
    {
      "inputs": [
        {
          "internalType": "uint256",
          "name": "_lockTime",
          "type": "uint256"
        },
        {
          "internalType": "uint256",
          "name": "_defaultFee",
          "type": "uint256"
        }
      ],
      "name": "initialize",
      "outputs": [],
      "stateMutability": "nonpayable",
      "type": "function"
    },
    {
      "inputs": [],
      "name": "lockTime",
      "outputs": [
        {
          "internalType": "uint256",
          "name": "",
          "type": "uint256"
        }
      ],
      "stateMutability": "view",
      "type": "function"
    },
    {
      "inputs": [
        {
          "internalType": "uint256",
          "name": "rewards",
          "type": "uint256"
        }
      ],
      "name": "refund",
      "outputs": [],
      "stateMutability": "payable",
      "type": "function"
    },
    {
      "inputs": [
        {
          "internalType": "bytes32",
          "name": "role",
          "type": "bytes32"
        },
        {
          "internalType": "address",
          "name": "account",
          "type": "address"
        }
      ],
      "name": "renounceRole",
      "outputs": [],
      "stateMutability": "nonpayable",
      "type": "function"
    },
    {
      "inputs": [
        {
          "internalType": "bytes32",
          "name": "role",
          "type": "bytes32"
        },
        {
          "internalType": "address",
          "name": "account",
          "type": "address"
        }
      ],
      "name": "revokeRole",
      "outputs": [],
      "stateMutability": "nonpayable",
      "type": "function"
    },
    {
      "inputs": [],
      "name": "rewardsDistributed",
      "outputs": [
        {
          "internalType": "uint256",
          "name": "",
          "type": "uint256"
        }
      ],
      "stateMutability": "view",
      "type": "function"
    },
    {
      "inputs": [],
      "name": "rewardsPerContributed",
      "outputs": [
        {
          "internalType": "uint256",
          "name": "",
          "type": "uint256"
        }
      ],
      "stateMutability": "view",
      "type": "function"
    },
    {
      "inputs": [],
      "name": "rewardsProduced",
      "outputs": [
        {
          "internalType": "uint256",
          "name": "",
          "type": "uint256"
        }
      ],
      "stateMutability": "view",
      "type": "function"
    },
    {
      "inputs": [
        {
          "internalType": "bytes4",
          "name": "interfaceId",
          "type": "bytes4"
        }
      ],
      "name": "supportsInterface",
      "outputs": [
        {
          "internalType": "bool",
          "name": "",
          "type": "bool"
        }
      ],
      "stateMutability": "view",
      "type": "function"
    },
    {
      "inputs": [
        {
          "internalType": "uint256",
          "name": "_defaultFee",
          "type": "uint256"
        }
      ],
      "name": "updateDefaultFee",
      "outputs": [],
      "stateMutability": "nonpayable",
      "type": "function"
    },
    {
      "inputs": [
        {
          "internalType": "uint256",
          "name": "fee",
          "type": "uint256"
        }
      ],
      "name": "updateFee",
      "outputs": [],
      "stateMutability": "nonpayable",
      "type": "function"
    },
    {
      "inputs": [
        {
          "internalType": "uint256",
          "name": "_lockTime",
          "type": "uint256"
        }
      ],
      "name": "updateLockTime",
      "outputs": [],
      "stateMutability": "nonpayable",
      "type": "function"
    },
    {
      "inputs": [
        {
          "internalType": "address",
          "name": "user",
          "type": "address"
        },
        {
          "internalType": "uint256",
          "name": "amount",
          "type": "uint256"
        },
        {
          "internalType": "uint256",
          "name": "unlockDate",
          "type": "uint256"
        },
        {
          "internalType": "uint256",
          "name": "createdAt",
          "type": "uint256"
        }
      ],
      "name": "updateWallet",
      "outputs": [],
      "stateMutability": "nonpayable",
      "type": "function"
    },
    {
      "inputs": [
        {
          "internalType": "address",
          "name": "newImplementation",
          "type": "address"
        }
      ],
      "name": "upgradeTo",
      "outputs": [],
      "stateMutability": "nonpayable",
      "type": "function"
    },
    {
      "inputs": [
        {
          "internalType": "address",
          "name": "newImplementation",
          "type": "address"
        },
        {
          "internalType": "bytes",
          "name": "data",
          "type": "bytes"
        }
      ],
      "name": "upgradeToAndCall",
      "outputs": [],
      "stateMutability": "payable",
      "type": "function"
    },
    {
      "inputs": [
        {
          "internalType": "address",
          "name": "",
          "type": "address"
        }
      ],
      "name": "wallets",
      "outputs": [
        {
          "internalType": "uint256",
          "name": "amount",
          "type": "uint256"
        },
        {
          "internalType": "uint256",
          "name": "fee",
          "type": "uint256"
        },
        {
          "internalType": "uint256",
          "name": "unlockDate",
          "type": "uint256"
        },
        {
          "internalType": "uint256",
          "name": "createdAt",
          "type": "uint256"
        },
        {
          "internalType": "uint256",
          "name": "rewardAllowed",
          "type": "uint256"
        },
        {
          "internalType": "uint256",
          "name": "rewardDebt",
          "type": "uint256"
        },
        {
          "internalType": "uint256",
          "name": "rewardDistributed",
          "type": "uint256"
        }
      ],
      "stateMutability": "view",
      "type": "function"
    },
    {
      "inputs": [
        {
          "internalType": "uint256",
          "name": "amount",
          "type": "uint256"
        }
      ],
      "name": "withdraw",
      "outputs": [],
      "stateMutability": "nonpayable",
      "type": "function"
    }
  ],
  "bytecode": "0x60a06040523060805234801561001457600080fd5b50600054610100900460ff168061002e575060005460ff16155b6100955760405162461bcd60e51b815260206004820152602e60248201527f496e697469616c697a61626c653a20636f6e747261637420697320616c72656160448201526d191e481a5b9a5d1a585b1a5e995960921b606482015260840160405180910390fd5b600054610100900460ff161580156100b7576000805461ffff19166101011790555b80156100c9576000805461ff00191690555b506080516121286100fa60003960008181610ab601528181610af601528181610b7f0152610bbf01526121286000f3fe6080604052600436106101ee5760003560e01c8063722713f71161010d578063a217fddf116100a0578063d547741f1161006f578063d547741f146105ad578063e4a30116146105cd578063f72c0d8b146105ed578063f73ce7e41461060f578063fbfa4e111461062f57600080fd5b8063a217fddf1461051e578063b88c914814610533578063c212f7911461056d578063c5ebeaec1461058d57600080fd5b806389b08f11116100dc57806389b08f11146104395780639012c4a8146104c757806391d14854146104e75780639c1454d41461050757600080fd5b8063722713f7146103cf57806373e888fd146103e457806375b238fc146103f757806379ee54f71461041957600080fd5b80632f2ff15d116101855780634f1ef286116101545780634f1ef2861461037757806353b966571461038a5780635a6c72d0146103a157806369609c42146103b857600080fd5b80632f2ff15d1461030057806336568abe146103205780633659cfe61461034057806344c56e591461036057600080fd5b806311b0ba9f116101c157806311b0ba9f14610286578063248a9ca31461029d578063278ecde1146102cd5780632e1a7d4d146102e057600080fd5b806301ffc9a7146101f35780630d668087146102285780630e7b949e1461024d578063112f19071461026f575b600080fd5b3480156101ff57600080fd5b5061021361020e366004611b86565b61064f565b60405190151581526020015b60405180910390f35b34801561023457600080fd5b5061023f61012d5481565b60405190815260200161021f565b34801561025957600080fd5b5061023f60008051602061206c83398151915281565b34801561027b57600080fd5b5061023f61012f5481565b34801561029257600080fd5b5061029b610686565b005b3480156102a957600080fd5b5061023f6102b8366004611bb0565b60009081526065602052604090206001015490565b61029b6102db366004611bb0565b6106d9565b3480156102ec57600080fd5b5061029b6102fb366004611bb0565b6107ce565b34801561030c57600080fd5b5061029b61031b366004611be5565b610a02565b34801561032c57600080fd5b5061029b61033b366004611be5565b610a2d565b34801561034c57600080fd5b5061029b61035b366004611c11565b610aab565b34801561036c57600080fd5b5061023f6101315481565b61029b610385366004611c42565b610b74565b34801561039657600080fd5b5061023f6101305481565b3480156103ad57600080fd5b5061023f61012e5481565b3480156103c457600080fd5b5061023f6101335481565b3480156103db57600080fd5b5061023f610c2a565b61029b6103f2366004611c11565b610c43565b34801561040357600080fd5b5061023f6000805160206120d383398151915281565b34801561042557600080fd5b5061023f610434366004611c11565b610d9f565b34801561044557600080fd5b50610492610454366004611c11565b610134602052600090815260409020805460018201546002830154600384015460048501546005860154600690960154949593949293919290919087565b604080519788526020880196909652948601939093526060850191909152608084015260a083015260c082015260e00161021f565b3480156104d357600080fd5b5061029b6104e2366004611bb0565b610e10565b3480156104f357600080fd5b50610213610502366004611be5565b610e8b565b34801561051357600080fd5b5061023f6101325481565b34801561052a57600080fd5b5061023f600081565b34801561053f57600080fd5b5061023f61054e366004611c11565b6001600160a01b03166000908152610134602052604090206001015490565b34801561057957600080fd5b5061029b610588366004611bb0565b610eb6565b34801561059957600080fd5b5061029b6105a8366004611bb0565b610ed6565b3480156105b957600080fd5b5061029b6105c8366004611be5565b610fcf565b3480156105d957600080fd5b5061029b6105e8366004611d04565b610ff5565b3480156105f957600080fd5b5061023f60008051602061208c83398151915281565b34801561061b57600080fd5b5061029b61062a366004611d26565b61110d565b34801561063b57600080fd5b5061029b61064a366004611bb0565b61114f565b60006001600160e01b03198216637965db0b60e01b148061068057506301ffc9a760e01b6001600160e01b03198316145b92915050565b3360009081526101346020526040902060028101544210156106c35760405162461bcd60e51b81526004016106ba90611d5f565b60405180910390fd5b6106d1426301e13380611dbd565b600290910155565b600260975414156106fc5760405162461bcd60e51b81526004016106ba90611dd5565b600260975560008051602061206c83398151915261071a813361116f565b6107248234611e0c565b61013360008282546107369190611e0c565b925050819055508161013160008282546107509190611dbd565b909155505061012f5461076c8368056bc75e2d63100000611e23565b6107769190611e42565b61013060008282546107889190611dbd565b9091555050604051428152349033907f2dc8e290002f06fc0085bbca9dfb8b415cf4d1178950c72ff9ee8f4d8878ee66906020015b60405180910390a350506001609755565b600260975414156107f15760405162461bcd60e51b81526004016106ba90611dd5565b60026097819055336000908152610134602052604090209081015442101561082b5760405162461bcd60e51b81526004016106ba90611d5f565b805482111561087c5760405162461bcd60e51b815260206004820181905260248201527f575150656e73696f6e46756e643a20416d6f756e7420697320696e76616c696460448201526064016106ba565b600081600501548260060154836004015468056bc75e2d631000006101305486600001546108aa9190611e23565b6108b49190611e42565b6108be9190611dbd565b6108c89190611e0c565b6108d29190611e0c565b9050808260060160008282546108e89190611dbd565b925050819055508061013260008282546109029190611dbd565b90915550506101305468056bc75e2d63100000906109209085611e23565b61092a9190611e42565b82600401600082825461093d9190611dbd565b9091555050815483908390600090610956908490611e0c565b925050819055508261012f60008282546109709190611e0c565b9091555061098a90506109838285611dbd565b33906111d3565b604051428152839033907fadec52fcd1408589179b85e44b434374db078b4eaf793e7d1a1bb0ae4ecfeee59060200160405180910390a3604051428152819033907f987d620f307ff6b94d58743cb7a7509f24071586a77759b77c2d4e29f75a2f9a9060200160405180910390a35050600160975550565b600082815260656020526040902060010154610a1e813361116f565b610a2883836112ec565b505050565b6001600160a01b0381163314610a9d5760405162461bcd60e51b815260206004820152602f60248201527f416363657373436f6e74726f6c3a2063616e206f6e6c792072656e6f756e636560448201526e103937b632b9903337b91039b2b63360891b60648201526084016106ba565b610aa78282611372565b5050565b306001600160a01b037f0000000000000000000000000000000000000000000000000000000000000000161415610af45760405162461bcd60e51b81526004016106ba90611e64565b7f00000000000000000000000000000000000000000000000000000000000000006001600160a01b0316610b266113d9565b6001600160a01b031614610b4c5760405162461bcd60e51b81526004016106ba90611eb0565b610b5581611407565b60408051600080825260208201909252610b7191839190611420565b50565b306001600160a01b037f0000000000000000000000000000000000000000000000000000000000000000161415610bbd5760405162461bcd60e51b81526004016106ba90611e64565b7f00000000000000000000000000000000000000000000000000000000000000006001600160a01b0316610bef6113d9565b6001600160a01b031614610c155760405162461bcd60e51b81526004016106ba90611eb0565b610c1e82611407565b610aa782826001611420565b60006101335461012f54610c3e9190611e0c565b905090565b60026097541415610c665760405162461bcd60e51b81526004016106ba90611dd5565b60026097556001600160a01b0381166000908152610134602052604090206003810154610cf457426003820181905561012d54610ca291611dbd565b6002820181905561012e5460018301819055604051918252906001600160a01b038416907fdf8570df385b2879e23de768d9f15a45925c9efdd5698f03f57ab6cab69cda8f9060200160405180910390a35b68056bc75e2d631000006101305434610d0d9190611e23565b610d179190611e42565b816005016000828254610d2a9190611dbd565b9091555050805434908290600090610d43908490611dbd565b925050819055503461012f6000828254610d5d9190611dbd565b909155505060405142815234906001600160a01b038416907f74cf3d18d0ddca79038197ad0dd2c7fa5005ef61a5d1ed190e8a8a437e2fcf10906020016107bd565b6001600160a01b03811660009081526101346020526040812060058101546006820154600483015461013054935492939192909168056bc75e2d6310000091610de89190611e23565b610df29190611e42565b610dfc9190611dbd565b610e069190611e0c565b6106809190611e0c565b336000908152610134602052604090206003810154610e4457426003820181905561012d54610e3e91611dbd565b60028201555b600181018290556002810154604051908152829033907fdf8570df385b2879e23de768d9f15a45925c9efdd5698f03f57ab6cab69cda8f9060200160405180910390a35050565b60009182526065602090815260408084206001600160a01b0393909316845291905290205460ff1690565b6000805160206120d3833981519152610ecf813361116f565b5061012e55565b60026097541415610ef95760405162461bcd60e51b81526004016106ba90611dd5565b600260975560008051602061206c833981519152610f17813361116f565b6101335461012f54610f299190611e0c565b821115610f785760405162461bcd60e51b815260206004820152601e60248201527f575150656e73696f6e3a20496e73756666696369656e7420616d6f756e74000060448201526064016106ba565b816101336000828254610f8b9190611dbd565b90915550610f9b905033836111d3565b604051428152829033907feae9cfbc77fdd40ca899f36b608256063b2bc9d8178b0220f7ad513e178d6730906020016107bd565b600082815260656020526040902060010154610feb813361116f565b610a288383611372565b600054610100900460ff168061100e575060005460ff16155b61102a5760405162461bcd60e51b81526004016106ba90611efc565b600054610100900460ff1615801561104c576000805461ffff19166101011790555b61105461156b565b61105c6115ee565b61106461164d565b61106f6000336116ab565b6110876000805160206120d3833981519152336116ab565b61109f60008051602061208c833981519152336116ab565b6110c560008051602061206c8339815191526000805160206120d38339815191526116b5565b6110eb60008051602061208c8339815191526000805160206120d38339815191526116b5565b61012d83905561012e8290558015610a28576000805461ff0019169055505050565b6000805160206120d3833981519152611126813361116f565b506001600160a01b03909316600090815261013460205260409020918255600282015560030155565b6000805160206120d3833981519152611168813361116f565b5061012d55565b6111798282610e8b565b610aa757611191816001600160a01b03166014611700565b61119c836020611700565b6040516020016111ad929190611f7a565b60408051601f198184030181529082905262461bcd60e51b82526106ba91600401611fef565b804710156112235760405162461bcd60e51b815260206004820152601d60248201527f416464726573733a20696e73756666696369656e742062616c616e636500000060448201526064016106ba565b6000826001600160a01b03168260405160006040518083038185875af1925050503d8060008114611270576040519150601f19603f3d011682016040523d82523d6000602084013e611275565b606091505b5050905080610a285760405162461bcd60e51b815260206004820152603a60248201527f416464726573733a20756e61626c6520746f2073656e642076616c75652c207260448201527f6563697069656e74206d6179206861766520726576657274656400000000000060648201526084016106ba565b6112f68282610e8b565b610aa75760008281526065602090815260408083206001600160a01b03851684529091529020805460ff1916600117905561132e3390565b6001600160a01b0316816001600160a01b0316837f2f8788117e7eff1d82e926ec794901d17c78024a50270940304540a733656f0d60405160405180910390a45050565b61137c8282610e8b565b15610aa75760008281526065602090815260408083206001600160a01b0385168085529252808320805460ff1916905551339285917ff6391f5c32d9c69d2a47ea670b442974b53935d1edc7fd64eb21e047a839171b9190a45050565b7f360894a13ba1a3210667c828492db98dca3e2076cc3735a920a3ca505d382bbc546001600160a01b031690565b60008051602061208c833981519152610aa7813361116f565b600061142a6113d9565b9050611435846118a3565b6000835111806114425750815b15611453576114518484611948565b505b7f4910fdfa16fed3260ed0e7147f7cc6da11a60208b5b9406d12a635614ffd9143805460ff1661156457805460ff191660011781556040516001600160a01b03831660248201526114d290869060440160408051601f198184030181529190526020810180516001600160e01b0316631b2ce7f360e11b179052611948565b50805460ff191681556114e36113d9565b6001600160a01b0316826001600160a01b03161461155b5760405162461bcd60e51b815260206004820152602f60248201527f45524331393637557067726164653a207570677261646520627265616b73206660448201526e75727468657220757067726164657360881b60648201526084016106ba565b61156485611a33565b5050505050565b600054610100900460ff1680611584575060005460ff16155b6115a05760405162461bcd60e51b81526004016106ba90611efc565b600054610100900460ff161580156115c2576000805461ffff19166101011790555b6115ca611a73565b6115d2611a73565b6115da611a73565b8015610b71576000805461ff001916905550565b600054610100900460ff1680611607575060005460ff16155b6116235760405162461bcd60e51b81526004016106ba90611efc565b600054610100900460ff16158015611645576000805461ffff19166101011790555b6115da611add565b600054610100900460ff1680611666575060005460ff16155b6116825760405162461bcd60e51b81526004016106ba90611efc565b600054610100900460ff161580156115ca576000805461ffff19166101011790556115d2611a73565b610aa782826112ec565b600082815260656020526040808220600101805490849055905190918391839186917fbd79b86ffe0ab8e8776151514217cd7cacd52c909f66475c3af44e129f0b00ff9190a4505050565b6060600061170f836002611e23565b61171a906002611dbd565b67ffffffffffffffff81111561173257611732611c2c565b6040519080825280601f01601f19166020018201604052801561175c576020820181803683370190505b509050600360fc1b8160008151811061177757611777612022565b60200101906001600160f81b031916908160001a905350600f60fb1b816001815181106117a6576117a6612022565b60200101906001600160f81b031916908160001a90535060006117ca846002611e23565b6117d5906001611dbd565b90505b600181111561184d576f181899199a1a9b1b9c1cb0b131b232b360811b85600f166010811061180957611809612022565b1a60f81b82828151811061181f5761181f612022565b60200101906001600160f81b031916908160001a90535060049490941c9361184681612038565b90506117d8565b50831561189c5760405162461bcd60e51b815260206004820181905260248201527f537472696e67733a20686578206c656e67746820696e73756666696369656e7460448201526064016106ba565b9392505050565b803b6119075760405162461bcd60e51b815260206004820152602d60248201527f455243313936373a206e657720696d706c656d656e746174696f6e206973206e60448201526c1bdd08184818dbdb9d1c9858dd609a1b60648201526084016106ba565b7f360894a13ba1a3210667c828492db98dca3e2076cc3735a920a3ca505d382bbc80546001600160a01b0319166001600160a01b0392909216919091179055565b6060823b6119a75760405162461bcd60e51b815260206004820152602660248201527f416464726573733a2064656c65676174652063616c6c20746f206e6f6e2d636f6044820152651b9d1c9858dd60d21b60648201526084016106ba565b600080846001600160a01b0316846040516119c2919061204f565b600060405180830381855af49150503d80600081146119fd576040519150601f19603f3d011682016040523d82523d6000602084013e611a02565b606091505b5091509150611a2a82826040518060600160405280602781526020016120ac60279139611b4d565b95945050505050565b611a3c816118a3565b6040516001600160a01b038216907fbc7cd75a20ee27fd9adebab32041f755214dbc6bffa90cc0225b39da2e5c2d3b90600090a250565b600054610100900460ff1680611a8c575060005460ff16155b611aa85760405162461bcd60e51b81526004016106ba90611efc565b600054610100900460ff161580156115da576000805461ffff19166101011790558015610b71576000805461ff001916905550565b600054610100900460ff1680611af6575060005460ff16155b611b125760405162461bcd60e51b81526004016106ba90611efc565b600054610100900460ff16158015611b34576000805461ffff19166101011790555b60016097558015610b71576000805461ff001916905550565b60608315611b5c57508161189c565b825115611b6c5782518084602001fd5b8160405162461bcd60e51b81526004016106ba9190611fef565b600060208284031215611b9857600080fd5b81356001600160e01b03198116811461189c57600080fd5b600060208284031215611bc257600080fd5b5035919050565b80356001600160a01b0381168114611be057600080fd5b919050565b60008060408385031215611bf857600080fd5b82359150611c0860208401611bc9565b90509250929050565b600060208284031215611c2357600080fd5b61189c82611bc9565b634e487b7160e01b600052604160045260246000fd5b60008060408385031215611c5557600080fd5b611c5e83611bc9565b9150602083013567ffffffffffffffff80821115611c7b57600080fd5b818501915085601f830112611c8f57600080fd5b813581811115611ca157611ca1611c2c565b604051601f8201601f19908116603f01168101908382118183101715611cc957611cc9611c2c565b81604052828152886020848701011115611ce257600080fd5b8260208601602083013760006020848301015280955050505050509250929050565b60008060408385031215611d1757600080fd5b50508035926020909101359150565b60008060008060808587031215611d3c57600080fd5b611d4585611bc9565b966020860135965060408601359560600135945092505050565b60208082526028908201527f575150656e73696f6e46756e643a204c6f636b2074696d65206973206e6f74206040820152671bdd995c881e595d60c21b606082015260800190565b634e487b7160e01b600052601160045260246000fd5b60008219821115611dd057611dd0611da7565b500190565b6020808252601f908201527f5265656e7472616e637947756172643a207265656e7472616e742063616c6c00604082015260600190565b600082821015611e1e57611e1e611da7565b500390565b6000816000190483118215151615611e3d57611e3d611da7565b500290565b600082611e5f57634e487b7160e01b600052601260045260246000fd5b500490565b6020808252602c908201527f46756e6374696f6e206d7573742062652063616c6c6564207468726f7567682060408201526b19195b1959d85d1958d85b1b60a21b606082015260800190565b6020808252602c908201527f46756e6374696f6e206d7573742062652063616c6c6564207468726f7567682060408201526b6163746976652070726f787960a01b606082015260800190565b6020808252602e908201527f496e697469616c697a61626c653a20636f6e747261637420697320616c72656160408201526d191e481a5b9a5d1a585b1a5e995960921b606082015260800190565b60005b83811015611f65578181015183820152602001611f4d565b83811115611f74576000848401525b50505050565b7f416363657373436f6e74726f6c3a206163636f756e7420000000000000000000815260008351611fb2816017850160208801611f4a565b7001034b99036b4b9b9b4b733903937b6329607d1b6017918401918201528351611fe3816028840160208801611f4a565b01602801949350505050565b602081526000825180602084015261200e816040850160208701611f4a565b601f01601f19169190910160400192915050565b634e487b7160e01b600052603260045260246000fd5b60008161204757612047611da7565b506000190190565b60008251612061818460208701611f4a565b919091019291505056fe2344277e405079ec07749d374ba0b5862a4e45a6a05ac889dbb4a991c6f9354d189ab7a9244df0848122154315af71fe140f3db0fe014031783b0946b8c9d2e3416464726573733a206c6f772d6c6576656c2064656c65676174652063616c6c206661696c6564a49807205ce4d355092ef5a8a18f56e8913cf4a201fbe287825b095693c21775a2646970667358221220ac060c3dbe05009aed042cd0a5929ab1051beeff6889e31909fdaf058e40b0aa64736f6c63430008090033",
  "linkReferences": {},
  "deployedLinkReferences": {}
}