{
  "_format": "hh-sol-artifact-1",
  "contractName": "WQDAOVoting",
  "sourceName": "contracts/WQDAOVoting.sol",
  "abi": [
    {
      "inputs": [],
      "stateMutability": "nonpayable",
      "type": "constructor"
    },
    {
      "anonymous": false,
      "inputs": [
        {
          "indexed": false,
          "internalType": "address",
          "name": "previousAdmin",
          "type": "address"
        },
        {
          "indexed": false,
          "internalType": "address",
          "name": "newAdmin",
          "type": "address"
        }
      ],
      "name": "AdminChanged",
      "type": "event"
    },
    {
      "anonymous": false,
      "inputs": [
        {
          "indexed": true,
          "internalType": "address",
          "name": "beacon",
          "type": "address"
        }
      ],
      "name": "BeaconUpgraded",
      "type": "event"
    },
    {
      "anonymous": false,
      "inputs": [
        {
          "indexed": true,
          "internalType": "address",
          "name": "delegator",
          "type": "address"
        },
        {
          "indexed": true,
          "internalType": "address",
          "name": "fromDelegate",
          "type": "address"
        },
        {
          "indexed": true,
          "internalType": "address",
          "name": "toDelegate",
          "type": "address"
        }
      ],
      "name": "DelegateChanged",
      "type": "event"
    },
    {
      "anonymous": false,
      "inputs": [
        {
          "indexed": true,
          "internalType": "address",
          "name": "delegator",
          "type": "address"
        },
        {
          "indexed": true,
          "internalType": "address",
          "name": "delegatee",
          "type": "address"
        },
        {
          "indexed": false,
          "internalType": "uint256",
          "name": "previousBalance",
          "type": "uint256"
        },
        {
          "indexed": false,
          "internalType": "uint256",
          "name": "newBalance",
          "type": "uint256"
        }
      ],
      "name": "DelegateVotesChanged",
      "type": "event"
    },
    {
      "anonymous": false,
      "inputs": [
        {
          "indexed": false,
          "internalType": "uint256",
          "name": "id",
          "type": "uint256"
        },
        {
          "indexed": false,
          "internalType": "uint256",
          "name": "nonce",
          "type": "uint256"
        },
        {
          "indexed": false,
          "internalType": "address",
          "name": "proposer",
          "type": "address"
        },
        {
          "indexed": false,
          "internalType": "string",
          "name": "description",
          "type": "string"
        },
        {
          "indexed": false,
          "internalType": "uint256",
          "name": "votingPeriod",
          "type": "uint256"
        },
        {
          "indexed": false,
          "internalType": "uint256",
          "name": "minimumQuorum",
          "type": "uint256"
        },
        {
          "indexed": false,
          "internalType": "uint256",
          "name": "timestamp",
          "type": "uint256"
        }
      ],
      "name": "ProposalCreated",
      "type": "event"
    },
    {
      "anonymous": false,
      "inputs": [
        {
          "indexed": false,
          "internalType": "uint256",
          "name": "id",
          "type": "uint256"
        },
        {
          "indexed": false,
          "internalType": "bool",
          "name": "succeded",
          "type": "bool"
        },
        {
          "indexed": false,
          "internalType": "bool",
          "name": "defeated",
          "type": "bool"
        }
      ],
      "name": "ProposalExecuted",
      "type": "event"
    },
    {
      "anonymous": false,
      "inputs": [
        {
          "indexed": true,
          "internalType": "bytes32",
          "name": "role",
          "type": "bytes32"
        },
        {
          "indexed": true,
          "internalType": "bytes32",
          "name": "previousAdminRole",
          "type": "bytes32"
        },
        {
          "indexed": true,
          "internalType": "bytes32",
          "name": "newAdminRole",
          "type": "bytes32"
        }
      ],
      "name": "RoleAdminChanged",
      "type": "event"
    },
    {
      "anonymous": false,
      "inputs": [
        {
          "indexed": true,
          "internalType": "bytes32",
          "name": "role",
          "type": "bytes32"
        },
        {
          "indexed": true,
          "internalType": "address",
          "name": "account",
          "type": "address"
        },
        {
          "indexed": true,
          "internalType": "address",
          "name": "sender",
          "type": "address"
        }
      ],
      "name": "RoleGranted",
      "type": "event"
    },
    {
      "anonymous": false,
      "inputs": [
        {
          "indexed": true,
          "internalType": "bytes32",
          "name": "role",
          "type": "bytes32"
        },
        {
          "indexed": true,
          "internalType": "address",
          "name": "account",
          "type": "address"
        },
        {
          "indexed": true,
          "internalType": "address",
          "name": "sender",
          "type": "address"
        }
      ],
      "name": "RoleRevoked",
      "type": "event"
    },
    {
      "anonymous": false,
      "inputs": [
        {
          "indexed": true,
          "internalType": "address",
          "name": "implementation",
          "type": "address"
        }
      ],
      "name": "Upgraded",
      "type": "event"
    },
    {
      "anonymous": false,
      "inputs": [
        {
          "indexed": true,
          "internalType": "address",
          "name": "voter",
          "type": "address"
        },
        {
          "indexed": false,
          "internalType": "uint256",
          "name": "proposalId",
          "type": "uint256"
        },
        {
          "indexed": false,
          "internalType": "bool",
          "name": "support",
          "type": "bool"
        },
        {
          "indexed": false,
          "internalType": "uint256",
          "name": "votes",
          "type": "uint256"
        },
        {
          "indexed": false,
          "internalType": "uint256",
          "name": "timestamp",
          "type": "uint256"
        }
      ],
      "name": "VoteCast",
      "type": "event"
    },
    {
      "inputs": [],
      "name": "ADMIN_ROLE",
      "outputs": [
        {
          "internalType": "bytes32",
          "name": "",
          "type": "bytes32"
        }
      ],
      "stateMutability": "view",
      "type": "function"
    },
    {
      "inputs": [],
      "name": "CHAIRPERSON_ROLE",
      "outputs": [
        {
          "internalType": "bytes32",
          "name": "",
          "type": "bytes32"
        }
      ],
      "stateMutability": "view",
      "type": "function"
    },
    {
      "inputs": [],
      "name": "DEFAULT_ADMIN_ROLE",
      "outputs": [
        {
          "internalType": "bytes32",
          "name": "",
          "type": "bytes32"
        }
      ],
      "stateMutability": "view",
      "type": "function"
    },
    {
      "inputs": [],
      "name": "UPGRADER_ROLE",
      "outputs": [
        {
          "internalType": "bytes32",
          "name": "",
          "type": "bytes32"
        }
      ],
      "stateMutability": "view",
      "type": "function"
    },
    {
      "inputs": [
        {
          "internalType": "uint256",
          "name": "nonce",
          "type": "uint256"
        },
        {
          "internalType": "string",
          "name": "_description",
          "type": "string"
        }
      ],
      "name": "addProposal",
      "outputs": [],
      "stateMutability": "nonpayable",
      "type": "function"
    },
    {
      "inputs": [
        {
          "internalType": "uint256",
          "name": "_minimumQuorum",
          "type": "uint256"
        },
        {
          "internalType": "uint256",
          "name": "_votingPeriod",
          "type": "uint256"
        }
      ],
      "name": "changeVotingRules",
      "outputs": [],
      "stateMutability": "nonpayable",
      "type": "function"
    },
    {
      "inputs": [
        {
          "internalType": "address",
          "name": "account",
          "type": "address"
        },
        {
          "internalType": "uint32",
          "name": "pos",
          "type": "uint32"
        }
      ],
      "name": "checkpoints",
      "outputs": [
        {
          "components": [
            {
              "internalType": "uint32",
              "name": "fromBlock",
              "type": "uint32"
            },
            {
              "internalType": "uint224",
              "name": "votes",
              "type": "uint224"
            }
          ],
          "internalType": "struct WQDAOVoting.Checkpoint",
          "name": "",
          "type": "tuple"
        }
      ],
      "stateMutability": "view",
      "type": "function"
    },
    {
      "inputs": [
        {
          "internalType": "address",
          "name": "delegatee",
          "type": "address"
        }
      ],
      "name": "delegate",
      "outputs": [],
      "stateMutability": "payable",
      "type": "function"
    },
    {
      "inputs": [
        {
          "internalType": "address",
          "name": "account",
          "type": "address"
        }
      ],
      "name": "delegates",
      "outputs": [
        {
          "internalType": "address",
          "name": "",
          "type": "address"
        }
      ],
      "stateMutability": "view",
      "type": "function"
    },
    {
      "inputs": [
        {
          "internalType": "uint256",
          "name": "_proposalId",
          "type": "uint256"
        },
        {
          "internalType": "bool",
          "name": "_support",
          "type": "bool"
        }
      ],
      "name": "doVote",
      "outputs": [],
      "stateMutability": "nonpayable",
      "type": "function"
    },
    {
      "inputs": [
        {
          "internalType": "uint256",
          "name": "_proposalId",
          "type": "uint256"
        }
      ],
      "name": "executeVoting",
      "outputs": [],
      "stateMutability": "nonpayable",
      "type": "function"
    },
    {
      "inputs": [
        {
          "internalType": "address",
          "name": "account",
          "type": "address"
        }
      ],
      "name": "frozed",
      "outputs": [
        {
          "internalType": "uint256",
          "name": "",
          "type": "uint256"
        }
      ],
      "stateMutability": "view",
      "type": "function"
    },
    {
      "inputs": [
        {
          "internalType": "address",
          "name": "account",
          "type": "address"
        },
        {
          "internalType": "uint256",
          "name": "blockNumber",
          "type": "uint256"
        }
      ],
      "name": "getPastVotes",
      "outputs": [
        {
          "internalType": "uint256",
          "name": "",
          "type": "uint256"
        }
      ],
      "stateMutability": "view",
      "type": "function"
    },
    {
      "inputs": [
        {
          "internalType": "uint256",
          "name": "offset",
          "type": "uint256"
        },
        {
          "internalType": "uint256",
          "name": "limit",
          "type": "uint256"
        }
      ],
      "name": "getProposals",
      "outputs": [
        {
          "components": [
            {
              "internalType": "uint256",
              "name": "count",
              "type": "uint256"
            },
            {
              "internalType": "uint256",
              "name": "offset",
              "type": "uint256"
            },
            {
              "internalType": "uint256",
              "name": "limit",
              "type": "uint256"
            },
            {
              "components": [
                {
                  "internalType": "uint256",
                  "name": "id",
                  "type": "uint256"
                },
                {
                  "internalType": "uint256",
                  "name": "nonce",
                  "type": "uint256"
                },
                {
                  "internalType": "uint256",
                  "name": "forVotes",
                  "type": "uint256"
                },
                {
                  "internalType": "uint256",
                  "name": "againstVotes",
                  "type": "uint256"
                },
                {
                  "internalType": "uint256",
                  "name": "numVoters",
                  "type": "uint256"
                },
                {
                  "internalType": "uint256",
                  "name": "startTime",
                  "type": "uint256"
                },
                {
                  "internalType": "uint256",
                  "name": "expireTime",
                  "type": "uint256"
                },
                {
                  "internalType": "uint256",
                  "name": "blockNumber",
                  "type": "uint256"
                },
                {
                  "internalType": "address",
                  "name": "proposer",
                  "type": "address"
                },
                {
                  "internalType": "bool",
                  "name": "active",
                  "type": "bool"
                },
                {
                  "internalType": "string",
                  "name": "description",
                  "type": "string"
                },
                {
                  "internalType": "bool",
                  "name": "succeded",
                  "type": "bool"
                },
                {
                  "internalType": "bool",
                  "name": "defeated",
                  "type": "bool"
                }
              ],
              "internalType": "struct WQDAOVoting.ProposalInfo[]",
              "name": "pages",
              "type": "tuple[]"
            }
          ],
          "internalType": "struct WQDAOVoting.ProposalPages",
          "name": "page",
          "type": "tuple"
        }
      ],
      "stateMutability": "view",
      "type": "function"
    },
    {
      "inputs": [
        {
          "internalType": "uint256",
          "name": "_proposalId",
          "type": "uint256"
        },
        {
          "internalType": "address",
          "name": "_voter",
          "type": "address"
        }
      ],
      "name": "getReceipt",
      "outputs": [
        {
          "components": [
            {
              "internalType": "bool",
              "name": "hasVoted",
              "type": "bool"
            },
            {
              "internalType": "bool",
              "name": "support",
              "type": "bool"
            },
            {
              "internalType": "uint256",
              "name": "votes",
              "type": "uint256"
            }
          ],
          "internalType": "struct WQDAOVoting.Receipt",
          "name": "",
          "type": "tuple"
        }
      ],
      "stateMutability": "view",
      "type": "function"
    },
    {
      "inputs": [
        {
          "internalType": "bytes32",
          "name": "role",
          "type": "bytes32"
        }
      ],
      "name": "getRoleAdmin",
      "outputs": [
        {
          "internalType": "bytes32",
          "name": "",
          "type": "bytes32"
        }
      ],
      "stateMutability": "view",
      "type": "function"
    },
    {
      "inputs": [
        {
          "internalType": "address[]",
          "name": "accounts",
          "type": "address[]"
        }
      ],
      "name": "getVotes",
      "outputs": [
        {
          "internalType": "uint256[]",
          "name": "_delegatee",
          "type": "uint256[]"
        }
      ],
      "stateMutability": "view",
      "type": "function"
    },
    {
      "inputs": [
        {
          "internalType": "bytes32",
          "name": "role",
          "type": "bytes32"
        },
        {
          "internalType": "address",
          "name": "account",
          "type": "address"
        }
      ],
      "name": "grantRole",
      "outputs": [],
      "stateMutability": "nonpayable",
      "type": "function"
    },
    {
      "inputs": [
        {
          "internalType": "bytes32",
          "name": "role",
          "type": "bytes32"
        },
        {
          "internalType": "address",
          "name": "account",
          "type": "address"
        }
      ],
      "name": "hasRole",
      "outputs": [
        {
          "internalType": "bool",
          "name": "",
          "type": "bool"
        }
      ],
      "stateMutability": "view",
      "type": "function"
    },
    {
      "inputs": [
        {
          "internalType": "address",
          "name": "chairPerson",
          "type": "address"
        },
        {
          "internalType": "uint256",
          "name": "_minimumQuorum",
          "type": "uint256"
        },
        {
          "internalType": "uint256",
          "name": "_votingPeriod",
          "type": "uint256"
        },
        {
          "internalType": "uint256",
          "name": "_proposalThreshold",
          "type": "uint256"
        },
        {
          "internalType": "uint256",
          "name": "_voteThreshold",
          "type": "uint256"
        }
      ],
      "name": "initialize",
      "outputs": [],
      "stateMutability": "nonpayable",
      "type": "function"
    },
    {
      "inputs": [],
      "name": "minimumQuorum",
      "outputs": [
        {
          "internalType": "uint256",
          "name": "",
          "type": "uint256"
        }
      ],
      "stateMutability": "view",
      "type": "function"
    },
    {
      "inputs": [
        {
          "internalType": "address",
          "name": "account",
          "type": "address"
        }
      ],
      "name": "numCheckpoints",
      "outputs": [
        {
          "internalType": "uint32",
          "name": "",
          "type": "uint32"
        }
      ],
      "stateMutability": "view",
      "type": "function"
    },
    {
      "inputs": [],
      "name": "proposalCount",
      "outputs": [
        {
          "internalType": "uint256",
          "name": "",
          "type": "uint256"
        }
      ],
      "stateMutability": "view",
      "type": "function"
    },
    {
      "inputs": [],
      "name": "proposalThreshold",
      "outputs": [
        {
          "internalType": "uint256",
          "name": "",
          "type": "uint256"
        }
      ],
      "stateMutability": "view",
      "type": "function"
    },
    {
      "inputs": [
        {
          "internalType": "uint256",
          "name": "",
          "type": "uint256"
        }
      ],
      "name": "proposals",
      "outputs": [
        {
          "internalType": "uint256",
          "name": "id",
          "type": "uint256"
        },
        {
          "internalType": "uint256",
          "name": "nonce",
          "type": "uint256"
        },
        {
          "internalType": "address",
          "name": "proposer",
          "type": "address"
        },
        {
          "internalType": "uint256",
          "name": "forVotes",
          "type": "uint256"
        },
        {
          "internalType": "uint256",
          "name": "againstVotes",
          "type": "uint256"
        },
        {
          "internalType": "uint256",
          "name": "numVoters",
          "type": "uint256"
        },
        {
          "internalType": "uint256",
          "name": "startTime",
          "type": "uint256"
        },
        {
          "internalType": "uint256",
          "name": "expireTime",
          "type": "uint256"
        },
        {
          "internalType": "uint256",
          "name": "blockNumber",
          "type": "uint256"
        },
        {
          "internalType": "bool",
          "name": "active",
          "type": "bool"
        },
        {
          "internalType": "string",
          "name": "description",
          "type": "string"
        },
        {
          "internalType": "bool",
          "name": "succeded",
          "type": "bool"
        },
        {
          "internalType": "bool",
          "name": "defeated",
          "type": "bool"
        }
      ],
      "stateMutability": "view",
      "type": "function"
    },
    {
      "inputs": [],
      "name": "proxiableUUID",
      "outputs": [
        {
          "internalType": "bytes32",
          "name": "",
          "type": "bytes32"
        }
      ],
      "stateMutability": "view",
      "type": "function"
    },
    {
      "inputs": [
        {
          "internalType": "uint256",
          "name": "_proposalId",
          "type": "uint256"
        }
      ],
      "name": "rejectVoting",
      "outputs": [],
      "stateMutability": "nonpayable",
      "type": "function"
    },
    {
      "inputs": [
        {
          "internalType": "bytes32",
          "name": "role",
          "type": "bytes32"
        },
        {
          "internalType": "address",
          "name": "account",
          "type": "address"
        }
      ],
      "name": "renounceRole",
      "outputs": [],
      "stateMutability": "nonpayable",
      "type": "function"
    },
    {
      "inputs": [
        {
          "internalType": "bytes32",
          "name": "role",
          "type": "bytes32"
        },
        {
          "internalType": "address",
          "name": "account",
          "type": "address"
        }
      ],
      "name": "revokeRole",
      "outputs": [],
      "stateMutability": "nonpayable",
      "type": "function"
    },
    {
      "inputs": [
        {
          "internalType": "uint256",
          "name": "amount",
          "type": "uint256"
        }
      ],
      "name": "setProposalThreshold",
      "outputs": [],
      "stateMutability": "nonpayable",
      "type": "function"
    },
    {
      "inputs": [
        {
          "internalType": "uint256",
          "name": "amount",
          "type": "uint256"
        }
      ],
      "name": "setVoteThreshold",
      "outputs": [],
      "stateMutability": "nonpayable",
      "type": "function"
    },
    {
      "inputs": [
        {
          "internalType": "uint256",
          "name": "_proposalId",
          "type": "uint256"
        }
      ],
      "name": "state",
      "outputs": [
        {
          "internalType": "uint8",
          "name": "proposalState",
          "type": "uint8"
        }
      ],
      "stateMutability": "view",
      "type": "function"
    },
    {
      "inputs": [
        {
          "internalType": "bytes4",
          "name": "interfaceId",
          "type": "bytes4"
        }
      ],
      "name": "supportsInterface",
      "outputs": [
        {
          "internalType": "bool",
          "name": "",
          "type": "bool"
        }
      ],
      "stateMutability": "view",
      "type": "function"
    },
    {
      "inputs": [],
      "name": "undelegate",
      "outputs": [],
      "stateMutability": "nonpayable",
      "type": "function"
    },
    {
      "inputs": [
        {
          "internalType": "address",
          "name": "newImplementation",
          "type": "address"
        }
      ],
      "name": "upgradeTo",
      "outputs": [],
      "stateMutability": "nonpayable",
      "type": "function"
    },
    {
      "inputs": [
        {
          "internalType": "address",
          "name": "newImplementation",
          "type": "address"
        },
        {
          "internalType": "bytes",
          "name": "data",
          "type": "bytes"
        }
      ],
      "name": "upgradeToAndCall",
      "outputs": [],
      "stateMutability": "payable",
      "type": "function"
    },
    {
      "inputs": [],
      "name": "voteThreshold",
      "outputs": [
        {
          "internalType": "uint256",
          "name": "",
          "type": "uint256"
        }
      ],
      "stateMutability": "view",
      "type": "function"
    },
    {
      "inputs": [],
      "name": "votingPeriod",
      "outputs": [
        {
          "internalType": "uint256",
          "name": "",
          "type": "uint256"
        }
      ],
      "stateMutability": "view",
      "type": "function"
    }
  ],
  "bytecode": "0x60a0604052306080523480156200001557600080fd5b50600054610100900460ff16620000335760005460ff16156200003d565b6200003d620000e2565b620000a55760405162461bcd60e51b815260206004820152602e60248201527f496e697469616c697a61626c653a20636f6e747261637420697320616c72656160448201526d191e481a5b9a5d1a585b1a5e995960921b606482015260840160405180910390fd5b600054610100900460ff16158015620000c8576000805461ffff19166101011790555b8015620000db576000805461ff00191690555b506200010f565b6000620000fa306200010060201b62001b2a1760201c565b15905090565b6001600160a01b03163b151590565b608051613e076200014760003960008181610cde01528181610d2101528181610ec301528181610f060152610f9e0152613e076000f3fe608060405260043610620002535760003560e01c80636fcfff45116200013b578063d547741f11620000b9578063f1127ed81162000078578063f1127ed8146200080b578063f38ab22c146200085b578063f3d912431462000880578063f72c0d8b14620008a5578063f92ad21914620008ca57600080fd5b8063d547741f14620006d0578063d7b8943614620006f5578063da35c664146200071a578063e23a9a521462000732578063ece40cc114620007e657600080fd5b806391d14854116200010657806391d14854146200063f57806392ab89bb1462000664578063a217fddf146200067c578063a22e58711462000693578063b58131b014620006b857600080fd5b80636fcfff45146200059357806375b238fc14620005ce5780637b6f933814620005f35780638160f0b5146200062757600080fd5b806336568abe11620001d55780634fe437d511620001945780634fe437d514620004c157806352d1902d14620004d9578063587cde1e14620004f15780635c19a95c14620005485780635e3b4365146200055f57600080fd5b806336568abe14620004035780633659cfe614620004285780633a46b1a8146200044d5780633e4f49e614620004725780634f1ef28614620004aa57600080fd5b8063129094851162000222578063129094851462000325578063158059e2146200034a578063248a9ca3146200036f5780632d79fb2014620003a35780632f2ff15d14620003de57600080fd5b8063013cf08b146200025857806301ffc9a714620002a157806302a251a314620002d7578063051097ef14620002fe575b600080fd5b3480156200026557600080fd5b506200027d6200027736600462003068565b620008ef565b604051620002989d9c9b9a99989796959493929190620030df565b60405180910390f35b348015620002ae57600080fd5b50620002c6620002c03660046200316c565b620009fb565b604051901515815260200162000298565b348015620002e457600080fd5b50620002ef60fc5481565b60405190815260200162000298565b3480156200030b57600080fd5b50620003236200031d3660046200322b565b62000a33565b005b3480156200033257600080fd5b50620003236200034436600462003068565b62000bd8565b3480156200035757600080fd5b5062000323620003693660046200328b565b62000bfa565b3480156200037c57600080fd5b50620002ef6200038e36600462003068565b60009081526065602052604090206001015490565b348015620003b057600080fd5b50620002ef620003c2366004620032c6565b6001600160a01b03166000908152610103602052604090205490565b348015620003eb57600080fd5b5062000323620003fd366004620032e4565b62000c22565b3480156200041057600080fd5b506200032362000422366004620032e4565b62000c51565b3480156200043557600080fd5b506200032362000447366004620032c6565b62000cd3565b3480156200045a57600080fd5b50620002ef6200046c36600462003313565b62000dbf565b3480156200047f57600080fd5b50620004976200049136600462003068565b62000e3e565b60405160ff909116815260200162000298565b62000323620004bb36600462003340565b62000eb8565b348015620004ce57600080fd5b50620002ef60fe5481565b348015620004e657600080fd5b50620002ef62000f91565b348015620004fe57600080fd5b506200052f62000510366004620032c6565b6001600160a01b03908116600090815261010160205260409020541690565b6040516001600160a01b03909116815260200162000298565b6200032362000559366004620032c6565b62001047565b3480156200056c57600080fd5b50620005846200057e3660046200328b565b62001054565b6040516200029891906200337c565b348015620005a057600080fd5b50620005b8620005b2366004620032c6565b620014b9565b60405163ffffffff909116815260200162000298565b348015620005db57600080fd5b50620002ef60008051602062003d9283398151915281565b3480156200060057600080fd5b506200061862000612366004620034b3565b620014de565b6040516200029891906200352d565b3480156200063457600080fd5b50620002ef60fb5481565b3480156200064c57600080fd5b50620002c66200065e366004620032e4565b6200165a565b3480156200067157600080fd5b506200032362001685565b3480156200068957600080fd5b50620002ef600081565b348015620006a057600080fd5b50620002ef60008051602062003db283398151915281565b348015620006c557600080fd5b50620002ef60fd5481565b348015620006dd57600080fd5b5062000323620006ef366004620032e4565b62001692565b3480156200070257600080fd5b50620003236200071436600462003573565b620016bc565b3480156200072757600080fd5b50620002ef60ff5481565b3480156200073f57600080fd5b50620007bf62000751366004620032e4565b6040805160608082018352600080835260208084018290529284018190529485526101008083528386206001600160a01b03959095168652600b90940182529382902082519485018352805460ff808216151587529490049093161515908401526001909101549082015290565b60408051825115158152602080840151151590820152918101519082015260600162000298565b348015620007f357600080fd5b50620003236200080536600462003068565b62001715565b3480156200081857600080fd5b50620008306200082a366004620035aa565b62001737565b60408051825163ffffffff1681526020928301516001600160e01b0316928101929092520162000298565b3480156200086857600080fd5b50620003236200087a36600462003068565b620017bf565b3480156200088d57600080fd5b50620003236200089f36600462003068565b620018a8565b348015620008b257600080fd5b50620002ef60008051602062003d2b83398151915281565b348015620008d757600080fd5b5062000323620008e9366004620035e3565b6200198c565b61010060205260009081526040902080546001820154600283015460038401546004850154600586015460068701546007880154600889015460098a0154600a8b0180549a9b999a6001600160a01b039099169997989697959694959394929360ff90921692620009609062003628565b80601f01602080910402602001604051908101604052809291908181526020018280546200098e9062003628565b8015620009df5780601f10620009b357610100808354040283529160200191620009df565b820191906000526020600020905b815481529060010190602001808311620009c157829003601f168201915b505050600c909301549192505060ff808216916101009004168d565b60006001600160e01b03198216637965db0b60e01b148062000a2d57506301ffc9a760e01b6001600160e01b03198316145b92915050565b60fd5462000a48336200046c6001436200367b565b101562000ab35760405162461bcd60e51b815260206004820152602e60248201527f575144414f3a2050726f706f73657220766f7465732062656c6f772070726f7060448201526d1bdcd85b081d1a1c995cda1bdb1960921b60648201526084015b60405180910390fd5b60ff80546000916101009183918262000acc8362003695565b9190505581526020019081526020016000209050600160ff5462000af191906200367b565b815560018082018490556002820180546001600160a01b0319163317905560006005830181905560038301819055600483015560098201805460ff19169091179055426006820181905560fc5462000b4991620036b3565b6007820155436008820155815162000b6b90600a830190602085019062002fb8565b50600c8101805461ffff1916905560ff547f72dbd7436d0d73b2471f42ff04f375e4d86f8ec7459d7c8d3a49f01266d698b39062000bac906001906200367b565b84338560fc5460fb544260405162000bcb9796959493929190620036ce565b60405180910390a1505050565b60008051602062003d9283398151915262000bf4813362001b39565b5060fe55565b60008051602062003d9283398151915262000c16813362001b39565b5060fb9190915560fc55565b60008281526065602052604090206001015462000c40813362001b39565b62000c4c838362001ba8565b505050565b6001600160a01b038116331462000cc35760405162461bcd60e51b815260206004820152602f60248201527f416363657373436f6e74726f6c3a2063616e206f6e6c792072656e6f756e636560448201526e103937b632b9903337b91039b2b63360891b606482015260840162000aaa565b62000ccf828262001c32565b5050565b306001600160a01b037f000000000000000000000000000000000000000000000000000000000000000016141562000d1f5760405162461bcd60e51b815260040162000aaa906200371c565b7f00000000000000000000000000000000000000000000000000000000000000006001600160a01b031662000d6a60008051602062003d4b833981519152546001600160a01b031690565b6001600160a01b03161462000d935760405162461bcd60e51b815260040162000aaa9062003768565b62000d9e8162001c9c565b6040805160008082526020820190925262000dbc9183919062001cb8565b50565b600043821062000e125760405162461bcd60e51b815260206004820152601a60248201527f575144414f3a20626c6f636b206e6f7420796574206d696e6564000000000000604482015260640162000aaa565b6001600160a01b03831660009081526101026020526040902062000e37908362001e40565b9392505050565b600060ff54821062000e645760405162461bcd60e51b815260040162000aaa90620037b4565b6000828152610100602052604090206009015460ff161562000e8857506002919050565b600082815261010060205260409020600c015460ff1662000eab57600062000a2d565b600192915050565b919050565b306001600160a01b037f000000000000000000000000000000000000000000000000000000000000000016141562000f045760405162461bcd60e51b815260040162000aaa906200371c565b7f00000000000000000000000000000000000000000000000000000000000000006001600160a01b031662000f4f60008051602062003d4b833981519152546001600160a01b031690565b6001600160a01b03161462000f785760405162461bcd60e51b815260040162000aaa9062003768565b62000f838262001c9c565b62000ccf8282600162001cb8565b6000306001600160a01b037f00000000000000000000000000000000000000000000000000000000000000001614620010335760405162461bcd60e51b815260206004820152603860248201527f555550535570677261646561626c653a206d757374206e6f742062652063616c60448201527f6c6564207468726f7567682064656c656761746563616c6c0000000000000000606482015260840162000aaa565b5060008051602062003d4b83398151915290565b62000dbc33823462001f0f565b620010806040518060800160405280600081526020016000815260200160008152602001606081525090565b60ff54808252602082018490526200109a9084906200367b565b821115620010b5578260ff54620010b291906200367b565b91505b604081018290528167ffffffffffffffff811115620010d857620010d862003198565b6040519080825280602002602001820160405280156200118657816020015b62001172604051806101a00160405280600081526020016000815260200160008152602001600081526020016000815260200160008152602001600081526020016000815260200160006001600160a01b03168152602001600015158152602001606081526020016000151581526020016000151581525090565b815260200190600190039081620010f75790505b50606082015260005b82811015620014b257604051806101a0016040528061010060008488620011b79190620036b3565b815260200190815260200160002060000154815260200161010060008488620011e19190620036b3565b8152602001908152602001600020600101548152602001610100600084886200120b9190620036b3565b815260200190815260200160002060030154815260200161010060008488620012359190620036b3565b8152602001908152602001600020600401548152602001610100600084886200125f9190620036b3565b815260200190815260200160002060050154815260200161010060008488620012899190620036b3565b815260200190815260200160002060060154815260200161010060008488620012b39190620036b3565b815260200190815260200160002060070154815260200161010060008488620012dd9190620036b3565b815260200190815260200160002060080154815260200161010060008488620013079190620036b3565b81526020808201929092526040016000908120600201546001600160a01b03168352910190610100906200133c8589620036b3565b815260208082019290925260400160009081206009015460ff1615158352910190610100906200136d8589620036b3565b8152602001908152602001600020600a0180546200138b9062003628565b80601f0160208091040260200160405190810160405280929190818152602001828054620013b99062003628565b80156200140a5780601f10620013de576101008083540402835291602001916200140a565b820191906000526020600020905b815481529060010190602001808311620013ec57829003601f168201915b50505091835250506020016101006000620014268589620036b3565b81526020808201929092526040016000908120600c015460ff161515835291019061010090620014578589620036b3565b81526020810191909152604001600020600c0154610100900460ff16151590526060830151805183908110620014915762001491620037eb565b60200260200101819052508080620014a99062003695565b9150506200118f565b5092915050565b6001600160a01b0381166000908152610102602052604081205462000a2d906200220f565b60608167ffffffffffffffff811115620014fc57620014fc62003198565b60405190808252806020026020018201604052801562001526578160200160208202803683370190505b50905060005b82811015620014b25760006101026000868685818110620015515762001551620037eb565b9050602002016020810190620015689190620032c6565b6001600160a01b031681526020810191909152604001600020549050801562001618576101026000868685818110620015a557620015a5620037eb565b9050602002016020810190620015bc9190620032c6565b6001600160a01b031681526020810191909152604001600020620015e26001836200367b565b81548110620015f557620015f5620037eb565b60009182526020909120015464010000000090046001600160e01b03166200161b565b60005b6001600160e01b0316838381518110620016395762001639620037eb565b60209081029190910101525080620016518162003695565b9150506200152c565b60009182526065602090815260408084206001600160a01b0393909316845291905290205460ff1690565b62001690336200227a565b565b600082815260656020526040902060010154620016b0813362001b39565b62000c4c838362001c32565b337fefa3d674e0475fb6175e081d7938ee5c64950b1a41fabffb968a8ed87482f4848383620016ed848383620023d7565b6040805193845291151560208401529082015242606082015260800160405180910390a25050565b60008051602062003d9283398151915262001731813362001b39565b5060fd55565b60408051808201909152600080825260208201526001600160a01b038316600090815261010260205260409020805463ffffffff84169081106200177f576200177f620037eb565b60009182526020918290206040805180820190915291015463ffffffff8116825264010000000090046001600160e01b0316918101919091529392505050565b60008051602062003db2833981519152620017db813362001b39565b60ff548210620017ff5760405162461bcd60e51b815260040162000aaa90620037b4565b6000828152610100602052604090206009015460ff161515600114620018395760405162461bcd60e51b815260040162000aaa9062003801565b60008281526101006020818152604080842060098101805460ff19169055600c01805461ffff1916909317909255815185815290810192909252600182820152517f75bba44f29e4b104d366019dfced0c087f66d06097db8b746faab6ee440702979181900360600190a15050565b60008051602062003db2833981519152620018c4813362001b39565b60ff548210620018e85760405162461bcd60e51b815260040162000aaa90620037b4565b600082815261010060205260409020600981015460ff161515600114620019235760405162461bcd60e51b815260040162000aaa9062003801565b60098101805460ff191690556200193a83620025f9565b600c8101546040805185815260ff808416151560208301526101009093049092161515908201527f75bba44f29e4b104d366019dfced0c087f66d06097db8b746faab6ee440702979060600162000bcb565b600054610100900460ff16620019a95760005460ff1615620019ad565b303b155b62001a125760405162461bcd60e51b815260206004820152602e60248201527f496e697469616c697a61626c653a20636f6e747261637420697320616c72656160448201526d191e481a5b9a5d1a585b1a5e995960921b606482015260840162000aaa565b600054610100900460ff1615801562001a35576000805461ffff19166101011790555b62001a3f62002653565b62001a4962002653565b62001a56600033620026c0565b62001a7160008051602062003d9283398151915233620026c0565b62001a8c60008051602062003d2b83398151915233620026c0565b62001aa760008051602062003db283398151915287620026c0565b62001ad160008051602062003db283398151915260008051602062003d92833981519152620026cc565b62001afb60008051602062003d2b83398151915260008051602062003d92833981519152620026cc565b60fb85905560fc84905560fd83905560fe829055801562001b22576000805461ff00191690555b505050505050565b6001600160a01b03163b151590565b62001b4582826200165a565b62000ccf5762001b60816001600160a01b0316601462002717565b62001b6d83602062002717565b60405160200162001b8092919062003838565b60408051601f198184030181529082905262461bcd60e51b825262000aaa91600401620038b1565b62001bb482826200165a565b62000ccf5760008281526065602090815260408083206001600160a01b03851684529091529020805460ff1916600117905562001bee3390565b6001600160a01b0316816001600160a01b0316837f2f8788117e7eff1d82e926ec794901d17c78024a50270940304540a733656f0d60405160405180910390a45050565b62001c3e82826200165a565b1562000ccf5760008281526065602090815260408083206001600160a01b0385168085529252808320805460ff1916905551339285917ff6391f5c32d9c69d2a47ea670b442974b53935d1edc7fd64eb21e047a839171b9190a45050565b60008051602062003d2b83398151915262000ccf813362001b39565b7f4910fdfa16fed3260ed0e7147f7cc6da11a60208b5b9406d12a635614ffd91435460ff161562001cee5762000c4c83620028d1565b826001600160a01b03166352d1902d6040518163ffffffff1660e01b815260040160206040518083038186803b15801562001d2857600080fd5b505afa92505050801562001d5b575060408051601f3d908101601f1916820190925262001d5891810190620038c6565b60015b62001dc05760405162461bcd60e51b815260206004820152602e60248201527f45524331393637557067726164653a206e657720696d706c656d656e7461746960448201526d6f6e206973206e6f74205555505360901b606482015260840162000aaa565b60008051602062003d4b833981519152811462001e325760405162461bcd60e51b815260206004820152602960248201527f45524331393637557067726164653a20756e737570706f727465642070726f786044820152681a58589b195555525160ba1b606482015260840162000aaa565b5062000c4c83838362002970565b8154600090815b8181101562001eaf57600062001e5e8284620029a1565b90508486828154811062001e765762001e76620037eb565b60009182526020909120015463ffffffff16111562001e985780925062001ea8565b62001ea5816001620036b3565b91505b5062001e47565b811562001efa578462001ec46001846200367b565b8154811062001ed75762001ed7620037eb565b60009182526020909120015464010000000090046001600160e01b031662001efd565b60005b6001600160e01b031695945050505050565b6001600160a01b03831662001f7c5760405162461bcd60e51b815260206004820152602c60248201527f575144414f3a2043616e7427742064656c65676174652066726f6d207468652060448201526b7a65726f206164647265737360a01b606482015260840162000aaa565b6001600160a01b03821662001fe75760405162461bcd60e51b815260206004820152602a60248201527f575144414f3a2043616e7427742064656c656761746520746f20746865207a65604482015269726f206164647265737360b01b606482015260840162000aaa565b6001600160a01b038381166000908152610104602052604090205416620020765733604051620020179062003043565b6001600160a01b039091168152602001604051809103906000f08015801562002044573d6000803e3d6000fd5b506001600160a01b0384811660009081526101046020526040902080546001600160a01b031916929091169190911790555b6001600160a01b03831660009081526101036020526040902054156200211a576001600160a01b038084166000908152610104602090815260408083205461010390925291829020549151630928a5dd60e11b81529216916312514bba91620020e59160040190815260200190565b600060405180830381600087803b1580156200210057600080fd5b505af115801562002115573d6000803e3d6000fd5b505050505b6001600160a01b038084166000908152610104602052604090205462002142911682620029c0565b6001600160a01b0383811660008181526101016020526040808220549051848716949190911692917f3134e8a2e6d97e929a7e54011ea5485d7d196dd5f0ba4d4ef95803e8e3fc257f91a46001600160a01b0380841660009081526101016020908152604080832054610103909252822054620021c59391909116919062002adf565b620021d36000838362002adf565b6001600160a01b039283166000908152610103602090815260408083209390935561010190522080546001600160a01b03191691909216179055565b600063ffffffff821115620022765760405162461bcd60e51b815260206004820152602660248201527f53616665436173743a2076616c756520646f65736e27742066697420696e203360448201526532206269747360d01b606482015260840162000aaa565b5090565b6001600160a01b038181166000818152610101602052604080822054905191931691907f3134e8a2e6d97e929a7e54011ea5485d7d196dd5f0ba4d4ef95803e8e3fc257f908490a46001600160a01b0380821660009081526101016020908152604080832054610103909252822054620022fa9391909116919062002adf565b6001600160a01b03811660009081526101036020526040902054156200239e576001600160a01b038082166000908152610104602090815260408083205461010390925291829020549151630928a5dd60e11b81529216916312514bba91620023699160040190815260200190565b600060405180830381600087803b1580156200238457600080fd5b505af115801562002399573d6000803e3d6000fd5b505050505b6001600160a01b0316600090815261010360209081526040808320839055338352610101909152902080546001600160a01b0319169055565b600060ff548310620023fd5760405162461bcd60e51b815260040162000aaa90620037b4565b60008381526101006020526040812060088101549091906200242190879062000dbf565b905060fe54811015620024875760405162461bcd60e51b815260206004820152602760248201527f575144414f3a20566f74657220766f7465732062656c6f7720766f74652074686044820152661c995cda1bdb1960ca1b606482015260840162000aaa565b6001600160a01b0386166000908152600b830160205260409020600983015460ff161515600114620024cd5760405162461bcd60e51b815260040162000aaa9062003801565b805460ff1615620025215760405162461bcd60e51b815260206004820152601e60248201527f575144414f3a20566f7465722068617320616c726561647920766f7465640000604482015260640162000aaa565b82600701544210620025765760405162461bcd60e51b815260206004820152601760248201527f575144414f3a2050726f706f73616c2065787069726564000000000000000000604482015260640162000aaa565b84156200259f5781836003016000828254620025939190620036b3565b90915550620025bb9050565b81836004016000828254620025b59190620036b3565b90915550505b600583018054906000620025cf8362003695565b90915550508054600161ffff19909116610100871515021781178255018190559150509392505050565b6000818152610100602052604090206004810154600382015411801562002625575060fb548160050154115b156200263e57600c8101805460ff191660011790555050565b600c8101805461ff0019166101001790555050565b600054610100900460ff16620016905760405162461bcd60e51b815260206004820152602b60248201527f496e697469616c697a61626c653a20636f6e7472616374206973206e6f74206960448201526a6e697469616c697a696e6760a81b606482015260840162000aaa565b62000ccf828262001ba8565b600082815260656020526040808220600101805490849055905190918391839186917fbd79b86ffe0ab8e8776151514217cd7cacd52c909f66475c3af44e129f0b00ff9190a4505050565b6060600062002728836002620038e0565b62002735906002620036b3565b67ffffffffffffffff81111562002750576200275062003198565b6040519080825280601f01601f1916602001820160405280156200277b576020820181803683370190505b509050600360fc1b81600081518110620027995762002799620037eb565b60200101906001600160f81b031916908160001a905350600f60fb1b81600181518110620027cb57620027cb620037eb565b60200101906001600160f81b031916908160001a9053506000620027f1846002620038e0565b620027fe906001620036b3565b90505b600181111562002880576f181899199a1a9b1b9c1cb0b131b232b360811b85600f1660108110620028365762002836620037eb565b1a60f81b8282815181106200284f576200284f620037eb565b60200101906001600160f81b031916908160001a90535060049490941c93620028788162003902565b905062002801565b50831562000e375760405162461bcd60e51b815260206004820181905260248201527f537472696e67733a20686578206c656e67746820696e73756666696369656e74604482015260640162000aaa565b6001600160a01b0381163b620029405760405162461bcd60e51b815260206004820152602d60248201527f455243313936373a206e657720696d706c656d656e746174696f6e206973206e60448201526c1bdd08184818dbdb9d1c9858dd609a1b606482015260840162000aaa565b60008051602062003d4b83398151915280546001600160a01b0319166001600160a01b0392909216919091179055565b6200297b8362002c20565b600082511180620029895750805b1562000c4c576200299b838362002c62565b50505050565b6000620029b260028484186200391c565b62000e3790848416620036b3565b8047101562002a125760405162461bcd60e51b815260206004820152601d60248201527f416464726573733a20696e73756666696369656e742062616c616e6365000000604482015260640162000aaa565b6000826001600160a01b03168260405160006040518083038185875af1925050503d806000811462002a61576040519150601f19603f3d011682016040523d82523d6000602084013e62002a66565b606091505b505090508062000c4c5760405162461bcd60e51b815260206004820152603a60248201527f416464726573733a20756e61626c6520746f2073656e642076616c75652c207260448201527f6563697069656e74206d61792068617665207265766572746564000000000000606482015260840162000aaa565b816001600160a01b0316836001600160a01b03161415801562002b025750600081115b1562000c4c576001600160a01b0383161562002b92576001600160a01b038316600090815261010260205260408120819062002b439062002d5f8562002d6d565b60408051838152602081018390529294509092506001600160a01b0387169133917f8553411b8bbb348336351063649aa1f4fa74c4935f5c4386469a017df33a1f66910160405180910390a350505b6001600160a01b0382161562000c4c576001600160a01b038216600090815261010260205260408120819062002bcd9062002f018562002d6d565b60408051838152602081018390529294509092506001600160a01b0386169133917f8553411b8bbb348336351063649aa1f4fa74c4935f5c4386469a017df33a1f66910160405180910390a35050505050565b62002c2b81620028d1565b6040516001600160a01b038216907fbc7cd75a20ee27fd9adebab32041f755214dbc6bffa90cc0225b39da2e5c2d3b90600090a250565b60606001600160a01b0383163b62002ccc5760405162461bcd60e51b815260206004820152602660248201527f416464726573733a2064656c65676174652063616c6c20746f206e6f6e2d636f6044820152651b9d1c9858dd60d21b606482015260840162000aaa565b600080846001600160a01b03168460405162002ce991906200393f565b600060405180830381855af49150503d806000811462002d26576040519150601f19603f3d011682016040523d82523d6000602084013e62002d2b565b606091505b509150915062002d56828260405180606001604052806027815260200162003d6b6027913962002f0f565b95945050505050565b600062000e3782846200367b565b82546000908190801562002dbf578562002d896001836200367b565b8154811062002d9c5762002d9c620037eb565b60009182526020909120015464010000000090046001600160e01b031662002dc2565b60005b6001600160e01b0316925062002ddc83858763ffffffff16565b915060008111801562002e205750438662002df96001846200367b565b8154811062002e0c5762002e0c620037eb565b60009182526020909120015463ffffffff16145b1562002e895762002e318262002f4d565b8662002e3f6001846200367b565b8154811062002e525762002e52620037eb565b9060005260206000200160000160046101000a8154816001600160e01b0302191690836001600160e01b0316021790555062002ef8565b85604051806040016040528062002ea0436200220f565b63ffffffff16815260200162002eb68562002f4d565b6001600160e01b0390811690915282546001810184556000938452602093849020835194909301519091166401000000000263ffffffff909316929092179101555b50935093915050565b600062000e378284620036b3565b6060831562002f2057508162000e37565b82511562002f315782518084602001fd5b8160405162461bcd60e51b815260040162000aaa9190620038b1565b60006001600160e01b03821115620022765760405162461bcd60e51b815260206004820152602760248201527f53616665436173743a2076616c756520646f65736e27742066697420696e20326044820152663234206269747360c81b606482015260840162000aaa565b82805462002fc69062003628565b90600052602060002090601f01602090048101928262002fea576000855562003035565b82601f106200300557805160ff191683800117855562003035565b8280016001018555821562003035579182015b828111156200303557825182559160200191906001019062003018565b506200227692915062003051565b6103cd806200395e83390190565b5b8082111562002276576000815560010162003052565b6000602082840312156200307b57600080fd5b5035919050565b60005b838110156200309f57818101518382015260200162003085565b838111156200299b5750506000910152565b60008151808452620030cb81602086016020860162003082565b601f01601f19169290920160200192915050565b60006101a08f83528e602084015260018060a01b038e1660408401528c60608401528b60808401528a60a08401528960c08401528860e084015287610100840152861515610120840152806101408401526200313e81840187620030b1565b9150508315156101608301526200315a61018083018415159052565b9e9d5050505050505050505050505050565b6000602082840312156200317f57600080fd5b81356001600160e01b03198116811462000e3757600080fd5b634e487b7160e01b600052604160045260246000fd5b600067ffffffffffffffff80841115620031cc57620031cc62003198565b604051601f8501601f19908116603f01168101908282118183101715620031f757620031f762003198565b816040528093508581528686860111156200321157600080fd5b858560208301376000602087830101525050509392505050565b600080604083850312156200323f57600080fd5b82359150602083013567ffffffffffffffff8111156200325e57600080fd5b8301601f810185136200327057600080fd5b6200328185823560208401620031ae565b9150509250929050565b600080604083850312156200329f57600080fd5b50508035926020909101359150565b80356001600160a01b038116811462000eb357600080fd5b600060208284031215620032d957600080fd5b62000e3782620032ae565b60008060408385031215620032f857600080fd5b823591506200330a60208401620032ae565b90509250929050565b600080604083850312156200332757600080fd5b6200333283620032ae565b946020939093013593505050565b600080604083850312156200335457600080fd5b6200335f83620032ae565b9150602083013567ffffffffffffffff8111156200325e57600080fd5b6000602080835260a0808401855183860152828601516040818188015280880151915060608281890152808901519250608080818a015284845180875260c09650868b019150868160051b8c0101898701965060005b82811015620034a25760bf198d83030184528751805183528b8101518c8401528781015188840152868101518784015285810151868401528a8101518b840152898101518a84015260e08082015190840152610100808201516001600160a01b03169084015261012080820151151590840152610140808201516101a082860181905291906200346583870182620030b1565b92505050610160808301516200347e8287018215159052565b50506101809182015115159390910192909252968a0196928a0192600101620033d2565b509c9b505050505050505050505050565b60008060208385031215620034c757600080fd5b823567ffffffffffffffff80821115620034e057600080fd5b818501915085601f830112620034f557600080fd5b8135818111156200350557600080fd5b8660208260051b85010111156200351b57600080fd5b60209290920196919550909350505050565b6020808252825182820181905260009190848201906040850190845b81811015620035675783518352928401929184019160010162003549565b50909695505050505050565b600080604083850312156200358757600080fd5b82359150602083013580151581146200359f57600080fd5b809150509250929050565b60008060408385031215620035be57600080fd5b620035c983620032ae565b9150602083013563ffffffff811681146200359f57600080fd5b600080600080600060a08688031215620035fc57600080fd5b6200360786620032ae565b97602087013597506040870135966060810135965060800135945092505050565b600181811c908216806200363d57607f821691505b602082108114156200365f57634e487b7160e01b600052602260045260246000fd5b50919050565b634e487b7160e01b600052601160045260246000fd5b60008282101562003690576200369062003665565b500390565b6000600019821415620036ac57620036ac62003665565b5060010190565b60008219821115620036c957620036c962003665565b500190565b87815286602082015260018060a01b038616604082015260e060608201526000620036fd60e0830187620030b1565b60808301959095525060a081019290925260c090910152949350505050565b6020808252602c908201527f46756e6374696f6e206d7573742062652063616c6c6564207468726f7567682060408201526b19195b1959d85d1958d85b1b60a21b606082015260800190565b6020808252602c908201527f46756e6374696f6e206d7573742062652063616c6c6564207468726f7567682060408201526b6163746976652070726f787960a01b606082015260800190565b6020808252601a908201527f575144414f3a20496e76616c69642070726f706f73616c206964000000000000604082015260600190565b634e487b7160e01b600052603260045260246000fd5b60208082526017908201527f575144414f3a20566f74696e6720697320636c6f736564000000000000000000604082015260600190565b7f416363657373436f6e74726f6c3a206163636f756e74200000000000000000008152600083516200387281601785016020880162003082565b7001034b99036b4b9b9b4b733903937b6329607d1b6017918401918201528351620038a581602884016020880162003082565b01602801949350505050565b60208152600062000e376020830184620030b1565b600060208284031215620038d957600080fd5b5051919050565b6000816000190483118215151615620038fd57620038fd62003665565b500290565b60008162003914576200391462003665565b506000190190565b6000826200393a57634e487b7160e01b600052601260045260246000fd5b500490565b600082516200395381846020870162003082565b919091019291505056fe608060405234801561001057600080fd5b506040516103cd3803806103cd83398101604081905261002f91610062565b60008054336001600160a01b031991821617909155600180549091166001600160a01b0392909216919091179055610092565b60006020828403121561007457600080fd5b81516001600160a01b038116811461008b57600080fd5b9392505050565b61032c806100a16000396000f3fe6080604052600436106100385760003560e01c806312514bba146100775780634162169f146100995780638da5cb5b146100d557600080fd5b36610072576040513481527fa8142743f8f70a4c26f3691cf4ed59718381fb2f18070ec52be1f1022d8555579060200160405180910390a1005b600080fd5b34801561008357600080fd5b506100976100923660046102dd565b6100f5565b005b3480156100a557600080fd5b506000546100b9906001600160a01b031681565b6040516001600160a01b03909116815260200160405180910390f35b3480156100e157600080fd5b506001546100b9906001600160a01b031681565b6000546001600160a01b031633146101605760405162461bcd60e51b815260206004820152602360248201527f5751526f757465725661756c743a2053656e646572206973206e6f7420726f756044820152623a32b960e91b60648201526084015b60405180910390fd5b600154610176906001600160a01b0316826101bf565b600154604080516001600160a01b039092168252602082018390527fe6d858f14d755446648a6e0c8ab8b5a0f58ccc7920d4c910b0454e4dcd869af0910160405180910390a150565b8047101561020f5760405162461bcd60e51b815260206004820152601d60248201527f416464726573733a20696e73756666696369656e742062616c616e63650000006044820152606401610157565b6000826001600160a01b03168260405160006040518083038185875af1925050503d806000811461025c576040519150601f19603f3d011682016040523d82523d6000602084013e610261565b606091505b50509050806102d85760405162461bcd60e51b815260206004820152603a60248201527f416464726573733a20756e61626c6520746f2073656e642076616c75652c207260448201527f6563697069656e74206d617920686176652072657665727465640000000000006064820152608401610157565b505050565b6000602082840312156102ef57600080fd5b503591905056fea26469706673582212209188b5c88e7cb549bd60f6d1e06ea67453933bba3e60f952b5ba0915fbca8e5b64736f6c63430008090033189ab7a9244df0848122154315af71fe140f3db0fe014031783b0946b8c9d2e3360894a13ba1a3210667c828492db98dca3e2076cc3735a920a3ca505d382bbc416464726573733a206c6f772d6c6576656c2064656c65676174652063616c6c206661696c6564a49807205ce4d355092ef5a8a18f56e8913cf4a201fbe287825b095693c21775d83c1a50dc0a09945cd355882e9b92d840723815900d90b54a78888e14a1aceea2646970667358221220437f20588c7479b8ead6d7f07db224712a505e4e58667d2f1d2b7e779cd1a5e064736f6c63430008090033",
  "linkReferences": {},
  "deployedLinkReferences": {}
}