{
  "_format": "hh-sol-artifact-1",
  "contractName": "WQDAOVoting",
  "sourceName": "contracts/WQDAOVoting.sol",
  "abi": [
    {
      "inputs": [],
      "stateMutability": "nonpayable",
      "type": "constructor"
    },
    {
      "anonymous": false,
      "inputs": [
        {
          "indexed": false,
          "internalType": "address",
          "name": "previousAdmin",
          "type": "address"
        },
        {
          "indexed": false,
          "internalType": "address",
          "name": "newAdmin",
          "type": "address"
        }
      ],
      "name": "AdminChanged",
      "type": "event"
    },
    {
      "anonymous": false,
      "inputs": [
        {
          "indexed": true,
          "internalType": "address",
          "name": "beacon",
          "type": "address"
        }
      ],
      "name": "BeaconUpgraded",
      "type": "event"
    },
    {
      "anonymous": false,
      "inputs": [
        {
          "indexed": false,
          "internalType": "uint256",
          "name": "id",
          "type": "uint256"
        },
        {
          "indexed": false,
          "internalType": "uint256",
          "name": "nonce",
          "type": "uint256"
        },
        {
          "indexed": false,
          "internalType": "address",
          "name": "proposer",
          "type": "address"
        },
        {
          "indexed": false,
          "internalType": "string",
          "name": "description",
          "type": "string"
        },
        {
          "indexed": false,
          "internalType": "uint256",
          "name": "votingPeriod",
          "type": "uint256"
        },
        {
          "indexed": false,
          "internalType": "uint256",
          "name": "minimumQuorum",
          "type": "uint256"
        },
        {
          "indexed": false,
          "internalType": "uint256",
          "name": "timestamp",
          "type": "uint256"
        }
      ],
      "name": "ProposalCreated",
      "type": "event"
    },
    {
      "anonymous": false,
      "inputs": [
        {
          "indexed": false,
          "internalType": "uint256",
          "name": "id",
          "type": "uint256"
        },
        {
          "indexed": false,
          "internalType": "bool",
          "name": "succeded",
          "type": "bool"
        },
        {
          "indexed": false,
          "internalType": "bool",
          "name": "defeated",
          "type": "bool"
        }
      ],
      "name": "ProposalExecuted",
      "type": "event"
    },
    {
      "anonymous": false,
      "inputs": [
        {
          "indexed": true,
          "internalType": "bytes32",
          "name": "role",
          "type": "bytes32"
        },
        {
          "indexed": true,
          "internalType": "bytes32",
          "name": "previousAdminRole",
          "type": "bytes32"
        },
        {
          "indexed": true,
          "internalType": "bytes32",
          "name": "newAdminRole",
          "type": "bytes32"
        }
      ],
      "name": "RoleAdminChanged",
      "type": "event"
    },
    {
      "anonymous": false,
      "inputs": [
        {
          "indexed": true,
          "internalType": "bytes32",
          "name": "role",
          "type": "bytes32"
        },
        {
          "indexed": true,
          "internalType": "address",
          "name": "account",
          "type": "address"
        },
        {
          "indexed": true,
          "internalType": "address",
          "name": "sender",
          "type": "address"
        }
      ],
      "name": "RoleGranted",
      "type": "event"
    },
    {
      "anonymous": false,
      "inputs": [
        {
          "indexed": true,
          "internalType": "bytes32",
          "name": "role",
          "type": "bytes32"
        },
        {
          "indexed": true,
          "internalType": "address",
          "name": "account",
          "type": "address"
        },
        {
          "indexed": true,
          "internalType": "address",
          "name": "sender",
          "type": "address"
        }
      ],
      "name": "RoleRevoked",
      "type": "event"
    },
    {
      "anonymous": false,
      "inputs": [
        {
          "indexed": true,
          "internalType": "address",
          "name": "implementation",
          "type": "address"
        }
      ],
      "name": "Upgraded",
      "type": "event"
    },
    {
      "anonymous": false,
      "inputs": [
        {
          "indexed": true,
          "internalType": "address",
          "name": "voter",
          "type": "address"
        },
        {
          "indexed": false,
          "internalType": "uint256",
          "name": "proposalId",
          "type": "uint256"
        },
        {
          "indexed": false,
          "internalType": "bool",
          "name": "support",
          "type": "bool"
        },
        {
          "indexed": false,
          "internalType": "uint256",
          "name": "votes",
          "type": "uint256"
        },
        {
          "indexed": false,
          "internalType": "uint256",
          "name": "timestamp",
          "type": "uint256"
        }
      ],
      "name": "VoteCast",
      "type": "event"
    },
    {
      "inputs": [],
      "name": "ADMIN_ROLE",
      "outputs": [
        {
          "internalType": "bytes32",
          "name": "",
          "type": "bytes32"
        }
      ],
      "stateMutability": "view",
      "type": "function"
    },
    {
      "inputs": [],
      "name": "CHAIRPERSON_ROLE",
      "outputs": [
        {
          "internalType": "bytes32",
          "name": "",
          "type": "bytes32"
        }
      ],
      "stateMutability": "view",
      "type": "function"
    },
    {
      "inputs": [],
      "name": "DEFAULT_ADMIN_ROLE",
      "outputs": [
        {
          "internalType": "bytes32",
          "name": "",
          "type": "bytes32"
        }
      ],
      "stateMutability": "view",
      "type": "function"
    },
    {
      "inputs": [],
      "name": "UPGRADER_ROLE",
      "outputs": [
        {
          "internalType": "bytes32",
          "name": "",
          "type": "bytes32"
        }
      ],
      "stateMutability": "view",
      "type": "function"
    },
    {
      "inputs": [
        {
          "internalType": "uint256",
          "name": "nonce",
          "type": "uint256"
        },
        {
          "internalType": "string",
          "name": "_description",
          "type": "string"
        }
      ],
      "name": "addProposal",
      "outputs": [
        {
          "internalType": "uint256",
          "name": "",
          "type": "uint256"
        }
      ],
      "stateMutability": "nonpayable",
      "type": "function"
    },
    {
      "inputs": [
        {
          "internalType": "uint256",
          "name": "_minimumQuorum",
          "type": "uint256"
        },
        {
          "internalType": "uint256",
          "name": "_votingPeriod",
          "type": "uint256"
        }
      ],
      "name": "changeVotingRules",
      "outputs": [],
      "stateMutability": "nonpayable",
      "type": "function"
    },
    {
      "inputs": [
        {
          "internalType": "uint256",
          "name": "_proposalId",
          "type": "uint256"
        },
        {
          "internalType": "bool",
          "name": "_support",
          "type": "bool"
        }
      ],
      "name": "doVote",
      "outputs": [],
      "stateMutability": "nonpayable",
      "type": "function"
    },
    {
      "inputs": [
        {
          "internalType": "uint256",
          "name": "_proposalId",
          "type": "uint256"
        }
      ],
      "name": "executeVoting",
      "outputs": [],
      "stateMutability": "nonpayable",
      "type": "function"
    },
    {
      "inputs": [
        {
          "internalType": "uint256",
          "name": "offset",
          "type": "uint256"
        },
        {
          "internalType": "uint256",
          "name": "limit",
          "type": "uint256"
        }
      ],
      "name": "getProposals",
      "outputs": [
        {
          "components": [
            {
              "internalType": "uint256",
              "name": "count",
              "type": "uint256"
            },
            {
              "internalType": "uint256",
              "name": "offset",
              "type": "uint256"
            },
            {
              "internalType": "uint256",
              "name": "limit",
              "type": "uint256"
            },
            {
              "components": [
                {
                  "internalType": "uint256",
                  "name": "id",
                  "type": "uint256"
                },
                {
                  "internalType": "uint256",
                  "name": "nonce",
                  "type": "uint256"
                },
                {
                  "internalType": "uint256",
                  "name": "forVotes",
                  "type": "uint256"
                },
                {
                  "internalType": "uint256",
                  "name": "againstVotes",
                  "type": "uint256"
                },
                {
                  "internalType": "uint256",
                  "name": "numVoters",
                  "type": "uint256"
                },
                {
                  "internalType": "uint256",
                  "name": "startTime",
                  "type": "uint256"
                },
                {
                  "internalType": "uint256",
                  "name": "expireTime",
                  "type": "uint256"
                },
                {
                  "internalType": "uint256",
                  "name": "blockNumber",
                  "type": "uint256"
                },
                {
                  "internalType": "address",
                  "name": "proposer",
                  "type": "address"
                },
                {
                  "internalType": "bool",
                  "name": "active",
                  "type": "bool"
                },
                {
                  "internalType": "string",
                  "name": "description",
                  "type": "string"
                },
                {
                  "internalType": "bool",
                  "name": "succeded",
                  "type": "bool"
                },
                {
                  "internalType": "bool",
                  "name": "defeated",
                  "type": "bool"
                }
              ],
              "internalType": "struct WQDAOVoting.ProposalInfo[]",
              "name": "pages",
              "type": "tuple[]"
            }
          ],
          "internalType": "struct WQDAOVoting.ProposalPages",
          "name": "page",
          "type": "tuple"
        }
      ],
      "stateMutability": "view",
      "type": "function"
    },
    {
      "inputs": [
        {
          "internalType": "uint256",
          "name": "_proposalId",
          "type": "uint256"
        },
        {
          "internalType": "address",
          "name": "_voter",
          "type": "address"
        }
      ],
      "name": "getReceipt",
      "outputs": [
        {
          "components": [
            {
              "internalType": "bool",
              "name": "hasVoted",
              "type": "bool"
            },
            {
              "internalType": "bool",
              "name": "support",
              "type": "bool"
            },
            {
              "internalType": "uint256",
              "name": "votes",
              "type": "uint256"
            }
          ],
          "internalType": "struct WQDAOVoting.Receipt",
          "name": "",
          "type": "tuple"
        }
      ],
      "stateMutability": "view",
      "type": "function"
    },
    {
      "inputs": [
        {
          "internalType": "bytes32",
          "name": "role",
          "type": "bytes32"
        }
      ],
      "name": "getRoleAdmin",
      "outputs": [
        {
          "internalType": "bytes32",
          "name": "",
          "type": "bytes32"
        }
      ],
      "stateMutability": "view",
      "type": "function"
    },
    {
      "inputs": [
        {
          "internalType": "bytes32",
          "name": "role",
          "type": "bytes32"
        },
        {
          "internalType": "address",
          "name": "account",
          "type": "address"
        }
      ],
      "name": "grantRole",
      "outputs": [],
      "stateMutability": "nonpayable",
      "type": "function"
    },
    {
      "inputs": [
        {
          "internalType": "bytes32",
          "name": "role",
          "type": "bytes32"
        },
        {
          "internalType": "address",
          "name": "account",
          "type": "address"
        }
      ],
      "name": "hasRole",
      "outputs": [
        {
          "internalType": "bool",
          "name": "",
          "type": "bool"
        }
      ],
      "stateMutability": "view",
      "type": "function"
    },
    {
      "inputs": [
        {
          "internalType": "address",
          "name": "chairPerson",
          "type": "address"
        },
        {
          "internalType": "address",
          "name": "_voteToken",
          "type": "address"
        },
        {
          "internalType": "uint256",
          "name": "_minimumQuorum",
          "type": "uint256"
        },
        {
          "internalType": "uint256",
          "name": "_votingPeriod",
          "type": "uint256"
        }
      ],
      "name": "initialize",
      "outputs": [],
      "stateMutability": "nonpayable",
      "type": "function"
    },
    {
      "inputs": [],
      "name": "minimumQuorum",
      "outputs": [
        {
          "internalType": "uint256",
          "name": "",
          "type": "uint256"
        }
      ],
      "stateMutability": "view",
      "type": "function"
    },
    {
      "inputs": [],
      "name": "name",
      "outputs": [
        {
          "internalType": "string",
          "name": "",
          "type": "string"
        }
      ],
      "stateMutability": "view",
      "type": "function"
    },
    {
      "inputs": [],
      "name": "proposalCount",
      "outputs": [
        {
          "internalType": "uint256",
          "name": "",
          "type": "uint256"
        }
      ],
      "stateMutability": "view",
      "type": "function"
    },
    {
      "inputs": [],
      "name": "proposalThreshold",
      "outputs": [
        {
          "internalType": "uint256",
          "name": "",
          "type": "uint256"
        }
      ],
      "stateMutability": "view",
      "type": "function"
    },
    {
      "inputs": [
        {
          "internalType": "uint256",
          "name": "",
          "type": "uint256"
        }
      ],
      "name": "proposals",
      "outputs": [
        {
          "internalType": "uint256",
          "name": "id",
          "type": "uint256"
        },
        {
          "internalType": "uint256",
          "name": "nonce",
          "type": "uint256"
        },
        {
          "internalType": "address",
          "name": "proposer",
          "type": "address"
        },
        {
          "internalType": "uint256",
          "name": "forVotes",
          "type": "uint256"
        },
        {
          "internalType": "uint256",
          "name": "againstVotes",
          "type": "uint256"
        },
        {
          "internalType": "uint256",
          "name": "numVoters",
          "type": "uint256"
        },
        {
          "internalType": "uint256",
          "name": "startTime",
          "type": "uint256"
        },
        {
          "internalType": "uint256",
          "name": "expireTime",
          "type": "uint256"
        },
        {
          "internalType": "uint256",
          "name": "blockNumber",
          "type": "uint256"
        },
        {
          "internalType": "bool",
          "name": "active",
          "type": "bool"
        },
        {
          "internalType": "string",
          "name": "description",
          "type": "string"
        }
      ],
      "stateMutability": "view",
      "type": "function"
    },
    {
      "inputs": [
        {
          "internalType": "uint256",
          "name": "_proposalId",
          "type": "uint256"
        }
      ],
      "name": "rejectVoting",
      "outputs": [],
      "stateMutability": "nonpayable",
      "type": "function"
    },
    {
      "inputs": [
        {
          "internalType": "bytes32",
          "name": "role",
          "type": "bytes32"
        },
        {
          "internalType": "address",
          "name": "account",
          "type": "address"
        }
      ],
      "name": "renounceRole",
      "outputs": [],
      "stateMutability": "nonpayable",
      "type": "function"
    },
    {
      "inputs": [
        {
          "internalType": "bytes32",
          "name": "role",
          "type": "bytes32"
        },
        {
          "internalType": "address",
          "name": "account",
          "type": "address"
        }
      ],
      "name": "revokeRole",
      "outputs": [],
      "stateMutability": "nonpayable",
      "type": "function"
    },
    {
      "inputs": [
        {
          "internalType": "uint256",
          "name": "amount",
          "type": "uint256"
        }
      ],
      "name": "setProposalThreshold",
      "outputs": [],
      "stateMutability": "nonpayable",
      "type": "function"
    },
    {
      "inputs": [
        {
          "internalType": "uint256",
          "name": "amount",
          "type": "uint256"
        }
      ],
      "name": "setVoteThreshold",
      "outputs": [],
      "stateMutability": "nonpayable",
      "type": "function"
    },
    {
      "inputs": [
        {
          "internalType": "uint256",
          "name": "_proposalId",
          "type": "uint256"
        }
      ],
      "name": "state",
      "outputs": [
        {
          "internalType": "uint8",
          "name": "proposalState",
          "type": "uint8"
        }
      ],
      "stateMutability": "view",
      "type": "function"
    },
    {
      "inputs": [
        {
          "internalType": "bytes4",
          "name": "interfaceId",
          "type": "bytes4"
        }
      ],
      "name": "supportsInterface",
      "outputs": [
        {
          "internalType": "bool",
          "name": "",
          "type": "bool"
        }
      ],
      "stateMutability": "view",
      "type": "function"
    },
    {
      "inputs": [],
      "name": "token",
      "outputs": [
        {
          "internalType": "contract WQTInterface",
          "name": "",
          "type": "address"
        }
      ],
      "stateMutability": "view",
      "type": "function"
    },
    {
      "inputs": [
        {
          "internalType": "address",
          "name": "newImplementation",
          "type": "address"
        }
      ],
      "name": "upgradeTo",
      "outputs": [],
      "stateMutability": "nonpayable",
      "type": "function"
    },
    {
      "inputs": [
        {
          "internalType": "address",
          "name": "newImplementation",
          "type": "address"
        },
        {
          "internalType": "bytes",
          "name": "data",
          "type": "bytes"
        }
      ],
      "name": "upgradeToAndCall",
      "outputs": [],
      "stateMutability": "payable",
      "type": "function"
    },
    {
      "inputs": [
        {
          "internalType": "uint256",
          "name": "",
          "type": "uint256"
        }
      ],
      "name": "voteResults",
      "outputs": [
        {
          "internalType": "bool",
          "name": "succeded",
          "type": "bool"
        },
        {
          "internalType": "bool",
          "name": "defeated",
          "type": "bool"
        }
      ],
      "stateMutability": "view",
      "type": "function"
    },
    {
      "inputs": [],
      "name": "voteThreshold",
      "outputs": [
        {
          "internalType": "uint256",
          "name": "",
          "type": "uint256"
        }
      ],
      "stateMutability": "view",
      "type": "function"
    },
    {
      "inputs": [],
      "name": "votingPeriod",
      "outputs": [
        {
          "internalType": "uint256",
          "name": "",
          "type": "uint256"
        }
      ],
      "stateMutability": "view",
      "type": "function"
    }
  ],
  "bytecode": "0x60a06040523060601b6080523480156200001857600080fd5b50600054610100900460ff168062000033575060005460ff16155b6200009b5760405162461bcd60e51b815260206004820152602e60248201527f496e697469616c697a61626c653a20636f6e747261637420697320616c72656160448201526d191e481a5b9a5d1a585b1a5e995960921b606482015260840160405180910390fd5b600054610100900460ff16158015620000be576000805461ffff19166101011790555b8015620000d1576000805461ff00191690555b5060805160601c612b6b6200010660003960008181610b2c01528181610b6c01528181610c670152610ca70152612b6b6000f3fe6080604052600436106101e35760003560e01c80638160f0b511610102578063e23a9a5211610095578063f38ab22c11610064578063f38ab22c14610688578063f3d91243146106a8578063f72c0d8b146106c8578063fc0c546a146106ea57600080fd5b8063e23a9a521461053f578063e24b9dd9146105f7578063eb990c5914610648578063ece40cc11461066857600080fd5b8063b58131b0116100d1578063b58131b0146104d2578063d547741f146104e8578063d7b8943614610508578063da35c6641461052857600080fd5b80638160f0b51461046557806391d148541461047b578063a217fddf1461049b578063a22e5871146104b057600080fd5b80632f2ff15d1161017a5780634f1ef286116101495780634f1ef286146103ed5780634fe437d5146104005780635e3b43651461041657806375b238fc1461044357600080fd5b80632f2ff15d1461035b57806336568abe1461037b5780633659cfe61461039b5780633e4f49e6146103bb57600080fd5b806306fdde03116101b657806306fdde031461029c57806312909485146102e9578063158059e21461030b578063248a9ca31461032b57600080fd5b8063013cf08b146101e857806301ffc9a71461022857806302a251a314610258578063051097ef1461027c575b600080fd5b3480156101f457600080fd5b50610208610203366004612498565b610722565b60405161021f9b9a99989796959493929190612928565b60405180910390f35b34801561023457600080fd5b506102486102433660046124db565b610814565b604051901515815260200161021f565b34801561026457600080fd5b5061026e60fd5481565b60405190815260200161021f565b34801561028857600080fd5b5061026e61029736600461254e565b61084b565b3480156102a857600080fd5b506102dc60405180604001604052806014815260200173576f726b51756573742044414f20566f74696e6760601b81525081565b60405161021f919061265b565b3480156102f557600080fd5b50610309610304366004612498565b610a34565b005b34801561031757600080fd5b5061030961032636600461257d565b610a53565b34801561033757600080fd5b5061026e610346366004612498565b60009081526065602052604090206001015490565b34801561036757600080fd5b506103096103763660046124b0565b610a78565b34801561038757600080fd5b506103096103963660046124b0565b610aa3565b3480156103a757600080fd5b506103096103b63660046123de565b610b21565b3480156103c757600080fd5b506103db6103d6366004612498565b610bea565b60405160ff909116815260200161021f565b6103096103fb366004612439565b610c5c565b34801561040c57600080fd5b5061026e60ff5481565b34801561042257600080fd5b5061043661043136600461257d565b610d12565b60405161021f91906127ab565b34801561044f57600080fd5b5061026e600080516020612af683398151915281565b34801561047157600080fd5b5061026e60fc5481565b34801561048757600080fd5b506102486104963660046124b0565b611386565b3480156104a757600080fd5b5061026e600081565b3480156104bc57600080fd5b5061026e600080516020612b1683398151915281565b3480156104de57600080fd5b5061026e60fe5481565b3480156104f457600080fd5b506103096105033660046124b0565b6113b1565b34801561051457600080fd5b5061030961052336600461251b565b6113d7565b34801561053457600080fd5b5061026e6101005481565b34801561054b57600080fd5b506105d161055a3660046124b0565b6040805160608101825260008082526020820181905291810191909152506000918252610101602090815260408084206001600160a01b03939093168452600b9092018152918190208151606081018352815460ff8082161515835261010090910416151593810193909352600101549082015290565b60408051825115158152602080840151151590820152918101519082015260600161021f565b34801561060357600080fd5b50610631610612366004612498565b6101026020526000908152604090205460ff8082169161010090041682565b60408051921515835290151560208301520161021f565b34801561065457600080fd5b506103096106633660046123f8565b61142e565b34801561067457600080fd5b50610309610683366004612498565b61158d565b34801561069457600080fd5b506103096106a3366004612498565b6115ac565b3480156106b457600080fd5b506103096106c3366004612498565b611693565b3480156106d457600080fd5b5061026e600080516020612aaf83398151915281565b3480156106f657600080fd5b5060fb5461070a906001600160a01b031681565b6040516001600160a01b03909116815260200161021f565b61010160205260009081526040902080546001820154600283015460038401546004850154600586015460068701546007880154600889015460098a0154600a8b0180549a9b999a6001600160a01b039099169997989697959694959394929360ff9092169261079190612a2c565b80601f01602080910402602001604051908101604052809291908181526020018280546107bd90612a2c565b801561080a5780601f106107df5761010080835404028352916020019161080a565b820191906000526020600020905b8154815290600101906020018083116107ed57829003601f168201915b505050505090508b565b60006001600160e01b03198216637965db0b60e01b148061084557506301ffc9a760e01b6001600160e01b03198316145b92915050565b60fe5460fb546040516309ab24eb60e41b8152336004820152600092916001600160a01b031690639ab24eb09060240160206040518083038186803b15801561089357600080fd5b505afa1580156108a7573d6000803e3d6000fd5b505050506040513d601f19601f820116820180604052508101906108cb9190612503565b101561092e5760405162461bcd60e51b815260206004820152602760248201527f50726f706f73657220766f7465732062656c6f772070726f706f73616c2074686044820152661c995cda1bdb1960ca1b60648201526084015b60405180910390fd5b61010080546000916101019183918261094683612a67565b919050558152602001908152602001600020905060016101005461096a91906129ce565b815560018082018590556002820180546001600160a01b0319163317905560006005830181905560038301819055600483015560098201805460ff19169091179055426006820181905560fd546109c091612997565b600782015543600882015582516109e090600a83019060208601906122b8565b507f72dbd7436d0d73b2471f42ff04f375e4d86f8ec7459d7c8d3a49f01266d698b3816000015485338660fd5460fc5442604051610a2497969594939291906128dc565b60405180910390a1549392505050565b600080516020612af6833981519152610a4d813361178a565b5060ff55565b600080516020612af6833981519152610a6c813361178a565b5060fc9190915560fd55565b600082815260656020526040902060010154610a94813361178a565b610a9e83836117ee565b505050565b6001600160a01b0381163314610b135760405162461bcd60e51b815260206004820152602f60248201527f416363657373436f6e74726f6c3a2063616e206f6e6c792072656e6f756e636560448201526e103937b632b9903337b91039b2b63360891b6064820152608401610925565b610b1d8282611874565b5050565b306001600160a01b037f0000000000000000000000000000000000000000000000000000000000000000161415610b6a5760405162461bcd60e51b81526004016109259061266e565b7f00000000000000000000000000000000000000000000000000000000000000006001600160a01b0316610b9c6118db565b6001600160a01b031614610bc25760405162461bcd60e51b8152600401610925906126ba565b610bcb81611909565b60408051600080825260208201909252610be791839190611922565b50565b6000610100548210610c0e5760405162461bcd60e51b815260040161092590612706565b6000828152610101602052604090206009015460ff1615610c3157506002919050565b6000828152610102602052604090205460ff16610c4f576000610845565b600192915050565b919050565b306001600160a01b037f0000000000000000000000000000000000000000000000000000000000000000161415610ca55760405162461bcd60e51b81526004016109259061266e565b7f00000000000000000000000000000000000000000000000000000000000000006001600160a01b0316610cd76118db565b6001600160a01b031614610cfd5760405162461bcd60e51b8152600401610925906126ba565b610d0682611909565b610b1d82826001611922565b610d3d6040518060800160405280600081526020016000815260200160008152602001606081525090565b6101005480825260208201849052610d569084906129ce565b821115610d6f578261010054610d6c91906129ce565b91505b604081018290528167ffffffffffffffff811115610d9d57634e487b7160e01b600052604160045260246000fd5b604051908082528060200260200182016040528015610e4857816020015b610e35604051806101a00160405280600081526020016000815260200160008152602001600081526020016000815260200160008152602001600081526020016000815260200160006001600160a01b03168152602001600015158152602001606081526020016000151581526020016000151581525090565b815260200190600190039081610dbb5790505b50606082015260005b8281101561137f576101016000610e688387612997565b81526020019081526020016000206000015482606001518281518110610e9e57634e487b7160e01b600052603260045260246000fd5b6020908102919091010151526101016000610eb98387612997565b81526020019081526020016000206001015482606001518281518110610eef57634e487b7160e01b600052603260045260246000fd5b60209081029190910181015101526101016000610f0c8387612997565b8152602081019190915260400160002060020154606083015180516001600160a01b039092169183908110610f5157634e487b7160e01b600052603260045260246000fd5b60209081029190910101516001600160a01b03909116610100909101526101016000610f7d8387612997565b81526020019081526020016000206003015482606001518281518110610fb357634e487b7160e01b600052603260045260246000fd5b6020908102919091010151604001526101016000610fd18387612997565b8152602001908152602001600020600401548260600151828151811061100757634e487b7160e01b600052603260045260246000fd5b60209081029190910101516060015261010160006110258387612997565b8152602001908152602001600020600501548260600151828151811061105b57634e487b7160e01b600052603260045260246000fd5b60209081029190910101516080015261010160006110798387612997565b815260200190815260200160002060060154826060015182815181106110af57634e487b7160e01b600052603260045260246000fd5b602090810291909101015160a0015261010160006110cd8387612997565b8152602001908152602001600020600701548260600151828151811061110357634e487b7160e01b600052603260045260246000fd5b602090810291909101015160c0015261010160006111218387612997565b8152602001908152602001600020600801548260600151828151811061115757634e487b7160e01b600052603260045260246000fd5b602090810291909101015160e0015261010160006111758387612997565b81526020810191909152604001600020600901546060830151805160ff90921691839081106111b457634e487b7160e01b600052603260045260246000fd5b60209081029190910101519015156101209091015261010160006111d88387612997565b8152602001908152602001600020600a0180546111f490612a2c565b80601f016020809104026020016040519081016040528092919081815260200182805461122090612a2c565b801561126d5780601f106112425761010080835404028352916020019161126d565b820191906000526020600020905b81548152906001019060200180831161125057829003601f168201915b50505050508260600151828151811061129657634e487b7160e01b600052603260045260246000fd5b6020908102919091010151610140015261010260006112b58387612997565b81526020810191909152604001600020546060830151805160ff90921691839081106112f157634e487b7160e01b600052603260045260246000fd5b60209081029190910101519015156101609091015261010260006113158387612997565b815260200190815260200160002060000160019054906101000a900460ff168260600151828151811061135857634e487b7160e01b600052603260045260246000fd5b6020908102919091010151901515610180909101528061137781612a67565b915050610e51565b5092915050565b60009182526065602090815260408084206001600160a01b0393909316845291905290205460ff1690565b6000828152606560205260409020600101546113cd813361178a565b610a9e8383611874565b337fefa3d674e0475fb6175e081d7938ee5c64950b1a41fabffb968a8ed87482f4848383611406848383611a66565b6040805193845291151560208401529082015242606082015260800160405180910390a25050565b600054610100900460ff1680611447575060005460ff16155b6114635760405162461bcd60e51b815260040161092590612733565b600054610100900460ff16158015611485576000805461ffff19166101011790555b61148d611ccf565b611495611d52565b6114a0600033611db0565b6114b8600080516020612af683398151915233611db0565b6114d0600080516020612aaf83398151915233611db0565b6114e8600080516020612b1683398151915286611db0565b61150e600080516020612b16833981519152600080516020612af6833981519152611dba565b611534600080516020612aaf833981519152600080516020612af6833981519152611dba565b60fb80546001600160a01b0319166001600160a01b03861617905560fc83905560fd82905569021e19e0c9bab240000060fe5568056bc75e2d6310000060ff558015611586576000805461ff00191690555b5050505050565b600080516020612af68339815191526115a6813361178a565b5060fe55565b600080516020612b168339815191526115c5813361178a565b6101005482106115e75760405162461bcd60e51b815260040161092590612706565b6000828152610101602052604090206009015460ff16151560011461161e5760405162461bcd60e51b815260040161092590612781565b600082815261010160209081526040808320600901805460ff191690556101028252808320805461ffff191661010017905580518581529182019290925260018183015290517f75bba44f29e4b104d366019dfced0c087f66d06097db8b746faab6ee44070297916060908290030190a15050565b600080516020612b168339815191526116ac813361178a565b6101005482106116ce5760405162461bcd60e51b815260040161092590612706565b600082815261010160205260409020600981015460ff1615156001146117065760405162461bcd60e51b815260040161092590612781565b60098101805460ff1916905561171b83611e05565b60008381526101026020526040908190205490517f75bba44f29e4b104d366019dfced0c087f66d06097db8b746faab6ee440702979161177d91869160ff80821692610100909204169092835290151560208301521515604082015260600190565b60405180910390a1505050565b6117948282611386565b610b1d576117ac816001600160a01b03166014611e63565b6117b7836020611e63565b6040516020016117c89291906125e6565b60408051601f198184030181529082905262461bcd60e51b82526109259160040161265b565b6117f88282611386565b610b1d5760008281526065602090815260408083206001600160a01b03851684529091529020805460ff191660011790556118303390565b6001600160a01b0316816001600160a01b0316837f2f8788117e7eff1d82e926ec794901d17c78024a50270940304540a733656f0d60405160405180910390a45050565b61187e8282611386565b15610b1d5760008281526065602090815260408083206001600160a01b0385168085529252808320805460ff1916905551339285917ff6391f5c32d9c69d2a47ea670b442974b53935d1edc7fd64eb21e047a839171b9190a45050565b7f360894a13ba1a3210667c828492db98dca3e2076cc3735a920a3ca505d382bbc546001600160a01b031690565b600080516020612aaf833981519152610b1d813361178a565b600061192c6118db565b905061193784612045565b6000835111806119445750815b156119555761195384846120ea565b505b7f4910fdfa16fed3260ed0e7147f7cc6da11a60208b5b9406d12a635614ffd9143805460ff1661158657805460ff191660011781556040516001600160a01b03831660248201526119d490869060440160408051601f198184030181529190526020810180516001600160e01b0316631b2ce7f360e11b1790526120ea565b50805460ff191681556119e56118db565b6001600160a01b0316826001600160a01b031614611a5d5760405162461bcd60e51b815260206004820152602f60248201527f45524331393637557067726164653a207570677261646520627265616b73206660448201526e75727468657220757067726164657360881b6064820152608401610925565b611586856121d5565b6000610100548310611a8a5760405162461bcd60e51b815260040161092590612706565b6000838152610101602052604080822060fb5460088201549251630748d63560e31b81526001600160a01b03898116600483015260248201949094529193921690633a46b1a89060440160206040518083038186803b158015611aec57600080fd5b505afa158015611b00573d6000803e3d6000fd5b505050506040513d601f19601f82011682018060405250810190611b249190612503565b905060ff54811015611b785760405162461bcd60e51b815260206004820181905260248201527f566f74657220766f7465732062656c6f7720766f7465207468726573686f6c646044820152606401610925565b6001600160a01b0386166000908152600b830160205260409020600983015460ff161515600114611bbb5760405162461bcd60e51b815260040161092590612781565b805460ff1615611c0d5760405162461bcd60e51b815260206004820152601760248201527f566f7465722068617320616c726561647920766f7465640000000000000000006044820152606401610925565b82600701544210611c535760405162461bcd60e51b815260206004820152601060248201526f141c9bdc1bdcd85b08195e1c1a5c995960821b6044820152606401610925565b8415611c785781836003016000828254611c6d9190612997565b90915550611c929050565b81836004016000828254611c8c9190612997565b90915550505b600583018054906000611ca483612a67565b90915550508054600161ffff19909116610100871515021781178255018190559150505b9392505050565b600054610100900460ff1680611ce8575060005460ff16155b611d045760405162461bcd60e51b815260040161092590612733565b600054610100900460ff16158015611d26576000805461ffff19166101011790555b611d2e612215565b611d36612215565b611d3e612215565b8015610be7576000805461ff001916905550565b600054610100900460ff1680611d6b575060005460ff16155b611d875760405162461bcd60e51b815260040161092590612733565b600054610100900460ff16158015611d2e576000805461ffff1916610101179055611d36612215565b610b1d82826117ee565b600082815260656020526040808220600101805490849055905190918391839186917fbd79b86ffe0ab8e8776151514217cd7cacd52c909f66475c3af44e129f0b00ff9190a4505050565b60008181526101016020908152604080832061010290925290912060048201546003830154118015611e3c575060fc548260050154115b15611e5157805460ff19166001178155505050565b805461ff001916610100178155505050565b60606000611e728360026129af565b611e7d906002612997565b67ffffffffffffffff811115611ea357634e487b7160e01b600052604160045260246000fd5b6040519080825280601f01601f191660200182016040528015611ecd576020820181803683370190505b509050600360fc1b81600081518110611ef657634e487b7160e01b600052603260045260246000fd5b60200101906001600160f81b031916908160001a905350600f60fb1b81600181518110611f3357634e487b7160e01b600052603260045260246000fd5b60200101906001600160f81b031916908160001a9053506000611f578460026129af565b611f62906001612997565b90505b6001811115611ff6576f181899199a1a9b1b9c1cb0b131b232b360811b85600f1660108110611fa457634e487b7160e01b600052603260045260246000fd5b1a60f81b828281518110611fc857634e487b7160e01b600052603260045260246000fd5b60200101906001600160f81b031916908160001a90535060049490941c93611fef81612a15565b9050611f65565b508315611cc85760405162461bcd60e51b815260206004820181905260248201527f537472696e67733a20686578206c656e67746820696e73756666696369656e746044820152606401610925565b803b6120a95760405162461bcd60e51b815260206004820152602d60248201527f455243313936373a206e657720696d706c656d656e746174696f6e206973206e60448201526c1bdd08184818dbdb9d1c9858dd609a1b6064820152608401610925565b7f360894a13ba1a3210667c828492db98dca3e2076cc3735a920a3ca505d382bbc80546001600160a01b0319166001600160a01b0392909216919091179055565b6060823b6121495760405162461bcd60e51b815260206004820152602660248201527f416464726573733a2064656c65676174652063616c6c20746f206e6f6e2d636f6044820152651b9d1c9858dd60d21b6064820152608401610925565b600080846001600160a01b03168460405161216491906125ca565b600060405180830381855af49150503d806000811461219f576040519150601f19603f3d011682016040523d82523d6000602084013e6121a4565b606091505b50915091506121cc8282604051806060016040528060278152602001612acf6027913961227f565b95945050505050565b6121de81612045565b6040516001600160a01b038216907fbc7cd75a20ee27fd9adebab32041f755214dbc6bffa90cc0225b39da2e5c2d3b90600090a250565b600054610100900460ff168061222e575060005460ff16155b61224a5760405162461bcd60e51b815260040161092590612733565b600054610100900460ff16158015611d3e576000805461ffff19166101011790558015610be7576000805461ff001916905550565b6060831561228e575081611cc8565b82511561229e5782518084602001fd5b8160405162461bcd60e51b8152600401610925919061265b565b8280546122c490612a2c565b90600052602060002090601f0160209004810192826122e6576000855561232c565b82601f106122ff57805160ff191683800117855561232c565b8280016001018555821561232c579182015b8281111561232c578251825591602001919060010190612311565b5061233892915061233c565b5090565b5b80821115612338576000815560010161233d565b600067ffffffffffffffff8084111561236c5761236c612a98565b604051601f8501601f19908116603f0116810190828211818310171561239457612394612a98565b816040528093508581528686860111156123ad57600080fd5b858560208301376000602087830101525050509392505050565b80356001600160a01b0381168114610c5757600080fd5b6000602082840312156123ef578081fd5b611cc8826123c7565b6000806000806080858703121561240d578283fd5b612416856123c7565b9350612424602086016123c7565b93969395505050506040820135916060013590565b6000806040838503121561244b578182fd5b612454836123c7565b9150602083013567ffffffffffffffff81111561246f578182fd5b8301601f8101851361247f578182fd5b61248e85823560208401612351565b9150509250929050565b6000602082840312156124a9578081fd5b5035919050565b600080604083850312156124c2578182fd5b823591506124d2602084016123c7565b90509250929050565b6000602082840312156124ec578081fd5b81356001600160e01b031981168114611cc8578182fd5b600060208284031215612514578081fd5b5051919050565b6000806040838503121561252d578182fd5b8235915060208301358015158114612543578182fd5b809150509250929050565b60008060408385031215612560578182fd5b82359150602083013567ffffffffffffffff81111561246f578182fd5b6000806040838503121561258f578182fd5b50508035926020909101359150565b600081518084526125b68160208601602086016129e5565b601f01601f19169290920160200192915050565b600082516125dc8184602087016129e5565b9190910192915050565b7f416363657373436f6e74726f6c3a206163636f756e742000000000000000000081526000835161261e8160178501602088016129e5565b7001034b99036b4b9b9b4b733903937b6329607d1b601791840191820152835161264f8160288401602088016129e5565b01602801949350505050565b602081526000611cc8602083018461259e565b6020808252602c908201527f46756e6374696f6e206d7573742062652063616c6c6564207468726f7567682060408201526b19195b1959d85d1958d85b1b60a21b606082015260800190565b6020808252602c908201527f46756e6374696f6e206d7573742062652063616c6c6564207468726f7567682060408201526b6163746976652070726f787960a01b606082015260800190565b602080825260139082015272125b9d985b1a59081c1c9bdc1bdcd85b081a59606a1b604082015260600190565b6020808252602e908201527f496e697469616c697a61626c653a20636f6e747261637420697320616c72656160408201526d191e481a5b9a5d1a585b1a5e995960921b606082015260800190565b60208082526010908201526f159bdd1a5b99c81a5cc818db1bdcd95960821b604082015260600190565b6000602080835260a0808401855183860152828601516040818188015280880151915060608281890152808901519250608080818a015284845180875260c09650868b019150868160051b8c010189870196508a5b828110156128cb5760bf198d83030184528751805183528b8101518c8401528781015188840152868101518784015285810151868401528a8101518b840152898101518a84015260e08082015190840152610100808201516001600160a01b03169084015261012080820151151590840152610140808201516101a082860181905291906128908387018261259e565b92505050610160808301516128a88287018215159052565b50506101809182015115159390910192909252968a0196928a0192600101612800565b509c9b505050505050505050505050565b87815286602082015260018060a01b038616604082015260e06060820152600061290960e083018761259e565b60808301959095525060a081019290925260c090910152949350505050565b60006101608d83528c602084015260018060a01b038c1660408401528a60608401528960808401528860a08401528760c08401528660e084015285610100840152841515610120840152806101408401526129858184018561259e565b9e9d5050505050505050505050505050565b600082198211156129aa576129aa612a82565b500190565b60008160001904831182151516156129c9576129c9612a82565b500290565b6000828210156129e0576129e0612a82565b500390565b60005b83811015612a005781810151838201526020016129e8565b83811115612a0f576000848401525b50505050565b600081612a2457612a24612a82565b506000190190565b600181811c90821680612a4057607f821691505b60208210811415612a6157634e487b7160e01b600052602260045260246000fd5b50919050565b6000600019821415612a7b57612a7b612a82565b5060010190565b634e487b7160e01b600052601160045260246000fd5b634e487b7160e01b600052604160045260246000fdfe189ab7a9244df0848122154315af71fe140f3db0fe014031783b0946b8c9d2e3416464726573733a206c6f772d6c6576656c2064656c65676174652063616c6c206661696c6564a49807205ce4d355092ef5a8a18f56e8913cf4a201fbe287825b095693c21775d83c1a50dc0a09945cd355882e9b92d840723815900d90b54a78888e14a1aceea26469706673582212201392d3bf076f39c815c73389e20df8bdcfd7964048adaab403b2d9fa62b6eb9f64736f6c63430008040033",
  "linkReferences": {},
  "deployedLinkReferences": {}
}