{
  "_format": "hh-sol-artifact-1",
  "contractName": "WQBridge",
  "sourceName": "contracts/WQBridgeStable.sol",
  "abi": [
    {
      "anonymous": false,
      "inputs": [
        {
          "indexed": false,
          "internalType": "address",
          "name": "account",
          "type": "address"
        }
      ],
      "name": "Paused",
      "type": "event"
    },
    {
      "anonymous": false,
      "inputs": [
        {
          "indexed": true,
          "internalType": "bytes32",
          "name": "role",
          "type": "bytes32"
        },
        {
          "indexed": true,
          "internalType": "bytes32",
          "name": "previousAdminRole",
          "type": "bytes32"
        },
        {
          "indexed": true,
          "internalType": "bytes32",
          "name": "newAdminRole",
          "type": "bytes32"
        }
      ],
      "name": "RoleAdminChanged",
      "type": "event"
    },
    {
      "anonymous": false,
      "inputs": [
        {
          "indexed": true,
          "internalType": "bytes32",
          "name": "role",
          "type": "bytes32"
        },
        {
          "indexed": true,
          "internalType": "address",
          "name": "account",
          "type": "address"
        },
        {
          "indexed": true,
          "internalType": "address",
          "name": "sender",
          "type": "address"
        }
      ],
      "name": "RoleGranted",
      "type": "event"
    },
    {
      "anonymous": false,
      "inputs": [
        {
          "indexed": true,
          "internalType": "bytes32",
          "name": "role",
          "type": "bytes32"
        },
        {
          "indexed": true,
          "internalType": "address",
          "name": "account",
          "type": "address"
        },
        {
          "indexed": true,
          "internalType": "address",
          "name": "sender",
          "type": "address"
        }
      ],
      "name": "RoleRevoked",
      "type": "event"
    },
    {
      "anonymous": false,
      "inputs": [
        {
          "indexed": false,
          "internalType": "uint256",
          "name": "timestamp",
          "type": "uint256"
        },
        {
          "indexed": false,
          "internalType": "address",
          "name": "recipient",
          "type": "address"
        },
        {
          "indexed": false,
          "internalType": "uint256",
          "name": "amount",
          "type": "uint256"
        },
        {
          "indexed": false,
          "internalType": "uint256",
          "name": "chainFrom",
          "type": "uint256"
        },
        {
          "indexed": false,
          "internalType": "uint256",
          "name": "chainTo",
          "type": "uint256"
        },
        {
          "indexed": false,
          "internalType": "uint256",
          "name": "nonce",
          "type": "uint256"
        },
        {
          "indexed": false,
          "internalType": "string",
          "name": "userId",
          "type": "string"
        },
        {
          "indexed": false,
          "internalType": "string",
          "name": "symbol",
          "type": "string"
        }
      ],
      "name": "SwapInitialized",
      "type": "event"
    },
    {
      "anonymous": false,
      "inputs": [
        {
          "indexed": false,
          "internalType": "address",
          "name": "token",
          "type": "address"
        },
        {
          "indexed": false,
          "internalType": "address",
          "name": "recipient",
          "type": "address"
        },
        {
          "indexed": false,
          "internalType": "uint256",
          "name": "amount",
          "type": "uint256"
        }
      ],
      "name": "Transferred",
      "type": "event"
    },
    {
      "anonymous": false,
      "inputs": [
        {
          "indexed": false,
          "internalType": "address",
          "name": "account",
          "type": "address"
        }
      ],
      "name": "Unpaused",
      "type": "event"
    },
    {
      "inputs": [],
      "name": "ADMIN_ROLE",
      "outputs": [
        {
          "internalType": "bytes32",
          "name": "",
          "type": "bytes32"
        }
      ],
      "stateMutability": "view",
      "type": "function"
    },
    {
      "inputs": [],
      "name": "DEFAULT_ADMIN_ROLE",
      "outputs": [
        {
          "internalType": "bytes32",
          "name": "",
          "type": "bytes32"
        }
      ],
      "stateMutability": "view",
      "type": "function"
    },
    {
      "inputs": [],
      "name": "VALIDATOR_ROLE",
      "outputs": [
        {
          "internalType": "bytes32",
          "name": "",
          "type": "bytes32"
        }
      ],
      "stateMutability": "view",
      "type": "function"
    },
    {
      "inputs": [],
      "name": "chainId",
      "outputs": [
        {
          "internalType": "uint256",
          "name": "",
          "type": "uint256"
        }
      ],
      "stateMutability": "view",
      "type": "function"
    },
    {
      "inputs": [
        {
          "internalType": "uint256",
          "name": "",
          "type": "uint256"
        }
      ],
      "name": "chains",
      "outputs": [
        {
          "internalType": "bool",
          "name": "",
          "type": "bool"
        }
      ],
      "stateMutability": "view",
      "type": "function"
    },
    {
      "inputs": [
        {
          "internalType": "bytes32",
          "name": "role",
          "type": "bytes32"
        }
      ],
      "name": "getRoleAdmin",
      "outputs": [
        {
          "internalType": "bytes32",
          "name": "",
          "type": "bytes32"
        }
      ],
      "stateMutability": "view",
      "type": "function"
    },
    {
      "inputs": [
        {
          "internalType": "bytes32",
          "name": "message",
          "type": "bytes32"
        }
      ],
      "name": "getSwapState",
      "outputs": [
        {
          "internalType": "enum WQBridge.State",
          "name": "state",
          "type": "uint8"
        }
      ],
      "stateMutability": "view",
      "type": "function"
    },
    {
      "inputs": [
        {
          "internalType": "bytes32",
          "name": "role",
          "type": "bytes32"
        },
        {
          "internalType": "address",
          "name": "account",
          "type": "address"
        }
      ],
      "name": "grantRole",
      "outputs": [],
      "stateMutability": "nonpayable",
      "type": "function"
    },
    {
      "inputs": [
        {
          "internalType": "bytes32",
          "name": "role",
          "type": "bytes32"
        },
        {
          "internalType": "address",
          "name": "account",
          "type": "address"
        }
      ],
      "name": "hasRole",
      "outputs": [
        {
          "internalType": "bool",
          "name": "",
          "type": "bool"
        }
      ],
      "stateMutability": "view",
      "type": "function"
    },
    {
      "inputs": [
        {
          "internalType": "uint256",
          "name": "_chainId",
          "type": "uint256"
        },
        {
          "internalType": "address payable",
          "name": "_pool",
          "type": "address"
        },
        {
          "internalType": "address",
          "name": "validator",
          "type": "address"
        }
      ],
      "name": "initialize",
      "outputs": [],
      "stateMutability": "nonpayable",
      "type": "function"
    },
    {
      "inputs": [],
      "name": "pause",
      "outputs": [],
      "stateMutability": "nonpayable",
      "type": "function"
    },
    {
      "inputs": [],
      "name": "paused",
      "outputs": [
        {
          "internalType": "bool",
          "name": "",
          "type": "bool"
        }
      ],
      "stateMutability": "view",
      "type": "function"
    },
    {
      "inputs": [],
      "name": "pool",
      "outputs": [
        {
          "internalType": "address payable",
          "name": "",
          "type": "address"
        }
      ],
      "stateMutability": "view",
      "type": "function"
    },
    {
      "inputs": [
        {
          "internalType": "address payable",
          "name": "recipient",
          "type": "address"
        },
        {
          "internalType": "uint256",
          "name": "amount",
          "type": "uint256"
        },
        {
          "internalType": "address",
          "name": "token",
          "type": "address"
        }
      ],
      "name": "removeLiquidity",
      "outputs": [],
      "stateMutability": "nonpayable",
      "type": "function"
    },
    {
      "inputs": [
        {
          "internalType": "bytes32",
          "name": "role",
          "type": "bytes32"
        },
        {
          "internalType": "address",
          "name": "account",
          "type": "address"
        }
      ],
      "name": "renounceRole",
      "outputs": [],
      "stateMutability": "nonpayable",
      "type": "function"
    },
    {
      "inputs": [
        {
          "internalType": "bytes32",
          "name": "role",
          "type": "bytes32"
        },
        {
          "internalType": "address",
          "name": "account",
          "type": "address"
        }
      ],
      "name": "revokeRole",
      "outputs": [],
      "stateMutability": "nonpayable",
      "type": "function"
    },
    {
      "inputs": [
        {
          "internalType": "bytes4",
          "name": "interfaceId",
          "type": "bytes4"
        }
      ],
      "name": "supportsInterface",
      "outputs": [
        {
          "internalType": "bool",
          "name": "",
          "type": "bool"
        }
      ],
      "stateMutability": "view",
      "type": "function"
    },
    {
      "inputs": [
        {
          "internalType": "uint256",
          "name": "nonce",
          "type": "uint256"
        },
        {
          "internalType": "uint256",
          "name": "chainTo",
          "type": "uint256"
        },
        {
          "internalType": "uint256",
          "name": "amount",
          "type": "uint256"
        },
        {
          "internalType": "address",
          "name": "recipient",
          "type": "address"
        },
        {
          "internalType": "string",
          "name": "userId",
          "type": "string"
        },
        {
          "internalType": "string",
          "name": "symbol",
          "type": "string"
        }
      ],
      "name": "swap",
      "outputs": [],
      "stateMutability": "payable",
      "type": "function"
    },
    {
      "inputs": [
        {
          "internalType": "bytes32",
          "name": "",
          "type": "bytes32"
        }
      ],
      "name": "swaps",
      "outputs": [
        {
          "internalType": "uint256",
          "name": "nonce",
          "type": "uint256"
        },
        {
          "internalType": "enum WQBridge.State",
          "name": "state",
          "type": "uint8"
        }
      ],
      "stateMutability": "view",
      "type": "function"
    },
    {
      "inputs": [
        {
          "internalType": "string",
          "name": "",
          "type": "string"
        }
      ],
      "name": "tokens",
      "outputs": [
        {
          "internalType": "address",
          "name": "token",
          "type": "address"
        },
        {
          "internalType": "bool",
          "name": "enabled",
          "type": "bool"
        },
        {
          "internalType": "bool",
          "name": "native",
          "type": "bool"
        },
        {
          "internalType": "bool",
          "name": "lockable",
          "type": "bool"
        }
      ],
      "stateMutability": "view",
      "type": "function"
    },
    {
      "inputs": [],
      "name": "unpause",
      "outputs": [],
      "stateMutability": "nonpayable",
      "type": "function"
    },
    {
      "inputs": [
        {
          "internalType": "uint256",
          "name": "_chainId",
          "type": "uint256"
        },
        {
          "internalType": "bool",
          "name": "enabled",
          "type": "bool"
        }
      ],
      "name": "updateChain",
      "outputs": [],
      "stateMutability": "nonpayable",
      "type": "function"
    },
    {
      "inputs": [
        {
          "internalType": "address payable",
          "name": "_pool",
          "type": "address"
        }
      ],
      "name": "updatePool",
      "outputs": [],
      "stateMutability": "nonpayable",
      "type": "function"
    },
    {
      "inputs": [
        {
          "internalType": "address",
          "name": "token",
          "type": "address"
        },
        {
          "internalType": "bool",
          "name": "enabled",
          "type": "bool"
        },
        {
          "internalType": "bool",
          "name": "native",
          "type": "bool"
        },
        {
          "internalType": "bool",
          "name": "lockable",
          "type": "bool"
        },
        {
          "internalType": "string",
          "name": "symbol",
          "type": "string"
        }
      ],
      "name": "updateToken",
      "outputs": [],
      "stateMutability": "nonpayable",
      "type": "function"
    }
  ],
  "bytecode": "0x608060405234801561001057600080fd5b50611fca806100206000396000f3fe60806040526004361061014b5760003560e01c80637b46c54f116100b6578063b4988fd01161006f578063b4988fd014610424578063c49baebe14610444578063d547741f14610478578063db9b6d0614610498578063dbe77e54146104d8578063eb84e7f2146104f857600080fd5b80637b46c54f146103845780638456cb59146103a457806391d14854146103b95780639a8a0592146103d95780639e1dcc78146103ef578063a217fddf1461040f57600080fd5b80633f4ba83a116101085780633f4ba83a146102d257806347fdbc8e146102e757806348fdceb614610307578063550325b51461031a5780635c975abb1461034a57806375b238fc1461036257600080fd5b806301ffc9a71461015057806304c2320b1461018557806316f0115b1461021a578063248a9ca3146102525780632f2ff15d1461029057806336568abe146102b2575b600080fd5b34801561015c57600080fd5b5061017061016b3660046118b0565b61053d565b60405190151581526020015b60405180910390f35b34801561019157600080fd5b506101e86101a036600461197d565b80518082016020908101805160cc825292820191909301209152546001600160a01b0381169060ff600160a01b8204811691600160a81b8104821691600160b01b9091041684565b604080516001600160a01b0390951685529215156020850152901515918301919091521515606082015260800161017c565b34801561022657600080fd5b5060ca5461023a906001600160a01b031681565b6040516001600160a01b03909116815260200161017c565b34801561025e57600080fd5b5061028261026d3660046119b2565b60009081526065602052604090206001015490565b60405190815260200161017c565b34801561029c57600080fd5b506102b06102ab3660046119e0565b610574565b005b3480156102be57600080fd5b506102b06102cd3660046119e0565b61059f565b3480156102de57600080fd5b506102b0610622565b3480156102f357600080fd5b506102b0610302366004611a10565b610646565b6102b0610315366004611a9b565b61074d565b34801561032657600080fd5b506101706103353660046119b2565b60cb6020526000908152604090205460ff1681565b34801561035657600080fd5b5060975460ff16610170565b34801561036e57600080fd5b50610282600080516020611f7583398151915281565b34801561039057600080fd5b506102b061039f366004611b3a565b610bcb565b3480156103b057600080fd5b506102b0610c5d565b3480156103c557600080fd5b506101706103d43660046119e0565b610c7e565b3480156103e557600080fd5b5061028260c95481565b3480156103fb57600080fd5b506102b061040a366004611b65565b610ca9565b34801561041b57600080fd5b50610282600081565b34801561043057600080fd5b506102b061043f366004611bed565b610df6565b34801561045057600080fd5b506102827f21702c8af46127c7fa207f89d0b0a8441bb32959a0ac7df790e9ab1a25c9892681565b34801561048457600080fd5b506102b06104933660046119e0565b610f67565b3480156104a457600080fd5b506104cb6104b33660046119b2565b600090815260cd602052604090206001015460ff1690565b60405161017c9190611c5c565b3480156104e457600080fd5b506102b06104f3366004611c6a565b610f8d565b34801561050457600080fd5b5061052f6105133660046119b2565b60cd602052600090815260409020805460019091015460ff1682565b60405161017c929190611c8f565b60006001600160e01b03198216637965db0b60e01b148061056e57506301ffc9a760e01b6001600160e01b03198316145b92915050565b6000828152606560205260409020600101546105908133610fc7565b61059a838361102b565b505050565b6001600160a01b03811633146106145760405162461bcd60e51b815260206004820152602f60248201527f416363657373436f6e74726f6c3a2063616e206f6e6c792072656e6f756e636560448201526e103937b632b9903337b91039b2b63360891b60648201526084015b60405180910390fd5b61061e82826110b1565b5050565b600080516020611f7583398151915261063b8133610fc7565b610643611118565b50565b600080516020611f7583398151915261065f8133610fc7565b6001600160a01b0384166106c15760405162461bcd60e51b815260206004820152602360248201527f57514272696467653a20696e76616c696420726563697069656e74206164647260448201526265737360e81b606482015260840161060b565b6001600160a01b038216156106e9576106e46001600160a01b03831685856111ab565b6106fc565b6106fc6001600160a01b0385168461120e565b604080516001600160a01b038085168252861660208201529081018490527fd1ba4ac2e2a11b5101f6cb4d978f514a155b421e8ec396d2d9abaf0bb02917ee9060600160405180910390a150505050565b60975460ff16156107935760405162461bcd60e51b815260206004820152601060248201526f14185d5cd8589b194e881c185d5cd95960821b604482015260640161060b565b60c9548714156107f15760405162461bcd60e51b8152602060048201526024808201527f576f726b5175657374204272696467653a20496e76616c696420636861696e546044820152631bc81a5960e21b606482015260840161060b565b600087815260cb602052604090205460ff166108635760405162461bcd60e51b815260206004820152602b60248201527f576f726b5175657374204272696467653a20436861696e546f2049442069732060448201526a1b9bdd08185b1b1bddd95960aa1b606482015260840161060b565b600060cc8383604051610877929190611ca3565b908152604051908190036020019020805490915060ff600160a01b909104166109085760405162461bcd60e51b815260206004820152603760248201527f576f726b5175657374204272696467653a205468697320746f6b656e206e6f7460448201527f2072656769737465726564206f722064697361626c6564000000000000000000606482015260840161060b565b600089888860c9548c8a8a8a8a60405160200161092d99989796959493929190611cb3565b60408051601f198184030181529190528051602090910120905060008082815260cd602052604090206001015460ff16600281111561096e5761096e611c24565b146109ec5760405162461bcd60e51b815260206004820152604260248201527f576f726b5175657374204272696467653a2053776170206973206e6f7420656d60448201527f707479207374617465206f72206475706c6963617465207472616e736163746960648201526137b760f11b608482015260a40161060b565b6040805180820182528b815260016020808301828152600086815260cd90925293902082518155925183820180549394939192909160ff191690836002811115610a3857610a38611c24565b0217905550508254600160b01b900460ff16159050610a745760ca548254610a6f916001600160a01b03918216913391168b611327565b610b74565b8154600160a81b900460ff1615610b1057873414610afa5760405162461bcd60e51b815260206004820152603f60248201527f576f726b5175657374204272696467653a20416d6f756e742076616c7565206960448201527f73206e6f7420657175616c20746f207472616e7366657265642066756e647300606482015260840161060b565b60ca54610a6f906001600160a01b03168961120e565b8154604051632770a7eb60e21b8152336004820152602481018a90526001600160a01b0390911690639dc29fac90604401600060405180830381600087803b158015610b5b57600080fd5b505af1158015610b6f573d6000803e3d6000fd5b505050505b7f29ab7267823901259c18ef8ff2b6ce9a175b3a1c6cfeba495e0aea26eb235fe242888a60c9548d8f8c8c8c8c604051610bb79a99989796959493929190611d3b565b60405180910390a150505050505050505050565b600080516020611f75833981519152610be48133610fc7565b6001600160a01b038216610c3a5760405162461bcd60e51b815260206004820152601e60248201527f57514272696467653a20696e76616c696420706f6f6c20616464726573730000604482015260640161060b565b5060ca80546001600160a01b0319166001600160a01b0392909216919091179055565b600080516020611f75833981519152610c768133610fc7565b61064361135f565b60009182526065602090815260408084206001600160a01b0393909316845291905290205460ff1690565b600080516020611f75833981519152610cc28133610fc7565b6000825111610d325760405162461bcd60e51b815260206004820152603660248201527f576f726b5175657374204272696467653a2053796d626f6c206c656e6774682060448201527506d7573742062652067726561746572207468616e20360541b606482015260840161060b565b6040518060800160405280876001600160a01b031681526020018615158152602001851515815260200184151581525060cc83604051610d729190611dce565b90815260408051602092819003830190208351815493850151928501516060909501516001600160a01b039091166001600160a81b031990941693909317600160a01b921515929092029190911761ffff60a81b1916600160a81b9315159390930260ff60b01b191692909217600160b01b91151591909102179055505050505050565b600054610100900460ff16610e115760005460ff1615610e15565b303b155b610e785760405162461bcd60e51b815260206004820152602e60248201527f496e697469616c697a61626c653a20636f6e747261637420697320616c72656160448201526d191e481a5b9a5d1a585b1a5e995960921b606482015260840161060b565b600054610100900460ff16158015610e9a576000805461ffff19166101011790555b610ea26113da565b610eaa611403565b610eb5600033611432565b610ecd600080516020611f7583398151915233611432565b610f057f21702c8af46127c7fa207f89d0b0a8441bb32959a0ac7df790e9ab1a25c98926600080516020611f7583398151915261143c565b610f2f7f21702c8af46127c7fa207f89d0b0a8441bb32959a0ac7df790e9ab1a25c9892683611432565b60c984905560ca80546001600160a01b0319166001600160a01b0385161790558015610f61576000805461ff00191690555b50505050565b600082815260656020526040902060010154610f838133610fc7565b61059a83836110b1565b600080516020611f75833981519152610fa68133610fc7565b50600091825260cb6020526040909120805460ff1916911515919091179055565b610fd18282610c7e565b61061e57610fe9816001600160a01b03166014611487565b610ff4836020611487565b604051602001611005929190611dea565b60408051601f198184030181529082905262461bcd60e51b825261060b91600401611e5f565b6110358282610c7e565b61061e5760008281526065602090815260408083206001600160a01b03851684529091529020805460ff1916600117905561106d3390565b6001600160a01b0316816001600160a01b0316837f2f8788117e7eff1d82e926ec794901d17c78024a50270940304540a733656f0d60405160405180910390a45050565b6110bb8282610c7e565b1561061e5760008281526065602090815260408083206001600160a01b0385168085529252808320805460ff1916905551339285917ff6391f5c32d9c69d2a47ea670b442974b53935d1edc7fd64eb21e047a839171b9190a45050565b60975460ff166111615760405162461bcd60e51b815260206004820152601460248201527314185d5cd8589b194e881b9bdd081c185d5cd95960621b604482015260640161060b565b6097805460ff191690557f5db9ee0a495bf2e6ff9c91a7834c1ba4fdd244a5e8aa4e537bd38aeae4b073aa335b6040516001600160a01b03909116815260200160405180910390a1565b6040516001600160a01b03831660248201526044810182905261059a90849063a9059cbb60e01b906064015b60408051601f198184030181529190526020810180516001600160e01b03166001600160e01b03199093169290921790915261162a565b8047101561125e5760405162461bcd60e51b815260206004820152601d60248201527f416464726573733a20696e73756666696369656e742062616c616e6365000000604482015260640161060b565b6000826001600160a01b03168260405160006040518083038185875af1925050503d80600081146112ab576040519150601f19603f3d011682016040523d82523d6000602084013e6112b0565b606091505b505090508061059a5760405162461bcd60e51b815260206004820152603a60248201527f416464726573733a20756e61626c6520746f2073656e642076616c75652c207260448201527f6563697069656e74206d61792068617665207265766572746564000000000000606482015260840161060b565b6040516001600160a01b0380851660248301528316604482015260648101829052610f619085906323b872dd60e01b906084016111d7565b60975460ff16156113a55760405162461bcd60e51b815260206004820152601060248201526f14185d5cd8589b194e881c185d5cd95960821b604482015260640161060b565b6097805460ff191660011790557f62e78cea01bee320cd4e420270b5ea74000d11b0c9f74754ebdbfc544b05a25861118e3390565b600054610100900460ff166114015760405162461bcd60e51b815260040161060b90611e92565b565b600054610100900460ff1661142a5760405162461bcd60e51b815260040161060b90611e92565b6114016116fc565b61061e828261102b565b600082815260656020526040808220600101805490849055905190918391839186917fbd79b86ffe0ab8e8776151514217cd7cacd52c909f66475c3af44e129f0b00ff9190a4505050565b60606000611496836002611ef3565b6114a1906002611f12565b67ffffffffffffffff8111156114b9576114b96118da565b6040519080825280601f01601f1916602001820160405280156114e3576020820181803683370190505b509050600360fc1b816000815181106114fe576114fe611f2a565b60200101906001600160f81b031916908160001a905350600f60fb1b8160018151811061152d5761152d611f2a565b60200101906001600160f81b031916908160001a9053506000611551846002611ef3565b61155c906001611f12565b90505b60018111156115d4576f181899199a1a9b1b9c1cb0b131b232b360811b85600f166010811061159057611590611f2a565b1a60f81b8282815181106115a6576115a6611f2a565b60200101906001600160f81b031916908160001a90535060049490941c936115cd81611f40565b905061155f565b5083156116235760405162461bcd60e51b815260206004820181905260248201527f537472696e67733a20686578206c656e67746820696e73756666696369656e74604482015260640161060b565b9392505050565b600061167f826040518060400160405280602081526020017f5361666545524332303a206c6f772d6c6576656c2063616c6c206661696c6564815250856001600160a01b031661172f9092919063ffffffff16565b80519091501561059a578080602001905181019061169d9190611f57565b61059a5760405162461bcd60e51b815260206004820152602a60248201527f5361666545524332303a204552433230206f7065726174696f6e20646964206e6044820152691bdd081cdd58d8d9595960b21b606482015260840161060b565b600054610100900460ff166117235760405162461bcd60e51b815260040161060b90611e92565b6097805460ff19169055565b606061173e8484600085611746565b949350505050565b6060824710156117a75760405162461bcd60e51b815260206004820152602660248201527f416464726573733a20696e73756666696369656e742062616c616e636520666f6044820152651c8818d85b1b60d21b606482015260840161060b565b6001600160a01b0385163b6117fe5760405162461bcd60e51b815260206004820152601d60248201527f416464726573733a2063616c6c20746f206e6f6e2d636f6e7472616374000000604482015260640161060b565b600080866001600160a01b0316858760405161181a9190611dce565b60006040518083038185875af1925050503d8060008114611857576040519150601f19603f3d011682016040523d82523d6000602084013e61185c565b606091505b509150915061186c828286611877565b979650505050505050565b60608315611886575081611623565b8251156118965782518084602001fd5b8160405162461bcd60e51b815260040161060b9190611e5f565b6000602082840312156118c257600080fd5b81356001600160e01b03198116811461162357600080fd5b634e487b7160e01b600052604160045260246000fd5b600082601f83011261190157600080fd5b813567ffffffffffffffff8082111561191c5761191c6118da565b604051601f8301601f19908116603f01168101908282118183101715611944576119446118da565b8160405283815286602085880101111561195d57600080fd5b836020870160208301376000602085830101528094505050505092915050565b60006020828403121561198f57600080fd5b813567ffffffffffffffff8111156119a657600080fd5b61173e848285016118f0565b6000602082840312156119c457600080fd5b5035919050565b6001600160a01b038116811461064357600080fd5b600080604083850312156119f357600080fd5b823591506020830135611a05816119cb565b809150509250929050565b600080600060608486031215611a2557600080fd5b8335611a30816119cb565b9250602084013591506040840135611a47816119cb565b809150509250925092565b60008083601f840112611a6457600080fd5b50813567ffffffffffffffff811115611a7c57600080fd5b602083019150836020828501011115611a9457600080fd5b9250929050565b60008060008060008060008060c0898b031215611ab757600080fd5b8835975060208901359650604089013595506060890135611ad7816119cb565b9450608089013567ffffffffffffffff80821115611af457600080fd5b611b008c838d01611a52565b909650945060a08b0135915080821115611b1957600080fd5b50611b268b828c01611a52565b999c989b5096995094979396929594505050565b600060208284031215611b4c57600080fd5b8135611623816119cb565b801515811461064357600080fd5b600080600080600060a08688031215611b7d57600080fd5b8535611b88816119cb565b94506020860135611b9881611b57565b93506040860135611ba881611b57565b92506060860135611bb881611b57565b9150608086013567ffffffffffffffff811115611bd457600080fd5b611be0888289016118f0565b9150509295509295909350565b600080600060608486031215611c0257600080fd5b833592506020840135611c14816119cb565b91506040840135611a47816119cb565b634e487b7160e01b600052602160045260246000fd5b60038110611c5857634e487b7160e01b600052602160045260246000fd5b9052565b6020810161056e8284611c3a565b60008060408385031215611c7d57600080fd5b823591506020830135611a0581611b57565b828152604081016116236020830184611c3a565b8183823760009101908152919050565b8981528860208201526bffffffffffffffffffffffff198860601b166040820152866054820152856074820152838560948301376000848201609481016000815284868237506000930160940192835250909998505050505050505050565b81835281816020850137506000828201602090810191909152601f909101601f19169091010190565b60006101008c835260018060a01b038c1660208401528a60408401528960608401528860808401528760a08401528060c0840152611d7c8184018789611d12565b905082810360e0840152611d91818587611d12565b9d9c50505050505050505050505050565b60005b83811015611dbd578181015183820152602001611da5565b83811115610f615750506000910152565b60008251611de0818460208701611da2565b9190910192915050565b7f416363657373436f6e74726f6c3a206163636f756e7420000000000000000000815260008351611e22816017850160208801611da2565b7001034b99036b4b9b9b4b733903937b6329607d1b6017918401918201528351611e53816028840160208801611da2565b01602801949350505050565b6020815260008251806020840152611e7e816040850160208701611da2565b601f01601f19169190910160400192915050565b6020808252602b908201527f496e697469616c697a61626c653a20636f6e7472616374206973206e6f74206960408201526a6e697469616c697a696e6760a81b606082015260800190565b634e487b7160e01b600052601160045260246000fd5b6000816000190483118215151615611f0d57611f0d611edd565b500290565b60008219821115611f2557611f25611edd565b500190565b634e487b7160e01b600052603260045260246000fd5b600081611f4f57611f4f611edd565b506000190190565b600060208284031215611f6957600080fd5b815161162381611b5756fea49807205ce4d355092ef5a8a18f56e8913cf4a201fbe287825b095693c21775a2646970667358221220bdd566ef783d5d2e7a91c4bd7b3f7412b542de5160133fae10ecfe85b9f37aed64736f6c63430008090033",
  "linkReferences": {},
  "deployedLinkReferences": {}
}