{
  "_format": "hh-sol-artifact-1",
  "contractName": "WQPromotion",
  "sourceName": "contracts/WQPromotion.sol",
  "abi": [
    {
      "inputs": [],
      "stateMutability": "nonpayable",
      "type": "constructor"
    },
    {
      "anonymous": false,
      "inputs": [
        {
          "indexed": false,
          "internalType": "address",
          "name": "previousAdmin",
          "type": "address"
        },
        {
          "indexed": false,
          "internalType": "address",
          "name": "newAdmin",
          "type": "address"
        }
      ],
      "name": "AdminChanged",
      "type": "event"
    },
    {
      "anonymous": false,
      "inputs": [
        {
          "indexed": true,
          "internalType": "address",
          "name": "beacon",
          "type": "address"
        }
      ],
      "name": "BeaconUpgraded",
      "type": "event"
    },
    {
      "anonymous": false,
      "inputs": [
        {
          "indexed": false,
          "internalType": "address",
          "name": "quest",
          "type": "address"
        },
        {
          "indexed": false,
          "internalType": "enum WQPromotion.PaidTariff",
          "name": "tariff",
          "type": "uint8"
        },
        {
          "indexed": false,
          "internalType": "uint256",
          "name": "period",
          "type": "uint256"
        },
        {
          "indexed": false,
          "internalType": "uint256",
          "name": "promotedAt",
          "type": "uint256"
        }
      ],
      "name": "PromotedQuest",
      "type": "event"
    },
    {
      "anonymous": false,
      "inputs": [
        {
          "indexed": false,
          "internalType": "address",
          "name": "user",
          "type": "address"
        },
        {
          "indexed": false,
          "internalType": "enum WQPromotion.PaidTariff",
          "name": "tariff",
          "type": "uint8"
        },
        {
          "indexed": false,
          "internalType": "uint256",
          "name": "period",
          "type": "uint256"
        },
        {
          "indexed": false,
          "internalType": "uint256",
          "name": "promotedAt",
          "type": "uint256"
        }
      ],
      "name": "PromotedUser",
      "type": "event"
    },
    {
      "anonymous": false,
      "inputs": [
        {
          "indexed": true,
          "internalType": "bytes32",
          "name": "role",
          "type": "bytes32"
        },
        {
          "indexed": true,
          "internalType": "bytes32",
          "name": "previousAdminRole",
          "type": "bytes32"
        },
        {
          "indexed": true,
          "internalType": "bytes32",
          "name": "newAdminRole",
          "type": "bytes32"
        }
      ],
      "name": "RoleAdminChanged",
      "type": "event"
    },
    {
      "anonymous": false,
      "inputs": [
        {
          "indexed": true,
          "internalType": "bytes32",
          "name": "role",
          "type": "bytes32"
        },
        {
          "indexed": true,
          "internalType": "address",
          "name": "account",
          "type": "address"
        },
        {
          "indexed": true,
          "internalType": "address",
          "name": "sender",
          "type": "address"
        }
      ],
      "name": "RoleGranted",
      "type": "event"
    },
    {
      "anonymous": false,
      "inputs": [
        {
          "indexed": true,
          "internalType": "bytes32",
          "name": "role",
          "type": "bytes32"
        },
        {
          "indexed": true,
          "internalType": "address",
          "name": "account",
          "type": "address"
        },
        {
          "indexed": true,
          "internalType": "address",
          "name": "sender",
          "type": "address"
        }
      ],
      "name": "RoleRevoked",
      "type": "event"
    },
    {
      "anonymous": false,
      "inputs": [
        {
          "indexed": true,
          "internalType": "address",
          "name": "implementation",
          "type": "address"
        }
      ],
      "name": "Upgraded",
      "type": "event"
    },
    {
      "inputs": [],
      "name": "ADMIN_ROLE",
      "outputs": [
        {
          "internalType": "bytes32",
          "name": "",
          "type": "bytes32"
        }
      ],
      "stateMutability": "view",
      "type": "function"
    },
    {
      "inputs": [],
      "name": "DEFAULT_ADMIN_ROLE",
      "outputs": [
        {
          "internalType": "bytes32",
          "name": "",
          "type": "bytes32"
        }
      ],
      "stateMutability": "view",
      "type": "function"
    },
    {
      "inputs": [],
      "name": "UPGRADER_ROLE",
      "outputs": [
        {
          "internalType": "bytes32",
          "name": "",
          "type": "bytes32"
        }
      ],
      "stateMutability": "view",
      "type": "function"
    },
    {
      "inputs": [],
      "name": "factory",
      "outputs": [
        {
          "internalType": "contract WorkQuestFactory",
          "name": "",
          "type": "address"
        }
      ],
      "stateMutability": "view",
      "type": "function"
    },
    {
      "inputs": [],
      "name": "feeReceiver",
      "outputs": [
        {
          "internalType": "address payable",
          "name": "",
          "type": "address"
        }
      ],
      "stateMutability": "view",
      "type": "function"
    },
    {
      "inputs": [
        {
          "internalType": "bytes32",
          "name": "role",
          "type": "bytes32"
        }
      ],
      "name": "getRoleAdmin",
      "outputs": [
        {
          "internalType": "bytes32",
          "name": "",
          "type": "bytes32"
        }
      ],
      "stateMutability": "view",
      "type": "function"
    },
    {
      "inputs": [
        {
          "internalType": "bytes32",
          "name": "role",
          "type": "bytes32"
        },
        {
          "internalType": "address",
          "name": "account",
          "type": "address"
        }
      ],
      "name": "grantRole",
      "outputs": [],
      "stateMutability": "nonpayable",
      "type": "function"
    },
    {
      "inputs": [
        {
          "internalType": "bytes32",
          "name": "role",
          "type": "bytes32"
        },
        {
          "internalType": "address",
          "name": "account",
          "type": "address"
        }
      ],
      "name": "hasRole",
      "outputs": [
        {
          "internalType": "bool",
          "name": "",
          "type": "bool"
        }
      ],
      "stateMutability": "view",
      "type": "function"
    },
    {
      "inputs": [
        {
          "internalType": "address payable",
          "name": "_feeReceiver",
          "type": "address"
        },
        {
          "internalType": "address",
          "name": "_factory",
          "type": "address"
        }
      ],
      "name": "initialize",
      "outputs": [],
      "stateMutability": "nonpayable",
      "type": "function"
    },
    {
      "inputs": [
        {
          "internalType": "address",
          "name": "quest",
          "type": "address"
        },
        {
          "internalType": "enum WQPromotion.PaidTariff",
          "name": "tariff",
          "type": "uint8"
        },
        {
          "internalType": "uint256",
          "name": "period",
          "type": "uint256"
        }
      ],
      "name": "promoteQuest",
      "outputs": [],
      "stateMutability": "payable",
      "type": "function"
    },
    {
      "inputs": [
        {
          "internalType": "enum WQPromotion.PaidTariff",
          "name": "tariff",
          "type": "uint8"
        },
        {
          "internalType": "uint256",
          "name": "period",
          "type": "uint256"
        }
      ],
      "name": "promoteUser",
      "outputs": [],
      "stateMutability": "payable",
      "type": "function"
    },
    {
      "inputs": [],
      "name": "proxiableUUID",
      "outputs": [
        {
          "internalType": "bytes32",
          "name": "",
          "type": "bytes32"
        }
      ],
      "stateMutability": "view",
      "type": "function"
    },
    {
      "inputs": [
        {
          "internalType": "enum WQPromotion.PaidTariff",
          "name": "",
          "type": "uint8"
        },
        {
          "internalType": "uint256",
          "name": "",
          "type": "uint256"
        }
      ],
      "name": "questTariff",
      "outputs": [
        {
          "internalType": "uint256",
          "name": "",
          "type": "uint256"
        }
      ],
      "stateMutability": "view",
      "type": "function"
    },
    {
      "inputs": [
        {
          "internalType": "bytes32",
          "name": "role",
          "type": "bytes32"
        },
        {
          "internalType": "address",
          "name": "account",
          "type": "address"
        }
      ],
      "name": "renounceRole",
      "outputs": [],
      "stateMutability": "nonpayable",
      "type": "function"
    },
    {
      "inputs": [
        {
          "internalType": "bytes32",
          "name": "role",
          "type": "bytes32"
        },
        {
          "internalType": "address",
          "name": "account",
          "type": "address"
        }
      ],
      "name": "revokeRole",
      "outputs": [],
      "stateMutability": "nonpayable",
      "type": "function"
    },
    {
      "inputs": [
        {
          "internalType": "address",
          "name": "_factory",
          "type": "address"
        }
      ],
      "name": "setFactory",
      "outputs": [],
      "stateMutability": "nonpayable",
      "type": "function"
    },
    {
      "inputs": [
        {
          "internalType": "enum WQPromotion.PaidTariff",
          "name": "tariff",
          "type": "uint8"
        },
        {
          "internalType": "uint256",
          "name": "period",
          "type": "uint256"
        },
        {
          "internalType": "uint256",
          "name": "cost",
          "type": "uint256"
        }
      ],
      "name": "setQuestTariff",
      "outputs": [],
      "stateMutability": "nonpayable",
      "type": "function"
    },
    {
      "inputs": [
        {
          "internalType": "enum WQPromotion.PaidTariff",
          "name": "tariff",
          "type": "uint8"
        },
        {
          "internalType": "uint256",
          "name": "period",
          "type": "uint256"
        },
        {
          "internalType": "uint256",
          "name": "cost",
          "type": "uint256"
        }
      ],
      "name": "setUserTariff",
      "outputs": [],
      "stateMutability": "nonpayable",
      "type": "function"
    },
    {
      "inputs": [
        {
          "internalType": "bytes4",
          "name": "interfaceId",
          "type": "bytes4"
        }
      ],
      "name": "supportsInterface",
      "outputs": [
        {
          "internalType": "bool",
          "name": "",
          "type": "bool"
        }
      ],
      "stateMutability": "view",
      "type": "function"
    },
    {
      "inputs": [
        {
          "internalType": "address",
          "name": "newImplementation",
          "type": "address"
        }
      ],
      "name": "upgradeTo",
      "outputs": [],
      "stateMutability": "nonpayable",
      "type": "function"
    },
    {
      "inputs": [
        {
          "internalType": "address",
          "name": "newImplementation",
          "type": "address"
        },
        {
          "internalType": "bytes",
          "name": "data",
          "type": "bytes"
        }
      ],
      "name": "upgradeToAndCall",
      "outputs": [],
      "stateMutability": "payable",
      "type": "function"
    },
    {
      "inputs": [
        {
          "internalType": "enum WQPromotion.PaidTariff",
          "name": "",
          "type": "uint8"
        },
        {
          "internalType": "uint256",
          "name": "",
          "type": "uint256"
        }
      ],
      "name": "usersTariff",
      "outputs": [
        {
          "internalType": "uint256",
          "name": "",
          "type": "uint256"
        }
      ],
      "stateMutability": "view",
      "type": "function"
    }
  ],
  "bytecode": "0x60a06040523060601b6080523480156200001857600080fd5b50600054610100900460ff16620000365760005460ff161562000040565b62000040620000e5565b620000a85760405162461bcd60e51b815260206004820152602e60248201527f496e697469616c697a61626c653a20636f6e747261637420697320616c72656160448201526d191e481a5b9a5d1a585b1a5e995960921b606482015260840160405180910390fd5b600054610100900460ff16158015620000cb576000805461ffff19166101011790555b8015620000de576000805461ff00191690555b5062000112565b6000620000fd306200010360201b62000f4b1760201c565b15905090565b6001600160a01b03163b151590565b60805160601c611e126200014d60003960008181610a3d01528181610a7d01528181610c8201528181610cc20152610d510152611e126000f3fe6080604052600436106101355760003560e01c80635bb47808116100ab578063b3f006741161006f578063b3f006741461034d578063b6c190e814610386578063c45a0155146103bf578063d547741f146103e0578063f72c0d8b14610400578063fb003fd11461042257600080fd5b80635bb47808146102b657806375b238fc146102d65780638726c2fa146102f857806391d1485414610318578063a217fddf1461033857600080fd5b80633313fe99116100fd5780633313fe99146101f557806336568abe1461022e5780633659cfe61461024e578063485cc9551461026e5780634f1ef2861461028e57806352d1902d146102a157600080fd5b806301ffc9a71461013a5780631b5a99c91461016f578063205d481014610184578063248a9ca3146101975780632f2ff15d146101d5575b600080fd5b34801561014657600080fd5b5061015a610155366004611a27565b610442565b60405190151581526020015b60405180910390f35b61018261017d366004611a4f565b610479565b005b610182610192366004611976565b610693565b3480156101a357600080fd5b506101c76101b23660046119d3565b60009081526065602052604090206001015490565b604051908152602001610166565b3480156101e157600080fd5b506101826101f0366004611a03565b610989565b34801561020157600080fd5b506101c7610210366004611a4f565b61012f60209081526000928352604080842090915290825290205481565b34801561023a57600080fd5b50610182610249366004611a03565b6109b4565b34801561025a57600080fd5b50610182610269366004611863565b610a32565b34801561027a57600080fd5b5061018261028936600461187f565b610b12565b61018261029c3660046118b7565b610c77565b3480156102ad57600080fd5b506101c7610d44565b3480156102c257600080fd5b506101826102d1366004611863565b610df7565b3480156102e257600080fd5b506101c7600080516020611dbd83398151915281565b34801561030457600080fd5b50610182610313366004611a78565b610e34565b34801561032457600080fd5b5061015a610333366004611a03565b610ebb565b34801561034457600080fd5b506101c7600081565b34801561035957600080fd5b5061012d5461036e906001600160a01b031681565b6040516001600160a01b039091168152602001610166565b34801561039257600080fd5b506101c76103a1366004611a4f565b61013060209081526000928352604080842090915290825290205481565b3480156103cb57600080fd5b5061012e5461036e906001600160a01b031681565b3480156103ec57600080fd5b506101826103fb366004611a03565b610ee6565b34801561040c57600080fd5b506101c7600080516020611d5683398151915281565b34801561042e57600080fd5b5061018261043d366004611a78565b610f0c565b60006001600160e01b03198216637965db0b60e01b148061047357506301ffc9a760e01b6001600160e01b03198316145b92915050565b600260975414156104d15760405162461bcd60e51b815260206004820152601f60248201527f5265656e7472616e637947756172643a207265656e7472616e742063616c6c0060448201526064015b60405180910390fd5b60026097556000610130818460038111156104fc57634e487b7160e01b600052602160045260246000fd5b600381111561051b57634e487b7160e01b600052602160045260246000fd5b8152602001908152602001600020600083815260200190815260200160002054116105885760405162461bcd60e51b815260206004820152601b60248201527f575150726f6d6f74696f6e3a20496e76616c696420746172696666000000000060448201526064016104c8565b61013060008360038111156105ad57634e487b7160e01b600052602160045260246000fd5b60038111156105cc57634e487b7160e01b600052602160045260246000fd5b815260200190815260200160002060008281526020019081526020016000205434146106365760405162461bcd60e51b815260206004820152601960248201527815d4541c9bdb5bdd1a5bdb8e88125b9d985b1a590818dbdcdd603a1b60448201526064016104c8565b61012d5461064d906001600160a01b031634610f5a565b7f47a846d3f55e6c6ec5e4885abdb8ae0d3b58f64340117481b42e4572a2d22819338383426040516106829493929190611b3b565b60405180910390a150506001609755565b600260975414156106e65760405162461bcd60e51b815260206004820152601f60248201527f5265656e7472616e637947756172643a207265656e7472616e742063616c6c0060448201526064016104c8565b600260975561012e546040516308dc900f60e21b81526001600160a01b03858116600483015290911690632372403c9060240160206040518083038186803b15801561073157600080fd5b505afa158015610745573d6000803e3d6000fd5b505050506040513d601f19601f8201168201806040525081019061076991906119b3565b6107ca5760405162461bcd60e51b815260206004820152602c60248201527f575150726f6d6f74696f6e3a205175657374206973206e6f7420576f726b517560448201526b195cdd0818dbdb9d1c9858dd60a21b60648201526084016104c8565b600061012f60008460038111156107f157634e487b7160e01b600052602160045260246000fd5b600381111561081057634e487b7160e01b600052602160045260246000fd5b81526020019081526020016000206000838152602001908152602001600020541161087d5760405162461bcd60e51b815260206004820152601b60248201527f575150726f6d6f74696f6e3a20496e76616c696420746172696666000000000060448201526064016104c8565b61012f60008360038111156108a257634e487b7160e01b600052602160045260246000fd5b60038111156108c157634e487b7160e01b600052602160045260246000fd5b8152602001908152602001600020600082815260200190815260200160002054341461092b5760405162461bcd60e51b815260206004820152601960248201527815d4541c9bdb5bdd1a5bdb8e88125b9d985b1a590818dbdcdd603a1b60448201526064016104c8565b61012d54610942906001600160a01b031634610f5a565b7f9552a3ae265c66d664cf8bc2bbf11143d9124a87c040baf870599db5d5f98fa8838383426040516109779493929190611b3b565b60405180910390a15050600160975550565b6000828152606560205260409020600101546109a58133611073565b6109af83836110d7565b505050565b6001600160a01b0381163314610a245760405162461bcd60e51b815260206004820152602f60248201527f416363657373436f6e74726f6c3a2063616e206f6e6c792072656e6f756e636560448201526e103937b632b9903337b91039b2b63360891b60648201526084016104c8565b610a2e828261115d565b5050565b306001600160a01b037f0000000000000000000000000000000000000000000000000000000000000000161415610a7b5760405162461bcd60e51b81526004016104c890611bb7565b7f00000000000000000000000000000000000000000000000000000000000000006001600160a01b0316610ac4600080516020611d76833981519152546001600160a01b031690565b6001600160a01b031614610aea5760405162461bcd60e51b81526004016104c890611c03565b610af3816111c4565b60408051600080825260208201909252610b0f918391906111dd565b50565b600054610100900460ff16610b2d5760005460ff1615610b31565b303b155b610b945760405162461bcd60e51b815260206004820152602e60248201527f496e697469616c697a61626c653a20636f6e747261637420697320616c72656160448201526d191e481a5b9a5d1a585b1a5e995960921b60648201526084016104c8565b600054610100900460ff16158015610bb6576000805461ffff19166101011790555b610bbe611357565b610bc6611380565b610bce611357565b610bd96000336113af565b610bf1600080516020611dbd833981519152336113af565b610c09600080516020611d56833981519152336113af565b610c2f600080516020611d56833981519152600080516020611dbd8339815191526113b9565b61012d80546001600160a01b038086166001600160a01b03199283161790925561012e80549285169290911691909117905580156109af576000805461ff0019169055505050565b306001600160a01b037f0000000000000000000000000000000000000000000000000000000000000000161415610cc05760405162461bcd60e51b81526004016104c890611bb7565b7f00000000000000000000000000000000000000000000000000000000000000006001600160a01b0316610d09600080516020611d76833981519152546001600160a01b031690565b6001600160a01b031614610d2f5760405162461bcd60e51b81526004016104c890611c03565b610d38826111c4565b610a2e828260016111dd565b6000306001600160a01b037f00000000000000000000000000000000000000000000000000000000000000001614610de45760405162461bcd60e51b815260206004820152603860248201527f555550535570677261646561626c653a206d757374206e6f742062652063616c60448201527f6c6564207468726f7567682064656c656761746563616c6c000000000000000060648201526084016104c8565b50600080516020611d7683398151915290565b600080516020611dbd833981519152610e108133611073565b5061012e80546001600160a01b0319166001600160a01b0392909216919091179055565b600080516020611dbd833981519152610e4d8133611073565b816101306000866003811115610e7357634e487b7160e01b600052602160045260246000fd5b6003811115610e9257634e487b7160e01b600052602160045260246000fd5b815260200190815260200160002060008581526020019081526020016000208190555050505050565b60009182526065602090815260408084206001600160a01b0393909316845291905290205460ff1690565b600082815260656020526040902060010154610f028133611073565b6109af838361115d565b600080516020611dbd833981519152610f258133611073565b8161012f6000866003811115610e7357634e487b7160e01b600052602160045260246000fd5b6001600160a01b03163b151590565b80471015610faa5760405162461bcd60e51b815260206004820152601d60248201527f416464726573733a20696e73756666696369656e742062616c616e636500000060448201526064016104c8565b6000826001600160a01b03168260405160006040518083038185875af1925050503d8060008114610ff7576040519150601f19603f3d011682016040523d82523d6000602084013e610ffc565b606091505b50509050806109af5760405162461bcd60e51b815260206004820152603a60248201527f416464726573733a20756e61626c6520746f2073656e642076616c75652c207260448201527f6563697069656e74206d6179206861766520726576657274656400000000000060648201526084016104c8565b61107d8282610ebb565b610a2e57611095816001600160a01b03166014611404565b6110a0836020611404565b6040516020016110b1929190611ac6565b60408051601f198184030181529082905262461bcd60e51b82526104c891600401611b84565b6110e18282610ebb565b610a2e5760008281526065602090815260408083206001600160a01b03851684529091529020805460ff191660011790556111193390565b6001600160a01b0316816001600160a01b0316837f2f8788117e7eff1d82e926ec794901d17c78024a50270940304540a733656f0d60405160405180910390a45050565b6111678282610ebb565b15610a2e5760008281526065602090815260408083206001600160a01b0385168085529252808320805460ff1916905551339285917ff6391f5c32d9c69d2a47ea670b442974b53935d1edc7fd64eb21e047a839171b9190a45050565b600080516020611d56833981519152610a2e8133611073565b7f4910fdfa16fed3260ed0e7147f7cc6da11a60208b5b9406d12a635614ffd91435460ff1615611210576109af836115ed565b826001600160a01b03166352d1902d6040518163ffffffff1660e01b815260040160206040518083038186803b15801561124957600080fd5b505afa925050508015611279575060408051601f3d908101601f19168201909252611276918101906119eb565b60015b6112dc5760405162461bcd60e51b815260206004820152602e60248201527f45524331393637557067726164653a206e657720696d706c656d656e7461746960448201526d6f6e206973206e6f74205555505360901b60648201526084016104c8565b600080516020611d76833981519152811461134b5760405162461bcd60e51b815260206004820152602960248201527f45524331393637557067726164653a20756e737570706f727465642070726f786044820152681a58589b195555525160ba1b60648201526084016104c8565b506109af838383611689565b600054610100900460ff1661137e5760405162461bcd60e51b81526004016104c890611c4f565b565b600054610100900460ff166113a75760405162461bcd60e51b81526004016104c890611c4f565b61137e6116b4565b610a2e82826110d7565b600082815260656020526040808220600101805490849055905190918391839186917fbd79b86ffe0ab8e8776151514217cd7cacd52c909f66475c3af44e129f0b00ff9190a4505050565b60606000611413836002611cb2565b61141e906002611c9a565b67ffffffffffffffff81111561144457634e487b7160e01b600052604160045260246000fd5b6040519080825280601f01601f19166020018201604052801561146e576020820181803683370190505b509050600360fc1b8160008151811061149757634e487b7160e01b600052603260045260246000fd5b60200101906001600160f81b031916908160001a905350600f60fb1b816001815181106114d457634e487b7160e01b600052603260045260246000fd5b60200101906001600160f81b031916908160001a90535060006114f8846002611cb2565b611503906001611c9a565b90505b6001811115611597576f181899199a1a9b1b9c1cb0b131b232b360811b85600f166010811061154557634e487b7160e01b600052603260045260246000fd5b1a60f81b82828151811061156957634e487b7160e01b600052603260045260246000fd5b60200101906001600160f81b031916908160001a90535060049490941c9361159081611cfd565b9050611506565b5083156115e65760405162461bcd60e51b815260206004820181905260248201527f537472696e67733a20686578206c656e67746820696e73756666696369656e7460448201526064016104c8565b9392505050565b6001600160a01b0381163b61165a5760405162461bcd60e51b815260206004820152602d60248201527f455243313936373a206e657720696d706c656d656e746174696f6e206973206e60448201526c1bdd08184818dbdb9d1c9858dd609a1b60648201526084016104c8565b600080516020611d7683398151915280546001600160a01b0319166001600160a01b0392909216919091179055565b611692836116e2565b60008251118061169f5750805b156109af576116ae8383611722565b50505050565b600054610100900460ff166116db5760405162461bcd60e51b81526004016104c890611c4f565b6001609755565b6116eb816115ed565b6040516001600160a01b038216907fbc7cd75a20ee27fd9adebab32041f755214dbc6bffa90cc0225b39da2e5c2d3b90600090a250565b60606001600160a01b0383163b61178a5760405162461bcd60e51b815260206004820152602660248201527f416464726573733a2064656c65676174652063616c6c20746f206e6f6e2d636f6044820152651b9d1c9858dd60d21b60648201526084016104c8565b600080846001600160a01b0316846040516117a59190611aaa565b600060405180830381855af49150503d80600081146117e0576040519150601f19603f3d011682016040523d82523d6000602084013e6117e5565b606091505b509150915061180d8282604051806060016040528060278152602001611d9660279139611816565b95945050505050565b606083156118255750816115e6565b8251156118355782518084602001fd5b8160405162461bcd60e51b81526004016104c89190611b84565b80356004811061185e57600080fd5b919050565b600060208284031215611874578081fd5b81356115e681611d40565b60008060408385031215611891578081fd5b823561189c81611d40565b915060208301356118ac81611d40565b809150509250929050565b600080604083850312156118c9578182fd5b82356118d481611d40565b9150602083013567ffffffffffffffff808211156118f0578283fd5b818501915085601f830112611903578283fd5b81358181111561191557611915611d2a565b604051601f8201601f19908116603f0116810190838211818310171561193d5761193d611d2a565b81604052828152886020848701011115611955578586fd5b82602086016020830137856020848301015280955050505050509250929050565b60008060006060848603121561198a578081fd5b833561199581611d40565b92506119a36020850161184f565b9150604084013590509250925092565b6000602082840312156119c4578081fd5b815180151581146115e6578182fd5b6000602082840312156119e4578081fd5b5035919050565b6000602082840312156119fc578081fd5b5051919050565b60008060408385031215611a15578182fd5b8235915060208301356118ac81611d40565b600060208284031215611a38578081fd5b81356001600160e01b0319811681146115e6578182fd5b60008060408385031215611a61578182fd5b611a6a8361184f565b946020939093013593505050565b600080600060608486031215611a8c578283fd5b611a958461184f565b95602085013595506040909401359392505050565b60008251611abc818460208701611cd1565b9190910192915050565b7f416363657373436f6e74726f6c3a206163636f756e7420000000000000000000815260008351611afe816017850160208801611cd1565b7001034b99036b4b9b9b4b733903937b6329607d1b6017918401918201528351611b2f816028840160208801611cd1565b01602801949350505050565b6001600160a01b03851681526080810160048510611b6957634e487b7160e01b600052602160045260246000fd5b84602083015283604083015282606083015295945050505050565b6020815260008251806020840152611ba3816040850160208701611cd1565b601f01601f19169190910160400192915050565b6020808252602c908201527f46756e6374696f6e206d7573742062652063616c6c6564207468726f7567682060408201526b19195b1959d85d1958d85b1b60a21b606082015260800190565b6020808252602c908201527f46756e6374696f6e206d7573742062652063616c6c6564207468726f7567682060408201526b6163746976652070726f787960a01b606082015260800190565b6020808252602b908201527f496e697469616c697a61626c653a20636f6e7472616374206973206e6f74206960408201526a6e697469616c697a696e6760a81b606082015260800190565b60008219821115611cad57611cad611d14565b500190565b6000816000190483118215151615611ccc57611ccc611d14565b500290565b60005b83811015611cec578181015183820152602001611cd4565b838111156116ae5750506000910152565b600081611d0c57611d0c611d14565b506000190190565b634e487b7160e01b600052601160045260246000fd5b634e487b7160e01b600052604160045260246000fd5b6001600160a01b0381168114610b0f57600080fdfe189ab7a9244df0848122154315af71fe140f3db0fe014031783b0946b8c9d2e3360894a13ba1a3210667c828492db98dca3e2076cc3735a920a3ca505d382bbc416464726573733a206c6f772d6c6576656c2064656c65676174652063616c6c206661696c6564a49807205ce4d355092ef5a8a18f56e8913cf4a201fbe287825b095693c21775a26469706673582212206e2eca65e6a9180e37a3eda2ec2cbcc999d943d69ae36d90d246131e744f925064736f6c63430008040033",
  "linkReferences": {},
  "deployedLinkReferences": {}
}