{
  "_format": "hh-sol-artifact-1",
  "contractName": "WQToken",
  "sourceName": "contracts/WQToken.sol",
  "abi": [
    {
      "inputs": [],
      "stateMutability": "nonpayable",
      "type": "constructor"
    },
    {
      "anonymous": false,
      "inputs": [
        {
          "indexed": false,
          "internalType": "address",
          "name": "previousAdmin",
          "type": "address"
        },
        {
          "indexed": false,
          "internalType": "address",
          "name": "newAdmin",
          "type": "address"
        }
      ],
      "name": "AdminChanged",
      "type": "event"
    },
    {
      "anonymous": false,
      "inputs": [
        {
          "indexed": true,
          "internalType": "address",
          "name": "owner",
          "type": "address"
        },
        {
          "indexed": true,
          "internalType": "address",
          "name": "spender",
          "type": "address"
        },
        {
          "indexed": false,
          "internalType": "uint256",
          "name": "value",
          "type": "uint256"
        }
      ],
      "name": "Approval",
      "type": "event"
    },
    {
      "anonymous": false,
      "inputs": [
        {
          "indexed": true,
          "internalType": "address",
          "name": "beacon",
          "type": "address"
        }
      ],
      "name": "BeaconUpgraded",
      "type": "event"
    },
    {
      "anonymous": false,
      "inputs": [
        {
          "indexed": true,
          "internalType": "address",
          "name": "delegator",
          "type": "address"
        },
        {
          "indexed": true,
          "internalType": "address",
          "name": "fromDelegate",
          "type": "address"
        },
        {
          "indexed": true,
          "internalType": "address",
          "name": "toDelegate",
          "type": "address"
        }
      ],
      "name": "DelegateChanged",
      "type": "event"
    },
    {
      "anonymous": false,
      "inputs": [
        {
          "indexed": true,
          "internalType": "address",
          "name": "delegate",
          "type": "address"
        },
        {
          "indexed": false,
          "internalType": "uint256",
          "name": "previousBalance",
          "type": "uint256"
        },
        {
          "indexed": false,
          "internalType": "uint256",
          "name": "newBalance",
          "type": "uint256"
        }
      ],
      "name": "DelegateVotesChanged",
      "type": "event"
    },
    {
      "anonymous": false,
      "inputs": [
        {
          "indexed": true,
          "internalType": "bytes32",
          "name": "role",
          "type": "bytes32"
        },
        {
          "indexed": true,
          "internalType": "bytes32",
          "name": "previousAdminRole",
          "type": "bytes32"
        },
        {
          "indexed": true,
          "internalType": "bytes32",
          "name": "newAdminRole",
          "type": "bytes32"
        }
      ],
      "name": "RoleAdminChanged",
      "type": "event"
    },
    {
      "anonymous": false,
      "inputs": [
        {
          "indexed": true,
          "internalType": "bytes32",
          "name": "role",
          "type": "bytes32"
        },
        {
          "indexed": true,
          "internalType": "address",
          "name": "account",
          "type": "address"
        },
        {
          "indexed": true,
          "internalType": "address",
          "name": "sender",
          "type": "address"
        }
      ],
      "name": "RoleGranted",
      "type": "event"
    },
    {
      "anonymous": false,
      "inputs": [
        {
          "indexed": true,
          "internalType": "bytes32",
          "name": "role",
          "type": "bytes32"
        },
        {
          "indexed": true,
          "internalType": "address",
          "name": "account",
          "type": "address"
        },
        {
          "indexed": true,
          "internalType": "address",
          "name": "sender",
          "type": "address"
        }
      ],
      "name": "RoleRevoked",
      "type": "event"
    },
    {
      "anonymous": false,
      "inputs": [
        {
          "indexed": true,
          "internalType": "address",
          "name": "from",
          "type": "address"
        },
        {
          "indexed": true,
          "internalType": "address",
          "name": "to",
          "type": "address"
        },
        {
          "indexed": false,
          "internalType": "uint256",
          "name": "value",
          "type": "uint256"
        }
      ],
      "name": "Transfer",
      "type": "event"
    },
    {
      "anonymous": false,
      "inputs": [
        {
          "indexed": true,
          "internalType": "address",
          "name": "implementation",
          "type": "address"
        }
      ],
      "name": "Upgraded",
      "type": "event"
    },
    {
      "inputs": [],
      "name": "ADMIN_ROLE",
      "outputs": [
        {
          "internalType": "bytes32",
          "name": "",
          "type": "bytes32"
        }
      ],
      "stateMutability": "view",
      "type": "function"
    },
    {
      "inputs": [],
      "name": "BURNER_ROLE",
      "outputs": [
        {
          "internalType": "bytes32",
          "name": "",
          "type": "bytes32"
        }
      ],
      "stateMutability": "view",
      "type": "function"
    },
    {
      "inputs": [],
      "name": "DEFAULT_ADMIN_ROLE",
      "outputs": [
        {
          "internalType": "bytes32",
          "name": "",
          "type": "bytes32"
        }
      ],
      "stateMutability": "view",
      "type": "function"
    },
    {
      "inputs": [],
      "name": "MINTER_ROLE",
      "outputs": [
        {
          "internalType": "bytes32",
          "name": "",
          "type": "bytes32"
        }
      ],
      "stateMutability": "view",
      "type": "function"
    },
    {
      "inputs": [],
      "name": "UPGRADER_ROLE",
      "outputs": [
        {
          "internalType": "bytes32",
          "name": "",
          "type": "bytes32"
        }
      ],
      "stateMutability": "view",
      "type": "function"
    },
    {
      "inputs": [
        {
          "internalType": "address",
          "name": "account",
          "type": "address"
        },
        {
          "internalType": "address",
          "name": "spender",
          "type": "address"
        }
      ],
      "name": "allowance",
      "outputs": [
        {
          "internalType": "uint256",
          "name": "",
          "type": "uint256"
        }
      ],
      "stateMutability": "view",
      "type": "function"
    },
    {
      "inputs": [
        {
          "internalType": "address",
          "name": "account",
          "type": "address"
        },
        {
          "internalType": "uint256",
          "name": "amount",
          "type": "uint256"
        }
      ],
      "name": "approve",
      "outputs": [
        {
          "internalType": "bool",
          "name": "",
          "type": "bool"
        }
      ],
      "stateMutability": "nonpayable",
      "type": "function"
    },
    {
      "inputs": [
        {
          "internalType": "address",
          "name": "account",
          "type": "address"
        }
      ],
      "name": "balanceOf",
      "outputs": [
        {
          "internalType": "uint256",
          "name": "",
          "type": "uint256"
        }
      ],
      "stateMutability": "view",
      "type": "function"
    },
    {
      "inputs": [
        {
          "internalType": "address",
          "name": "account",
          "type": "address"
        },
        {
          "internalType": "uint256",
          "name": "amount",
          "type": "uint256"
        }
      ],
      "name": "burn",
      "outputs": [],
      "stateMutability": "nonpayable",
      "type": "function"
    },
    {
      "inputs": [
        {
          "internalType": "address",
          "name": "account",
          "type": "address"
        },
        {
          "internalType": "uint32",
          "name": "pos",
          "type": "uint32"
        }
      ],
      "name": "checkpoints",
      "outputs": [
        {
          "components": [
            {
              "internalType": "uint32",
              "name": "fromBlock",
              "type": "uint32"
            },
            {
              "internalType": "uint224",
              "name": "votes",
              "type": "uint224"
            }
          ],
          "internalType": "struct WQToken.Checkpoint",
          "name": "",
          "type": "tuple"
        }
      ],
      "stateMutability": "view",
      "type": "function"
    },
    {
      "inputs": [],
      "name": "decimals",
      "outputs": [
        {
          "internalType": "uint8",
          "name": "",
          "type": "uint8"
        }
      ],
      "stateMutability": "view",
      "type": "function"
    },
    {
      "inputs": [
        {
          "internalType": "address",
          "name": "spender",
          "type": "address"
        },
        {
          "internalType": "uint256",
          "name": "subtractedValue",
          "type": "uint256"
        }
      ],
      "name": "decreaseAllowance",
      "outputs": [
        {
          "internalType": "bool",
          "name": "",
          "type": "bool"
        }
      ],
      "stateMutability": "nonpayable",
      "type": "function"
    },
    {
      "inputs": [
        {
          "internalType": "address",
          "name": "delegatee",
          "type": "address"
        },
        {
          "internalType": "uint256",
          "name": "amount",
          "type": "uint256"
        }
      ],
      "name": "delegate",
      "outputs": [],
      "stateMutability": "nonpayable",
      "type": "function"
    },
    {
      "inputs": [
        {
          "internalType": "address",
          "name": "account",
          "type": "address"
        }
      ],
      "name": "delegates",
      "outputs": [
        {
          "internalType": "address",
          "name": "",
          "type": "address"
        }
      ],
      "stateMutability": "view",
      "type": "function"
    },
    {
      "inputs": [
        {
          "internalType": "address",
          "name": "account",
          "type": "address"
        }
      ],
      "name": "freezed",
      "outputs": [
        {
          "internalType": "uint256",
          "name": "",
          "type": "uint256"
        }
      ],
      "stateMutability": "view",
      "type": "function"
    },
    {
      "inputs": [
        {
          "internalType": "address",
          "name": "account",
          "type": "address"
        },
        {
          "internalType": "uint256",
          "name": "blockNumber",
          "type": "uint256"
        }
      ],
      "name": "getPastVotes",
      "outputs": [
        {
          "internalType": "uint256",
          "name": "",
          "type": "uint256"
        }
      ],
      "stateMutability": "view",
      "type": "function"
    },
    {
      "inputs": [
        {
          "internalType": "bytes32",
          "name": "role",
          "type": "bytes32"
        }
      ],
      "name": "getRoleAdmin",
      "outputs": [
        {
          "internalType": "bytes32",
          "name": "",
          "type": "bytes32"
        }
      ],
      "stateMutability": "view",
      "type": "function"
    },
    {
      "inputs": [
        {
          "internalType": "address[]",
          "name": "accounts",
          "type": "address[]"
        }
      ],
      "name": "getVotes",
      "outputs": [
        {
          "internalType": "uint256[]",
          "name": "_delegatee",
          "type": "uint256[]"
        }
      ],
      "stateMutability": "view",
      "type": "function"
    },
    {
      "inputs": [
        {
          "internalType": "bytes32",
          "name": "role",
          "type": "bytes32"
        },
        {
          "internalType": "address",
          "name": "account",
          "type": "address"
        }
      ],
      "name": "grantRole",
      "outputs": [],
      "stateMutability": "nonpayable",
      "type": "function"
    },
    {
      "inputs": [
        {
          "internalType": "bytes32",
          "name": "role",
          "type": "bytes32"
        },
        {
          "internalType": "address",
          "name": "account",
          "type": "address"
        }
      ],
      "name": "hasRole",
      "outputs": [
        {
          "internalType": "bool",
          "name": "",
          "type": "bool"
        }
      ],
      "stateMutability": "view",
      "type": "function"
    },
    {
      "inputs": [
        {
          "internalType": "address",
          "name": "spender",
          "type": "address"
        },
        {
          "internalType": "uint256",
          "name": "addedValue",
          "type": "uint256"
        }
      ],
      "name": "increaseAllowance",
      "outputs": [
        {
          "internalType": "bool",
          "name": "",
          "type": "bool"
        }
      ],
      "stateMutability": "nonpayable",
      "type": "function"
    },
    {
      "inputs": [
        {
          "internalType": "uint256",
          "name": "initialSupply",
          "type": "uint256"
        }
      ],
      "name": "initialize",
      "outputs": [],
      "stateMutability": "nonpayable",
      "type": "function"
    },
    {
      "inputs": [],
      "name": "lockTransfers",
      "outputs": [],
      "stateMutability": "nonpayable",
      "type": "function"
    },
    {
      "inputs": [
        {
          "internalType": "address",
          "name": "account",
          "type": "address"
        },
        {
          "internalType": "uint256",
          "name": "amount",
          "type": "uint256"
        }
      ],
      "name": "mint",
      "outputs": [],
      "stateMutability": "nonpayable",
      "type": "function"
    },
    {
      "inputs": [],
      "name": "name",
      "outputs": [
        {
          "internalType": "string",
          "name": "",
          "type": "string"
        }
      ],
      "stateMutability": "view",
      "type": "function"
    },
    {
      "inputs": [
        {
          "internalType": "address",
          "name": "account",
          "type": "address"
        }
      ],
      "name": "numCheckpoints",
      "outputs": [
        {
          "internalType": "uint32",
          "name": "",
          "type": "uint32"
        }
      ],
      "stateMutability": "view",
      "type": "function"
    },
    {
      "inputs": [],
      "name": "owner",
      "outputs": [
        {
          "internalType": "address",
          "name": "",
          "type": "address"
        }
      ],
      "stateMutability": "view",
      "type": "function"
    },
    {
      "inputs": [
        {
          "internalType": "bytes32",
          "name": "role",
          "type": "bytes32"
        },
        {
          "internalType": "address",
          "name": "account",
          "type": "address"
        }
      ],
      "name": "renounceRole",
      "outputs": [],
      "stateMutability": "nonpayable",
      "type": "function"
    },
    {
      "inputs": [
        {
          "internalType": "bytes32",
          "name": "role",
          "type": "bytes32"
        },
        {
          "internalType": "address",
          "name": "account",
          "type": "address"
        }
      ],
      "name": "revokeRole",
      "outputs": [],
      "stateMutability": "nonpayable",
      "type": "function"
    },
    {
      "inputs": [
        {
          "internalType": "address",
          "name": "saleContract",
          "type": "address"
        }
      ],
      "name": "setSaleContract",
      "outputs": [],
      "stateMutability": "nonpayable",
      "type": "function"
    },
    {
      "inputs": [
        {
          "internalType": "bytes4",
          "name": "interfaceId",
          "type": "bytes4"
        }
      ],
      "name": "supportsInterface",
      "outputs": [
        {
          "internalType": "bool",
          "name": "",
          "type": "bool"
        }
      ],
      "stateMutability": "view",
      "type": "function"
    },
    {
      "inputs": [],
      "name": "symbol",
      "outputs": [
        {
          "internalType": "string",
          "name": "",
          "type": "string"
        }
      ],
      "stateMutability": "view",
      "type": "function"
    },
    {
      "inputs": [],
      "name": "totalSupply",
      "outputs": [
        {
          "internalType": "uint256",
          "name": "",
          "type": "uint256"
        }
      ],
      "stateMutability": "view",
      "type": "function"
    },
    {
      "inputs": [
        {
          "internalType": "address",
          "name": "recipient",
          "type": "address"
        },
        {
          "internalType": "uint256",
          "name": "amount",
          "type": "uint256"
        }
      ],
      "name": "transfer",
      "outputs": [
        {
          "internalType": "bool",
          "name": "",
          "type": "bool"
        }
      ],
      "stateMutability": "nonpayable",
      "type": "function"
    },
    {
      "inputs": [
        {
          "internalType": "address",
          "name": "sender",
          "type": "address"
        },
        {
          "internalType": "address",
          "name": "recipient",
          "type": "address"
        },
        {
          "internalType": "uint256",
          "name": "amount",
          "type": "uint256"
        }
      ],
      "name": "transferFrom",
      "outputs": [
        {
          "internalType": "bool",
          "name": "",
          "type": "bool"
        }
      ],
      "stateMutability": "nonpayable",
      "type": "function"
    },
    {
      "inputs": [],
      "name": "undelegate",
      "outputs": [],
      "stateMutability": "nonpayable",
      "type": "function"
    },
    {
      "inputs": [],
      "name": "unlockTransfers",
      "outputs": [],
      "stateMutability": "nonpayable",
      "type": "function"
    },
    {
      "inputs": [],
      "name": "unlockTransfersPermanent",
      "outputs": [],
      "stateMutability": "nonpayable",
      "type": "function"
    },
    {
      "inputs": [
        {
          "internalType": "address",
          "name": "newImplementation",
          "type": "address"
        }
      ],
      "name": "upgradeTo",
      "outputs": [],
      "stateMutability": "nonpayable",
      "type": "function"
    },
    {
      "inputs": [
        {
          "internalType": "address",
          "name": "newImplementation",
          "type": "address"
        },
        {
          "internalType": "bytes",
          "name": "data",
          "type": "bytes"
        }
      ],
      "name": "upgradeToAndCall",
      "outputs": [],
      "stateMutability": "payable",
      "type": "function"
    }
  ],
  "bytecode": "0x60a06040523060601b6080523480156200001857600080fd5b50600054610100900460ff168062000033575060005460ff16155b6200009b5760405162461bcd60e51b815260206004820152602e60248201527f496e697469616c697a61626c653a20636f6e747261637420697320616c72656160448201526d191e481a5b9a5d1a585b1a5e995960921b606482015260840160405180910390fd5b600054610100900460ff16158015620000be576000805461ffff19166101011790555b8015620000d1576000805461ff00191690555b5060805160601c6130596200010660003960008181610b6401528181610ba401528181610d580152610d9801526130596000f3fe60806040526004361061023b5760003560e01c80636fcfff451161012e578063a217fddf116100ab578063dd62ed3e1161006f578063dd62ed3e1461077b578063de08c292146107c2578063f1127ed8146107d7578063f72c0d8b14610821578063fe4b84df1461084357600080fd5b8063a217fddf146106d2578063a457c2d7146106e7578063a9059cbb14610707578063d539139314610727578063d547741f1461075b57600080fd5b80638da5cb5b116100f25780638da5cb5b1461062e57806391d148541461064e57806392ab89bb1461066e57806395d89b41146106835780639dc29fac146106b257600080fd5b80636fcfff451461055e57806370a082311461059357806375b238fc146105ca5780637b6f9338146105ec57806382b74b891461061957600080fd5b80632f2ff15d116101bc5780633a46b1a8116101805780633a46b1a814610483578063406f11f5146104a357806340c10f19146104da5780634f1ef286146104fa578063587cde1e1461050d57600080fd5b80632f2ff15d146103dc578063313ce567146103fc57806336568abe146104235780633659cfe614610443578063395093511461046357600080fd5b806318160ddd1161020357806318160ddd1461031f57806321842be31461034357806323b872dd14610358578063248a9ca314610378578063282c51f3146103a857600080fd5b806301ffc9a714610240578063026e402b146102755780630593d2441461029757806306fdde03146102b7578063095ea7b3146102ff575b600080fd5b34801561024c57600080fd5b5061026061025b366004612c5a565b610863565b60405190151581526020015b60405180910390f35b34801561028157600080fd5b50610295610290366004612b49565b61089a565b005b3480156102a357600080fd5b506102956102b2366004612a05565b6108a9565b3480156102c357600080fd5b506102f26040518060400160405280600f81526020016e2bb7b935a8bab2b9ba102a37b5b2b760891b81525081565b60405161026c9190612d57565b34801561030b57600080fd5b5061026061031a366004612b49565b610975565b34801561032b57600080fd5b5061033560fb5481565b60405190815260200161026c565b34801561034f57600080fd5b5061029561098b565b34801561036457600080fd5b50610260610373366004612a51565b6109df565b34801561038457600080fd5b50610335610393366004612c20565b60009081526065602052604090206001015490565b3480156103b457600080fd5b506103357f3c11d16cbaffd01df69ce1c404f6340ee057498f5f00246190ea54220576a84881565b3480156103e857600080fd5b506102956103f7366004612c38565b610ab4565b34801561040857600080fd5b50610411601281565b60405160ff909116815260200161026c565b34801561042f57600080fd5b5061029561043e366004612c38565b610adf565b34801561044f57600080fd5b5061029561045e366004612a05565b610b59565b34801561046f57600080fd5b5061026061047e366004612b49565b610c22565b34801561048f57600080fd5b5061033561049e366004612b49565b610c5a565b3480156104af57600080fd5b506103356104be366004612a05565b6001600160a01b03166000908152610102602052604090205490565b3480156104e657600080fd5b506102956104f5366004612b49565b610ccd565b610295610508366004612a8c565b610d4d565b34801561051957600080fd5b50610546610528366004612a05565b6001600160a01b03908116600090815260fe60205260409020541690565b6040516001600160a01b03909116815260200161026c565b34801561056a57600080fd5b5061057e610579366004612a05565b610e03565b60405163ffffffff909116815260200161026c565b34801561059f57600080fd5b506103356105ae366004612a05565b6001600160a01b03166000908152610100602052604090205490565b3480156105d657600080fd5b5061033560008051602061300483398151915281565b3480156105f857600080fd5b5061060c610607366004612bb0565b610e25565b60405161026c9190612d13565b34801561062557600080fd5b50610295610fd0565b34801561063a57600080fd5b5060fd54610546906001600160a01b031681565b34801561065a57600080fd5b50610260610669366004612c38565b611027565b34801561067a57600080fd5b50610295611052565b34801561068f57600080fd5b506102f26040518060400160405280600381526020016215d45560ea1b81525081565b3480156106be57600080fd5b506102956106cd366004612b49565b61105d565b3480156106de57600080fd5b50610335600081565b3480156106f357600080fd5b50610260610702366004612b49565b6110dd565b34801561071357600080fd5b50610260610722366004612b49565b611194565b34801561073357600080fd5b506103357f9f2df0fed2c77648de5860a4cc508cd0818c85b8b8a1ab4ceeef8d981c8956a681565b34801561076757600080fd5b50610295610776366004612c38565b6111a1565b34801561078757600080fd5b50610335610796366004612a1f565b6001600160a01b0391821660009081526101036020908152604080832093909416825291909152205490565b3480156107ce57600080fd5b506102956111c7565b3480156107e357600080fd5b506107f76107f2366004612b72565b611220565b60408051825163ffffffff1681526020928301516001600160e01b0316928101929092520161026c565b34801561082d57600080fd5b50610335600080516020612fbd83398151915281565b34801561084f57600080fd5b5061029561085e366004612c20565b6112b2565b60006001600160e01b03198216637965db0b60e01b148061089457506301ffc9a760e01b6001600160e01b03198316145b92915050565b6108a5338383611438565b5050565b6108c160008051602061300483398151915233611027565b80156108dc575060fc546201000090046001600160a01b0316155b61094b5760405162461bcd60e51b815260206004820152603560248201527f5751543a2043616c6c6572206d757374206265206f776e657220616e64205f73604482015274185b1950dbdb9d1c9858dd081e595d081d5b9cd95d605a1b60648201526084015b60405180910390fd5b60fc80546001600160a01b03909216620100000262010000600160b01b0319909216919091179055565b6000610982338484611643565b50600192915050565b6109a360008051602061300483398151915233611027565b80156109b7575060fc54610100900460ff16155b6109d35760405162461bcd60e51b815260040161094290612d8a565b60fc805460ff19169055565b6001600160a01b038316600090815261010360209081526040808320338452909152812054821115610a625760405162461bcd60e51b815260206004820152602660248201527f5751543a205472616e7366657220616d6f756e74206578636565647320616c6c6044820152656f77616e636560d01b6064820152608401610942565b610a6d84848461175d565b6001600160a01b03841660009081526101036020908152604080832033808552925290912054610aa9918691610aa4908690612f17565b611643565b5060015b9392505050565b600082815260656020526040902060010154610ad081336118cd565b610ada8383611931565b505050565b6001600160a01b0381163314610b4f5760405162461bcd60e51b815260206004820152602f60248201527f416363657373436f6e74726f6c3a2063616e206f6e6c792072656e6f756e636560448201526e103937b632b9903337b91039b2b63360891b6064820152608401610942565b6108a582826119b7565b306001600160a01b037f0000000000000000000000000000000000000000000000000000000000000000161415610ba25760405162461bcd60e51b815260040161094290612dda565b7f00000000000000000000000000000000000000000000000000000000000000006001600160a01b0316610bd4611a1e565b6001600160a01b031614610bfa5760405162461bcd60e51b815260040161094290612e26565b610c0381611a4c565b60408051600080825260208201909252610c1f91839190611a65565b50565b336000818152610103602090815260408083206001600160a01b03871684529091528120549091610982918590610aa4908690612ec0565b6000438210610cab5760405162461bcd60e51b815260206004820152601860248201527f5751543a20626c6f636b206e6f7420796574206d696e656400000000000000006044820152606401610942565b6001600160a01b038316600090815260ff60205260409020610aad9083611bb0565b610cf77f9f2df0fed2c77648de5860a4cc508cd0818c85b8b8a1ab4ceeef8d981c8956a633611027565b610d435760405162461bcd60e51b815260206004820152601e60248201527f5751543a2053656e6465722073686f756c6420626520612062726964676500006044820152606401610942565b6108a58282611c89565b306001600160a01b037f0000000000000000000000000000000000000000000000000000000000000000161415610d965760405162461bcd60e51b815260040161094290612dda565b7f00000000000000000000000000000000000000000000000000000000000000006001600160a01b0316610dc8611a1e565b6001600160a01b031614610dee5760405162461bcd60e51b815260040161094290612e26565b610df782611a4c565b6108a582826001611a65565b6001600160a01b038116600090815260ff602052604081205461089490611de1565b60608167ffffffffffffffff811115610e4e57634e487b7160e01b600052604160045260246000fd5b604051908082528060200260200182016040528015610e77578160200160208202803683370190505b50905060005b82811015610fc957600060ff6000868685818110610eab57634e487b7160e01b600052603260045260246000fd5b9050602002016020810190610ec09190612a05565b6001600160a01b0316815260208101919091526040016000205490508015610f7f5760ff6000868685818110610f0657634e487b7160e01b600052603260045260246000fd5b9050602002016020810190610f1b9190612a05565b6001600160a01b031681526020810191909152604001600020610f3f600183612f17565b81548110610f5d57634e487b7160e01b600052603260045260246000fd5b60009182526020909120015464010000000090046001600160e01b0316610f82565b60005b6001600160e01b0316838381518110610fab57634e487b7160e01b600052603260045260246000fd5b60209081029190910101525080610fc181612f75565b915050610e7d565b5092915050565b610fe860008051602061300483398151915233611027565b8015610ffc575060fc54610100900460ff16155b6110185760405162461bcd60e51b815260040161094290612d8a565b60fc805460ff19166001179055565b60009182526065602090815260408084206001600160a01b0393909316845291905290205460ff1690565b61105b33611e4a565b565b6110877f3c11d16cbaffd01df69ce1c404f6340ee057498f5f00246190ea54220576a84833611027565b6110d35760405162461bcd60e51b815260206004820152601e60248201527f5751543a2053656e6465722073686f756c6420626520612062726964676500006044820152606401610942565b6108a58282611efe565b336000908152610103602090815260408083206001600160a01b038616845290915281205482111561115d5760405162461bcd60e51b815260206004820152602360248201527f5751543a2044656372656173656420616c6c6f77616e63652062656c6f77207a60448201526265726f60e81b6064820152608401610942565b336000818152610103602090815260408083206001600160a01b038816845290915290205461098291908590610aa4908690612f17565b600061098233848461175d565b6000828152606560205260409020600101546111bd81336118cd565b610ada83836119b7565b6111df60008051602061300483398151915233611027565b80156111f3575060fc54610100900460ff16155b61120f5760405162461bcd60e51b815260040161094290612d8a565b60fc805461ffff1916610100179055565b60408051808201909152600080825260208201526001600160a01b038316600090815260ff60205260409020805463ffffffff841690811061127257634e487b7160e01b600052603260045260246000fd5b60009182526020918290206040805180820190915291015463ffffffff8116825264010000000090046001600160e01b0316918101919091529392505050565b600054610100900460ff16806112cb575060005460ff16155b6112e75760405162461bcd60e51b815260040161094290612e72565b600054610100900460ff16158015611309576000805461ffff19166101011790555b611311611fe3565b611319612066565b60fd80546001600160a01b031916339081179091556113389083611c89565b60fd54611350906000906001600160a01b03166120c4565b60fd5461137590600080516020613004833981519152906001600160a01b03166120c4565b61138d600080516020612fbd833981519152336120c4565b6113c57f9f2df0fed2c77648de5860a4cc508cd0818c85b8b8a1ab4ceeef8d981c8956a66000805160206130048339815191526120ce565b6113fd7f3c11d16cbaffd01df69ce1c404f6340ee057498f5f00246190ea54220576a8486000805160206130048339815191526120ce565b611423600080516020612fbd8339815191526000805160206130048339815191526120ce565b80156108a5576000805461ff00191690555050565b6001600160a01b0383166114a15760405162461bcd60e51b815260206004820152602a60248201527f5751543a2043616e7427742064656c65676174652066726f6d20746865207a65604482015269726f206164647265737360b01b6064820152608401610942565b6001600160a01b0382166115085760405162461bcd60e51b815260206004820152602860248201527f5751543a2043616e7427742064656c656761746520746f20746865207a65726f604482015267206164647265737360c01b6064820152608401610942565b6001600160a01b0383166000908152610100602052604090205481111561157d5760405162461bcd60e51b815260206004820152602360248201527f5751543a204e6f7420656e6f7567682062616c616e636520746f2064656c656760448201526261746560e81b6064820152608401610942565b6001600160a01b03838116600081815260fe6020526040808220549051848716949190911692917f3134e8a2e6d97e929a7e54011ea5485d7d196dd5f0ba4d4ef95803e8e3fc257f91a46001600160a01b03808416600090815260fe60209081526040808320546101029092528220546115fc93919091169190612119565b61160860008383612119565b6001600160a01b039283166000908152610102602090815260408083209390935560fe90522080546001600160a01b03191691909216179055565b6001600160a01b0383166116a45760405162461bcd60e51b815260206004820152602260248201527f5751543a20617070726f76652066726f6d20746865207a65726f206164647265604482015261737360f01b6064820152608401610942565b6001600160a01b0382166116fa5760405162461bcd60e51b815260206004820181905260248201527f5751543a20617070726f766520746f20746865207a65726f20616464726573736044820152606401610942565b6001600160a01b038381166000818152610103602090815260408083209487168084529482529182902085905590518481527f8c5be1e5ebec7d5bd14f71427d1e84f3dd0314c0f7b2291e5b200ac8c7c3b92591015b60405180910390a3505050565b6001600160a01b0383166117bf5760405162461bcd60e51b815260206004820152602360248201527f5751543a207472616e736665722066726f6d20746865207a65726f206164647260448201526265737360e81b6064820152608401610942565b6001600160a01b03821661181f5760405162461bcd60e51b815260206004820152602160248201527f5751543a207472616e7366657220746f20746865207a65726f206164647265736044820152607360f81b6064820152608401610942565b61182a838383612256565b6001600160a01b0383166000908152610100602052604081208054839290611853908490612f17565b90915550506001600160a01b0382166000908152610100602052604081208054839290611881908490612ec0565b92505081905550816001600160a01b0316836001600160a01b03167fddf252ad1be2c89b69c2b068fc378daa952ba7f163c4a11628f55a4df523b3ef8360405161175091815260200190565b6118d78282611027565b6108a5576118ef816001600160a01b03166014612355565b6118fa836020612355565b60405160200161190b929190612c9e565b60408051601f198184030181529082905262461bcd60e51b825261094291600401612d57565b61193b8282611027565b6108a55760008281526065602090815260408083206001600160a01b03851684529091529020805460ff191660011790556119733390565b6001600160a01b0316816001600160a01b0316837f2f8788117e7eff1d82e926ec794901d17c78024a50270940304540a733656f0d60405160405180910390a45050565b6119c18282611027565b156108a55760008281526065602090815260408083206001600160a01b0385168085529252808320805460ff1916905551339285917ff6391f5c32d9c69d2a47ea670b442974b53935d1edc7fd64eb21e047a839171b9190a45050565b7f360894a13ba1a3210667c828492db98dca3e2076cc3735a920a3ca505d382bbc546001600160a01b031690565b600080516020612fbd8339815191526108a581336118cd565b6000611a6f611a1e565b9050611a7a84612537565b600083511180611a875750815b15611a9857611a9684846125dc565b505b7f4910fdfa16fed3260ed0e7147f7cc6da11a60208b5b9406d12a635614ffd9143805460ff16611ba957805460ff191660011781556040516001600160a01b0383166024820152611b1790869060440160408051601f198184030181529190526020810180516001600160e01b0316631b2ce7f360e11b1790526125dc565b50805460ff19168155611b28611a1e565b6001600160a01b0316826001600160a01b031614611ba05760405162461bcd60e51b815260206004820152602f60248201527f45524331393637557067726164653a207570677261646520627265616b73206660448201526e75727468657220757067726164657360881b6064820152608401610942565b611ba9856126c7565b5050505050565b8154600090815b81811015611c22576000611bcb8284612707565b905084868281548110611bee57634e487b7160e01b600052603260045260246000fd5b60009182526020909120015463ffffffff161115611c0e57809250611c1c565b611c19816001612ec0565b91505b50611bb7565b8115611c745784611c34600184612f17565b81548110611c5257634e487b7160e01b600052603260045260246000fd5b60009182526020909120015464010000000090046001600160e01b0316611c77565b60005b6001600160e01b031695945050505050565b6001600160a01b038216611cdf5760405162461bcd60e51b815260206004820152601d60248201527f5751543a206d696e7420746f20746865207a65726f20616464726573730000006044820152606401610942565b8060fb6000828254611cf19190612ec0565b909155505060fb546001600160e01b031015611d615760405162461bcd60e51b815260206004820152602960248201527f5751543a20746f74616c20737570706c79207269736b73206f766572666c6f77604482015268696e6720766f74657360b81b6064820152608401610942565b611d6d60008383612256565b6001600160a01b0382166000908152610100602052604081208054839290611d96908490612ec0565b90915550506040518181526001600160a01b038316906000907fddf252ad1be2c89b69c2b068fc378daa952ba7f163c4a11628f55a4df523b3ef906020015b60405180910390a35050565b600063ffffffff821115611e465760405162461bcd60e51b815260206004820152602660248201527f53616665436173743a2076616c756520646f65736e27742066697420696e203360448201526532206269747360d01b6064820152608401610942565b5090565b6001600160a01b03818116600081815260fe602052604080822054905191931691907f3134e8a2e6d97e929a7e54011ea5485d7d196dd5f0ba4d4ef95803e8e3fc257f908490a46001600160a01b03808216600090815260fe6020908152604080832054610102909252822054611ec693919091169190612119565b6001600160a01b031660009081526101026020908152604080832083905533835260fe909152902080546001600160a01b0319169055565b6001600160a01b038216611f545760405162461bcd60e51b815260206004820152601f60248201527f5751543a206275726e2066726f6d20746865207a65726f2061646472657373006044820152606401610942565b611f6082600083612256565b8060fb6000828254611f729190612f17565b90915550506001600160a01b0382166000908152610100602052604081208054839290611fa0908490612f17565b90915550506040518181526000906001600160a01b038416907fddf252ad1be2c89b69c2b068fc378daa952ba7f163c4a11628f55a4df523b3ef90602001611dd5565b600054610100900460ff1680611ffc575060005460ff16155b6120185760405162461bcd60e51b815260040161094290612e72565b600054610100900460ff1615801561203a576000805461ffff19166101011790555b612042612722565b61204a612722565b612052612722565b8015610c1f576000805461ff001916905550565b600054610100900460ff168061207f575060005460ff16155b61209b5760405162461bcd60e51b815260040161094290612e72565b600054610100900460ff16158015612042576000805461ffff191661010117905561204a612722565b6108a58282611931565b600082815260656020526040808220600101805490849055905190918391839186917fbd79b86ffe0ab8e8776151514217cd7cacd52c909f66475c3af44e129f0b00ff9190a4505050565b816001600160a01b0316836001600160a01b03161415801561213b5750600081115b15610ada576001600160a01b038316156121c9576001600160a01b038316600090815260ff6020526040812081906121769061278c85612798565b91509150846001600160a01b03167fdec2bacdd2f05b59de34da9b523dff8be42e5e38e818c82fdb0bae774387a72483836040516121be929190918252602082015260400190565b60405180910390a250505b6001600160a01b03821615610ada576001600160a01b038216600090815260ff6020526040812081906121ff9061293b85612798565b91509150836001600160a01b03167fdec2bacdd2f05b59de34da9b523dff8be42e5e38e818c82fdb0bae774387a7248383604051612247929190918252602082015260400190565b60405180910390a25050505050565b60fc5460ff161580612278575060fc546201000090046001600160a01b031633145b6122bc5760405162461bcd60e51b815260206004820152601560248201527415d4550e88151c985b9cd9995c9cc81b1bd8dad959605a1b6044820152606401610942565b6001600160a01b03831615610ada576001600160a01b03831660009081526101026020908152604080832054610100909252909120546122fc9190612f17565b811115610ada5760405162461bcd60e51b815260206004820152602160248201527f5751543a20546f6b656e20616d6f756e7420657863656564732062616c616e636044820152606560f81b6064820152608401610942565b60606000612364836002612ef8565b61236f906002612ec0565b67ffffffffffffffff81111561239557634e487b7160e01b600052604160045260246000fd5b6040519080825280601f01601f1916602001820160405280156123bf576020820181803683370190505b509050600360fc1b816000815181106123e857634e487b7160e01b600052603260045260246000fd5b60200101906001600160f81b031916908160001a905350600f60fb1b8160018151811061242557634e487b7160e01b600052603260045260246000fd5b60200101906001600160f81b031916908160001a9053506000612449846002612ef8565b612454906001612ec0565b90505b60018111156124e8576f181899199a1a9b1b9c1cb0b131b232b360811b85600f166010811061249657634e487b7160e01b600052603260045260246000fd5b1a60f81b8282815181106124ba57634e487b7160e01b600052603260045260246000fd5b60200101906001600160f81b031916908160001a90535060049490941c936124e181612f5e565b9050612457565b508315610aad5760405162461bcd60e51b815260206004820181905260248201527f537472696e67733a20686578206c656e67746820696e73756666696369656e746044820152606401610942565b803b61259b5760405162461bcd60e51b815260206004820152602d60248201527f455243313936373a206e657720696d706c656d656e746174696f6e206973206e60448201526c1bdd08184818dbdb9d1c9858dd609a1b6064820152608401610942565b7f360894a13ba1a3210667c828492db98dca3e2076cc3735a920a3ca505d382bbc80546001600160a01b0319166001600160a01b0392909216919091179055565b6060823b61263b5760405162461bcd60e51b815260206004820152602660248201527f416464726573733a2064656c65676174652063616c6c20746f206e6f6e2d636f6044820152651b9d1c9858dd60d21b6064820152608401610942565b600080846001600160a01b0316846040516126569190612c82565b600060405180830381855af49150503d8060008114612691576040519150601f19603f3d011682016040523d82523d6000602084013e612696565b606091505b50915091506126be8282604051806060016040528060278152602001612fdd60279139612947565b95945050505050565b6126d081612537565b6040516001600160a01b038216907fbc7cd75a20ee27fd9adebab32041f755214dbc6bffa90cc0225b39da2e5c2d3b90600090a250565b60006127166002848418612ed8565b610aad90848416612ec0565b600054610100900460ff168061273b575060005460ff16155b6127575760405162461bcd60e51b815260040161094290612e72565b600054610100900460ff16158015612052576000805461ffff19166101011790558015610c1f576000805461ff001916905550565b6000610aad8284612f17565b8254600090819080156127f157856127b1600183612f17565b815481106127cf57634e487b7160e01b600052603260045260246000fd5b60009182526020909120015464010000000090046001600160e01b03166127f4565b60005b6001600160e01b0316925061280d83858763ffffffff16565b915060008111801561285957504386612827600184612f17565b8154811061284557634e487b7160e01b600052603260045260246000fd5b60009182526020909120015463ffffffff16145b156128c75761286782612980565b86612873600184612f17565b8154811061289157634e487b7160e01b600052603260045260246000fd5b9060005260206000200160000160046101000a8154816001600160e01b0302191690836001600160e01b03160217905550612932565b8560405180604001604052806128dc43611de1565b63ffffffff1681526020016128f085612980565b6001600160e01b0390811690915282546001810184556000938452602093849020835194909301519091166401000000000263ffffffff909316929092179101555b50935093915050565b6000610aad8284612ec0565b60608315612956575081610aad565b8251156129665782518084602001fd5b8160405162461bcd60e51b81526004016109429190612d57565b60006001600160e01b03821115611e465760405162461bcd60e51b815260206004820152602760248201527f53616665436173743a2076616c756520646f65736e27742066697420696e20326044820152663234206269747360c81b6064820152608401610942565b80356001600160a01b0381168114612a0057600080fd5b919050565b600060208284031215612a16578081fd5b610aad826129e9565b60008060408385031215612a31578081fd5b612a3a836129e9565b9150612a48602084016129e9565b90509250929050565b600080600060608486031215612a65578081fd5b612a6e846129e9565b9250612a7c602085016129e9565b9150604084013590509250925092565b60008060408385031215612a9e578182fd5b612aa7836129e9565b9150602083013567ffffffffffffffff80821115612ac3578283fd5b818501915085601f830112612ad6578283fd5b813581811115612ae857612ae8612fa6565b604051601f8201601f19908116603f01168101908382118183101715612b1057612b10612fa6565b81604052828152886020848701011115612b28578586fd5b82602086016020830137856020848301015280955050505050509250929050565b60008060408385031215612b5b578182fd5b612b64836129e9565b946020939093013593505050565b60008060408385031215612b84578182fd5b612b8d836129e9565b9150602083013563ffffffff81168114612ba5578182fd5b809150509250929050565b60008060208385031215612bc2578182fd5b823567ffffffffffffffff80821115612bd9578384fd5b818501915085601f830112612bec578384fd5b813581811115612bfa578485fd5b8660208260051b8501011115612c0e578485fd5b60209290920196919550909350505050565b600060208284031215612c31578081fd5b5035919050565b60008060408385031215612c4a578182fd5b82359150612a48602084016129e9565b600060208284031215612c6b578081fd5b81356001600160e01b031981168114610aad578182fd5b60008251612c94818460208701612f2e565b9190910192915050565b7f416363657373436f6e74726f6c3a206163636f756e7420000000000000000000815260008351612cd6816017850160208801612f2e565b7001034b99036b4b9b9b4b733903937b6329607d1b6017918401918201528351612d07816028840160208801612f2e565b01602801949350505050565b6020808252825182820181905260009190848201906040850190845b81811015612d4b57835183529284019291840191600101612d2f565b50909695505050505050565b6020815260008251806020840152612d76816040850160208701612f2e565b601f01601f19169190910160400192915050565b60208082526030908201527f5751543a2043616c6c6572206d757374206265206f776e657220616e64205f7560408201526f6e6c6f636b46697865642066616c736560801b606082015260800190565b6020808252602c908201527f46756e6374696f6e206d7573742062652063616c6c6564207468726f7567682060408201526b19195b1959d85d1958d85b1b60a21b606082015260800190565b6020808252602c908201527f46756e6374696f6e206d7573742062652063616c6c6564207468726f7567682060408201526b6163746976652070726f787960a01b606082015260800190565b6020808252602e908201527f496e697469616c697a61626c653a20636f6e747261637420697320616c72656160408201526d191e481a5b9a5d1a585b1a5e995960921b606082015260800190565b60008219821115612ed357612ed3612f90565b500190565b600082612ef357634e487b7160e01b81526012600452602481fd5b500490565b6000816000190483118215151615612f1257612f12612f90565b500290565b600082821015612f2957612f29612f90565b500390565b60005b83811015612f49578181015183820152602001612f31565b83811115612f58576000848401525b50505050565b600081612f6d57612f6d612f90565b506000190190565b6000600019821415612f8957612f89612f90565b5060010190565b634e487b7160e01b600052601160045260246000fd5b634e487b7160e01b600052604160045260246000fdfe189ab7a9244df0848122154315af71fe140f3db0fe014031783b0946b8c9d2e3416464726573733a206c6f772d6c6576656c2064656c65676174652063616c6c206661696c6564a49807205ce4d355092ef5a8a18f56e8913cf4a201fbe287825b095693c21775a2646970667358221220ba4aa0d948d5f2672e82fcdb10fa6d5352047131829410ee1799e183227294bb64736f6c63430008040033",
  "linkReferences": {},
  "deployedLinkReferences": {}
}