{
  "_format": "hh-sol-artifact-1",
  "contractName": "WorkQuest",
  "sourceName": "contracts/WorkQuest.sol",
  "abi": [
    {
      "inputs": [
        {
          "internalType": "bytes32",
          "name": "_jobHash",
          "type": "bytes32"
        },
        {
          "internalType": "uint256",
          "name": "_cost",
          "type": "uint256"
        },
        {
          "internalType": "uint256",
          "name": "_deadline",
          "type": "uint256"
        },
        {
          "internalType": "address",
          "name": "_employer",
          "type": "address"
        }
      ],
      "stateMutability": "nonpayable",
      "type": "constructor"
    },
    {
      "anonymous": false,
      "inputs": [
        {
          "indexed": false,
          "internalType": "uint256",
          "name": "timestamp",
          "type": "uint256"
        }
      ],
      "name": "ArbitrationAcceptWork",
      "type": "event"
    },
    {
      "anonymous": false,
      "inputs": [
        {
          "indexed": false,
          "internalType": "uint256",
          "name": "timestamp",
          "type": "uint256"
        }
      ],
      "name": "ArbitrationDecreaseCost",
      "type": "event"
    },
    {
      "anonymous": false,
      "inputs": [
        {
          "indexed": false,
          "internalType": "uint256",
          "name": "timestamp",
          "type": "uint256"
        }
      ],
      "name": "ArbitrationRejectWork",
      "type": "event"
    },
    {
      "anonymous": false,
      "inputs": [
        {
          "indexed": false,
          "internalType": "uint256",
          "name": "timestamp",
          "type": "uint256"
        }
      ],
      "name": "ArbitrationRework",
      "type": "event"
    },
    {
      "anonymous": false,
      "inputs": [
        {
          "indexed": false,
          "internalType": "uint256",
          "name": "timestamp",
          "type": "uint256"
        }
      ],
      "name": "ArbitrationStarted",
      "type": "event"
    },
    {
      "anonymous": false,
      "inputs": [
        {
          "indexed": false,
          "internalType": "address",
          "name": "worker",
          "type": "address"
        }
      ],
      "name": "Assigned",
      "type": "event"
    },
    {
      "anonymous": false,
      "inputs": [],
      "name": "JobCancelled",
      "type": "event"
    },
    {
      "anonymous": false,
      "inputs": [],
      "name": "JobDone",
      "type": "event"
    },
    {
      "anonymous": false,
      "inputs": [
        {
          "indexed": false,
          "internalType": "uint256",
          "name": "cost",
          "type": "uint256"
        }
      ],
      "name": "JobEdited",
      "type": "event"
    },
    {
      "anonymous": false,
      "inputs": [],
      "name": "JobFinished",
      "type": "event"
    },
    {
      "anonymous": false,
      "inputs": [],
      "name": "JobStarted",
      "type": "event"
    },
    {
      "anonymous": false,
      "inputs": [
        {
          "indexed": false,
          "internalType": "uint256",
          "name": "amount",
          "type": "uint256"
        }
      ],
      "name": "Received",
      "type": "event"
    },
    {
      "anonymous": false,
      "inputs": [
        {
          "indexed": false,
          "internalType": "bytes32",
          "name": "jobHash",
          "type": "bytes32"
        }
      ],
      "name": "WorkQuestCreated",
      "type": "event"
    },
    {
      "inputs": [],
      "name": "ARBITER_ROLE",
      "outputs": [
        {
          "internalType": "bytes32",
          "name": "",
          "type": "bytes32"
        }
      ],
      "stateMutability": "view",
      "type": "function"
    },
    {
      "inputs": [],
      "name": "acceptJob",
      "outputs": [],
      "stateMutability": "nonpayable",
      "type": "function"
    },
    {
      "inputs": [],
      "name": "acceptJobResult",
      "outputs": [],
      "stateMutability": "nonpayable",
      "type": "function"
    },
    {
      "inputs": [],
      "name": "arbitration",
      "outputs": [],
      "stateMutability": "payable",
      "type": "function"
    },
    {
      "inputs": [],
      "name": "arbitrationAcceptWork",
      "outputs": [],
      "stateMutability": "nonpayable",
      "type": "function"
    },
    {
      "inputs": [
        {
          "internalType": "uint256",
          "name": "_forfeit",
          "type": "uint256"
        }
      ],
      "name": "arbitrationDecreaseCost",
      "outputs": [],
      "stateMutability": "nonpayable",
      "type": "function"
    },
    {
      "inputs": [],
      "name": "arbitrationRejectWork",
      "outputs": [],
      "stateMutability": "nonpayable",
      "type": "function"
    },
    {
      "inputs": [],
      "name": "arbitrationRework",
      "outputs": [],
      "stateMutability": "nonpayable",
      "type": "function"
    },
    {
      "inputs": [
        {
          "internalType": "address",
          "name": "_worker",
          "type": "address"
        }
      ],
      "name": "assignJob",
      "outputs": [],
      "stateMutability": "nonpayable",
      "type": "function"
    },
    {
      "inputs": [],
      "name": "cancelJob",
      "outputs": [],
      "stateMutability": "nonpayable",
      "type": "function"
    },
    {
      "inputs": [],
      "name": "cost",
      "outputs": [
        {
          "internalType": "uint256",
          "name": "",
          "type": "uint256"
        }
      ],
      "stateMutability": "view",
      "type": "function"
    },
    {
      "inputs": [],
      "name": "deadline",
      "outputs": [
        {
          "internalType": "uint256",
          "name": "",
          "type": "uint256"
        }
      ],
      "stateMutability": "view",
      "type": "function"
    },
    {
      "inputs": [
        {
          "internalType": "uint256",
          "name": "_cost",
          "type": "uint256"
        }
      ],
      "name": "editJob",
      "outputs": [],
      "stateMutability": "nonpayable",
      "type": "function"
    },
    {
      "inputs": [],
      "name": "employer",
      "outputs": [
        {
          "internalType": "address",
          "name": "",
          "type": "address"
        }
      ],
      "stateMutability": "view",
      "type": "function"
    },
    {
      "inputs": [],
      "name": "factory",
      "outputs": [
        {
          "internalType": "contract WorkQuestFactoryInterface",
          "name": "",
          "type": "address"
        }
      ],
      "stateMutability": "view",
      "type": "function"
    },
    {
      "inputs": [],
      "name": "forfeit",
      "outputs": [
        {
          "internalType": "uint256",
          "name": "",
          "type": "uint256"
        }
      ],
      "stateMutability": "view",
      "type": "function"
    },
    {
      "inputs": [],
      "name": "getInfo",
      "outputs": [
        {
          "internalType": "bytes32",
          "name": "_jobHash",
          "type": "bytes32"
        },
        {
          "internalType": "uint256",
          "name": "_cost",
          "type": "uint256"
        },
        {
          "internalType": "uint256",
          "name": "_forfeit",
          "type": "uint256"
        },
        {
          "internalType": "address",
          "name": "_employer",
          "type": "address"
        },
        {
          "internalType": "address",
          "name": "_worker",
          "type": "address"
        },
        {
          "internalType": "address",
          "name": "_factory",
          "type": "address"
        },
        {
          "internalType": "enum WorkQuest.JobStatus",
          "name": "_status",
          "type": "uint8"
        },
        {
          "internalType": "uint256",
          "name": "_deadline",
          "type": "uint256"
        }
      ],
      "stateMutability": "view",
      "type": "function"
    },
    {
      "inputs": [],
      "name": "jobHash",
      "outputs": [
        {
          "internalType": "bytes32",
          "name": "",
          "type": "bytes32"
        }
      ],
      "stateMutability": "view",
      "type": "function"
    },
    {
      "inputs": [],
      "name": "status",
      "outputs": [
        {
          "internalType": "enum WorkQuest.JobStatus",
          "name": "",
          "type": "uint8"
        }
      ],
      "stateMutability": "view",
      "type": "function"
    },
    {
      "inputs": [],
      "name": "timeDone",
      "outputs": [
        {
          "internalType": "uint256",
          "name": "",
          "type": "uint256"
        }
      ],
      "stateMutability": "view",
      "type": "function"
    },
    {
      "inputs": [],
      "name": "verificationJob",
      "outputs": [],
      "stateMutability": "nonpayable",
      "type": "function"
    },
    {
      "inputs": [],
      "name": "worker",
      "outputs": [
        {
          "internalType": "address",
          "name": "",
          "type": "address"
        }
      ],
      "stateMutability": "view",
      "type": "function"
    }
  ],
  "bytecode": "0x60c06040523480156200001157600080fd5b5060405162002aed38038062002aed8339810160408190526200003491620000a4565b6000849055600183905560048290556001600160a01b03811660a052336080526003805460ff60a01b1916600160a01b1790556040518481527f1f3edb4d58a0796934b2fca1e84cec8a42269dc76c56c22b4489a77205ed6bcf9060200160405180910390a150505050620000f5565b60008060008060808587031215620000bb57600080fd5b845160208601516040870151606088015192965090945092506001600160a01b0381168114620000ea57600080fd5b939692955090935050565b60805160a0516128c8620002256000396000818161023f0152818161033801528181610461015281816107790152818161088e015281816109ed01528181610fe3015281816111930152818161120c015281816116a1015261202801526000818161026c01528181610381015281816104db015281816105a201528181610648015281816106da015281816107a801528181610ac601528181610cc301528181610e2c01528181610f3601528181611015015281816110a701528181611230015281816112db015281816114ec01528181611949015281816119fb01528181611b4c01528181611bec01528181611d0401528181611d9701528181611e3b01528181611ecd01528181611f260152818161204c015281816120a50152818161219e015261223001526128c86000f3fe6080604052600436106101355760003560e01c8063a758757d116100ab578063c72331fe1161006f578063c72331fe146103a3578063d295ef5c146103b8578063d5c4034e146103cd578063f3d86e4a146103ed578063f409abcb14610403578063f6faa7471461041857600080fd5b8063a758757d146102fc578063a77945b414610311578063ae200e7914610326578063b07c74751461035a578063c45a01551461036f57600080fd5b80634d547ada116100fd5780634d547ada146101df5780635a9b0b8914610217578063702d97491461029d578063897399ae146102bf5780639b732350146102df5780639b789b7e146102e757600080fd5b8063021a0b7d1461013a57806313faede614610163578063200d2ed21461017957806329dcb0cf146101a75780634d104adf146101bd575b600080fd5b34801561014657600080fd5b5061015060055481565b6040519081526020015b60405180910390f35b34801561016f57600080fd5b5061015060015481565b34801561018557600080fd5b5060035461019a90600160a01b900460ff1681565b60405161015a9190612638565b3480156101b357600080fd5b5061015060045481565b3480156101c957600080fd5b5061015060008051602061284983398151915281565b3480156101eb57600080fd5b506003546101ff906001600160a01b031681565b6040516001600160a01b03909116815260200161015a565b34801561022357600080fd5b5060005460015460025460035460045460405161015a959493927f0000000000000000000000000000000000000000000000000000000000000000926001600160a01b038216927f000000000000000000000000000000000000000000000000000000000000000092600160a01b900460ff16919061264c565b3480156102a957600080fd5b506102bd6102b83660046126a1565b61042e565b005b3480156102cb57600080fd5b506102bd6102da3660046126d2565b610883565b6102bd6109e2565b3480156102f357600080fd5b506102bd610bed565b34801561030857600080fd5b506102bd610c9a565b34801561031d57600080fd5b506102bd610e03565b34801561033257600080fd5b506101ff7f000000000000000000000000000000000000000000000000000000000000000081565b34801561036657600080fd5b506102bd611138565b34801561037b57600080fd5b506101ff7f000000000000000000000000000000000000000000000000000000000000000081565b3480156103af57600080fd5b506102bd6112b2565b3480156103c457600080fd5b506102bd611413565b3480156103d957600080fd5b506102bd6103e83660046126a1565b6114c3565b3480156103f957600080fd5b5061015060025481565b34801561040f57600080fd5b506102bd611696565b34801561042457600080fd5b5061015060005481565b6001600354600160a01b900460ff16600681111561044e5761044e612600565b1480156104835750336001600160a01b037f000000000000000000000000000000000000000000000000000000000000000016145b6040518060600160405280602a8152602001612869602a9139906104c35760405162461bcd60e51b81526004016104ba919061271b565b60405180910390fd5b5060015481111561076a576000670de0b6b3a76400007f00000000000000000000000000000000000000000000000000000000000000006001600160a01b031663bce515aa6040518163ffffffff1660e01b815260040160206040518083038186803b15801561053257600080fd5b505afa158015610546573d6000803e3d6000fd5b505050506040513d601f19601f8201168201806040525081019061056a919061274e565b600154610577908561277d565b6105819190612794565b61058b91906127b3565b90506106423330600154856105a0919061277d565b7f00000000000000000000000000000000000000000000000000000000000000006001600160a01b03166315c40eb06040518163ffffffff1660e01b815260040160206040518083038186803b1580156105f957600080fd5b505afa15801561060d573d6000803e3d6000fd5b505050506040513d601f19601f8201168201806040525081019061063191906127d5565b6001600160a01b0316929190611769565b610731337f00000000000000000000000000000000000000000000000000000000000000006001600160a01b031663b3f006746040518163ffffffff1660e01b815260040160206040518083038186803b15801561069f57600080fd5b505afa1580156106b3573d6000803e3d6000fd5b505050506040513d601f19601f820116820180604052508101906106d791906127d5565b837f00000000000000000000000000000000000000000000000000000000000000006001600160a01b03166315c40eb06040518163ffffffff1660e01b815260040160206040518083038186803b1580156105f957600080fd5b6040518281527fa8142743f8f70a4c26f3691cf4ed59718381fb2f18070ec52be1f1022d8555579060200160405180910390a150610847565b600154811015610847576108477f0000000000000000000000000000000000000000000000000000000000000000826001546107a6919061277d565b7f00000000000000000000000000000000000000000000000000000000000000006001600160a01b03166315c40eb06040518163ffffffff1660e01b815260040160206040518083038186803b1580156107ff57600080fd5b505afa158015610813573d6000803e3d6000fd5b505050506040513d601f19601f8201168201806040525081019061083791906127d5565b6001600160a01b031691906117da565b60018190556040518181527fd1b5972bc4cfe8651dd4945f53542580e375118b79554778bda228502f49fd85906020015b60405180910390a150565b336001600160a01b037f0000000000000000000000000000000000000000000000000000000000000000161480156108ff57506001600354600160a01b900460ff1660068111156108d6576108d6612600565b14806108ff57506002600354600160a01b900460ff1660068111156108fd576108fd612600565b145b6040518060600160405280602a8152602001612869602a9139906109365760405162461bcd60e51b81526004016104ba919061271b565b506001600160a01b03811661098d5760405162461bcd60e51b815260206004820152601a60248201527f576f726b51756573743a20496e76616c6964206164647265737300000000000060448201526064016104ba565b600380546001600160a01b0383166001600160a81b03199091168117600160a11b179091556040519081527f3c8974307e4abad0239998f9dc76add6b783cd52bf1337e9871763ce00f0e94b90602001610878565b336001600160a01b037f000000000000000000000000000000000000000000000000000000000000000016148015610a3757506004600354600160a01b900460ff166006811115610a3557610a35612600565b145b80610a8c57506003546001600160a01b031633148015610a7457506004600354600160a01b900460ff166006811115610a7257610a72612600565b145b8015610a8c5750600554610a8990603c6127f2565b42115b6040518060600160405280602a8152602001612869602a913990610ac35760405162461bcd60e51b81526004016104ba919061271b565b507f00000000000000000000000000000000000000000000000000000000000000006001600160a01b031663643250656040518163ffffffff1660e01b815260040160206040518083038186803b158015610b1d57600080fd5b505afa158015610b31573d6000803e3d6000fd5b505050506040513d601f19601f82011682018060405250810190610b55919061274e565b341015610ba45760405162461bcd60e51b815260206004820152601b60248201527f576f726b51756573743a20696e73756666696369656e7420666565000000000060448201526064016104ba565b6003805460ff60a01b1916600560a01b1790556040514281527fe3d179e82725f4017e2cd7c543e789daec416599188407652080df0569557520906020015b60405180910390a1565b6003546001600160a01b031633148015610c2457506002600354600160a01b900460ff166006811115610c2257610c22612600565b145b6040518060600160405280602a8152602001612869602a913990610c5b5760405162461bcd60e51b81526004016104ba919061271b565b506003805460ff60a01b1916600360a01b1790556040517f09c75d41aa3ec09c07382b19acbb564b6194701c275a1e84c265b13c096bddc690600090a1565b604051632474521560e21b815260008051602061284983398151915260048201523360248201527f00000000000000000000000000000000000000000000000000000000000000006001600160a01b0316906391d148549060440160206040518083038186803b158015610d0d57600080fd5b505afa158015610d21573d6000803e3d6000fd5b505050506040513d601f19601f82011682018060405250810190610d45919061280a565b8015610d6e57506005600354600160a01b900460ff166006811115610d6c57610d6c612600565b145b6040518060600160405280602a8152602001612869602a913990610da55760405162461bcd60e51b81526004016104ba919061271b565b50610db3426203f4806127f2565b6004556003805460ff60a01b1916600360a01b179055610dd3334761180f565b6040514281527fd9219842a38f53237686873a8ec136ede21c62a7a31b050c0df4281cd45ee84190602001610be3565b604051632474521560e21b815260008051602061284983398151915260048201523360248201527f00000000000000000000000000000000000000000000000000000000000000006001600160a01b0316906391d148549060440160206040518083038186803b158015610e7657600080fd5b505afa158015610e8a573d6000803e3d6000fd5b505050506040513d601f19601f82011682018060405250810190610eae919061280a565b8015610ed757506005600354600160a01b900460ff166006811115610ed557610ed5612600565b145b6040518060600160405280602a8152602001612869602a913990610f0e5760405162461bcd60e51b81526004016104ba919061271b565b50600380546006919060ff60a01b1916600160a01b8302179055506000670de0b6b3a76400007f00000000000000000000000000000000000000000000000000000000000000006001600160a01b031663bce515aa6040518163ffffffff1660e01b815260040160206040518083038186803b158015610f8d57600080fd5b505afa158015610fa1573d6000803e3d6000fd5b505050506040513d601f19601f82011682018060405250810190610fc5919061274e565b600154610fd29190612794565b610fdc91906127b3565b90506110107f0000000000000000000000000000000000000000000000000000000000000000826001546107a6919061277d565b6110fe7f00000000000000000000000000000000000000000000000000000000000000006001600160a01b031663b3f006746040518163ffffffff1660e01b815260040160206040518083038186803b15801561106c57600080fd5b505afa158015611080573d6000803e3d6000fd5b505050506040513d601f19601f820116820180604052508101906110a491906127d5565b827f00000000000000000000000000000000000000000000000000000000000000006001600160a01b03166315c40eb06040518163ffffffff1660e01b815260040160206040518083038186803b1580156107ff57600080fd5b611108334761180f565b6040514281527f3ccf377ae75c37622a19550c362c6fbdf396057a8464eef75c4ea94d1e4a839290602001610878565b6001600354600160a01b900460ff16600681111561115857611158612600565b148061118157506002600354600160a01b900460ff16600681111561117f5761117f612600565b145b80156111b55750336001600160a01b037f000000000000000000000000000000000000000000000000000000000000000016145b6040518060600160405280602a8152602001612869602a9139906111ec5760405162461bcd60e51b81526004016104ba919061271b565b50600380546006919060ff60a01b1916600160a01b8302179055506112877f00000000000000000000000000000000000000000000000000000000000000006001547f00000000000000000000000000000000000000000000000000000000000000006001600160a01b03166315c40eb06040518163ffffffff1660e01b815260040160206040518083038186803b1580156107ff57600080fd5b6040517f1a7b868a3587950cf797c54b284b8c24e1ed007035e305719a6cbdd34b0ea1a890600090a1565b604051632474521560e21b815260008051602061284983398151915260048201523360248201527f00000000000000000000000000000000000000000000000000000000000000006001600160a01b0316906391d148549060440160206040518083038186803b15801561132557600080fd5b505afa158015611339573d6000803e3d6000fd5b505050506040513d601f19601f8201168201806040525081019061135d919061280a565b801561138657506005600354600160a01b900460ff16600681111561138457611384612600565b145b6040518060600160405280602a8152602001612869602a9139906113bd5760405162461bcd60e51b81526004016104ba919061271b565b506003805460ff60a01b1916600360a11b1790556113d9611928565b6113e3334761180f565b6040514281527f844465112ba48ffdb453bcb0a6965dc77f141971a8f6b48a4e07b3cf71c8de9290602001610be3565b6003546001600160a01b031633148015611449575060038054600160a01b900460ff16600681111561144757611447612600565b145b6040518060600160405280602a8152602001612869602a9139906114805760405162461bcd60e51b81526004016104ba919061271b565b506003805460ff60a01b1916600160a21b179055426005556040517f3c350d18e479f5682191b9cdb4cdfa755c912f69d2d5ab94d910df38dec36a7290600090a1565b604051632474521560e21b815260008051602061284983398151915260048201523360248201527f00000000000000000000000000000000000000000000000000000000000000006001600160a01b0316906391d148549060440160206040518083038186803b15801561153657600080fd5b505afa15801561154a573d6000803e3d6000fd5b505050506040513d601f19601f8201168201806040525081019061156e919061280a565b801561159757506005600354600160a01b900460ff16600681111561159557611595612600565b145b6040518060600160405280602a8152602001612869602a9139906115ce5760405162461bcd60e51b81526004016104ba919061271b565b5060015481111561163c5760405162461bcd60e51b815260206004820152603260248201527f576f726b51756573743a20666f7266656974206d757374206265206c65617374604482015271081bdc88195c5d585b081a9bd88818dbdcdd60721b60648201526084016104ba565b6003805460ff60a01b1916600360a11b179055600281905561165c611928565b611666334761180f565b6040514281527f9781a3519a136c237f0b50133d638c600fcece4425220b90ba4a4d153dccfb4c90602001610878565b336001600160a01b037f0000000000000000000000000000000000000000000000000000000000000000161480156116eb57506004600354600160a01b900460ff1660068111156116e9576116e9612600565b145b6040518060600160405280602a8152602001612869602a9139906117225760405162461bcd60e51b81526004016104ba919061271b565b506003805460ff60a01b1916600360a11b17905561173e611928565b6040517ffe17fb508799412c4bf2b124b8292bcc9ca4ff8ab8ec830110fbcb1ae5cb312590600090a1565b6040516001600160a01b03808516602483015283166044820152606481018290526117d49085906323b872dd60e01b906084015b60408051601f198184030181529190526020810180516001600160e01b03166001600160e01b031990931692909217909152612287565b50505050565b6040516001600160a01b03831660248201526044810182905261180a90849063a9059cbb60e01b9060640161179d565b505050565b8047101561185f5760405162461bcd60e51b815260206004820152601d60248201527f416464726573733a20696e73756666696369656e742062616c616e636500000060448201526064016104ba565b6000826001600160a01b03168260405160006040518083038185875af1925050503d80600081146118ac576040519150601f19603f3d011682016040523d82523d6000602084013e6118b1565b606091505b505090508061180a5760405162461bcd60e51b815260206004820152603a60248201527f416464726573733a20756e61626c6520746f2073656e642076616c75652c207260448201527f6563697069656e74206d6179206861766520726576657274656400000000000060648201526084016104ba565b600060025460015461193a919061277d565b90506000670de0b6b3a76400007f00000000000000000000000000000000000000000000000000000000000000006001600160a01b031663bce515aa6040518163ffffffff1660e01b815260040160206040518083038186803b1580156119a057600080fd5b505afa1580156119b4573d6000803e3d6000fd5b505050506040513d601f19601f820116820180604052508101906119d8919061274e565b6119e29084612794565b6119ec91906127b3565b90506000670de0b6b3a76400007f00000000000000000000000000000000000000000000000000000000000000006001600160a01b0316632cba90c76040518163ffffffff1660e01b815260040160206040518083038186803b158015611a5257600080fd5b505afa158015611a66573d6000803e3d6000fd5b505050506040513d601f19601f82011682018060405250810190611a8a91906127d5565b600354604051631711922960e31b81526001600160a01b03918216600482015291169063b88c91489060240160206040518083038186803b158015611ace57600080fd5b505afa158015611ae2573d6000803e3d6000fd5b505050506040513d601f19601f82011682018060405250810190611b06919061274e565b611b109085612794565b611b1a91906127b3565b600354909150611b42906001600160a01b031682611b38858761277d565b6107a6919061277d565b801561201b5760007f00000000000000000000000000000000000000000000000000000000000000006001600160a01b03166315c40eb06040518163ffffffff1660e01b815260040160206040518083038186803b158015611ba357600080fd5b505afa158015611bb7573d6000803e3d6000fd5b505050506040513d601f19601f82011682018060405250810190611bdb91906127d5565b6001600160a01b031663dd62ed3e307f00000000000000000000000000000000000000000000000000000000000000006001600160a01b0316632cba90c76040518163ffffffff1660e01b815260040160206040518083038186803b158015611c4357600080fd5b505afa158015611c57573d6000803e3d6000fd5b505050506040513d601f19601f82011682018060405250810190611c7b91906127d5565b6040516001600160e01b031960e085901b1681526001600160a01b0392831660048201529116602482015260440160206040518083038186803b158015611cc157600080fd5b505afa158015611cd5573d6000803e3d6000fd5b505050506040513d601f19601f82011682018060405250810190611cf9919061274e565b1115611e3657611e367f00000000000000000000000000000000000000000000000000000000000000006001600160a01b0316632cba90c76040518163ffffffff1660e01b815260040160206040518083038186803b158015611d5b57600080fd5b505afa158015611d6f573d6000803e3d6000fd5b505050506040513d601f19601f82011682018060405250810190611d9391906127d5565b60007f00000000000000000000000000000000000000000000000000000000000000006001600160a01b03166315c40eb06040518163ffffffff1660e01b815260040160206040518083038186803b158015611dee57600080fd5b505afa158015611e02573d6000803e3d6000fd5b505050506040513d601f19601f82011682018060405250810190611e2691906127d5565b6001600160a01b03169190612359565b611f247f00000000000000000000000000000000000000000000000000000000000000006001600160a01b0316632cba90c76040518163ffffffff1660e01b815260040160206040518083038186803b158015611e9257600080fd5b505afa158015611ea6573d6000803e3d6000fd5b505050506040513d601f19601f82011682018060405250810190611eca91906127d5565b827f00000000000000000000000000000000000000000000000000000000000000006001600160a01b03166315c40eb06040518163ffffffff1660e01b815260040160206040518083038186803b158015611dee57600080fd5b7f00000000000000000000000000000000000000000000000000000000000000006001600160a01b0316632cba90c76040518163ffffffff1660e01b815260040160206040518083038186803b158015611f7d57600080fd5b505afa158015611f91573d6000803e3d6000fd5b505050506040513d601f19601f82011682018060405250810190611fb591906127d5565b600354604051638418cd9960e01b81526001600160a01b03918216600482015260248101849052911690638418cd9990604401600060405180830381600087803b15801561200257600080fd5b505af1158015612016573d6000803e3d6000fd5b505050505b600254156120a3576120a37f00000000000000000000000000000000000000000000000000000000000000006002547f00000000000000000000000000000000000000000000000000000000000000006001600160a01b03166315c40eb06040518163ffffffff1660e01b815260040160206040518083038186803b1580156107ff57600080fd5b7f00000000000000000000000000000000000000000000000000000000000000006001600160a01b0316631441a5a96040518163ffffffff1660e01b815260040160206040518083038186803b1580156120fc57600080fd5b505afa158015612110573d6000803e3d6000fd5b505050506040513d601f19601f8201168201806040525081019061213491906127d5565b60035460405163c5e7ea2360e01b81526001600160a01b0391821660048201526024810186905291169063c5e7ea2390604401600060405180830381600087803b15801561218157600080fd5b505af1158015612195573d6000803e3d6000fd5b5050505061180a7f00000000000000000000000000000000000000000000000000000000000000006001600160a01b031663b3f006746040518163ffffffff1660e01b815260040160206040518083038186803b1580156121f557600080fd5b505afa158015612209573d6000803e3d6000fd5b505050506040513d601f19601f8201168201806040525081019061222d91906127d5565b837f00000000000000000000000000000000000000000000000000000000000000006001600160a01b03166315c40eb06040518163ffffffff1660e01b815260040160206040518083038186803b1580156107ff57600080fd5b60006122dc826040518060400160405280602081526020017f5361666545524332303a206c6f772d6c6576656c2063616c6c206661696c6564815250856001600160a01b031661247d9092919063ffffffff16565b80519091501561180a57808060200190518101906122fa919061280a565b61180a5760405162461bcd60e51b815260206004820152602a60248201527f5361666545524332303a204552433230206f7065726174696f6e20646964206e6044820152691bdd081cdd58d8d9595960b21b60648201526084016104ba565b8015806123e25750604051636eb1769f60e11b81523060048201526001600160a01b03838116602483015284169063dd62ed3e9060440160206040518083038186803b1580156123a857600080fd5b505afa1580156123bc573d6000803e3d6000fd5b505050506040513d601f19601f820116820180604052508101906123e0919061274e565b155b61244d5760405162461bcd60e51b815260206004820152603660248201527f5361666545524332303a20617070726f76652066726f6d206e6f6e2d7a65726f60448201527520746f206e6f6e2d7a65726f20616c6c6f77616e636560501b60648201526084016104ba565b6040516001600160a01b03831660248201526044810182905261180a90849063095ea7b360e01b9060640161179d565b606061248c8484600085612496565b90505b9392505050565b6060824710156124f75760405162461bcd60e51b815260206004820152602660248201527f416464726573733a20696e73756666696369656e742062616c616e636520666f6044820152651c8818d85b1b60d21b60648201526084016104ba565b6001600160a01b0385163b61254e5760405162461bcd60e51b815260206004820152601d60248201527f416464726573733a2063616c6c20746f206e6f6e2d636f6e747261637400000060448201526064016104ba565b600080866001600160a01b0316858760405161256a919061282c565b60006040518083038185875af1925050503d80600081146125a7576040519150601f19603f3d011682016040523d82523d6000602084013e6125ac565b606091505b50915091506125bc8282866125c7565b979650505050505050565b606083156125d657508161248f565b8251156125e65782518084602001fd5b8160405162461bcd60e51b81526004016104ba919061271b565b634e487b7160e01b600052602160045260246000fd5b6007811061263457634e487b7160e01b600052602160045260246000fd5b9052565b602081016126468284612616565b92915050565b88815260208101889052604081018790526001600160a01b0386811660608301528581166080830152841660a0820152610100810161268e60c0830185612616565b8260e08301529998505050505050505050565b6000602082840312156126b357600080fd5b5035919050565b6001600160a01b03811681146126cf57600080fd5b50565b6000602082840312156126e457600080fd5b813561248f816126ba565b60005b8381101561270a5781810151838201526020016126f2565b838111156117d45750506000910152565b602081526000825180602084015261273a8160408501602087016126ef565b601f01601f19169190910160400192915050565b60006020828403121561276057600080fd5b5051919050565b634e487b7160e01b600052601160045260246000fd5b60008282101561278f5761278f612767565b500390565b60008160001904831182151516156127ae576127ae612767565b500290565b6000826127d057634e487b7160e01b600052601260045260246000fd5b500490565b6000602082840312156127e757600080fd5b815161248f816126ba565b6000821982111561280557612805612767565b500190565b60006020828403121561281c57600080fd5b8151801515811461248f57600080fd5b6000825161283e8184602087016126ef565b919091019291505056febb08418a67729a078f87bbc8d02a770929bb68f5bfdf134ae2ead6ed38e2f4ae576f726b51756573743a204163636573732064656e696564206f7220696e76616c696420737461747573a2646970667358221220e9b6a70d75b724f5975ff432cf120c4faefff12e695f0dfb39dff332f3b8daed64736f6c63430008090033",
  "linkReferences": {},
  "deployedLinkReferences": {}
}