{
  "_format": "hh-sol-artifact-1",
  "contractName": "WorkQuest",
  "sourceName": "contracts/WorkQuest.sol",
  "abi": [
    {
      "inputs": [
        {
          "internalType": "bytes32",
          "name": "_jobHash",
          "type": "bytes32"
        },
        {
          "internalType": "uint256",
          "name": "_cost",
          "type": "uint256"
        },
        {
          "internalType": "uint256",
          "name": "_deadline",
          "type": "uint256"
        },
        {
          "internalType": "address",
          "name": "_employer",
          "type": "address"
        }
      ],
      "stateMutability": "nonpayable",
      "type": "constructor"
    },
    {
      "anonymous": false,
      "inputs": [],
      "name": "ArbitrationAcceptWork",
      "type": "event"
    },
    {
      "anonymous": false,
      "inputs": [],
      "name": "ArbitrationDecreaseCost",
      "type": "event"
    },
    {
      "anonymous": false,
      "inputs": [],
      "name": "ArbitrationRejectWork",
      "type": "event"
    },
    {
      "anonymous": false,
      "inputs": [],
      "name": "ArbitrationRework",
      "type": "event"
    },
    {
      "anonymous": false,
      "inputs": [],
      "name": "ArbitrationStarted",
      "type": "event"
    },
    {
      "anonymous": false,
      "inputs": [
        {
          "indexed": false,
          "internalType": "address",
          "name": "worker",
          "type": "address"
        }
      ],
      "name": "Assigned",
      "type": "event"
    },
    {
      "anonymous": false,
      "inputs": [],
      "name": "JobCancelled",
      "type": "event"
    },
    {
      "anonymous": false,
      "inputs": [],
      "name": "JobDone",
      "type": "event"
    },
    {
      "anonymous": false,
      "inputs": [
        {
          "indexed": false,
          "internalType": "uint256",
          "name": "cost",
          "type": "uint256"
        }
      ],
      "name": "JobEdited",
      "type": "event"
    },
    {
      "anonymous": false,
      "inputs": [],
      "name": "JobFinished",
      "type": "event"
    },
    {
      "anonymous": false,
      "inputs": [],
      "name": "JobStarted",
      "type": "event"
    },
    {
      "anonymous": false,
      "inputs": [
        {
          "indexed": false,
          "internalType": "uint256",
          "name": "amount",
          "type": "uint256"
        }
      ],
      "name": "Received",
      "type": "event"
    },
    {
      "anonymous": false,
      "inputs": [
        {
          "indexed": false,
          "internalType": "bytes32",
          "name": "jobHash",
          "type": "bytes32"
        }
      ],
      "name": "WorkQuestCreated",
      "type": "event"
    },
    {
      "inputs": [],
      "name": "ARBITER_ROLE",
      "outputs": [
        {
          "internalType": "bytes32",
          "name": "",
          "type": "bytes32"
        }
      ],
      "stateMutability": "view",
      "type": "function"
    },
    {
      "inputs": [],
      "name": "acceptJob",
      "outputs": [],
      "stateMutability": "nonpayable",
      "type": "function"
    },
    {
      "inputs": [],
      "name": "acceptJobResult",
      "outputs": [],
      "stateMutability": "nonpayable",
      "type": "function"
    },
    {
      "inputs": [],
      "name": "arbitration",
      "outputs": [],
      "stateMutability": "payable",
      "type": "function"
    },
    {
      "inputs": [],
      "name": "arbitrationAcceptWork",
      "outputs": [],
      "stateMutability": "nonpayable",
      "type": "function"
    },
    {
      "inputs": [
        {
          "internalType": "uint256",
          "name": "_forfeit",
          "type": "uint256"
        }
      ],
      "name": "arbitrationDecreaseCost",
      "outputs": [],
      "stateMutability": "nonpayable",
      "type": "function"
    },
    {
      "inputs": [],
      "name": "arbitrationRejectWork",
      "outputs": [],
      "stateMutability": "nonpayable",
      "type": "function"
    },
    {
      "inputs": [],
      "name": "arbitrationRework",
      "outputs": [],
      "stateMutability": "nonpayable",
      "type": "function"
    },
    {
      "inputs": [
        {
          "internalType": "address",
          "name": "_worker",
          "type": "address"
        }
      ],
      "name": "assignJob",
      "outputs": [],
      "stateMutability": "nonpayable",
      "type": "function"
    },
    {
      "inputs": [],
      "name": "cancelJob",
      "outputs": [],
      "stateMutability": "nonpayable",
      "type": "function"
    },
    {
      "inputs": [],
      "name": "cost",
      "outputs": [
        {
          "internalType": "uint256",
          "name": "",
          "type": "uint256"
        }
      ],
      "stateMutability": "view",
      "type": "function"
    },
    {
      "inputs": [],
      "name": "deadline",
      "outputs": [
        {
          "internalType": "uint256",
          "name": "",
          "type": "uint256"
        }
      ],
      "stateMutability": "view",
      "type": "function"
    },
    {
      "inputs": [
        {
          "internalType": "uint256",
          "name": "_cost",
          "type": "uint256"
        }
      ],
      "name": "editJob",
      "outputs": [],
      "stateMutability": "nonpayable",
      "type": "function"
    },
    {
      "inputs": [],
      "name": "employer",
      "outputs": [
        {
          "internalType": "address",
          "name": "",
          "type": "address"
        }
      ],
      "stateMutability": "view",
      "type": "function"
    },
    {
      "inputs": [],
      "name": "factory",
      "outputs": [
        {
          "internalType": "contract WorkQuestFactoryInterface",
          "name": "",
          "type": "address"
        }
      ],
      "stateMutability": "view",
      "type": "function"
    },
    {
      "inputs": [],
      "name": "forfeit",
      "outputs": [
        {
          "internalType": "uint256",
          "name": "",
          "type": "uint256"
        }
      ],
      "stateMutability": "view",
      "type": "function"
    },
    {
      "inputs": [],
      "name": "getInfo",
      "outputs": [
        {
          "internalType": "bytes32",
          "name": "_jobHash",
          "type": "bytes32"
        },
        {
          "internalType": "uint256",
          "name": "_cost",
          "type": "uint256"
        },
        {
          "internalType": "uint256",
          "name": "_forfeit",
          "type": "uint256"
        },
        {
          "internalType": "address",
          "name": "_employer",
          "type": "address"
        },
        {
          "internalType": "address",
          "name": "_worker",
          "type": "address"
        },
        {
          "internalType": "address",
          "name": "_factory",
          "type": "address"
        },
        {
          "internalType": "enum WorkQuest.JobStatus",
          "name": "_status",
          "type": "uint8"
        },
        {
          "internalType": "uint256",
          "name": "_deadline",
          "type": "uint256"
        }
      ],
      "stateMutability": "view",
      "type": "function"
    },
    {
      "inputs": [],
      "name": "jobHash",
      "outputs": [
        {
          "internalType": "bytes32",
          "name": "",
          "type": "bytes32"
        }
      ],
      "stateMutability": "view",
      "type": "function"
    },
    {
      "inputs": [],
      "name": "status",
      "outputs": [
        {
          "internalType": "enum WorkQuest.JobStatus",
          "name": "",
          "type": "uint8"
        }
      ],
      "stateMutability": "view",
      "type": "function"
    },
    {
      "inputs": [],
      "name": "timeDone",
      "outputs": [
        {
          "internalType": "uint256",
          "name": "",
          "type": "uint256"
        }
      ],
      "stateMutability": "view",
      "type": "function"
    },
    {
      "inputs": [],
      "name": "verificationJob",
      "outputs": [],
      "stateMutability": "nonpayable",
      "type": "function"
    },
    {
      "inputs": [],
      "name": "worker",
      "outputs": [
        {
          "internalType": "address",
          "name": "",
          "type": "address"
        }
      ],
      "stateMutability": "view",
      "type": "function"
    }
  ],
  "bytecode": "0x60c06040523480156200001157600080fd5b5060405162002936380380620029368339810160408190526200003491620000a4565b6000849055600183905560048290556001600160a01b03811660a052336080526003805460ff60a01b1916600160a01b1790556040518481527f1f3edb4d58a0796934b2fca1e84cec8a42269dc76c56c22b4489a77205ed6bcf9060200160405180910390a150505050620000f5565b60008060008060808587031215620000bb57600080fd5b845160208601516040870151606088015192965090945092506001600160a01b0381168114620000ea57600080fd5b939692955090935050565b60805160a05161271f620002176000396000818161023f01528181610338015281816104610152818161070b015281816107d80152818161093701528181610f1d01528181611037015281816110b0015281816115320152611e7b01526000818161026c01528181610381015281816104db01528181610592015281816106240152818161073a01528181610a1001528181610c0201528181610d6601528181610e7001528181610f4f015281816110d40152818161117f015281816113810152818161179c0152818161184e0152818161199f01528181611a3f01528181611b5701528181611bea01528181611c8e01528181611d2001528181611d7901528181611e9f01528181611ef801528181611ff10152612083015261271f6000f3fe6080604052600436106101355760003560e01c8063a758757d116100ab578063c72331fe1161006f578063c72331fe146103a3578063d295ef5c146103b8578063d5c4034e146103cd578063f3d86e4a146103ed578063f409abcb14610403578063f6faa7471461041857600080fd5b8063a758757d146102fc578063a77945b414610311578063ae200e7914610326578063b07c74751461035a578063c45a01551461036f57600080fd5b80634d547ada116100fd5780634d547ada146101df5780635a9b0b8914610217578063702d97491461029d578063897399ae146102bf5780639b732350146102df5780639b789b7e146102e757600080fd5b8063021a0b7d1461013a57806313faede614610163578063200d2ed21461017957806329dcb0cf146101a75780634d104adf146101bd575b600080fd5b34801561014657600080fd5b5061015060055481565b6040519081526020015b60405180910390f35b34801561016f57600080fd5b5061015060015481565b34801561018557600080fd5b5060035461019a90600160a01b900460ff1681565b60405161015a919061248b565b3480156101b357600080fd5b5061015060045481565b3480156101c957600080fd5b506101506000805160206126a083398151915281565b3480156101eb57600080fd5b506003546101ff906001600160a01b031681565b6040516001600160a01b03909116815260200161015a565b34801561022357600080fd5b5060005460015460025460035460045460405161015a959493927f0000000000000000000000000000000000000000000000000000000000000000926001600160a01b038216927f000000000000000000000000000000000000000000000000000000000000000092600160a01b900460ff16919061249f565b3480156102a957600080fd5b506102bd6102b83660046124f4565b61042e565b005b3480156102cb57600080fd5b506102bd6102da366004612525565b6107cd565b6102bd61092c565b3480156102f357600080fd5b506102bd610b2c565b34801561030857600080fd5b506102bd610bd9565b34801561031d57600080fd5b506102bd610d3d565b34801561033257600080fd5b506101ff7f000000000000000000000000000000000000000000000000000000000000000081565b34801561036657600080fd5b506102bd610fdc565b34801561037b57600080fd5b506101ff7f000000000000000000000000000000000000000000000000000000000000000081565b3480156103af57600080fd5b506102bd611156565b3480156103c457600080fd5b506102bd6112a8565b3480156103d957600080fd5b506102bd6103e83660046124f4565b611358565b3480156103f957600080fd5b5061015060025481565b34801561040f57600080fd5b506102bd611527565b34801561042457600080fd5b5061015060005481565b6001600354600160a01b900460ff16600681111561044e5761044e612453565b1480156104835750336001600160a01b037f000000000000000000000000000000000000000000000000000000000000000016145b6040518060600160405280602a81526020016126c0602a9139906104c35760405162461bcd60e51b81526004016104ba9190612572565b60405180910390fd5b506001548111156106fc576000670de0b6b3a76400007f00000000000000000000000000000000000000000000000000000000000000006001600160a01b031663bce515aa6040518163ffffffff1660e01b815260040160206040518083038186803b15801561053257600080fd5b505afa158015610546573d6000803e3d6000fd5b505050506040513d601f19601f8201168201806040525081019061056a91906125a5565b60015461057790856125d4565b61058191906125eb565b61058b919061260a565b90506106c37f00000000000000000000000000000000000000000000000000000000000000006001600160a01b031663b3f006746040518163ffffffff1660e01b815260040160206040518083038186803b1580156105e957600080fd5b505afa1580156105fd573d6000803e3d6000fd5b505050506040513d601f19601f82011682018060405250810190610621919061262c565b827f00000000000000000000000000000000000000000000000000000000000000006001600160a01b03166315c40eb06040518163ffffffff1660e01b815260040160206040518083038186803b15801561067b57600080fd5b505afa15801561068f573d6000803e3d6000fd5b505050506040513d601f19601f820116820180604052508101906106b3919061262c565b6001600160a01b031691906115fa565b6040518281527fa8142743f8f70a4c26f3691cf4ed59718381fb2f18070ec52be1f1022d8555579060200160405180910390a150610791565b600154811015610791576107917f00000000000000000000000000000000000000000000000000000000000000008260015461073891906125d4565b7f00000000000000000000000000000000000000000000000000000000000000006001600160a01b03166315c40eb06040518163ffffffff1660e01b815260040160206040518083038186803b15801561067b57600080fd5b60018190556040518181527fd1b5972bc4cfe8651dd4945f53542580e375118b79554778bda228502f49fd85906020015b60405180910390a150565b336001600160a01b037f00000000000000000000000000000000000000000000000000000000000000001614801561084957506001600354600160a01b900460ff16600681111561082057610820612453565b148061084957506002600354600160a01b900460ff16600681111561084757610847612453565b145b6040518060600160405280602a81526020016126c0602a9139906108805760405162461bcd60e51b81526004016104ba9190612572565b506001600160a01b0381166108d75760405162461bcd60e51b815260206004820152601a60248201527f576f726b51756573743a20496e76616c6964206164647265737300000000000060448201526064016104ba565b600380546001600160a01b0383166001600160a81b03199091168117600160a11b179091556040519081527f3c8974307e4abad0239998f9dc76add6b783cd52bf1337e9871763ce00f0e94b906020016107c2565b336001600160a01b037f00000000000000000000000000000000000000000000000000000000000000001614801561098157506004600354600160a01b900460ff16600681111561097f5761097f612453565b145b806109d657506003546001600160a01b0316331480156109be57506004600354600160a01b900460ff1660068111156109bc576109bc612453565b145b80156109d657506005546109d390603c612649565b42115b6040518060600160405280602a81526020016126c0602a913990610a0d5760405162461bcd60e51b81526004016104ba9190612572565b507f00000000000000000000000000000000000000000000000000000000000000006001600160a01b031663643250656040518163ffffffff1660e01b815260040160206040518083038186803b158015610a6757600080fd5b505afa158015610a7b573d6000803e3d6000fd5b505050506040513d601f19601f82011682018060405250810190610a9f91906125a5565b341015610aee5760405162461bcd60e51b815260206004820152601b60248201527f576f726b51756573743a20696e73756666696369656e7420666565000000000060448201526064016104ba565b6003805460ff60a01b1916600560a01b1790556040517f131074782b6ce325b67d3adcf196c9460c96c7006cc8b0db5f06168497d6aeea90600090a1565b6003546001600160a01b031633148015610b6357506002600354600160a01b900460ff166006811115610b6157610b61612453565b145b6040518060600160405280602a81526020016126c0602a913990610b9a5760405162461bcd60e51b81526004016104ba9190612572565b506003805460ff60a01b1916600360a01b1790556040517f09c75d41aa3ec09c07382b19acbb564b6194701c275a1e84c265b13c096bddc690600090a1565b604051632474521560e21b81526000805160206126a083398151915260048201523360248201527f00000000000000000000000000000000000000000000000000000000000000006001600160a01b0316906391d148549060440160206040518083038186803b158015610c4c57600080fd5b505afa158015610c60573d6000803e3d6000fd5b505050506040513d601f19601f82011682018060405250810190610c849190612661565b8015610cad57506005600354600160a01b900460ff166006811115610cab57610cab612453565b145b6040518060600160405280602a81526020016126c0602a913990610ce45760405162461bcd60e51b81526004016104ba9190612572565b50610cf2426203f480612649565b6004556003805460ff60a01b1916600360a01b179055610d123347611662565b6040517f449b7a58002dc78283b0936b451b2258380908c80a671d05cbfc6d5d73e7e84890600090a1565b604051632474521560e21b81526000805160206126a083398151915260048201523360248201527f00000000000000000000000000000000000000000000000000000000000000006001600160a01b0316906391d148549060440160206040518083038186803b158015610db057600080fd5b505afa158015610dc4573d6000803e3d6000fd5b505050506040513d601f19601f82011682018060405250810190610de89190612661565b8015610e1157506005600354600160a01b900460ff166006811115610e0f57610e0f612453565b145b6040518060600160405280602a81526020016126c0602a913990610e485760405162461bcd60e51b81526004016104ba9190612572565b50600380546006919060ff60a01b1916600160a01b8302179055506000670de0b6b3a76400007f00000000000000000000000000000000000000000000000000000000000000006001600160a01b031663bce515aa6040518163ffffffff1660e01b815260040160206040518083038186803b158015610ec757600080fd5b505afa158015610edb573d6000803e3d6000fd5b505050506040513d601f19601f82011682018060405250810190610eff91906125a5565b600154610f0c91906125eb565b610f16919061260a565b9050610f4a7f00000000000000000000000000000000000000000000000000000000000000008260015461073891906125d4565b610fa67f00000000000000000000000000000000000000000000000000000000000000006001600160a01b031663b3f006746040518163ffffffff1660e01b815260040160206040518083038186803b1580156105e957600080fd5b610fb03347611662565b6040517f517141fd66568d7da9d3afa22dbb1526b725c23ac9cf2d87afcdda39f43d244690600090a150565b6001600354600160a01b900460ff166006811115610ffc57610ffc612453565b148061102557506002600354600160a01b900460ff16600681111561102357611023612453565b145b80156110595750336001600160a01b037f000000000000000000000000000000000000000000000000000000000000000016145b6040518060600160405280602a81526020016126c0602a9139906110905760405162461bcd60e51b81526004016104ba9190612572565b50600380546006919060ff60a01b1916600160a01b83021790555061112b7f00000000000000000000000000000000000000000000000000000000000000006001547f00000000000000000000000000000000000000000000000000000000000000006001600160a01b03166315c40eb06040518163ffffffff1660e01b815260040160206040518083038186803b15801561067b57600080fd5b6040517f1a7b868a3587950cf797c54b284b8c24e1ed007035e305719a6cbdd34b0ea1a890600090a1565b604051632474521560e21b81526000805160206126a083398151915260048201523360248201527f00000000000000000000000000000000000000000000000000000000000000006001600160a01b0316906391d148549060440160206040518083038186803b1580156111c957600080fd5b505afa1580156111dd573d6000803e3d6000fd5b505050506040513d601f19601f820116820180604052508101906112019190612661565b801561122a57506005600354600160a01b900460ff16600681111561122857611228612453565b145b6040518060600160405280602a81526020016126c0602a9139906112615760405162461bcd60e51b81526004016104ba9190612572565b506003805460ff60a01b1916600360a11b17905561127d61177b565b6040517fd3690046db46e1a0fc4d2e65f824e35d9171c12fd0aabab5d3d76841e1d8b1f790600090a1565b6003546001600160a01b0316331480156112de575060038054600160a01b900460ff1660068111156112dc576112dc612453565b145b6040518060600160405280602a81526020016126c0602a9139906113155760405162461bcd60e51b81526004016104ba9190612572565b506003805460ff60a01b1916600160a21b179055426005556040517f3c350d18e479f5682191b9cdb4cdfa755c912f69d2d5ab94d910df38dec36a7290600090a1565b604051632474521560e21b81526000805160206126a083398151915260048201523360248201527f00000000000000000000000000000000000000000000000000000000000000006001600160a01b0316906391d148549060440160206040518083038186803b1580156113cb57600080fd5b505afa1580156113df573d6000803e3d6000fd5b505050506040513d601f19601f820116820180604052508101906114039190612661565b801561142c57506005600354600160a01b900460ff16600681111561142a5761142a612453565b145b6040518060600160405280602a81526020016126c0602a9139906114635760405162461bcd60e51b81526004016104ba9190612572565b506001548111156114d15760405162461bcd60e51b815260206004820152603260248201527f576f726b51756573743a20666f7266656974206d757374206265206c65617374604482015271081bdc88195c5d585b081a9bd88818dbdcdd60721b60648201526084016104ba565b6003805460ff60a01b1916600360a11b17905560028190556114f161177b565b6114fb3347611662565b6040517f520a8af2b3599291fb6be141ac83424cf1e51e71ca7fc767716248ae66c6aa5c90600090a150565b336001600160a01b037f00000000000000000000000000000000000000000000000000000000000000001614801561157c57506004600354600160a01b900460ff16600681111561157a5761157a612453565b145b6040518060600160405280602a81526020016126c0602a9139906115b35760405162461bcd60e51b81526004016104ba9190612572565b506003805460ff60a01b1916600360a11b1790556115cf61177b565b6040517ffe17fb508799412c4bf2b124b8292bcc9ca4ff8ab8ec830110fbcb1ae5cb312590600090a1565b6040516001600160a01b03831660248201526044810182905261165d90849063a9059cbb60e01b906064015b60408051601f198184030181529190526020810180516001600160e01b03166001600160e01b0319909316929092179091526120da565b505050565b804710156116b25760405162461bcd60e51b815260206004820152601d60248201527f416464726573733a20696e73756666696369656e742062616c616e636500000060448201526064016104ba565b6000826001600160a01b03168260405160006040518083038185875af1925050503d80600081146116ff576040519150601f19603f3d011682016040523d82523d6000602084013e611704565b606091505b505090508061165d5760405162461bcd60e51b815260206004820152603a60248201527f416464726573733a20756e61626c6520746f2073656e642076616c75652c207260448201527f6563697069656e74206d6179206861766520726576657274656400000000000060648201526084016104ba565b600060025460015461178d91906125d4565b90506000670de0b6b3a76400007f00000000000000000000000000000000000000000000000000000000000000006001600160a01b031663bce515aa6040518163ffffffff1660e01b815260040160206040518083038186803b1580156117f357600080fd5b505afa158015611807573d6000803e3d6000fd5b505050506040513d601f19601f8201168201806040525081019061182b91906125a5565b61183590846125eb565b61183f919061260a565b90506000670de0b6b3a76400007f00000000000000000000000000000000000000000000000000000000000000006001600160a01b0316632cba90c76040518163ffffffff1660e01b815260040160206040518083038186803b1580156118a557600080fd5b505afa1580156118b9573d6000803e3d6000fd5b505050506040513d601f19601f820116820180604052508101906118dd919061262c565b600354604051631711922960e31b81526001600160a01b03918216600482015291169063b88c91489060240160206040518083038186803b15801561192157600080fd5b505afa158015611935573d6000803e3d6000fd5b505050506040513d601f19601f8201168201806040525081019061195991906125a5565b61196390856125eb565b61196d919061260a565b600354909150611995906001600160a01b03168261198b85876125d4565b61073891906125d4565b8015611e6e5760007f00000000000000000000000000000000000000000000000000000000000000006001600160a01b03166315c40eb06040518163ffffffff1660e01b815260040160206040518083038186803b1580156119f657600080fd5b505afa158015611a0a573d6000803e3d6000fd5b505050506040513d601f19601f82011682018060405250810190611a2e919061262c565b6001600160a01b031663dd62ed3e307f00000000000000000000000000000000000000000000000000000000000000006001600160a01b0316632cba90c76040518163ffffffff1660e01b815260040160206040518083038186803b158015611a9657600080fd5b505afa158015611aaa573d6000803e3d6000fd5b505050506040513d601f19601f82011682018060405250810190611ace919061262c565b6040516001600160e01b031960e085901b1681526001600160a01b0392831660048201529116602482015260440160206040518083038186803b158015611b1457600080fd5b505afa158015611b28573d6000803e3d6000fd5b505050506040513d601f19601f82011682018060405250810190611b4c91906125a5565b1115611c8957611c897f00000000000000000000000000000000000000000000000000000000000000006001600160a01b0316632cba90c76040518163ffffffff1660e01b815260040160206040518083038186803b158015611bae57600080fd5b505afa158015611bc2573d6000803e3d6000fd5b505050506040513d601f19601f82011682018060405250810190611be6919061262c565b60007f00000000000000000000000000000000000000000000000000000000000000006001600160a01b03166315c40eb06040518163ffffffff1660e01b815260040160206040518083038186803b158015611c4157600080fd5b505afa158015611c55573d6000803e3d6000fd5b505050506040513d601f19601f82011682018060405250810190611c79919061262c565b6001600160a01b031691906121ac565b611d777f00000000000000000000000000000000000000000000000000000000000000006001600160a01b0316632cba90c76040518163ffffffff1660e01b815260040160206040518083038186803b158015611ce557600080fd5b505afa158015611cf9573d6000803e3d6000fd5b505050506040513d601f19601f82011682018060405250810190611d1d919061262c565b827f00000000000000000000000000000000000000000000000000000000000000006001600160a01b03166315c40eb06040518163ffffffff1660e01b815260040160206040518083038186803b158015611c4157600080fd5b7f00000000000000000000000000000000000000000000000000000000000000006001600160a01b0316632cba90c76040518163ffffffff1660e01b815260040160206040518083038186803b158015611dd057600080fd5b505afa158015611de4573d6000803e3d6000fd5b505050506040513d601f19601f82011682018060405250810190611e08919061262c565b600354604051638418cd9960e01b81526001600160a01b03918216600482015260248101849052911690638418cd9990604401600060405180830381600087803b158015611e5557600080fd5b505af1158015611e69573d6000803e3d6000fd5b505050505b60025415611ef657611ef67f00000000000000000000000000000000000000000000000000000000000000006002547f00000000000000000000000000000000000000000000000000000000000000006001600160a01b03166315c40eb06040518163ffffffff1660e01b815260040160206040518083038186803b15801561067b57600080fd5b7f00000000000000000000000000000000000000000000000000000000000000006001600160a01b0316631441a5a96040518163ffffffff1660e01b815260040160206040518083038186803b158015611f4f57600080fd5b505afa158015611f63573d6000803e3d6000fd5b505050506040513d601f19601f82011682018060405250810190611f87919061262c565b60035460405163c5e7ea2360e01b81526001600160a01b0391821660048201526024810186905291169063c5e7ea2390604401600060405180830381600087803b158015611fd457600080fd5b505af1158015611fe8573d6000803e3d6000fd5b5050505061165d7f00000000000000000000000000000000000000000000000000000000000000006001600160a01b031663b3f006746040518163ffffffff1660e01b815260040160206040518083038186803b15801561204857600080fd5b505afa15801561205c573d6000803e3d6000fd5b505050506040513d601f19601f82011682018060405250810190612080919061262c565b837f00000000000000000000000000000000000000000000000000000000000000006001600160a01b03166315c40eb06040518163ffffffff1660e01b815260040160206040518083038186803b15801561067b57600080fd5b600061212f826040518060400160405280602081526020017f5361666545524332303a206c6f772d6c6576656c2063616c6c206661696c6564815250856001600160a01b03166122d09092919063ffffffff16565b80519091501561165d578080602001905181019061214d9190612661565b61165d5760405162461bcd60e51b815260206004820152602a60248201527f5361666545524332303a204552433230206f7065726174696f6e20646964206e6044820152691bdd081cdd58d8d9595960b21b60648201526084016104ba565b8015806122355750604051636eb1769f60e11b81523060048201526001600160a01b03838116602483015284169063dd62ed3e9060440160206040518083038186803b1580156121fb57600080fd5b505afa15801561220f573d6000803e3d6000fd5b505050506040513d601f19601f8201168201806040525081019061223391906125a5565b155b6122a05760405162461bcd60e51b815260206004820152603660248201527f5361666545524332303a20617070726f76652066726f6d206e6f6e2d7a65726f60448201527520746f206e6f6e2d7a65726f20616c6c6f77616e636560501b60648201526084016104ba565b6040516001600160a01b03831660248201526044810182905261165d90849063095ea7b360e01b90606401611626565b60606122df84846000856122e9565b90505b9392505050565b60608247101561234a5760405162461bcd60e51b815260206004820152602660248201527f416464726573733a20696e73756666696369656e742062616c616e636520666f6044820152651c8818d85b1b60d21b60648201526084016104ba565b6001600160a01b0385163b6123a15760405162461bcd60e51b815260206004820152601d60248201527f416464726573733a2063616c6c20746f206e6f6e2d636f6e747261637400000060448201526064016104ba565b600080866001600160a01b031685876040516123bd9190612683565b60006040518083038185875af1925050503d80600081146123fa576040519150601f19603f3d011682016040523d82523d6000602084013e6123ff565b606091505b509150915061240f82828661241a565b979650505050505050565b606083156124295750816122e2565b8251156124395782518084602001fd5b8160405162461bcd60e51b81526004016104ba9190612572565b634e487b7160e01b600052602160045260246000fd5b6007811061248757634e487b7160e01b600052602160045260246000fd5b9052565b602081016124998284612469565b92915050565b88815260208101889052604081018790526001600160a01b0386811660608301528581166080830152841660a082015261010081016124e160c0830185612469565b8260e08301529998505050505050505050565b60006020828403121561250657600080fd5b5035919050565b6001600160a01b038116811461252257600080fd5b50565b60006020828403121561253757600080fd5b81356122e28161250d565b60005b8381101561255d578181015183820152602001612545565b8381111561256c576000848401525b50505050565b6020815260008251806020840152612591816040850160208701612542565b601f01601f19169190910160400192915050565b6000602082840312156125b757600080fd5b5051919050565b634e487b7160e01b600052601160045260246000fd5b6000828210156125e6576125e66125be565b500390565b6000816000190483118215151615612605576126056125be565b500290565b60008261262757634e487b7160e01b600052601260045260246000fd5b500490565b60006020828403121561263e57600080fd5b81516122e28161250d565b6000821982111561265c5761265c6125be565b500190565b60006020828403121561267357600080fd5b815180151581146122e257600080fd5b60008251612695818460208701612542565b919091019291505056febb08418a67729a078f87bbc8d02a770929bb68f5bfdf134ae2ead6ed38e2f4ae576f726b51756573743a204163636573732064656e696564206f7220696e76616c696420737461747573a2646970667358221220f4b1b2019df8ac50d77002cb1762526a0e778d7e9d5f379497398849d433729564736f6c63430008090033",
  "linkReferences": {},
  "deployedLinkReferences": {}
}