{
  "_format": "hh-sol-artifact-1",
  "contractName": "WorkQuest",
  "sourceName": "contracts/WorkQuest.sol",
  "abi": [
    {
      "inputs": [
        {
          "internalType": "bytes32",
          "name": "_jobHash",
          "type": "bytes32"
        },
        {
          "internalType": "uint256",
          "name": "_fee",
          "type": "uint256"
        },
        {
          "internalType": "uint256",
          "name": "_cost",
          "type": "uint256"
        },
        {
          "internalType": "uint256",
          "name": "_deadline",
          "type": "uint256"
        },
        {
          "internalType": "address payable",
          "name": "_feeReceiver",
          "type": "address"
        },
        {
          "internalType": "address payable",
          "name": "_pensionFund",
          "type": "address"
        },
        {
          "internalType": "address payable",
          "name": "_employer",
          "type": "address"
        },
        {
          "internalType": "address payable",
          "name": "_arbiter",
          "type": "address"
        },
        {
          "internalType": "address payable",
          "name": "_referal",
          "type": "address"
        }
      ],
      "stateMutability": "nonpayable",
      "type": "constructor"
    },
    {
      "anonymous": false,
      "inputs": [],
      "name": "ArbitrationAcceptWork",
      "type": "event"
    },
    {
      "anonymous": false,
      "inputs": [],
      "name": "ArbitrationDecreaseCost",
      "type": "event"
    },
    {
      "anonymous": false,
      "inputs": [],
      "name": "ArbitrationRejectWork",
      "type": "event"
    },
    {
      "anonymous": false,
      "inputs": [],
      "name": "ArbitrationRework",
      "type": "event"
    },
    {
      "anonymous": false,
      "inputs": [],
      "name": "ArbitrationStarted",
      "type": "event"
    },
    {
      "anonymous": false,
      "inputs": [
        {
          "indexed": false,
          "internalType": "address",
          "name": "worker",
          "type": "address"
        }
      ],
      "name": "Assigned",
      "type": "event"
    },
    {
      "anonymous": false,
      "inputs": [],
      "name": "JobCancelled",
      "type": "event"
    },
    {
      "anonymous": false,
      "inputs": [],
      "name": "JobDeclined",
      "type": "event"
    },
    {
      "anonymous": false,
      "inputs": [],
      "name": "JobDone",
      "type": "event"
    },
    {
      "anonymous": false,
      "inputs": [
        {
          "indexed": false,
          "internalType": "bytes32",
          "name": "jobHash",
          "type": "bytes32"
        },
        {
          "indexed": false,
          "internalType": "uint256",
          "name": "cost",
          "type": "uint256"
        }
      ],
      "name": "JobEdited",
      "type": "event"
    },
    {
      "anonymous": false,
      "inputs": [],
      "name": "JobFinished",
      "type": "event"
    },
    {
      "anonymous": false,
      "inputs": [],
      "name": "JobStarted",
      "type": "event"
    },
    {
      "anonymous": false,
      "inputs": [
        {
          "indexed": false,
          "internalType": "uint256",
          "name": "amount",
          "type": "uint256"
        }
      ],
      "name": "Received",
      "type": "event"
    },
    {
      "anonymous": false,
      "inputs": [
        {
          "indexed": false,
          "internalType": "bytes32",
          "name": "jobHash",
          "type": "bytes32"
        }
      ],
      "name": "WorkQuestCreated",
      "type": "event"
    },
    {
      "inputs": [],
      "name": "acceptJob",
      "outputs": [],
      "stateMutability": "nonpayable",
      "type": "function"
    },
    {
      "inputs": [],
      "name": "acceptJobResult",
      "outputs": [],
      "stateMutability": "nonpayable",
      "type": "function"
    },
    {
      "inputs": [],
      "name": "arbiter",
      "outputs": [
        {
          "internalType": "address payable",
          "name": "",
          "type": "address"
        }
      ],
      "stateMutability": "view",
      "type": "function"
    },
    {
      "inputs": [],
      "name": "arbitration",
      "outputs": [],
      "stateMutability": "nonpayable",
      "type": "function"
    },
    {
      "inputs": [],
      "name": "arbitrationAcceptWork",
      "outputs": [],
      "stateMutability": "nonpayable",
      "type": "function"
    },
    {
      "inputs": [
        {
          "internalType": "uint256",
          "name": "_forfeit",
          "type": "uint256"
        }
      ],
      "name": "arbitrationDecreaseCost",
      "outputs": [],
      "stateMutability": "nonpayable",
      "type": "function"
    },
    {
      "inputs": [],
      "name": "arbitrationRejectWork",
      "outputs": [],
      "stateMutability": "nonpayable",
      "type": "function"
    },
    {
      "inputs": [],
      "name": "arbitrationRework",
      "outputs": [],
      "stateMutability": "nonpayable",
      "type": "function"
    },
    {
      "inputs": [
        {
          "internalType": "address payable",
          "name": "_worker",
          "type": "address"
        }
      ],
      "name": "assignJob",
      "outputs": [],
      "stateMutability": "nonpayable",
      "type": "function"
    },
    {
      "inputs": [],
      "name": "cancelJob",
      "outputs": [],
      "stateMutability": "nonpayable",
      "type": "function"
    },
    {
      "inputs": [],
      "name": "cost",
      "outputs": [
        {
          "internalType": "uint256",
          "name": "",
          "type": "uint256"
        }
      ],
      "stateMutability": "view",
      "type": "function"
    },
    {
      "inputs": [],
      "name": "deadline",
      "outputs": [
        {
          "internalType": "uint256",
          "name": "",
          "type": "uint256"
        }
      ],
      "stateMutability": "view",
      "type": "function"
    },
    {
      "inputs": [],
      "name": "declineJob",
      "outputs": [],
      "stateMutability": "nonpayable",
      "type": "function"
    },
    {
      "inputs": [
        {
          "internalType": "bytes32",
          "name": "_jobHash",
          "type": "bytes32"
        },
        {
          "internalType": "uint256",
          "name": "_cost",
          "type": "uint256"
        }
      ],
      "name": "editJob",
      "outputs": [],
      "stateMutability": "payable",
      "type": "function"
    },
    {
      "inputs": [],
      "name": "employer",
      "outputs": [
        {
          "internalType": "address payable",
          "name": "",
          "type": "address"
        }
      ],
      "stateMutability": "view",
      "type": "function"
    },
    {
      "inputs": [],
      "name": "fee",
      "outputs": [
        {
          "internalType": "uint256",
          "name": "",
          "type": "uint256"
        }
      ],
      "stateMutability": "view",
      "type": "function"
    },
    {
      "inputs": [],
      "name": "feeReceiver",
      "outputs": [
        {
          "internalType": "address payable",
          "name": "",
          "type": "address"
        }
      ],
      "stateMutability": "view",
      "type": "function"
    },
    {
      "inputs": [],
      "name": "forfeit",
      "outputs": [
        {
          "internalType": "uint256",
          "name": "",
          "type": "uint256"
        }
      ],
      "stateMutability": "view",
      "type": "function"
    },
    {
      "inputs": [],
      "name": "getInfo",
      "outputs": [
        {
          "internalType": "bytes32",
          "name": "_jobHash",
          "type": "bytes32"
        },
        {
          "internalType": "uint256",
          "name": "_cost",
          "type": "uint256"
        },
        {
          "internalType": "uint256",
          "name": "_forfeit",
          "type": "uint256"
        },
        {
          "internalType": "address",
          "name": "_employer",
          "type": "address"
        },
        {
          "internalType": "address",
          "name": "_worker",
          "type": "address"
        },
        {
          "internalType": "address",
          "name": "_arbiter",
          "type": "address"
        },
        {
          "internalType": "enum WorkQuest.JobStatus",
          "name": "_status",
          "type": "uint8"
        },
        {
          "internalType": "uint256",
          "name": "_deadline",
          "type": "uint256"
        }
      ],
      "stateMutability": "view",
      "type": "function"
    },
    {
      "inputs": [],
      "name": "jobHash",
      "outputs": [
        {
          "internalType": "bytes32",
          "name": "",
          "type": "bytes32"
        }
      ],
      "stateMutability": "view",
      "type": "function"
    },
    {
      "inputs": [],
      "name": "pensionFund",
      "outputs": [
        {
          "internalType": "address payable",
          "name": "",
          "type": "address"
        }
      ],
      "stateMutability": "view",
      "type": "function"
    },
    {
      "inputs": [],
      "name": "referal",
      "outputs": [
        {
          "internalType": "address payable",
          "name": "",
          "type": "address"
        }
      ],
      "stateMutability": "view",
      "type": "function"
    },
    {
      "inputs": [],
      "name": "status",
      "outputs": [
        {
          "internalType": "enum WorkQuest.JobStatus",
          "name": "",
          "type": "uint8"
        }
      ],
      "stateMutability": "view",
      "type": "function"
    },
    {
      "inputs": [],
      "name": "timeDone",
      "outputs": [
        {
          "internalType": "uint256",
          "name": "",
          "type": "uint256"
        }
      ],
      "stateMutability": "view",
      "type": "function"
    },
    {
      "inputs": [],
      "name": "verificationJob",
      "outputs": [],
      "stateMutability": "nonpayable",
      "type": "function"
    },
    {
      "inputs": [],
      "name": "worker",
      "outputs": [
        {
          "internalType": "address payable",
          "name": "",
          "type": "address"
        }
      ],
      "stateMutability": "view",
      "type": "function"
    },
    {
      "stateMutability": "payable",
      "type": "receive"
    }
  ],
  "bytecode": "0x60c06040523480156200001157600080fd5b5060405162001ab838038062001ab8833981016040819052620000349162000106565b6004899055600088905560058790556008869055600180546001600160a01b038088166001600160a01b0319928316179092556002805487841690831617905560038054928616929091169190911790556001600160601b0319606083811b821660805282901b1660a0526040517f1f3edb4d58a0796934b2fca1e84cec8a42269dc76c56c22b4489a77205ed6bcf90620000d2908b815260200190565b60405180910390a15050505050505050506200019c565b80516001600160a01b03811681146200010157600080fd5b919050565b60008060008060008060008060006101208a8c03121562000125578485fd5b8951985060208a0151975060408a0151965060608a015195506200014c60808b01620000e9565b94506200015c60a08b01620000e9565b93506200016c60c08b01620000e9565b92506200017c60e08b01620000e9565b91506200018d6101008b01620000e9565b90509295985092959850929598565b60805160601c60a05160601c6118bf620001f9600039600081816103a40152818161154101526115dd015260008181610421015281816105e301528181610c4601528181610d2f01528181610fea015261118a01526118bf6000f3fe6080604052600436106101855760003560e01c8063a77945b4116100d1578063d295ef5c1161008a578063f3d86e4a11610064578063f3d86e4a14610590578063f409abcb146105a6578063f6faa747146105bb578063fe25e00a146105d157600080fd5b8063d295ef5c14610545578063d5c4034e1461055a578063ddca3f431461057a57600080fd5b8063a77945b4146104b1578063ae200e79146104c6578063b07c7475146104e6578063b3f00674146104fb578063be7205241461051b578063c72331fe1461053057600080fd5b80632eb81e1c1161013e578063897399ae11610118578063897399ae146104525780639b732350146104725780639b789b7e14610487578063a758757d1461049c57600080fd5b80632eb81e1c146103925780634d547ada146103c65780635a9b0b89146103e657600080fd5b8063021a0b7d146102c257806313faede6146102eb5780631776b75614610301578063200d2ed21461031657806329dcb0cf146103445780632cba90c71461035a57600080fd5b366102bd576000670de0b6b3a76400006000546005546101a59190611813565b6101af91906117f3565b9050806005546101bf91906117db565b3410156102135760405162461bcd60e51b815260206004820152601e60248201527f576f726b51756573743a20496e73756666696369656e7420616d6f756e74000060448201526064015b60405180910390fd5b6007805460ff60a01b1916600160a01b1790556005546102349082906117db565b34111561026957610269816005543461024d9190611832565b6102579190611832565b6003546001600160a01b031690610605565b60015461027f906001600160a01b031682610605565b7fa8142743f8f70a4c26f3691cf4ed59718381fb2f18070ec52be1f1022d8555576005546040516102b291815260200190565b60405180910390a150005b600080fd5b3480156102ce57600080fd5b506102d860095481565b6040519081526020015b60405180910390f35b3480156102f757600080fd5b506102d860055481565b61031461030f3660046116ac565b610723565b005b34801561032257600080fd5b5060075461033790600160a01b900460ff1681565b6040516102e29190611774565b34801561035057600080fd5b506102d860085481565b34801561036657600080fd5b5060025461037a906001600160a01b031681565b6040516001600160a01b0390911681526020016102e2565b34801561039e57600080fd5b5061037a7f000000000000000000000000000000000000000000000000000000000000000081565b3480156103d257600080fd5b5060075461037a906001600160a01b031681565b3480156103f257600080fd5b506004546005546006546003546007546008546040516102e2969594936001600160a01b0390811693908116927f000000000000000000000000000000000000000000000000000000000000000092600160a01b90920460ff169161171f565b34801561045e57600080fd5b5061031461046d36600461165e565b610932565b34801561047e57600080fd5b50610314610a60565b34801561049357600080fd5b50610314610b80565b3480156104a857600080fd5b50610314610c3b565b3480156104bd57600080fd5b50610314610d24565b3480156104d257600080fd5b5060035461037a906001600160a01b031681565b3480156104f257600080fd5b50610314610e4b565b34801561050757600080fd5b5060015461037a906001600160a01b031681565b34801561052757600080fd5b50610314610f21565b34801561053c57600080fd5b50610314610fdf565b34801561055157600080fd5b506103146110c0565b34801561056657600080fd5b506103146105753660046116cd565b61117f565b34801561058657600080fd5b506102d860005481565b34801561059c57600080fd5b506102d860065481565b3480156105b257600080fd5b506103146112d3565b3480156105c757600080fd5b506102d860045481565b3480156105dd57600080fd5b5061037a7f000000000000000000000000000000000000000000000000000000000000000081565b804710156106555760405162461bcd60e51b815260206004820152601d60248201527f416464726573733a20696e73756666696369656e742062616c616e6365000000604482015260640161020a565b6000826001600160a01b03168260405160006040518083038185875af1925050503d80600081146106a2576040519150601f19603f3d011682016040523d82523d6000602084013e6106a7565b606091505b505090508061071e5760405162461bcd60e51b815260206004820152603a60248201527f416464726573733a20756e61626c6520746f2073656e642076616c75652c207260448201527f6563697069656e74206d61792068617665207265766572746564000000000000606482015260840161020a565b505050565b6001600754600160a01b900460ff16600681111561075157634e487b7160e01b600052602160045260246000fd5b14801561076857506003546001600160a01b031633145b6040518060600160405280602a8152602001611860602a91399061079f5760405162461bcd60e51b815260040161020a9190611788565b5060048290556005548111156108d5576000670de0b6b3a7640000600054600554846107cb9190611832565b6107d59190611813565b6107df91906117f3565b9050600554826107ef9190611832565b34101561083e5760405162461bcd60e51b815260206004820152601e60248201527f576f726b51756573743a20496e73756666696369656e7420616d6f756e740000604482015260640161020a565b60055461084b9083611832565b341115610879576108798282600554346108659190611832565b61086f9190611832565b61025791906117db565b61089c6005548361088a9190611832565b6001546001600160a01b031690610605565b6040513481527fa8142743f8f70a4c26f3691cf4ed59718381fb2f18070ec52be1f1022d8555579060200160405180910390a1506108f0565b6005548110156108f0576108f0816005546102579190611832565b600581905560408051838152602081018390527f99c1b6b4fbf4ca9b81e8d02685672ce9c005abc4f4cda8dbbdd42b8d7862527c910160405180910390a15050565b6003546001600160a01b03163314801561097757506001600754600160a01b900460ff16600681111561097557634e487b7160e01b600052602160045260246000fd5b145b6040518060600160405280602a8152602001611860602a9139906109ae5760405162461bcd60e51b815260040161020a9190611788565b506001600160a01b038116610a055760405162461bcd60e51b815260206004820152601a60248201527f576f726b51756573743a20496e76616c69642061646472657373000000000000604482015260640161020a565b600780546001600160a01b0383166001600160a81b03199091168117600160a11b179091556040519081527f3c8974307e4abad0239998f9dc76add6b783cd52bf1337e9871763ce00f0e94b9060200160405180910390a150565b6003546001600160a01b031633148015610aa557506004600754600160a01b900460ff166006811115610aa357634e487b7160e01b600052602160045260246000fd5b145b80610b0a57506007546001600160a01b031633148015610af057506004600754600160a01b900460ff166006811115610aee57634e487b7160e01b600052602160045260246000fd5b145b8015610b0a5750600954610b07906203f4806117db565b42115b6040518060600160405280602a8152602001611860602a913990610b415760405162461bcd60e51b815260040161020a9190611788565b506007805460ff60a01b1916600560a01b1790556040517f131074782b6ce325b67d3adcf196c9460c96c7006cc8b0db5f06168497d6aeea90600090a1565b6007546001600160a01b031633148015610bc557506002600754600160a01b900460ff166006811115610bc357634e487b7160e01b600052602160045260246000fd5b145b6040518060600160405280602a8152602001611860602a913990610bfc5760405162461bcd60e51b815260040161020a9190611788565b506007805460ff60a01b1916600360a01b1790556040517f09c75d41aa3ec09c07382b19acbb564b6194701c275a1e84c265b13c096bddc690600090a1565b336001600160a01b037f000000000000000000000000000000000000000000000000000000000000000016148015610c9e57506005600754600160a01b900460ff166006811115610c9c57634e487b7160e01b600052602160045260246000fd5b145b6040518060600160405280602a8152602001611860602a913990610cd55760405162461bcd60e51b815260040161020a9190611788565b50610ce3426203f4806117db565b6008556007805460ff60a01b1916600360a01b1790556040517f449b7a58002dc78283b0936b451b2258380908c80a671d05cbfc6d5d73e7e84890600090a1565b336001600160a01b037f000000000000000000000000000000000000000000000000000000000000000016148015610d8757506005600754600160a01b900460ff166006811115610d8557634e487b7160e01b600052602160045260246000fd5b145b6040518060600160405280602a8152602001611860602a913990610dbe5760405162461bcd60e51b815260040161020a9190611788565b506007805460ff60a01b1916600360a11b17905560008054600554670de0b6b3a764000091610dec91611813565b610df691906117f3565b9050610e09816005546102579190611832565b600154610e1f906001600160a01b031682610605565b6040517f517141fd66568d7da9d3afa22dbb1526b725c23ac9cf2d87afcdda39f43d244690600090a150565b6001600754600160a01b900460ff166006811115610e7957634e487b7160e01b600052602160045260246000fd5b148015610e9057506003546001600160a01b031633145b6040518060600160405280602a8152602001611860602a913990610ec75760405162461bcd60e51b815260040161020a9190611788565b506007805460ff60a01b1916600360a11b179055600554600354610ef6916001600160a01b0390911690610605565b6040517f1a7b868a3587950cf797c54b284b8c24e1ed007035e305719a6cbdd34b0ea1a890600090a1565b6007546001600160a01b031633148015610f6657506002600754600160a01b900460ff166006811115610f6457634e487b7160e01b600052602160045260246000fd5b145b6040518060600160405280602a8152602001611860602a913990610f9d5760405162461bcd60e51b815260040161020a9190611788565b50600780546001600160a81b031916600160a01b1790556040517fbb5ffab343ed4caa081410d144b5a3ce6b60f32914c0ed3630624d09f980adfb90600090a1565b336001600160a01b037f00000000000000000000000000000000000000000000000000000000000000001614801561104257506005600754600160a01b900460ff16600681111561104057634e487b7160e01b600052602160045260246000fd5b145b6040518060600160405280602a8152602001611860602a9139906110795760405162461bcd60e51b815260040161020a9190611788565b506007805460ff60a01b1916600360a11b179055611095611396565b6040517fd3690046db46e1a0fc4d2e65f824e35d9171c12fd0aabab5d3d76841e1d8b1f790600090a1565b6007546001600160a01b03163314801561110557506003600754600160a01b900460ff16600681111561110357634e487b7160e01b600052602160045260246000fd5b145b6040518060600160405280602a8152602001611860602a91399061113c5760405162461bcd60e51b815260040161020a9190611788565b506007805460ff60a01b1916600160a21b179055426009556040517f3c350d18e479f5682191b9cdb4cdfa755c912f69d2d5ab94d910df38dec36a7290600090a1565b336001600160a01b037f0000000000000000000000000000000000000000000000000000000000000000161480156111e257506005600754600160a01b900460ff1660068111156111e057634e487b7160e01b600052602160045260246000fd5b145b6040518060600160405280602a8152602001611860602a9139906112195760405162461bcd60e51b815260040161020a9190611788565b506005548111156112875760405162461bcd60e51b815260206004820152603260248201527f576f726b51756573743a20666f7266656974206d757374206265206c65617374604482015271081bdc88195c5d585b081a9bd88818dbdcdd60721b606482015260840161020a565b6007805460ff60a01b1916600360a11b17905560068190556112a7611396565b6040517f520a8af2b3599291fb6be141ac83424cf1e51e71ca7fc767716248ae66c6aa5c90600090a150565b6003546001600160a01b03163314801561131857506004600754600160a01b900460ff16600681111561131657634e487b7160e01b600052602160045260246000fd5b145b6040518060600160405280602a8152602001611860602a91399061134f5760405162461bcd60e51b815260040161020a9190611788565b506007805460ff60a01b1916600360a11b17905561136b611396565b6040517ffe17fb508799412c4bf2b124b8292bcc9ca4ff8ab8ec830110fbcb1ae5cb312590600090a1565b60006006546005546113a89190611832565b90506000670de0b6b3a7640000600054836113c39190611813565b6113cd91906117f3565b600254600754604051631711922960e31b81526001600160a01b03918216600482015292935060009291169063b88c91489060240160206040518083038186803b15801561141a57600080fd5b505afa15801561142e573d6000803e3d6000fd5b505050506040513d601f19601f8201168201806040525081019061145291906116e5565b90506000670de0b6b3a76400006114698386611813565b61147391906117f3565b905061149f816114838587611832565b61148d9190611832565b6007546001600160a01b031690610605565b8115611509576002546007546040516373e888fd60e01b81526001600160a01b0391821660048201529116906373e888fd9083906024016000604051808303818588803b1580156114ef57600080fd5b505af1158015611503573d6000803e3d6000fd5b50505050505b6006541561152c5760065460035461152c916001600160a01b0390911690610605565b60405163d72733c960e01b81523360048201527f00000000000000000000000000000000000000000000000000000000000000006001600160a01b03169063d72733c99060240160206040518083038186803b15801561158b57600080fd5b505afa15801561159f573d6000803e3d6000fd5b505050506040513d601f19601f820116820180604052508101906115c3919061168c565b156116425760405163d33e81a160e01b81523360048201527f00000000000000000000000000000000000000000000000000000000000000006001600160a01b03169063d33e81a190602401600060405180830381600087803b15801561162957600080fd5b505af115801561163d573d6000803e3d6000fd5b505050505b600154611658906001600160a01b031684610605565b50505050565b60006020828403121561166f578081fd5b81356001600160a01b0381168114611685578182fd5b9392505050565b60006020828403121561169d578081fd5b81518015158114611685578182fd5b600080604083850312156116be578081fd5b50508035926020909101359150565b6000602082840312156116de578081fd5b5035919050565b6000602082840312156116f6578081fd5b5051919050565b6007811061171b57634e487b7160e01b600052602160045260246000fd5b9052565b88815260208101889052604081018790526001600160a01b0386811660608301528581166080830152841660a0820152610100810161176160c08301856116fd565b8260e08301529998505050505050505050565b6020810161178282846116fd565b92915050565b6000602080835283518082850152825b818110156117b457858101830151858201604001528201611798565b818111156117c55783604083870101525b50601f01601f1916929092016040019392505050565b600082198211156117ee576117ee611849565b500190565b60008261180e57634e487b7160e01b81526012600452602481fd5b500490565b600081600019048311821515161561182d5761182d611849565b500290565b60008282101561184457611844611849565b500390565b634e487b7160e01b600052601160045260246000fdfe576f726b51756573743a204163636573732064656e696564206f7220696e76616c696420737461747573a26469706673582212208a7452aa9bdfff20097f7fe0e6e69b1449988a9817468e189ac859cf81965cbe64736f6c63430008040033",
  "linkReferences": {},
  "deployedLinkReferences": {}
}