{
  "_format": "hh-sol-artifact-1",
  "contractName": "WQSavingProduct",
  "sourceName": "contracts/WQSavingProduct.sol",
  "abi": [
    {
      "inputs": [],
      "stateMutability": "nonpayable",
      "type": "constructor"
    },
    {
      "anonymous": false,
      "inputs": [
        {
          "indexed": false,
          "internalType": "address",
          "name": "previousAdmin",
          "type": "address"
        },
        {
          "indexed": false,
          "internalType": "address",
          "name": "newAdmin",
          "type": "address"
        }
      ],
      "name": "AdminChanged",
      "type": "event"
    },
    {
      "anonymous": false,
      "inputs": [
        {
          "indexed": true,
          "internalType": "address",
          "name": "beacon",
          "type": "address"
        }
      ],
      "name": "BeaconUpgraded",
      "type": "event"
    },
    {
      "anonymous": false,
      "inputs": [
        {
          "indexed": false,
          "internalType": "address",
          "name": "user",
          "type": "address"
        },
        {
          "indexed": false,
          "internalType": "uint256",
          "name": "amount",
          "type": "uint256"
        }
      ],
      "name": "Borrowed",
      "type": "event"
    },
    {
      "anonymous": false,
      "inputs": [
        {
          "indexed": false,
          "internalType": "address",
          "name": "user",
          "type": "address"
        },
        {
          "indexed": false,
          "internalType": "uint256",
          "name": "amount",
          "type": "uint256"
        }
      ],
      "name": "Claimed",
      "type": "event"
    },
    {
      "anonymous": false,
      "inputs": [
        {
          "indexed": false,
          "internalType": "address",
          "name": "user",
          "type": "address"
        },
        {
          "indexed": false,
          "internalType": "uint256",
          "name": "amount",
          "type": "uint256"
        }
      ],
      "name": "Received",
      "type": "event"
    },
    {
      "anonymous": false,
      "inputs": [
        {
          "indexed": false,
          "internalType": "address",
          "name": "user",
          "type": "address"
        },
        {
          "indexed": false,
          "internalType": "uint256",
          "name": "amount",
          "type": "uint256"
        }
      ],
      "name": "Refunded",
      "type": "event"
    },
    {
      "anonymous": false,
      "inputs": [
        {
          "indexed": true,
          "internalType": "bytes32",
          "name": "role",
          "type": "bytes32"
        },
        {
          "indexed": true,
          "internalType": "bytes32",
          "name": "previousAdminRole",
          "type": "bytes32"
        },
        {
          "indexed": true,
          "internalType": "bytes32",
          "name": "newAdminRole",
          "type": "bytes32"
        }
      ],
      "name": "RoleAdminChanged",
      "type": "event"
    },
    {
      "anonymous": false,
      "inputs": [
        {
          "indexed": true,
          "internalType": "bytes32",
          "name": "role",
          "type": "bytes32"
        },
        {
          "indexed": true,
          "internalType": "address",
          "name": "account",
          "type": "address"
        },
        {
          "indexed": true,
          "internalType": "address",
          "name": "sender",
          "type": "address"
        }
      ],
      "name": "RoleGranted",
      "type": "event"
    },
    {
      "anonymous": false,
      "inputs": [
        {
          "indexed": true,
          "internalType": "bytes32",
          "name": "role",
          "type": "bytes32"
        },
        {
          "indexed": true,
          "internalType": "address",
          "name": "account",
          "type": "address"
        },
        {
          "indexed": true,
          "internalType": "address",
          "name": "sender",
          "type": "address"
        }
      ],
      "name": "RoleRevoked",
      "type": "event"
    },
    {
      "anonymous": false,
      "inputs": [
        {
          "indexed": true,
          "internalType": "address",
          "name": "implementation",
          "type": "address"
        }
      ],
      "name": "Upgraded",
      "type": "event"
    },
    {
      "anonymous": false,
      "inputs": [
        {
          "indexed": false,
          "internalType": "address",
          "name": "user",
          "type": "address"
        },
        {
          "indexed": false,
          "internalType": "uint256",
          "name": "amount",
          "type": "uint256"
        }
      ],
      "name": "Withdrew",
      "type": "event"
    },
    {
      "inputs": [],
      "name": "ADMIN_ROLE",
      "outputs": [
        {
          "internalType": "bytes32",
          "name": "",
          "type": "bytes32"
        }
      ],
      "stateMutability": "view",
      "type": "function"
    },
    {
      "inputs": [],
      "name": "BORROWER_ROLE",
      "outputs": [
        {
          "internalType": "bytes32",
          "name": "",
          "type": "bytes32"
        }
      ],
      "stateMutability": "view",
      "type": "function"
    },
    {
      "inputs": [],
      "name": "DEFAULT_ADMIN_ROLE",
      "outputs": [
        {
          "internalType": "bytes32",
          "name": "",
          "type": "bytes32"
        }
      ],
      "stateMutability": "view",
      "type": "function"
    },
    {
      "inputs": [],
      "name": "UPGRADER_ROLE",
      "outputs": [
        {
          "internalType": "bytes32",
          "name": "",
          "type": "bytes32"
        }
      ],
      "stateMutability": "view",
      "type": "function"
    },
    {
      "inputs": [
        {
          "internalType": "uint256",
          "name": "",
          "type": "uint256"
        }
      ],
      "name": "apys",
      "outputs": [
        {
          "internalType": "uint256",
          "name": "",
          "type": "uint256"
        }
      ],
      "stateMutability": "view",
      "type": "function"
    },
    {
      "inputs": [],
      "name": "balanceOf",
      "outputs": [
        {
          "internalType": "uint256",
          "name": "",
          "type": "uint256"
        }
      ],
      "stateMutability": "view",
      "type": "function"
    },
    {
      "inputs": [
        {
          "internalType": "uint256",
          "name": "amount",
          "type": "uint256"
        }
      ],
      "name": "borrow",
      "outputs": [],
      "stateMutability": "nonpayable",
      "type": "function"
    },
    {
      "inputs": [],
      "name": "borrowed",
      "outputs": [
        {
          "internalType": "uint256",
          "name": "",
          "type": "uint256"
        }
      ],
      "stateMutability": "view",
      "type": "function"
    },
    {
      "inputs": [],
      "name": "claim",
      "outputs": [],
      "stateMutability": "nonpayable",
      "type": "function"
    },
    {
      "inputs": [],
      "name": "contributed",
      "outputs": [
        {
          "internalType": "uint256",
          "name": "",
          "type": "uint256"
        }
      ],
      "stateMutability": "view",
      "type": "function"
    },
    {
      "inputs": [
        {
          "internalType": "uint256",
          "name": "lockTime",
          "type": "uint256"
        }
      ],
      "name": "deposit",
      "outputs": [],
      "stateMutability": "payable",
      "type": "function"
    },
    {
      "inputs": [
        {
          "internalType": "bytes32",
          "name": "role",
          "type": "bytes32"
        }
      ],
      "name": "getRoleAdmin",
      "outputs": [
        {
          "internalType": "bytes32",
          "name": "",
          "type": "bytes32"
        }
      ],
      "stateMutability": "view",
      "type": "function"
    },
    {
      "inputs": [
        {
          "internalType": "bytes32",
          "name": "role",
          "type": "bytes32"
        },
        {
          "internalType": "address",
          "name": "account",
          "type": "address"
        }
      ],
      "name": "grantRole",
      "outputs": [],
      "stateMutability": "nonpayable",
      "type": "function"
    },
    {
      "inputs": [
        {
          "internalType": "bytes32",
          "name": "role",
          "type": "bytes32"
        },
        {
          "internalType": "address",
          "name": "account",
          "type": "address"
        }
      ],
      "name": "hasRole",
      "outputs": [
        {
          "internalType": "bool",
          "name": "",
          "type": "bool"
        }
      ],
      "stateMutability": "view",
      "type": "function"
    },
    {
      "inputs": [],
      "name": "initialize",
      "outputs": [],
      "stateMutability": "nonpayable",
      "type": "function"
    },
    {
      "inputs": [
        {
          "internalType": "uint256",
          "name": "amount",
          "type": "uint256"
        },
        {
          "internalType": "uint256",
          "name": "duration",
          "type": "uint256"
        }
      ],
      "name": "refund",
      "outputs": [],
      "stateMutability": "payable",
      "type": "function"
    },
    {
      "inputs": [
        {
          "internalType": "bytes32",
          "name": "role",
          "type": "bytes32"
        },
        {
          "internalType": "address",
          "name": "account",
          "type": "address"
        }
      ],
      "name": "renounceRole",
      "outputs": [],
      "stateMutability": "nonpayable",
      "type": "function"
    },
    {
      "inputs": [
        {
          "internalType": "bytes32",
          "name": "role",
          "type": "bytes32"
        },
        {
          "internalType": "address",
          "name": "account",
          "type": "address"
        }
      ],
      "name": "revokeRole",
      "outputs": [],
      "stateMutability": "nonpayable",
      "type": "function"
    },
    {
      "inputs": [],
      "name": "rewardsDistributed",
      "outputs": [
        {
          "internalType": "uint256",
          "name": "",
          "type": "uint256"
        }
      ],
      "stateMutability": "view",
      "type": "function"
    },
    {
      "inputs": [],
      "name": "rewardsPerContributed",
      "outputs": [
        {
          "internalType": "uint256",
          "name": "",
          "type": "uint256"
        }
      ],
      "stateMutability": "view",
      "type": "function"
    },
    {
      "inputs": [],
      "name": "rewardsProduced",
      "outputs": [
        {
          "internalType": "uint256",
          "name": "",
          "type": "uint256"
        }
      ],
      "stateMutability": "view",
      "type": "function"
    },
    {
      "inputs": [
        {
          "internalType": "uint256",
          "name": "duration",
          "type": "uint256"
        },
        {
          "internalType": "uint256",
          "name": "apy",
          "type": "uint256"
        }
      ],
      "name": "setApy",
      "outputs": [],
      "stateMutability": "nonpayable",
      "type": "function"
    },
    {
      "inputs": [
        {
          "internalType": "bytes4",
          "name": "interfaceId",
          "type": "bytes4"
        }
      ],
      "name": "supportsInterface",
      "outputs": [
        {
          "internalType": "bool",
          "name": "",
          "type": "bool"
        }
      ],
      "stateMutability": "view",
      "type": "function"
    },
    {
      "inputs": [
        {
          "internalType": "address",
          "name": "newImplementation",
          "type": "address"
        }
      ],
      "name": "upgradeTo",
      "outputs": [],
      "stateMutability": "nonpayable",
      "type": "function"
    },
    {
      "inputs": [
        {
          "internalType": "address",
          "name": "newImplementation",
          "type": "address"
        },
        {
          "internalType": "bytes",
          "name": "data",
          "type": "bytes"
        }
      ],
      "name": "upgradeToAndCall",
      "outputs": [],
      "stateMutability": "payable",
      "type": "function"
    },
    {
      "inputs": [
        {
          "internalType": "address",
          "name": "",
          "type": "address"
        }
      ],
      "name": "wallets",
      "outputs": [
        {
          "internalType": "uint256",
          "name": "amount",
          "type": "uint256"
        },
        {
          "internalType": "uint256",
          "name": "rewardAllowed",
          "type": "uint256"
        },
        {
          "internalType": "uint256",
          "name": "rewardDebt",
          "type": "uint256"
        },
        {
          "internalType": "uint256",
          "name": "rewardDistributed",
          "type": "uint256"
        },
        {
          "internalType": "uint256",
          "name": "unlockDate",
          "type": "uint256"
        }
      ],
      "stateMutability": "view",
      "type": "function"
    },
    {
      "inputs": [
        {
          "internalType": "uint256",
          "name": "amount",
          "type": "uint256"
        }
      ],
      "name": "withdraw",
      "outputs": [],
      "stateMutability": "nonpayable",
      "type": "function"
    }
  ],
  "bytecode": "0x60a06040523060601b60805234801561001757600080fd5b50600054610100900460ff1680610031575060005460ff16155b6100985760405162461bcd60e51b815260206004820152602e60248201527f496e697469616c697a61626c653a20636f6e747261637420697320616c72656160448201526d191e481a5b9a5d1a585b1a5e995960921b606482015260840160405180910390fd5b600054610100900460ff161580156100ba576000805461ffff19166101011790555b80156100cc576000805461ff00191690555b5060805160601c611f74610100600039600081816107c801528181610808015281816109a601526109e60152611f746000f3fe60806040526004361061019c5760003560e01c806369609c42116100ec5780639c1454d41161008a578063c5ebeaec11610064578063c5ebeaec146104ad578063d547741f146104cd578063daf8bc10146104ed578063f72c0d8b1461050d57600080fd5b80639c1454d41461046e578063a217fddf14610485578063b6b55f251461049a57600080fd5b80638129fc1c116100c65780638129fc1c1461039857806381ce1c23146103ad57806389b08f11146103db57806391d148541461044e57600080fd5b806369609c421461034a578063722713f71461036157806375b238fc1461037657600080fd5b806336568abe116101595780634e71d92d116101335780634e71d92d146102f85780634f1ef2861461030d57806353b96657146103205780635af36e3e1461033757600080fd5b806336568abe146102a15780633659cfe6146102c157806344c56e59146102e157600080fd5b806301ffc9a7146101a15780630e7b949e146101d6578063112f190714610218578063248a9ca31461022f5780632e1a7d4d1461025f5780632f2ff15d14610281575b600080fd5b3480156101ad57600080fd5b506101c16101bc366004611bcc565b61052f565b60405190151581526020015b60405180910390f35b3480156101e257600080fd5b5061020a7f2344277e405079ec07749d374ba0b5862a4e45a6a05ac889dbb4a991c6f9354d81565b6040519081526020016101cd565b34801561022457600080fd5b5061020a61012d5481565b34801561023b57600080fd5b5061020a61024a366004611b89565b60009081526065602052604090206001015490565b34801561026b57600080fd5b5061027f61027a366004611b89565b610566565b005b34801561028d57600080fd5b5061027f61029c366004611ba1565b610714565b3480156102ad57600080fd5b5061027f6102bc366004611ba1565b61073f565b3480156102cd57600080fd5b5061027f6102dc366004611ab2565b6107bd565b3480156102ed57600080fd5b5061020a61012f5481565b34801561030457600080fd5b5061027f610886565b61027f61031b366004611acc565b61099b565b34801561032c57600080fd5b5061020a61012e5481565b61027f610345366004611bf4565b610a51565b34801561035657600080fd5b5061020a6101315481565b34801561036d57600080fd5b5061020a610c5c565b34801561038257600080fd5b5061020a600080516020611f1f83398151915281565b3480156103a457600080fd5b5061027f610c75565b3480156103b957600080fd5b5061020a6103c8366004611b89565b6101326020526000908152604090205481565b3480156103e757600080fd5b506104266103f6366004611ab2565b61013360205260009081526040902080546001820154600283015460038401546004909401549293919290919085565b604080519586526020860194909452928401919091526060830152608082015260a0016101cd565b34801561045a57600080fd5b506101c1610469366004611ba1565b610d59565b34801561047a57600080fd5b5061020a6101305481565b34801561049157600080fd5b5061020a600081565b61027f6104a8366004611b89565b610d84565b3480156104b957600080fd5b5061027f6104c8366004611b89565b610ee1565b3480156104d957600080fd5b5061027f6104e8366004611ba1565b610ffa565b3480156104f957600080fd5b5061027f610508366004611bf4565b611020565b34801561051957600080fd5b5061020a600080516020611ed883398151915281565b60006001600160e01b03198216637965db0b60e01b148061056057506301ffc9a760e01b6001600160e01b03198316145b92915050565b600260975414156105925760405162461bcd60e51b815260040161058990611dbf565b60405180910390fd5b60026097553360009081526101336020526040902060048101544210156106075760405162461bcd60e51b8152602060048201526024808201527f57514465706f7369743a204c6f636b2074696d65206973206e6f74206f766572604482015263081e595d60e21b6064820152608401610589565b80548211156106585760405162461bcd60e51b815260206004820152601c60248201527f57514465706f7369743a20416d6f756e7420697320696e76616c6964000000006044820152606401610589565b68056bc75e2d6310000061012e54836106719190611e2e565b61067b9190611e0e565b81600101600082825461068e9190611df6565b90915550508054829082906000906106a7908490611e4d565b925050819055508161012d60008282546106c19190611e4d565b909155506106d19050338361104d565b60408051338152602081018490527fb244b9a17ad633c6e83b7983ee04320484956a68ddbe96a0b70dfca1cf19d72391015b60405180910390a150506001609755565b6000828152606560205260409020600101546107308133611166565b61073a83836111ca565b505050565b6001600160a01b03811633146107af5760405162461bcd60e51b815260206004820152602f60248201527f416363657373436f6e74726f6c3a2063616e206f6e6c792072656e6f756e636560448201526e103937b632b9903337b91039b2b63360891b6064820152608401610589565b6107b98282611250565b5050565b306001600160a01b037f00000000000000000000000000000000000000000000000000000000000000001614156108065760405162461bcd60e51b815260040161058990611cd9565b7f00000000000000000000000000000000000000000000000000000000000000006001600160a01b03166108386112b7565b6001600160a01b03161461085e5760405162461bcd60e51b815260040161058990611d25565b610867816112e5565b60408051600080825260208201909252610883918391906112fe565b50565b600260975414156108a95760405162461bcd60e51b815260040161058990611dbf565b60026097553360009081526101336020526040902060048101544210156108cf57600080fd5b600081600201548260030154836001015468056bc75e2d6310000061012e5486600001546108fd9190611e2e565b6109079190611e0e565b6109119190611df6565b61091b9190611e4d565b6109259190611e4d565b90508082600301600082825461093b9190611df6565b925050819055508061013060008282546109559190611df6565b909155506109659050338261104d565b60408051338152602081018390527fd8138f8a3f377c5259ca548e70e4c2de94f129f5a11036a15b69513cba2b426a9101610703565b306001600160a01b037f00000000000000000000000000000000000000000000000000000000000000001614156109e45760405162461bcd60e51b815260040161058990611cd9565b7f00000000000000000000000000000000000000000000000000000000000000006001600160a01b0316610a166112b7565b6001600160a01b031614610a3c5760405162461bcd60e51b815260040161058990611d25565b610a45826112e5565b6107b9828260016112fe565b60026097541415610a745760405162461bcd60e51b815260040161058990611dbf565b60026097557f2344277e405079ec07749d374ba0b5862a4e45a6a05ac889dbb4a991c6f9354d610aa48133611166565b60008281526101326020526040902054610b0a5760405162461bcd60e51b815260206004820152602160248201527f5751536176696e6750726f647563743a20696e76616c6964206475726174696f6044820152603760f91b6064820152608401610589565b6000828152610132602052604090205434610b258582611e4d565b610b3790670de0b6b3a7640000611e2e565b610b419190611e0e565b1015610b9d5760405162461bcd60e51b815260206004820152602560248201527f5751536176696e6750726f647563743a20496e73756666696369656e74207265604482015264776172647360d81b6064820152608401610589565b826101316000828254610bb09190611e4d565b90915550610bc090508334611e4d565b61012f6000828254610bd29190611df6565b909155505061012d54610be58434611e4d565b610bf89068056bc75e2d63100000611e2e565b610c029190611e0e565b61012e6000828254610c149190611df6565b909155505060408051338152602081018590527fd7dee2702d63ad89917b6a4da9981c90c4d24f8c2bdfd64c604ecae57d8d0651910160405180910390a15050600160975550565b60006101315461012d54610c709190611e4d565b905090565b600054610100900460ff1680610c8e575060005460ff16155b610caa5760405162461bcd60e51b815260040161058990611d71565b600054610100900460ff16158015610ccc576000805461ffff19166101011790555b610cd4611449565b610cdc6114b8565b610ce4611517565b610cef600033611575565b610d07600080516020611f1f83398151915233611575565b610d1f600080516020611ed883398151915233611575565b610d45600080516020611ed8833981519152600080516020611f1f83398151915261157f565b8015610883576000805461ff001916905550565b60009182526065602090815260408084206001600160a01b0393909316845291905290205460ff1690565b60026097541415610da75760405162461bcd60e51b815260040161058990611dbf565b600260975560008181526101326020526040902054610e085760405162461bcd60e51b815260206004820152601e60248201527f57514465706f7369743a206c6f636b54696d6520697320696e76616c696400006044820152606401610589565b336000908152610133602052604090206004810154610e3e57610e2e8262015180611e2e565b610e389042611df6565b60048201555b68056bc75e2d6310000061012e5434610e579190611e2e565b610e619190611e0e565b816002016000828254610e749190611df6565b9091555050805434908290600090610e8d908490611df6565b925050819055503461012d6000828254610ea79190611df6565b9091555050604080513381523460208201527f88a5966d370b9919b20f3e2c13ff65706f196a4e32cc2c12bf57088f885258749101610703565b60026097541415610f045760405162461bcd60e51b815260040161058990611dbf565b60026097557f2344277e405079ec07749d374ba0b5862a4e45a6a05ac889dbb4a991c6f9354d610f348133611166565b6101315461012d54610f469190611e4d565b821115610fa15760405162461bcd60e51b8152602060048201526024808201527f5751536176696e6750726f647563743a20496e73756666696369656e7420616d6044820152631bdd5b9d60e21b6064820152608401610589565b816101316000828254610fb49190611df6565b90915550610fc49050338361104d565b60408051338152602081018490527fac59582e5396aca512fa873a2047e7f4c80f8f55d4a06cb34a78a0187f62719f9101610703565b6000828152606560205260409020600101546110168133611166565b61073a8383611250565b600080516020611f1f8339815191526110398133611166565b506000918252610132602052604090912055565b8047101561109d5760405162461bcd60e51b815260206004820152601d60248201527f416464726573733a20696e73756666696369656e742062616c616e63650000006044820152606401610589565b6000826001600160a01b03168260405160006040518083038185875af1925050503d80600081146110ea576040519150601f19603f3d011682016040523d82523d6000602084013e6110ef565b606091505b505090508061073a5760405162461bcd60e51b815260206004820152603a60248201527f416464726573733a20756e61626c6520746f2073656e642076616c75652c207260448201527f6563697069656e74206d617920686176652072657665727465640000000000006064820152608401610589565b6111708282610d59565b6107b957611188816001600160a01b031660146115ca565b6111938360206115ca565b6040516020016111a4929190611c31565b60408051601f198184030181529082905262461bcd60e51b825261058991600401611ca6565b6111d48282610d59565b6107b95760008281526065602090815260408083206001600160a01b03851684529091529020805460ff1916600117905561120c3390565b6001600160a01b0316816001600160a01b0316837f2f8788117e7eff1d82e926ec794901d17c78024a50270940304540a733656f0d60405160405180910390a45050565b61125a8282610d59565b156107b95760008281526065602090815260408083206001600160a01b0385168085529252808320805460ff1916905551339285917ff6391f5c32d9c69d2a47ea670b442974b53935d1edc7fd64eb21e047a839171b9190a45050565b7f360894a13ba1a3210667c828492db98dca3e2076cc3735a920a3ca505d382bbc546001600160a01b031690565b600080516020611ed88339815191526107b98133611166565b60006113086112b7565b9050611313846117b3565b6000835111806113205750815b156113315761132f8484611858565b505b7f4910fdfa16fed3260ed0e7147f7cc6da11a60208b5b9406d12a635614ffd9143805460ff1661144257805460ff191660011781556040516001600160a01b03831660248201526113b090869060440160408051601f198184030181529190526020810180516001600160e01b0316631b2ce7f360e11b179052611858565b50805460ff191681556113c16112b7565b6001600160a01b0316826001600160a01b0316146114395760405162461bcd60e51b815260206004820152602f60248201527f45524331393637557067726164653a207570677261646520627265616b73206660448201526e75727468657220757067726164657360881b6064820152608401610589565b61144285611943565b5050505050565b600054610100900460ff1680611462575060005460ff16155b61147e5760405162461bcd60e51b815260040161058990611d71565b600054610100900460ff161580156114a0576000805461ffff19166101011790555b6114a8611983565b6114b0611983565b610d45611983565b600054610100900460ff16806114d1575060005460ff16155b6114ed5760405162461bcd60e51b815260040161058990611d71565b600054610100900460ff1615801561150f576000805461ffff19166101011790555b610d456119ed565b600054610100900460ff1680611530575060005460ff16155b61154c5760405162461bcd60e51b815260040161058990611d71565b600054610100900460ff161580156114a8576000805461ffff19166101011790556114b0611983565b6107b982826111ca565b600082815260656020526040808220600101805490849055905190918391839186917fbd79b86ffe0ab8e8776151514217cd7cacd52c909f66475c3af44e129f0b00ff9190a4505050565b606060006115d9836002611e2e565b6115e4906002611df6565b67ffffffffffffffff81111561160a57634e487b7160e01b600052604160045260246000fd5b6040519080825280601f01601f191660200182016040528015611634576020820181803683370190505b509050600360fc1b8160008151811061165d57634e487b7160e01b600052603260045260246000fd5b60200101906001600160f81b031916908160001a905350600f60fb1b8160018151811061169a57634e487b7160e01b600052603260045260246000fd5b60200101906001600160f81b031916908160001a90535060006116be846002611e2e565b6116c9906001611df6565b90505b600181111561175d576f181899199a1a9b1b9c1cb0b131b232b360811b85600f166010811061170b57634e487b7160e01b600052603260045260246000fd5b1a60f81b82828151811061172f57634e487b7160e01b600052603260045260246000fd5b60200101906001600160f81b031916908160001a90535060049490941c9361175681611e94565b90506116cc565b5083156117ac5760405162461bcd60e51b815260206004820181905260248201527f537472696e67733a20686578206c656e67746820696e73756666696369656e746044820152606401610589565b9392505050565b803b6118175760405162461bcd60e51b815260206004820152602d60248201527f455243313936373a206e657720696d706c656d656e746174696f6e206973206e60448201526c1bdd08184818dbdb9d1c9858dd609a1b6064820152608401610589565b7f360894a13ba1a3210667c828492db98dca3e2076cc3735a920a3ca505d382bbc80546001600160a01b0319166001600160a01b0392909216919091179055565b6060823b6118b75760405162461bcd60e51b815260206004820152602660248201527f416464726573733a2064656c65676174652063616c6c20746f206e6f6e2d636f6044820152651b9d1c9858dd60d21b6064820152608401610589565b600080846001600160a01b0316846040516118d29190611c15565b600060405180830381855af49150503d806000811461190d576040519150601f19603f3d011682016040523d82523d6000602084013e611912565b606091505b509150915061193a8282604051806060016040528060278152602001611ef860279139611a5d565b95945050505050565b61194c816117b3565b6040516001600160a01b038216907fbc7cd75a20ee27fd9adebab32041f755214dbc6bffa90cc0225b39da2e5c2d3b90600090a250565b600054610100900460ff168061199c575060005460ff16155b6119b85760405162461bcd60e51b815260040161058990611d71565b600054610100900460ff16158015610d45576000805461ffff19166101011790558015610883576000805461ff001916905550565b600054610100900460ff1680611a06575060005460ff16155b611a225760405162461bcd60e51b815260040161058990611d71565b600054610100900460ff16158015611a44576000805461ffff19166101011790555b60016097558015610883576000805461ff001916905550565b60608315611a6c5750816117ac565b825115611a7c5782518084602001fd5b8160405162461bcd60e51b81526004016105899190611ca6565b80356001600160a01b0381168114611aad57600080fd5b919050565b600060208284031215611ac3578081fd5b6117ac82611a96565b60008060408385031215611ade578081fd5b611ae783611a96565b9150602083013567ffffffffffffffff80821115611b03578283fd5b818501915085601f830112611b16578283fd5b813581811115611b2857611b28611ec1565b604051601f8201601f19908116603f01168101908382118183101715611b5057611b50611ec1565b81604052828152886020848701011115611b68578586fd5b82602086016020830137856020848301015280955050505050509250929050565b600060208284031215611b9a578081fd5b5035919050565b60008060408385031215611bb3578182fd5b82359150611bc360208401611a96565b90509250929050565b600060208284031215611bdd578081fd5b81356001600160e01b0319811681146117ac578182fd5b60008060408385031215611c06578182fd5b50508035926020909101359150565b60008251611c27818460208701611e64565b9190910192915050565b7f416363657373436f6e74726f6c3a206163636f756e7420000000000000000000815260008351611c69816017850160208801611e64565b7001034b99036b4b9b9b4b733903937b6329607d1b6017918401918201528351611c9a816028840160208801611e64565b01602801949350505050565b6020815260008251806020840152611cc5816040850160208701611e64565b601f01601f19169190910160400192915050565b6020808252602c908201527f46756e6374696f6e206d7573742062652063616c6c6564207468726f7567682060408201526b19195b1959d85d1958d85b1b60a21b606082015260800190565b6020808252602c908201527f46756e6374696f6e206d7573742062652063616c6c6564207468726f7567682060408201526b6163746976652070726f787960a01b606082015260800190565b6020808252602e908201527f496e697469616c697a61626c653a20636f6e747261637420697320616c72656160408201526d191e481a5b9a5d1a585b1a5e995960921b606082015260800190565b6020808252601f908201527f5265656e7472616e637947756172643a207265656e7472616e742063616c6c00604082015260600190565b60008219821115611e0957611e09611eab565b500190565b600082611e2957634e487b7160e01b81526012600452602481fd5b500490565b6000816000190483118215151615611e4857611e48611eab565b500290565b600082821015611e5f57611e5f611eab565b500390565b60005b83811015611e7f578181015183820152602001611e67565b83811115611e8e576000848401525b50505050565b600081611ea357611ea3611eab565b506000190190565b634e487b7160e01b600052601160045260246000fd5b634e487b7160e01b600052604160045260246000fdfe189ab7a9244df0848122154315af71fe140f3db0fe014031783b0946b8c9d2e3416464726573733a206c6f772d6c6576656c2064656c65676174652063616c6c206661696c6564a49807205ce4d355092ef5a8a18f56e8913cf4a201fbe287825b095693c21775a2646970667358221220816e09fc88e07fb0a2081574bd2e446fd80c755bab238bfcf87787cf6dec44cf64736f6c63430008040033",
  "linkReferences": {},
  "deployedLinkReferences": {}
}