{
  "_format": "hh-sol-artifact-1",
  "contractName": "WQBorrowing",
  "sourceName": "contracts/WQBorrowing.sol",
  "abi": [
    {
      "inputs": [],
      "stateMutability": "nonpayable",
      "type": "constructor"
    },
    {
      "anonymous": false,
      "inputs": [
        {
          "indexed": false,
          "internalType": "address",
          "name": "previousAdmin",
          "type": "address"
        },
        {
          "indexed": false,
          "internalType": "address",
          "name": "newAdmin",
          "type": "address"
        }
      ],
      "name": "AdminChanged",
      "type": "event"
    },
    {
      "anonymous": false,
      "inputs": [
        {
          "indexed": true,
          "internalType": "address",
          "name": "beacon",
          "type": "address"
        }
      ],
      "name": "BeaconUpgraded",
      "type": "event"
    },
    {
      "anonymous": false,
      "inputs": [
        {
          "indexed": false,
          "internalType": "uint256",
          "name": "nonce",
          "type": "uint256"
        },
        {
          "indexed": false,
          "internalType": "address",
          "name": "user",
          "type": "address"
        },
        {
          "indexed": false,
          "internalType": "uint256",
          "name": "collateral",
          "type": "uint256"
        },
        {
          "indexed": false,
          "internalType": "uint256",
          "name": "credit",
          "type": "uint256"
        },
        {
          "indexed": false,
          "internalType": "string",
          "name": "symbol",
          "type": "string"
        }
      ],
      "name": "Borrowed",
      "type": "event"
    },
    {
      "anonymous": false,
      "inputs": [
        {
          "indexed": false,
          "internalType": "uint256",
          "name": "nonce",
          "type": "uint256"
        },
        {
          "indexed": false,
          "internalType": "address",
          "name": "user",
          "type": "address"
        },
        {
          "indexed": false,
          "internalType": "uint256",
          "name": "amount",
          "type": "uint256"
        }
      ],
      "name": "Refunded",
      "type": "event"
    },
    {
      "anonymous": false,
      "inputs": [
        {
          "indexed": true,
          "internalType": "bytes32",
          "name": "role",
          "type": "bytes32"
        },
        {
          "indexed": true,
          "internalType": "bytes32",
          "name": "previousAdminRole",
          "type": "bytes32"
        },
        {
          "indexed": true,
          "internalType": "bytes32",
          "name": "newAdminRole",
          "type": "bytes32"
        }
      ],
      "name": "RoleAdminChanged",
      "type": "event"
    },
    {
      "anonymous": false,
      "inputs": [
        {
          "indexed": true,
          "internalType": "bytes32",
          "name": "role",
          "type": "bytes32"
        },
        {
          "indexed": true,
          "internalType": "address",
          "name": "account",
          "type": "address"
        },
        {
          "indexed": true,
          "internalType": "address",
          "name": "sender",
          "type": "address"
        }
      ],
      "name": "RoleGranted",
      "type": "event"
    },
    {
      "anonymous": false,
      "inputs": [
        {
          "indexed": true,
          "internalType": "bytes32",
          "name": "role",
          "type": "bytes32"
        },
        {
          "indexed": true,
          "internalType": "address",
          "name": "account",
          "type": "address"
        },
        {
          "indexed": true,
          "internalType": "address",
          "name": "sender",
          "type": "address"
        }
      ],
      "name": "RoleRevoked",
      "type": "event"
    },
    {
      "anonymous": false,
      "inputs": [
        {
          "indexed": true,
          "internalType": "address",
          "name": "implementation",
          "type": "address"
        }
      ],
      "name": "Upgraded",
      "type": "event"
    },
    {
      "inputs": [],
      "name": "ADMIN_ROLE",
      "outputs": [
        {
          "internalType": "bytes32",
          "name": "",
          "type": "bytes32"
        }
      ],
      "stateMutability": "view",
      "type": "function"
    },
    {
      "inputs": [],
      "name": "DEFAULT_ADMIN_ROLE",
      "outputs": [
        {
          "internalType": "bytes32",
          "name": "",
          "type": "bytes32"
        }
      ],
      "stateMutability": "view",
      "type": "function"
    },
    {
      "inputs": [],
      "name": "UPGRADER_ROLE",
      "outputs": [
        {
          "internalType": "bytes32",
          "name": "",
          "type": "bytes32"
        }
      ],
      "stateMutability": "view",
      "type": "function"
    },
    {
      "inputs": [],
      "name": "YEAR",
      "outputs": [
        {
          "internalType": "uint256",
          "name": "",
          "type": "uint256"
        }
      ],
      "stateMutability": "view",
      "type": "function"
    },
    {
      "inputs": [
        {
          "internalType": "contract WQFundInterface",
          "name": "fund",
          "type": "address"
        }
      ],
      "name": "addFund",
      "outputs": [],
      "stateMutability": "nonpayable",
      "type": "function"
    },
    {
      "inputs": [
        {
          "internalType": "uint256",
          "name": "",
          "type": "uint256"
        }
      ],
      "name": "apys",
      "outputs": [
        {
          "internalType": "uint256",
          "name": "",
          "type": "uint256"
        }
      ],
      "stateMutability": "view",
      "type": "function"
    },
    {
      "inputs": [
        {
          "internalType": "uint256",
          "name": "nonce",
          "type": "uint256"
        },
        {
          "internalType": "uint256",
          "name": "collateralAmount",
          "type": "uint256"
        },
        {
          "internalType": "uint256",
          "name": "fundIndex",
          "type": "uint256"
        },
        {
          "internalType": "uint256",
          "name": "duration",
          "type": "uint256"
        },
        {
          "internalType": "string",
          "name": "symbol",
          "type": "string"
        }
      ],
      "name": "borrow",
      "outputs": [],
      "stateMutability": "nonpayable",
      "type": "function"
    },
    {
      "inputs": [
        {
          "internalType": "address",
          "name": "",
          "type": "address"
        }
      ],
      "name": "borrowers",
      "outputs": [
        {
          "internalType": "uint256",
          "name": "collateral",
          "type": "uint256"
        },
        {
          "internalType": "uint256",
          "name": "credit",
          "type": "uint256"
        },
        {
          "internalType": "uint256",
          "name": "borrowedAt",
          "type": "uint256"
        },
        {
          "internalType": "uint256",
          "name": "duration",
          "type": "uint256"
        },
        {
          "internalType": "uint256",
          "name": "apy",
          "type": "uint256"
        },
        {
          "internalType": "contract WQFundInterface",
          "name": "fund",
          "type": "address"
        },
        {
          "internalType": "string",
          "name": "symbol",
          "type": "string"
        }
      ],
      "stateMutability": "view",
      "type": "function"
    },
    {
      "inputs": [],
      "name": "fixedRate",
      "outputs": [
        {
          "internalType": "uint256",
          "name": "",
          "type": "uint256"
        }
      ],
      "stateMutability": "view",
      "type": "function"
    },
    {
      "inputs": [
        {
          "internalType": "uint256",
          "name": "",
          "type": "uint256"
        }
      ],
      "name": "funds",
      "outputs": [
        {
          "internalType": "contract WQFundInterface",
          "name": "",
          "type": "address"
        }
      ],
      "stateMutability": "view",
      "type": "function"
    },
    {
      "inputs": [],
      "name": "getFunds",
      "outputs": [
        {
          "internalType": "contract WQFundInterface[]",
          "name": "funds_",
          "type": "address[]"
        }
      ],
      "stateMutability": "view",
      "type": "function"
    },
    {
      "inputs": [
        {
          "internalType": "bytes32",
          "name": "role",
          "type": "bytes32"
        }
      ],
      "name": "getRoleAdmin",
      "outputs": [
        {
          "internalType": "bytes32",
          "name": "",
          "type": "bytes32"
        }
      ],
      "stateMutability": "view",
      "type": "function"
    },
    {
      "inputs": [
        {
          "internalType": "bytes32",
          "name": "role",
          "type": "bytes32"
        },
        {
          "internalType": "address",
          "name": "account",
          "type": "address"
        }
      ],
      "name": "grantRole",
      "outputs": [],
      "stateMutability": "nonpayable",
      "type": "function"
    },
    {
      "inputs": [
        {
          "internalType": "bytes32",
          "name": "role",
          "type": "bytes32"
        },
        {
          "internalType": "address",
          "name": "account",
          "type": "address"
        }
      ],
      "name": "hasRole",
      "outputs": [
        {
          "internalType": "bool",
          "name": "",
          "type": "bool"
        }
      ],
      "stateMutability": "view",
      "type": "function"
    },
    {
      "inputs": [
        {
          "internalType": "address",
          "name": "_oracle",
          "type": "address"
        },
        {
          "internalType": "uint256",
          "name": "_fixedRate",
          "type": "uint256"
        }
      ],
      "name": "initialize",
      "outputs": [],
      "stateMutability": "nonpayable",
      "type": "function"
    },
    {
      "inputs": [],
      "name": "oracle",
      "outputs": [
        {
          "internalType": "contract WQPriceOracleInterface",
          "name": "",
          "type": "address"
        }
      ],
      "stateMutability": "view",
      "type": "function"
    },
    {
      "inputs": [],
      "name": "proxiableUUID",
      "outputs": [
        {
          "internalType": "bytes32",
          "name": "",
          "type": "bytes32"
        }
      ],
      "stateMutability": "view",
      "type": "function"
    },
    {
      "inputs": [
        {
          "internalType": "uint256",
          "name": "nonce",
          "type": "uint256"
        },
        {
          "internalType": "uint256",
          "name": "returnAmount",
          "type": "uint256"
        }
      ],
      "name": "refund",
      "outputs": [],
      "stateMutability": "payable",
      "type": "function"
    },
    {
      "inputs": [
        {
          "internalType": "uint256",
          "name": "index",
          "type": "uint256"
        }
      ],
      "name": "removeFund",
      "outputs": [],
      "stateMutability": "nonpayable",
      "type": "function"
    },
    {
      "inputs": [
        {
          "internalType": "bytes32",
          "name": "role",
          "type": "bytes32"
        },
        {
          "internalType": "address",
          "name": "account",
          "type": "address"
        }
      ],
      "name": "renounceRole",
      "outputs": [],
      "stateMutability": "nonpayable",
      "type": "function"
    },
    {
      "inputs": [
        {
          "internalType": "bytes32",
          "name": "role",
          "type": "bytes32"
        },
        {
          "internalType": "address",
          "name": "account",
          "type": "address"
        }
      ],
      "name": "revokeRole",
      "outputs": [],
      "stateMutability": "nonpayable",
      "type": "function"
    },
    {
      "inputs": [
        {
          "internalType": "uint256",
          "name": "duration",
          "type": "uint256"
        },
        {
          "internalType": "uint256",
          "name": "apy",
          "type": "uint256"
        }
      ],
      "name": "setApy",
      "outputs": [],
      "stateMutability": "nonpayable",
      "type": "function"
    },
    {
      "inputs": [
        {
          "internalType": "uint256",
          "name": "_fixedRate",
          "type": "uint256"
        }
      ],
      "name": "setFixedRate",
      "outputs": [],
      "stateMutability": "nonpayable",
      "type": "function"
    },
    {
      "inputs": [
        {
          "internalType": "contract IERC20Upgradeable",
          "name": "token",
          "type": "address"
        },
        {
          "internalType": "string",
          "name": "symbol",
          "type": "string"
        }
      ],
      "name": "setToken",
      "outputs": [],
      "stateMutability": "nonpayable",
      "type": "function"
    },
    {
      "inputs": [
        {
          "internalType": "bytes4",
          "name": "interfaceId",
          "type": "bytes4"
        }
      ],
      "name": "supportsInterface",
      "outputs": [
        {
          "internalType": "bool",
          "name": "",
          "type": "bool"
        }
      ],
      "stateMutability": "view",
      "type": "function"
    },
    {
      "inputs": [
        {
          "internalType": "string",
          "name": "",
          "type": "string"
        }
      ],
      "name": "tokens",
      "outputs": [
        {
          "internalType": "contract IERC20Upgradeable",
          "name": "",
          "type": "address"
        }
      ],
      "stateMutability": "view",
      "type": "function"
    },
    {
      "inputs": [
        {
          "internalType": "uint256",
          "name": "index",
          "type": "uint256"
        },
        {
          "internalType": "contract WQFundInterface",
          "name": "fund",
          "type": "address"
        }
      ],
      "name": "updateFund",
      "outputs": [],
      "stateMutability": "nonpayable",
      "type": "function"
    },
    {
      "inputs": [
        {
          "internalType": "address",
          "name": "newImplementation",
          "type": "address"
        }
      ],
      "name": "upgradeTo",
      "outputs": [],
      "stateMutability": "nonpayable",
      "type": "function"
    },
    {
      "inputs": [
        {
          "internalType": "address",
          "name": "newImplementation",
          "type": "address"
        },
        {
          "internalType": "bytes",
          "name": "data",
          "type": "bytes"
        }
      ],
      "name": "upgradeToAndCall",
      "outputs": [],
      "stateMutability": "payable",
      "type": "function"
    }
  ],
  "bytecode": "0x60a06040523060601b6080523480156200001857600080fd5b50600054610100900460ff16620000365760005460ff161562000040565b62000040620000e5565b620000a85760405162461bcd60e51b815260206004820152602e60248201527f496e697469616c697a61626c653a20636f6e747261637420697320616c72656160448201526d191e481a5b9a5d1a585b1a5e995960921b606482015260840160405180910390fd5b600054610100900460ff16158015620000cb576000805461ffff19166101011790555b8015620000de576000805461ff00191690555b5062000112565b6000620000fd306200010360201b6200186c1760201c565b15905090565b6001600160a01b03163b151590565b60805160601c612d5c6200014d60003960008181610bee01528181610c2e01528181610f2901528181610f690152610ff80152612d5c6000f3fe6080604052600436106101c25760003560e01c806375b238fc116100f7578063a217fddf11610095578063daf8bc1011610064578063daf8bc101461053b578063e9302e091461055b578063f72c0d8b1461057b578063fdad53db1461059d57600080fd5b8063a217fddf146104b3578063bf5d50c4146104c8578063cd6dc687146104fb578063d547741f1461051b57600080fd5b8063802d1422116100d1578063802d14221461043657806381ce1c231461044d578063839145401461047b57806391d148541461049357600080fd5b806375b238fc146103d35780637b8e8895146103f55780637dc0d1d01461041557600080fd5b80633659cfe6116101645780634d9b37351161013e5780634d9b3735146103765780634f1ef2861461039857806352d1902d146103ab5780635af36e3e146103c057600080fd5b80633659cfe6146103165780633af388e01461033657806342569ec31461035657600080fd5b8063248a9ca3116101a0578063248a9ca3146102785780632f2ff15d146102b657806335d99b2a146102d657806336568abe146102f657600080fd5b806301ffc9a7146101c757806304c2320b146101fc57806307dc290a14610256575b600080fd5b3480156101d357600080fd5b506101e76101e2366004612699565b6105bd565b60405190151581526020015b60405180910390f35b34801561020857600080fd5b5061023e610217366004612714565b8051602081830181018051610130825292820191909301209152546001600160a01b031681565b6040516001600160a01b0390911681526020016101f3565b34801561026257600080fd5b50610276610271366004612572565b6105f4565b005b34801561028457600080fd5b506102a861029336600461263a565b60009081526065602052604090206001015490565b6040519081526020016101f3565b3480156102c257600080fd5b506102766102d136600461266a565b610661565b3480156102e257600080fd5b506102766102f136600461277b565b61068c565b34801561030257600080fd5b5061027661031136600461266a565b610b65565b34801561032257600080fd5b50610276610331366004612572565b610be3565b34801561034257600080fd5b5061027661035136600461263a565b610cc3565b34801561036257600080fd5b5061027661037136600461266a565b610dba565b34801561038257600080fd5b5061038b610e29565b6040516101f39190612974565b6102766103a636600461258e565b610f1e565b3480156103b757600080fd5b506102a8610feb565b6102766103ce36600461275a565b61109e565b3480156103df57600080fd5b506102a8600080516020612d0783398151915281565b34801561040157600080fd5b5061023e61041036600461263a565b61151a565b34801561042157600080fd5b5061012d5461023e906001600160a01b031681565b34801561044257600080fd5b506102a861012e5481565b34801561045957600080fd5b506102a861046836600461263a565b61012f6020526000908152604090205481565b34801561048757600080fd5b506102a86301e1338081565b34801561049f57600080fd5b506101e76104ae36600461266a565b611545565b3480156104bf57600080fd5b506102a8600081565b3480156104d457600080fd5b506104e86104e3366004612572565b611570565b6040516101f39796959493929190612b0b565b34801561050757600080fd5b506102766105163660046125ef565b611642565b34801561052757600080fd5b5061027661053636600461266a565b611797565b34801561054757600080fd5b5061027661055636600461275a565b6117bd565b34801561056757600080fd5b5061027661057636600461263a565b6117ea565b34801561058757600080fd5b506102a8600080516020612ca083398151915281565b3480156105a957600080fd5b506102766105b83660046126c1565b61180a565b60006001600160e01b03198216637965db0b60e01b14806105ee57506301ffc9a760e01b6001600160e01b03198316145b92915050565b600080516020612d0783398151915261060d813361187b565b5061013280546001810182556000919091527fc53bdfd4aa1ab65dfdaf681ca6bda958ae4a123d4ed68c4277796592280e78350180546001600160a01b0319166001600160a01b0392909216919091179055565b60008281526065602052604090206001015461067d813361187b565b61068783836118df565b505050565b600260975414156106e45760405162461bcd60e51b815260206004820152601f60248201527f5265656e7472616e637947756172643a207265656e7472616e742063616c6c0060448201526064015b60405180910390fd5b6002609755604051600090610130906107009085908590612854565b908152604051908190036020019020546001600160a01b031614156107815760405162461bcd60e51b815260206004820152603160248201527f5751426f72726f77696e673a205468697320746f6b656e2069732064697361626044820152701b1959081d1bc818dbdb1b185d195c985b607a1b60648201526084016106db565b600083815261012f60205260409020546107dd5760405162461bcd60e51b815260206004820152601d60248201527f5751426f72726f77696e673a20496e76616c6964206475726174696f6e00000060448201526064016106db565b3360009081526101316020526040902080541561084d5760405162461bcd60e51b815260206004820152602860248201527f5751426f72726f77696e673a20596f7520617265206e6f7420726566756e6465604482015267190818dc99591a5d60c21b60648201526084016106db565b61085b600682018484612425565b50858155426002820155600084815261012f6020526040908190205460048084019190915561012d549151630292e0fd60e01b81526729a2241af62c0000926001600160a01b031691630292e0fd916108b89188918891016129c1565b60206040518083038186803b1580156108d057600080fd5b505afa1580156108e4573d6000803e3d6000fd5b505050506040513d601f19601f820116820180604052508101906109089190612652565b6109129088612b8f565b61091d906002612b8f565b6109279190612b6f565b600182015561013280548690811061094f57634e487b7160e01b600052603260045260246000fd5b600091825260209182902001546040805163722713f760e01b815290516001600160a01b039092169263722713f792600480840193829003018186803b15801561099857600080fd5b505afa1580156109ac573d6000803e3d6000fd5b505050506040513d601f19601f820116820180604052508101906109d09190612652565b81600101541115610a345760405162461bcd60e51b815260206004820152602860248201527f5751426f72726f77696e673a20496e73756666696369656e7420616d6f756e74604482015267081a5b88199d5b9960c21b60648201526084016106db565b610a6e3330886101308787604051610a4d929190612854565b908152604051908190036020019020546001600160a01b0316929190611965565b6101328581548110610a9057634e487b7160e01b600052603260045260246000fd5b600091825260209091200154600182015460405163317afabb60e21b81526001600160a01b039092169163c5ebeaec91610ad09160040190815260200190565b600060405180830381600087803b158015610aea57600080fd5b505af1158015610afe573d6000803e3d6000fd5b5050506001820154610b12915033906119d6565b7f0df03d0d937885744c1dea56ca2bc71d9d2a1fc811fee822469a07fe915b945c87338884600101548787604051610b4f96959493929190612acb565b60405180910390a1505060016097555050505050565b6001600160a01b0381163314610bd55760405162461bcd60e51b815260206004820152602f60248201527f416363657373436f6e74726f6c3a2063616e206f6e6c792072656e6f756e636560448201526e103937b632b9903337b91039b2b63360891b60648201526084016106db565b610bdf8282611aef565b5050565b306001600160a01b037f0000000000000000000000000000000000000000000000000000000000000000161415610c2c5760405162461bcd60e51b81526004016106db906129e8565b7f00000000000000000000000000000000000000000000000000000000000000006001600160a01b0316610c75600080516020612cc0833981519152546001600160a01b031690565b6001600160a01b031614610c9b5760405162461bcd60e51b81526004016106db90612a34565b610ca481611b56565b60408051600080825260208201909252610cc091839190611b6f565b50565b600080516020612d07833981519152610cdc813361187b565b6101328054610ced90600190612bae565b81548110610d0b57634e487b7160e01b600052603260045260246000fd5b60009182526020909120015461013280546001600160a01b039092169184908110610d4657634e487b7160e01b600052603260045260246000fd5b9060005260206000200160006101000a8154816001600160a01b0302191690836001600160a01b03160217905550610132805480610d9457634e487b7160e01b600052603160045260246000fd5b600082815260209020810160001990810180546001600160a01b03191690550190555050565b600080516020612d07833981519152610dd3813361187b565b816101328481548110610df657634e487b7160e01b600052603260045260246000fd5b9060005260206000200160006101000a8154816001600160a01b0302191690836001600160a01b03160217905550505050565b6101325460609067ffffffffffffffff811115610e5657634e487b7160e01b600052604160045260246000fd5b604051908082528060200260200182016040528015610e7f578160200160208202803683370190505b50905060005b61013254811015610f1a576101328181548110610eb257634e487b7160e01b600052603260045260246000fd5b9060005260206000200160009054906101000a90046001600160a01b0316828281518110610ef057634e487b7160e01b600052603260045260246000fd5b6001600160a01b039092166020928302919091019091015280610f1281612c43565b915050610e85565b5090565b306001600160a01b037f0000000000000000000000000000000000000000000000000000000000000000161415610f675760405162461bcd60e51b81526004016106db906129e8565b7f00000000000000000000000000000000000000000000000000000000000000006001600160a01b0316610fb0600080516020612cc0833981519152546001600160a01b031690565b6001600160a01b031614610fd65760405162461bcd60e51b81526004016106db90612a34565b610fdf82611b56565b610bdf82826001611b6f565b6000306001600160a01b037f0000000000000000000000000000000000000000000000000000000000000000161461108b5760405162461bcd60e51b815260206004820152603860248201527f555550535570677261646561626c653a206d757374206e6f742062652063616c60448201527f6c6564207468726f7567682064656c656761746563616c6c000000000000000060648201526084016106db565b50600080516020612cc083398151915290565b600260975414156110f15760405162461bcd60e51b815260206004820152601f60248201527f5265656e7472616e637947756172643a207265656e7472616e742063616c6c0060448201526064016106db565b60026097553360009081526101316020526040902080546111605760405162461bcd60e51b8152602060048201526024808201527f5751426f72726f77696e673a20596f752061206e6f74206c6f616e6564206d6f6044820152636e65797360e01b60648201526084016106db565b60006001600160a01b03166101308260060160405161117f9190612864565b908152604051908190036020019020546001600160a01b031614156111e65760405162461bcd60e51b815260206004820152601e60248201527f5751426f72726f77696e673a20546f6b656e2069732064697361626c6564000060448201526064016106db565b6000670de0b6b3a76400006301e133808360020154426112069190612bae565b84600401546112159190612b8f565b61121f9190612b6f565b61012e5461122d9190612b57565b6112379085612b8f565b6112419190612b6f565b90506000826001015484846000015461125a9190612b8f565b6112649190612b6f565b90506112708285612b57565b3410156112ca5760405162461bcd60e51b815260206004820152602260248201527f5751426f72726f77696e673a20496e76616c696420726566756e6420616d6f756044820152611b9d60f21b60648201526084016106db565b838360010160008282546112de9190612bae565b925050819055506000670de0b6b3a76400006301e133808560020154426113059190612bae565b600587015460038801546040516381ce1c2360e01b81526001600160a01b03909216916381ce1c239161133e9160040190815260200190565b60206040518083038186803b15801561135657600080fd5b505afa15801561136a573d6000803e3d6000fd5b505050506040513d601f19601f8201168201806040525081019061138e9190612652565b6113989190612b8f565b6113a29190612b6f565b6113ac9087612b8f565b6113b69190612b6f565b60058501549091506001600160a01b031663af191a0c6113d68388612b57565b878760020154426113e79190612bae565b60038901546040516001600160e01b031960e087901b1681526004810193909352602483019190915260448201526064016000604051808303818588803b15801561143157600080fd5b505af1158015611445573d6000803e3d6000fd5b50505050506114833383610130876006016040516114639190612864565b908152604051908190036020019020546001600160a01b03169190611ce9565b818460000160008282546114979190612bae565b909155506114a790508386612b57565b3411156114cd576114cd836114bc8734612bae565b6114c69190612bae565b33906119d6565b604080518781523360208201529081018690527f7ca5472b7ea78c2c0141c5a12ee6d170cf4ce8ed06be3d22c8252ddfc7a6a2c49060600160405180910390a15050600160975550505050565b610132818154811061152b57600080fd5b6000918252602090912001546001600160a01b0316905081565b60009182526065602090815260408084206001600160a01b0393909316845291905290205460ff1690565b610131602052600090815260409020805460018201546002830154600384015460048501546005860154600687018054969795969495939492936001600160a01b03909216926115bf90612c08565b80601f01602080910402602001604051908101604052809291908181526020018280546115eb90612c08565b80156116385780601f1061160d57610100808354040283529160200191611638565b820191906000526020600020905b81548152906001019060200180831161161b57829003601f168201915b5050505050905087565b600054610100900460ff1661165d5760005460ff1615611661565b303b155b6116c45760405162461bcd60e51b815260206004820152602e60248201527f496e697469616c697a61626c653a20636f6e747261637420697320616c72656160448201526d191e481a5b9a5d1a585b1a5e995960921b60648201526084016106db565b600054610100900460ff161580156116e6576000805461ffff19166101011790555b6116ee611d19565b6116f6611d42565b6116fe611d19565b611709600033611d71565b611721600080516020612d0783398151915233611d71565b611739600080516020612ca083398151915233611d71565b61175f600080516020612ca0833981519152600080516020612d07833981519152611d7b565b61012d80546001600160a01b0319166001600160a01b03851617905561012e8290558015610687576000805461ff0019169055505050565b6000828152606560205260409020600101546117b3813361187b565b6106878383611aef565b600080516020612d078339815191526117d6813361187b565b50600091825261012f602052604090912055565b600080516020612d07833981519152611803813361187b565b5061012e55565b600080516020612d07833981519152611823813361187b565b836101308484604051611837929190612854565b90815260405190819003602001902080546001600160a01b03929092166001600160a01b031990921691909117905550505050565b6001600160a01b03163b151590565b6118858282611545565b610bdf5761189d816001600160a01b03166014611dc6565b6118a8836020611dc6565b6040516020016118b99291906128ff565b60408051601f198184030181529082905262461bcd60e51b82526106db916004016129d5565b6118e98282611545565b610bdf5760008281526065602090815260408083206001600160a01b03851684529091529020805460ff191660011790556119213390565b6001600160a01b0316816001600160a01b0316837f2f8788117e7eff1d82e926ec794901d17c78024a50270940304540a733656f0d60405160405180910390a45050565b6040516001600160a01b03808516602483015283166044820152606481018290526119d09085906323b872dd60e01b906084015b60408051601f198184030181529190526020810180516001600160e01b03166001600160e01b031990931692909217909152611faf565b50505050565b80471015611a265760405162461bcd60e51b815260206004820152601d60248201527f416464726573733a20696e73756666696369656e742062616c616e636500000060448201526064016106db565b6000826001600160a01b03168260405160006040518083038185875af1925050503d8060008114611a73576040519150601f19603f3d011682016040523d82523d6000602084013e611a78565b606091505b50509050806106875760405162461bcd60e51b815260206004820152603a60248201527f416464726573733a20756e61626c6520746f2073656e642076616c75652c207260448201527f6563697069656e74206d6179206861766520726576657274656400000000000060648201526084016106db565b611af98282611545565b15610bdf5760008281526065602090815260408083206001600160a01b0385168085529252808320805460ff1916905551339285917ff6391f5c32d9c69d2a47ea670b442974b53935d1edc7fd64eb21e047a839171b9190a45050565b600080516020612ca0833981519152610bdf813361187b565b7f4910fdfa16fed3260ed0e7147f7cc6da11a60208b5b9406d12a635614ffd91435460ff1615611ba25761068783612081565b826001600160a01b03166352d1902d6040518163ffffffff1660e01b815260040160206040518083038186803b158015611bdb57600080fd5b505afa925050508015611c0b575060408051601f3d908101601f19168201909252611c0891810190612652565b60015b611c6e5760405162461bcd60e51b815260206004820152602e60248201527f45524331393637557067726164653a206e657720696d706c656d656e7461746960448201526d6f6e206973206e6f74205555505360901b60648201526084016106db565b600080516020612cc08339815191528114611cdd5760405162461bcd60e51b815260206004820152602960248201527f45524331393637557067726164653a20756e737570706f727465642070726f786044820152681a58589b195555525160ba1b60648201526084016106db565b5061068783838361211d565b6040516001600160a01b03831660248201526044810182905261068790849063a9059cbb60e01b90606401611999565b600054610100900460ff16611d405760405162461bcd60e51b81526004016106db90612a80565b565b600054610100900460ff16611d695760405162461bcd60e51b81526004016106db90612a80565b611d40612142565b610bdf82826118df565b600082815260656020526040808220600101805490849055905190918391839186917fbd79b86ffe0ab8e8776151514217cd7cacd52c909f66475c3af44e129f0b00ff9190a4505050565b60606000611dd5836002612b8f565b611de0906002612b57565b67ffffffffffffffff811115611e0657634e487b7160e01b600052604160045260246000fd5b6040519080825280601f01601f191660200182016040528015611e30576020820181803683370190505b509050600360fc1b81600081518110611e5957634e487b7160e01b600052603260045260246000fd5b60200101906001600160f81b031916908160001a905350600f60fb1b81600181518110611e9657634e487b7160e01b600052603260045260246000fd5b60200101906001600160f81b031916908160001a9053506000611eba846002612b8f565b611ec5906001612b57565b90505b6001811115611f59576f181899199a1a9b1b9c1cb0b131b232b360811b85600f1660108110611f0757634e487b7160e01b600052603260045260246000fd5b1a60f81b828281518110611f2b57634e487b7160e01b600052603260045260246000fd5b60200101906001600160f81b031916908160001a90535060049490941c93611f5281612bf1565b9050611ec8565b508315611fa85760405162461bcd60e51b815260206004820181905260248201527f537472696e67733a20686578206c656e67746820696e73756666696369656e7460448201526064016106db565b9392505050565b6000612004826040518060400160405280602081526020017f5361666545524332303a206c6f772d6c6576656c2063616c6c206661696c6564815250856001600160a01b03166121709092919063ffffffff16565b8051909150156106875780806020019051810190612022919061261a565b6106875760405162461bcd60e51b815260206004820152602a60248201527f5361666545524332303a204552433230206f7065726174696f6e20646964206e6044820152691bdd081cdd58d8d9595960b21b60648201526084016106db565b6001600160a01b0381163b6120ee5760405162461bcd60e51b815260206004820152602d60248201527f455243313936373a206e657720696d706c656d656e746174696f6e206973206e60448201526c1bdd08184818dbdb9d1c9858dd609a1b60648201526084016106db565b600080516020612cc083398151915280546001600160a01b0319166001600160a01b0392909216919091179055565b61212683612187565b6000825111806121335750805b15610687576119d083836121c7565b600054610100900460ff166121695760405162461bcd60e51b81526004016106db90612a80565b6001609755565b606061217f84846000856122bb565b949350505050565b61219081612081565b6040516001600160a01b038216907fbc7cd75a20ee27fd9adebab32041f755214dbc6bffa90cc0225b39da2e5c2d3b90600090a250565b60606001600160a01b0383163b61222f5760405162461bcd60e51b815260206004820152602660248201527f416464726573733a2064656c65676174652063616c6c20746f206e6f6e2d636f6044820152651b9d1c9858dd60d21b60648201526084016106db565b600080846001600160a01b03168460405161224a9190612838565b600060405180830381855af49150503d8060008114612285576040519150601f19603f3d011682016040523d82523d6000602084013e61228a565b606091505b50915091506122b28282604051806060016040528060278152602001612ce0602791396123ec565b95945050505050565b60608247101561231c5760405162461bcd60e51b815260206004820152602660248201527f416464726573733a20696e73756666696369656e742062616c616e636520666f6044820152651c8818d85b1b60d21b60648201526084016106db565b6001600160a01b0385163b6123735760405162461bcd60e51b815260206004820152601d60248201527f416464726573733a2063616c6c20746f206e6f6e2d636f6e747261637400000060448201526064016106db565b600080866001600160a01b0316858760405161238f9190612838565b60006040518083038185875af1925050503d80600081146123cc576040519150601f19603f3d011682016040523d82523d6000602084013e6123d1565b606091505b50915091506123e18282866123ec565b979650505050505050565b606083156123fb575081611fa8565b82511561240b5782518084602001fd5b8160405162461bcd60e51b81526004016106db91906129d5565b82805461243190612c08565b90600052602060002090601f0160209004810192826124535760008555612499565b82601f1061246c5782800160ff19823516178555612499565b82800160010185558215612499579182015b8281111561249957823582559160200191906001019061247e565b50610f1a9291505b80821115610f1a57600081556001016124a1565b600067ffffffffffffffff808411156124d0576124d0612c74565b604051601f8501601f19908116603f011681019082821181831017156124f8576124f8612c74565b8160405280935085815286868601111561251157600080fd5b858560208301376000602087830101525050509392505050565b60008083601f84011261253c578182fd5b50813567ffffffffffffffff811115612553578182fd5b60208301915083602082850101111561256b57600080fd5b9250929050565b600060208284031215612583578081fd5b8135611fa881612c8a565b600080604083850312156125a0578081fd5b82356125ab81612c8a565b9150602083013567ffffffffffffffff8111156125c6578182fd5b8301601f810185136125d6578182fd5b6125e5858235602084016124b5565b9150509250929050565b60008060408385031215612601578182fd5b823561260c81612c8a565b946020939093013593505050565b60006020828403121561262b578081fd5b81518015158114611fa8578182fd5b60006020828403121561264b578081fd5b5035919050565b600060208284031215612663578081fd5b5051919050565b6000806040838503121561267c578182fd5b82359150602083013561268e81612c8a565b809150509250929050565b6000602082840312156126aa578081fd5b81356001600160e01b031981168114611fa8578182fd5b6000806000604084860312156126d5578081fd5b83356126e081612c8a565b9250602084013567ffffffffffffffff8111156126fb578182fd5b6127078682870161252b565b9497909650939450505050565b600060208284031215612725578081fd5b813567ffffffffffffffff81111561273b578182fd5b8201601f8101841361274b578182fd5b61217f848235602084016124b5565b6000806040838503121561276c578182fd5b50508035926020909101359150565b60008060008060008060a08789031215612793578384fd5b86359550602087013594506040870135935060608701359250608087013567ffffffffffffffff8111156127c5578283fd5b6127d189828a0161252b565b979a9699509497509295939492505050565b81835281816020850137506000828201602090810191909152601f909101601f19169091010190565b60008151808452612824816020860160208601612bc5565b601f01601f19169290920160200192915050565b6000825161284a818460208701612bc5565b9190910192915050565b8183823760009101908152919050565b600080835482600182811c91508083168061288057607f831692505b60208084108214156128a057634e487b7160e01b87526022600452602487fd5b8180156128b457600181146128c5576128f1565b60ff198616895284890196506128f1565b60008a815260209020885b868110156128e95781548b8201529085019083016128d0565b505084890196505b509498975050505050505050565b7f416363657373436f6e74726f6c3a206163636f756e7420000000000000000000815260008351612937816017850160208801612bc5565b7001034b99036b4b9b9b4b733903937b6329607d1b6017918401918201528351612968816028840160208801612bc5565b01602801949350505050565b6020808252825182820181905260009190848201906040850190845b818110156129b55783516001600160a01b031683529284019291840191600101612990565b50909695505050505050565b60208152600061217f6020830184866127e3565b602081526000611fa8602083018461280c565b6020808252602c908201527f46756e6374696f6e206d7573742062652063616c6c6564207468726f7567682060408201526b19195b1959d85d1958d85b1b60a21b606082015260800190565b6020808252602c908201527f46756e6374696f6e206d7573742062652063616c6c6564207468726f7567682060408201526b6163746976652070726f787960a01b606082015260800190565b6020808252602b908201527f496e697469616c697a61626c653a20636f6e7472616374206973206e6f74206960408201526a6e697469616c697a696e6760a81b606082015260800190565b86815260018060a01b038616602082015284604082015283606082015260a060808201526000612aff60a0830184866127e3565b98975050505050505050565b87815286602082015285604082015284606082015283608082015260018060a01b03831660a082015260e060c08201526000612b4a60e083018461280c565b9998505050505050505050565b60008219821115612b6a57612b6a612c5e565b500190565b600082612b8a57634e487b7160e01b81526012600452602481fd5b500490565b6000816000190483118215151615612ba957612ba9612c5e565b500290565b600082821015612bc057612bc0612c5e565b500390565b60005b83811015612be0578181015183820152602001612bc8565b838111156119d05750506000910152565b600081612c0057612c00612c5e565b506000190190565b600181811c90821680612c1c57607f821691505b60208210811415612c3d57634e487b7160e01b600052602260045260246000fd5b50919050565b6000600019821415612c5757612c57612c5e565b5060010190565b634e487b7160e01b600052601160045260246000fd5b634e487b7160e01b600052604160045260246000fd5b6001600160a01b0381168114610cc057600080fdfe189ab7a9244df0848122154315af71fe140f3db0fe014031783b0946b8c9d2e3360894a13ba1a3210667c828492db98dca3e2076cc3735a920a3ca505d382bbc416464726573733a206c6f772d6c6576656c2064656c65676174652063616c6c206661696c6564a49807205ce4d355092ef5a8a18f56e8913cf4a201fbe287825b095693c21775a2646970667358221220c4a983de65c17753357ce56d86aa5b35d6ba42e19bca3e83134bea6533553f0064736f6c63430008040033",
  "linkReferences": {},
  "deployedLinkReferences": {}
}