{
  "_format": "hh-sol-artifact-1",
  "contractName": "WQBorrowing",
  "sourceName": "contracts/WQBorrowing.sol",
  "abi": [
    {
      "inputs": [],
      "stateMutability": "nonpayable",
      "type": "constructor"
    },
    {
      "anonymous": false,
      "inputs": [
        {
          "indexed": false,
          "internalType": "address",
          "name": "previousAdmin",
          "type": "address"
        },
        {
          "indexed": false,
          "internalType": "address",
          "name": "newAdmin",
          "type": "address"
        }
      ],
      "name": "AdminChanged",
      "type": "event"
    },
    {
      "anonymous": false,
      "inputs": [
        {
          "indexed": true,
          "internalType": "address",
          "name": "beacon",
          "type": "address"
        }
      ],
      "name": "BeaconUpgraded",
      "type": "event"
    },
    {
      "anonymous": false,
      "inputs": [
        {
          "indexed": false,
          "internalType": "address",
          "name": "user",
          "type": "address"
        },
        {
          "indexed": false,
          "internalType": "uint256",
          "name": "collateral",
          "type": "uint256"
        },
        {
          "indexed": false,
          "internalType": "uint256",
          "name": "credit",
          "type": "uint256"
        },
        {
          "indexed": false,
          "internalType": "string",
          "name": "symbol",
          "type": "string"
        }
      ],
      "name": "Borrowed",
      "type": "event"
    },
    {
      "anonymous": false,
      "inputs": [
        {
          "indexed": false,
          "internalType": "address",
          "name": "to",
          "type": "address"
        },
        {
          "indexed": false,
          "internalType": "uint256",
          "name": "amount",
          "type": "uint256"
        }
      ],
      "name": "Refunded",
      "type": "event"
    },
    {
      "anonymous": false,
      "inputs": [
        {
          "indexed": true,
          "internalType": "bytes32",
          "name": "role",
          "type": "bytes32"
        },
        {
          "indexed": true,
          "internalType": "bytes32",
          "name": "previousAdminRole",
          "type": "bytes32"
        },
        {
          "indexed": true,
          "internalType": "bytes32",
          "name": "newAdminRole",
          "type": "bytes32"
        }
      ],
      "name": "RoleAdminChanged",
      "type": "event"
    },
    {
      "anonymous": false,
      "inputs": [
        {
          "indexed": true,
          "internalType": "bytes32",
          "name": "role",
          "type": "bytes32"
        },
        {
          "indexed": true,
          "internalType": "address",
          "name": "account",
          "type": "address"
        },
        {
          "indexed": true,
          "internalType": "address",
          "name": "sender",
          "type": "address"
        }
      ],
      "name": "RoleGranted",
      "type": "event"
    },
    {
      "anonymous": false,
      "inputs": [
        {
          "indexed": true,
          "internalType": "bytes32",
          "name": "role",
          "type": "bytes32"
        },
        {
          "indexed": true,
          "internalType": "address",
          "name": "account",
          "type": "address"
        },
        {
          "indexed": true,
          "internalType": "address",
          "name": "sender",
          "type": "address"
        }
      ],
      "name": "RoleRevoked",
      "type": "event"
    },
    {
      "anonymous": false,
      "inputs": [
        {
          "indexed": true,
          "internalType": "address",
          "name": "implementation",
          "type": "address"
        }
      ],
      "name": "Upgraded",
      "type": "event"
    },
    {
      "inputs": [],
      "name": "ADMIN_ROLE",
      "outputs": [
        {
          "internalType": "bytes32",
          "name": "",
          "type": "bytes32"
        }
      ],
      "stateMutability": "view",
      "type": "function"
    },
    {
      "inputs": [],
      "name": "DEFAULT_ADMIN_ROLE",
      "outputs": [
        {
          "internalType": "bytes32",
          "name": "",
          "type": "bytes32"
        }
      ],
      "stateMutability": "view",
      "type": "function"
    },
    {
      "inputs": [],
      "name": "UPGRADER_ROLE",
      "outputs": [
        {
          "internalType": "bytes32",
          "name": "",
          "type": "bytes32"
        }
      ],
      "stateMutability": "view",
      "type": "function"
    },
    {
      "inputs": [],
      "name": "YEAR",
      "outputs": [
        {
          "internalType": "uint256",
          "name": "",
          "type": "uint256"
        }
      ],
      "stateMutability": "view",
      "type": "function"
    },
    {
      "inputs": [
        {
          "internalType": "contract WQFundInterface",
          "name": "fund",
          "type": "address"
        }
      ],
      "name": "addFund",
      "outputs": [],
      "stateMutability": "nonpayable",
      "type": "function"
    },
    {
      "inputs": [
        {
          "internalType": "uint256",
          "name": "",
          "type": "uint256"
        }
      ],
      "name": "apys",
      "outputs": [
        {
          "internalType": "uint256",
          "name": "",
          "type": "uint256"
        }
      ],
      "stateMutability": "view",
      "type": "function"
    },
    {
      "inputs": [
        {
          "internalType": "uint256",
          "name": "collateralAmount",
          "type": "uint256"
        },
        {
          "internalType": "uint256",
          "name": "fundIndex",
          "type": "uint256"
        },
        {
          "internalType": "uint256",
          "name": "duration",
          "type": "uint256"
        },
        {
          "internalType": "string",
          "name": "symbol",
          "type": "string"
        }
      ],
      "name": "borrow",
      "outputs": [],
      "stateMutability": "nonpayable",
      "type": "function"
    },
    {
      "inputs": [
        {
          "internalType": "address",
          "name": "",
          "type": "address"
        }
      ],
      "name": "borrowers",
      "outputs": [
        {
          "internalType": "uint256",
          "name": "collateral",
          "type": "uint256"
        },
        {
          "internalType": "uint256",
          "name": "credit",
          "type": "uint256"
        },
        {
          "internalType": "uint256",
          "name": "borrowedAt",
          "type": "uint256"
        },
        {
          "internalType": "uint256",
          "name": "duration",
          "type": "uint256"
        },
        {
          "internalType": "uint256",
          "name": "apy",
          "type": "uint256"
        },
        {
          "internalType": "contract WQFundInterface",
          "name": "fund",
          "type": "address"
        },
        {
          "internalType": "string",
          "name": "symbol",
          "type": "string"
        }
      ],
      "stateMutability": "view",
      "type": "function"
    },
    {
      "inputs": [],
      "name": "fixedRate",
      "outputs": [
        {
          "internalType": "uint256",
          "name": "",
          "type": "uint256"
        }
      ],
      "stateMutability": "view",
      "type": "function"
    },
    {
      "inputs": [
        {
          "internalType": "uint256",
          "name": "",
          "type": "uint256"
        }
      ],
      "name": "funds",
      "outputs": [
        {
          "internalType": "contract WQFundInterface",
          "name": "",
          "type": "address"
        }
      ],
      "stateMutability": "view",
      "type": "function"
    },
    {
      "inputs": [],
      "name": "getFunds",
      "outputs": [
        {
          "internalType": "contract WQFundInterface[]",
          "name": "funds_",
          "type": "address[]"
        }
      ],
      "stateMutability": "view",
      "type": "function"
    },
    {
      "inputs": [
        {
          "internalType": "bytes32",
          "name": "role",
          "type": "bytes32"
        }
      ],
      "name": "getRoleAdmin",
      "outputs": [
        {
          "internalType": "bytes32",
          "name": "",
          "type": "bytes32"
        }
      ],
      "stateMutability": "view",
      "type": "function"
    },
    {
      "inputs": [
        {
          "internalType": "bytes32",
          "name": "role",
          "type": "bytes32"
        },
        {
          "internalType": "address",
          "name": "account",
          "type": "address"
        }
      ],
      "name": "grantRole",
      "outputs": [],
      "stateMutability": "nonpayable",
      "type": "function"
    },
    {
      "inputs": [
        {
          "internalType": "bytes32",
          "name": "role",
          "type": "bytes32"
        },
        {
          "internalType": "address",
          "name": "account",
          "type": "address"
        }
      ],
      "name": "hasRole",
      "outputs": [
        {
          "internalType": "bool",
          "name": "",
          "type": "bool"
        }
      ],
      "stateMutability": "view",
      "type": "function"
    },
    {
      "inputs": [
        {
          "internalType": "address",
          "name": "_oracle",
          "type": "address"
        }
      ],
      "name": "initialize",
      "outputs": [],
      "stateMutability": "nonpayable",
      "type": "function"
    },
    {
      "inputs": [],
      "name": "oracle",
      "outputs": [
        {
          "internalType": "contract WQPriceOracleInterface",
          "name": "",
          "type": "address"
        }
      ],
      "stateMutability": "view",
      "type": "function"
    },
    {
      "inputs": [
        {
          "internalType": "uint256",
          "name": "returnAmount",
          "type": "uint256"
        }
      ],
      "name": "refund",
      "outputs": [],
      "stateMutability": "payable",
      "type": "function"
    },
    {
      "inputs": [
        {
          "internalType": "uint256",
          "name": "index",
          "type": "uint256"
        }
      ],
      "name": "removeFund",
      "outputs": [],
      "stateMutability": "nonpayable",
      "type": "function"
    },
    {
      "inputs": [
        {
          "internalType": "bytes32",
          "name": "role",
          "type": "bytes32"
        },
        {
          "internalType": "address",
          "name": "account",
          "type": "address"
        }
      ],
      "name": "renounceRole",
      "outputs": [],
      "stateMutability": "nonpayable",
      "type": "function"
    },
    {
      "inputs": [
        {
          "internalType": "bytes32",
          "name": "role",
          "type": "bytes32"
        },
        {
          "internalType": "address",
          "name": "account",
          "type": "address"
        }
      ],
      "name": "revokeRole",
      "outputs": [],
      "stateMutability": "nonpayable",
      "type": "function"
    },
    {
      "inputs": [
        {
          "internalType": "uint256",
          "name": "duration",
          "type": "uint256"
        },
        {
          "internalType": "uint256",
          "name": "apy",
          "type": "uint256"
        }
      ],
      "name": "setApy",
      "outputs": [],
      "stateMutability": "nonpayable",
      "type": "function"
    },
    {
      "inputs": [
        {
          "internalType": "uint256",
          "name": "_fixedRate",
          "type": "uint256"
        }
      ],
      "name": "setFixedRate",
      "outputs": [],
      "stateMutability": "nonpayable",
      "type": "function"
    },
    {
      "inputs": [
        {
          "internalType": "contract IERC20Upgradeable",
          "name": "token",
          "type": "address"
        },
        {
          "internalType": "string",
          "name": "symbol",
          "type": "string"
        }
      ],
      "name": "setToken",
      "outputs": [],
      "stateMutability": "nonpayable",
      "type": "function"
    },
    {
      "inputs": [
        {
          "internalType": "bytes4",
          "name": "interfaceId",
          "type": "bytes4"
        }
      ],
      "name": "supportsInterface",
      "outputs": [
        {
          "internalType": "bool",
          "name": "",
          "type": "bool"
        }
      ],
      "stateMutability": "view",
      "type": "function"
    },
    {
      "inputs": [
        {
          "internalType": "string",
          "name": "",
          "type": "string"
        }
      ],
      "name": "tokens",
      "outputs": [
        {
          "internalType": "contract IERC20Upgradeable",
          "name": "",
          "type": "address"
        }
      ],
      "stateMutability": "view",
      "type": "function"
    },
    {
      "inputs": [
        {
          "internalType": "uint256",
          "name": "index",
          "type": "uint256"
        },
        {
          "internalType": "contract WQFundInterface",
          "name": "fund",
          "type": "address"
        }
      ],
      "name": "updateFund",
      "outputs": [],
      "stateMutability": "nonpayable",
      "type": "function"
    },
    {
      "inputs": [
        {
          "internalType": "address",
          "name": "newImplementation",
          "type": "address"
        }
      ],
      "name": "upgradeTo",
      "outputs": [],
      "stateMutability": "nonpayable",
      "type": "function"
    },
    {
      "inputs": [
        {
          "internalType": "address",
          "name": "newImplementation",
          "type": "address"
        },
        {
          "internalType": "bytes",
          "name": "data",
          "type": "bytes"
        }
      ],
      "name": "upgradeToAndCall",
      "outputs": [],
      "stateMutability": "payable",
      "type": "function"
    }
  ],
  "bytecode": "0x60a06040523060601b6080523480156200001857600080fd5b50600054610100900460ff168062000033575060005460ff16155b6200009b5760405162461bcd60e51b815260206004820152602e60248201527f496e697469616c697a61626c653a20636f6e747261637420697320616c72656160448201526d191e481a5b9a5d1a585b1a5e995960921b606482015260840160405180910390fd5b600054610100900460ff16158015620000be576000805461ffff19166101011790555b8015620000d1576000805461ff00191690555b5060805160601c612c016200010660003960008181610f5101528181610f910152818161127501526112b50152612c016000f3fe6080604052600436106101b75760003560e01c80637b8e8895116100ec578063bf5d50c41161008a578063daf8bc1011610064578063daf8bc101461051b578063e9302e091461053b578063f72c0d8b1461055b578063fdad53db1461057d57600080fd5b8063bf5d50c4146104a8578063c4d66de8146104db578063d547741f146104fb57600080fd5b806381ce1c23116100c657806381ce1c231461042d578063839145401461045b57806391d1485414610473578063a217fddf1461049357600080fd5b80637b8e8895146103d55780637dc0d1d0146103f5578063802d14221461041657600080fd5b806336568abe1161015957806342569ec31161013357806342569ec31461035e5780634d9b37351461037e5780634f1ef286146103a057806375b238fc146103b357600080fd5b806336568abe146102fe5780633659cfe61461031e5780633af388e01461033e57600080fd5b806307dc290a1161019557806307dc290a1461026d578063248a9ca31461028d578063278ecde1146102cb5780632f2ff15d146102de57600080fd5b806301ffc9a7146101bc578063041fe198146101f157806304c2320b14610213575b600080fd5b3480156101c857600080fd5b506101dc6101d736600461255e565b61059d565b60405190151581526020015b60405180910390f35b3480156101fd57600080fd5b5061021161020c366004612658565b6105d4565b005b34801561021f57600080fd5b5061025561022e3660046125d9565b8051602081830181018051610130825292820191909301209152546001600160a01b031681565b6040516001600160a01b0390911681526020016101e8565b34801561027957600080fd5b5061021161028836600461247a565b610aaa565b34801561029957600080fd5b506102bd6102a8366004612517565b60009081526065602052604090206001015490565b6040519081526020016101e8565b6102116102d9366004612517565b610b17565b3480156102ea57600080fd5b506102116102f936600461252f565b610e9d565b34801561030a57600080fd5b5061021161031936600461252f565b610ec8565b34801561032a57600080fd5b5061021161033936600461247a565b610f46565b34801561034a57600080fd5b50610211610359366004612517565b61100f565b34801561036a57600080fd5b5061021161037936600461252f565b611106565b34801561038a57600080fd5b50610393611175565b6040516101e89190612876565b6102116103ae366004612496565b61126a565b3480156103bf57600080fd5b506102bd600080516020612bac83398151915281565b3480156103e157600080fd5b506102556103f0366004612517565b611320565b34801561040157600080fd5b5061012d54610255906001600160a01b031681565b34801561042257600080fd5b506102bd61012e5481565b34801561043957600080fd5b506102bd610448366004612517565b61012f6020526000908152604090205481565b34801561046757600080fd5b506102bd6301e1338081565b34801561047f57600080fd5b506101dc61048e36600461252f565b61134b565b34801561049f57600080fd5b506102bd600081565b3480156104b457600080fd5b506104c86104c336600461247a565b611376565b6040516101e897969594939291906129d0565b3480156104e757600080fd5b506102116104f636600461247a565b611448565b34801561050757600080fd5b5061021161051636600461252f565b611549565b34801561052757600080fd5b50610211610536366004612637565b61156f565b34801561054757600080fd5b50610211610556366004612517565b61159c565b34801561056757600080fd5b506102bd600080516020612b6583398151915281565b34801561058957600080fd5b50610211610598366004612586565b6115bc565b60006001600160e01b03198216637965db0b60e01b14806105ce57506301ffc9a760e01b6001600160e01b03198316145b92915050565b6002609754141561062c5760405162461bcd60e51b815260206004820152601f60248201527f5265656e7472616e637947756172643a207265656e7472616e742063616c6c0060448201526064015b60405180910390fd5b6002609755604051600090610130906106489085908590612728565b908152604051908190036020019020546001600160a01b031614156106c95760405162461bcd60e51b815260206004820152603160248201527f5751426f72726f77696e673a205468697320746f6b656e2069732064697361626044820152701b1959081d1bc818dbdb1b185d195c985b607a1b6064820152608401610623565b600083815261012f60205260409020546107255760405162461bcd60e51b815260206004820152601d60248201527f5751426f72726f77696e673a20496e76616c6964206475726174696f6e0000006044820152606401610623565b336000908152610131602052604090208054156107955760405162461bcd60e51b815260206004820152602860248201527f5751426f72726f77696e673a20596f7520617265206e6f7420726566756e6465604482015267190818dc99591a5d60c21b6064820152608401610623565b6107a360068201848461232d565b50858155426002820155600084815261012f6020526040908190205460048084019190915561012d549151630292e0fd60e01b81526729a2241af62c0000926001600160a01b031691630292e0fd916108009188918891016128c3565b60206040518083038186803b15801561081857600080fd5b505afa15801561082c573d6000803e3d6000fd5b505050506040513d601f19601f82011682018060405250810190610850919061261f565b61085a9088612a54565b610865906002612a54565b61086f9190612a34565b600182015561013280548690811061089757634e487b7160e01b600052603260045260246000fd5b600091825260209182902001546040805163722713f760e01b815290516001600160a01b039092169263722713f792600480840193829003018186803b1580156108e057600080fd5b505afa1580156108f4573d6000803e3d6000fd5b505050506040513d601f19601f82011682018060405250810190610918919061261f565b8160010154111561097c5760405162461bcd60e51b815260206004820152602860248201527f5751426f72726f77696e673a20496e73756666696369656e7420616d6f756e74604482015267081a5b88199d5b9960c21b6064820152608401610623565b6109b63330886101308787604051610995929190612728565b908152604051908190036020019020546001600160a01b031692919061161e565b61013285815481106109d857634e487b7160e01b600052603260045260246000fd5b600091825260209091200154600182015460405163317afabb60e21b81526001600160a01b039092169163c5ebeaec91610a189160040190815260200190565b600060405180830381600087803b158015610a3257600080fd5b505af1158015610a46573d6000803e3d6000fd5b5050506001820154610a5a9150339061168f565b7fcb359d2b3069b99488102061f51eefbc32e69adf326894935c8de23dadbab6a8338783600101548686604051610a95959493929190612848565b60405180910390a15050600160975550505050565b600080516020612bac833981519152610ac381336117a8565b5061013280546001810182556000919091527fc53bdfd4aa1ab65dfdaf681ca6bda958ae4a123d4ed68c4277796592280e78350180546001600160a01b0319166001600160a01b0392909216919091179055565b60026097541415610b6a5760405162461bcd60e51b815260206004820152601f60248201527f5265656e7472616e637947756172643a207265656e7472616e742063616c6c006044820152606401610623565b6002609755336000908152610131602052604090208054610bd95760405162461bcd60e51b8152602060048201526024808201527f5751426f72726f77696e673a20596f752061206e6f74206c6f616e6564206d6f6044820152636e65797360e01b6064820152608401610623565b60006001600160a01b031661013082600601604051610bf89190612738565b908152604051908190036020019020546001600160a01b03161415610c5f5760405162461bcd60e51b815260206004820152601e60248201527f5751426f72726f77696e673a20546f6b656e2069732064697361626c656400006044820152606401610623565b6000670de0b6b3a76400006301e13380836002015442610c7f9190612a73565b8460040154610c8e9190612a54565b610c989190612a34565b61012e54610ca69190612a1c565b610cb09085612a54565b610cba9190612a34565b905060008260010154848460000154610cd39190612a54565b610cdd9190612a34565b9050610ce98285612a1c565b341015610d435760405162461bcd60e51b815260206004820152602260248201527f5751426f72726f77696e673a20496e76616c696420726566756e6420616d6f756044820152611b9d60f21b6064820152608401610623565b83836001016000828254610d579190612a73565b909155505060058301546001600160a01b0316635af36e3e610d798487612a1c565b8686600301546040518463ffffffff1660e01b8152600401610da5929190918252602082015260400190565b6000604051808303818588803b158015610dbe57600080fd5b505af1158015610dd2573d6000803e3d6000fd5b5050505050610e10338261013086600601604051610df09190612738565b908152604051908190036020019020546001600160a01b0316919061180c565b80836000016000828254610e249190612a73565b90915550610e3490508285612a1c565b341115610e5a57610e5a82610e498634612a73565b610e539190612a73565b339061168f565b604080513381523460208201527fd7dee2702d63ad89917b6a4da9981c90c4d24f8c2bdfd64c604ecae57d8d0651910160405180910390a1505060016097555050565b600082815260656020526040902060010154610eb981336117a8565b610ec3838361183c565b505050565b6001600160a01b0381163314610f385760405162461bcd60e51b815260206004820152602f60248201527f416363657373436f6e74726f6c3a2063616e206f6e6c792072656e6f756e636560448201526e103937b632b9903337b91039b2b63360891b6064820152608401610623565b610f4282826118c2565b5050565b306001600160a01b037f0000000000000000000000000000000000000000000000000000000000000000161415610f8f5760405162461bcd60e51b8152600401610623906128ea565b7f00000000000000000000000000000000000000000000000000000000000000006001600160a01b0316610fc1611929565b6001600160a01b031614610fe75760405162461bcd60e51b815260040161062390612936565b610ff081611957565b6040805160008082526020820190925261100c91839190611970565b50565b600080516020612bac83398151915261102881336117a8565b610132805461103990600190612a73565b8154811061105757634e487b7160e01b600052603260045260246000fd5b60009182526020909120015461013280546001600160a01b03909216918490811061109257634e487b7160e01b600052603260045260246000fd5b9060005260206000200160006101000a8154816001600160a01b0302191690836001600160a01b031602179055506101328054806110e057634e487b7160e01b600052603160045260246000fd5b600082815260209020810160001990810180546001600160a01b03191690550190555050565b600080516020612bac83398151915261111f81336117a8565b81610132848154811061114257634e487b7160e01b600052603260045260246000fd5b9060005260206000200160006101000a8154816001600160a01b0302191690836001600160a01b03160217905550505050565b6101325460609067ffffffffffffffff8111156111a257634e487b7160e01b600052604160045260246000fd5b6040519080825280602002602001820160405280156111cb578160200160208202803683370190505b50905060005b610132548110156112665761013281815481106111fe57634e487b7160e01b600052603260045260246000fd5b9060005260206000200160009054906101000a90046001600160a01b031682828151811061123c57634e487b7160e01b600052603260045260246000fd5b6001600160a01b03909216602092830291909101909101528061125e81612b08565b9150506111d1565b5090565b306001600160a01b037f00000000000000000000000000000000000000000000000000000000000000001614156112b35760405162461bcd60e51b8152600401610623906128ea565b7f00000000000000000000000000000000000000000000000000000000000000006001600160a01b03166112e5611929565b6001600160a01b03161461130b5760405162461bcd60e51b815260040161062390612936565b61131482611957565b610f4282826001611970565b610132818154811061133157600080fd5b6000918252602090912001546001600160a01b0316905081565b60009182526065602090815260408084206001600160a01b0393909316845291905290205460ff1690565b610131602052600090815260409020805460018201546002830154600384015460048501546005860154600687018054969795969495939492936001600160a01b03909216926113c590612acd565b80601f01602080910402602001604051908101604052809291908181526020018280546113f190612acd565b801561143e5780601f106114135761010080835404028352916020019161143e565b820191906000526020600020905b81548152906001019060200180831161142157829003601f168201915b5050505050905087565b600054610100900460ff1680611461575060005460ff16155b61147d5760405162461bcd60e51b815260040161062390612982565b600054610100900460ff1615801561149f576000805461ffff19166101011790555b6114a7611abb565b6114af611b3e565b6114b7611b9d565b6114c2600033611bfb565b6114da600080516020612bac83398151915233611bfb565b6114f2600080516020612b6583398151915233611bfb565b611518600080516020612b65833981519152600080516020612bac833981519152611c05565b61012d80546001600160a01b0319166001600160a01b0384161790558015610f42576000805461ff00191690555050565b60008281526065602052604090206001015461156581336117a8565b610ec383836118c2565b600080516020612bac83398151915261158881336117a8565b50600091825261012f602052604090912055565b600080516020612bac8339815191526115b581336117a8565b5061012e55565b600080516020612bac8339815191526115d581336117a8565b8361013084846040516115e9929190612728565b90815260405190819003602001902080546001600160a01b03929092166001600160a01b031990921691909117905550505050565b6040516001600160a01b03808516602483015283166044820152606481018290526116899085906323b872dd60e01b906084015b60408051601f198184030181529190526020810180516001600160e01b03166001600160e01b031990931692909217909152611c50565b50505050565b804710156116df5760405162461bcd60e51b815260206004820152601d60248201527f416464726573733a20696e73756666696369656e742062616c616e63650000006044820152606401610623565b6000826001600160a01b03168260405160006040518083038185875af1925050503d806000811461172c576040519150601f19603f3d011682016040523d82523d6000602084013e611731565b606091505b5050905080610ec35760405162461bcd60e51b815260206004820152603a60248201527f416464726573733a20756e61626c6520746f2073656e642076616c75652c207260448201527f6563697069656e74206d617920686176652072657665727465640000000000006064820152608401610623565b6117b2828261134b565b610f42576117ca816001600160a01b03166014611d22565b6117d5836020611d22565b6040516020016117e69291906127d3565b60408051601f198184030181529082905262461bcd60e51b8252610623916004016128d7565b6040516001600160a01b038316602482015260448101829052610ec390849063a9059cbb60e01b90606401611652565b611846828261134b565b610f425760008281526065602090815260408083206001600160a01b03851684529091529020805460ff1916600117905561187e3390565b6001600160a01b0316816001600160a01b0316837f2f8788117e7eff1d82e926ec794901d17c78024a50270940304540a733656f0d60405160405180910390a45050565b6118cc828261134b565b15610f425760008281526065602090815260408083206001600160a01b0385168085529252808320805460ff1916905551339285917ff6391f5c32d9c69d2a47ea670b442974b53935d1edc7fd64eb21e047a839171b9190a45050565b7f360894a13ba1a3210667c828492db98dca3e2076cc3735a920a3ca505d382bbc546001600160a01b031690565b600080516020612b65833981519152610f4281336117a8565b600061197a611929565b905061198584611f0b565b6000835111806119925750815b156119a3576119a18484611fb0565b505b7f4910fdfa16fed3260ed0e7147f7cc6da11a60208b5b9406d12a635614ffd9143805460ff16611ab457805460ff191660011781556040516001600160a01b0383166024820152611a2290869060440160408051601f198184030181529190526020810180516001600160e01b0316631b2ce7f360e11b179052611fb0565b50805460ff19168155611a33611929565b6001600160a01b0316826001600160a01b031614611aab5760405162461bcd60e51b815260206004820152602f60248201527f45524331393637557067726164653a207570677261646520627265616b73206660448201526e75727468657220757067726164657360881b6064820152608401610623565b611ab48561209b565b5050505050565b600054610100900460ff1680611ad4575060005460ff16155b611af05760405162461bcd60e51b815260040161062390612982565b600054610100900460ff16158015611b12576000805461ffff19166101011790555b611b1a6120db565b611b226120db565b611b2a6120db565b801561100c576000805461ff001916905550565b600054610100900460ff1680611b57575060005460ff16155b611b735760405162461bcd60e51b815260040161062390612982565b600054610100900460ff16158015611b95576000805461ffff19166101011790555b611b2a612145565b600054610100900460ff1680611bb6575060005460ff16155b611bd25760405162461bcd60e51b815260040161062390612982565b600054610100900460ff16158015611b1a576000805461ffff1916610101179055611b226120db565b610f42828261183c565b600082815260656020526040808220600101805490849055905190918391839186917fbd79b86ffe0ab8e8776151514217cd7cacd52c909f66475c3af44e129f0b00ff9190a4505050565b6000611ca5826040518060400160405280602081526020017f5361666545524332303a206c6f772d6c6576656c2063616c6c206661696c6564815250856001600160a01b03166121b59092919063ffffffff16565b805190915015610ec35780806020019051810190611cc391906124f7565b610ec35760405162461bcd60e51b815260206004820152602a60248201527f5361666545524332303a204552433230206f7065726174696f6e20646964206e6044820152691bdd081cdd58d8d9595960b21b6064820152608401610623565b60606000611d31836002612a54565b611d3c906002612a1c565b67ffffffffffffffff811115611d6257634e487b7160e01b600052604160045260246000fd5b6040519080825280601f01601f191660200182016040528015611d8c576020820181803683370190505b509050600360fc1b81600081518110611db557634e487b7160e01b600052603260045260246000fd5b60200101906001600160f81b031916908160001a905350600f60fb1b81600181518110611df257634e487b7160e01b600052603260045260246000fd5b60200101906001600160f81b031916908160001a9053506000611e16846002612a54565b611e21906001612a1c565b90505b6001811115611eb5576f181899199a1a9b1b9c1cb0b131b232b360811b85600f1660108110611e6357634e487b7160e01b600052603260045260246000fd5b1a60f81b828281518110611e8757634e487b7160e01b600052603260045260246000fd5b60200101906001600160f81b031916908160001a90535060049490941c93611eae81612ab6565b9050611e24565b508315611f045760405162461bcd60e51b815260206004820181905260248201527f537472696e67733a20686578206c656e67746820696e73756666696369656e746044820152606401610623565b9392505050565b803b611f6f5760405162461bcd60e51b815260206004820152602d60248201527f455243313936373a206e657720696d706c656d656e746174696f6e206973206e60448201526c1bdd08184818dbdb9d1c9858dd609a1b6064820152608401610623565b7f360894a13ba1a3210667c828492db98dca3e2076cc3735a920a3ca505d382bbc80546001600160a01b0319166001600160a01b0392909216919091179055565b6060823b61200f5760405162461bcd60e51b815260206004820152602660248201527f416464726573733a2064656c65676174652063616c6c20746f206e6f6e2d636f6044820152651b9d1c9858dd60d21b6064820152608401610623565b600080846001600160a01b03168460405161202a919061270c565b600060405180830381855af49150503d8060008114612065576040519150601f19603f3d011682016040523d82523d6000602084013e61206a565b606091505b50915091506120928282604051806060016040528060278152602001612b85602791396121cc565b95945050505050565b6120a481611f0b565b6040516001600160a01b038216907fbc7cd75a20ee27fd9adebab32041f755214dbc6bffa90cc0225b39da2e5c2d3b90600090a250565b600054610100900460ff16806120f4575060005460ff16155b6121105760405162461bcd60e51b815260040161062390612982565b600054610100900460ff16158015611b2a576000805461ffff1916610101179055801561100c576000805461ff001916905550565b600054610100900460ff168061215e575060005460ff16155b61217a5760405162461bcd60e51b815260040161062390612982565b600054610100900460ff1615801561219c576000805461ffff19166101011790555b6001609755801561100c576000805461ff001916905550565b60606121c48484600085612205565b949350505050565b606083156121db575081611f04565b8251156121eb5782518084602001fd5b8160405162461bcd60e51b815260040161062391906128d7565b6060824710156122665760405162461bcd60e51b815260206004820152602660248201527f416464726573733a20696e73756666696369656e742062616c616e636520666f6044820152651c8818d85b1b60d21b6064820152608401610623565b843b6122b45760405162461bcd60e51b815260206004820152601d60248201527f416464726573733a2063616c6c20746f206e6f6e2d636f6e74726163740000006044820152606401610623565b600080866001600160a01b031685876040516122d0919061270c565b60006040518083038185875af1925050503d806000811461230d576040519150601f19603f3d011682016040523d82523d6000602084013e612312565b606091505b50915091506123228282866121cc565b979650505050505050565b82805461233990612acd565b90600052602060002090601f01602090048101928261235b57600085556123a1565b82601f106123745782800160ff198235161785556123a1565b828001600101855582156123a1579182015b828111156123a1578235825591602001919060010190612386565b506112669291505b8082111561126657600081556001016123a9565b600067ffffffffffffffff808411156123d8576123d8612b39565b604051601f8501601f19908116603f0116810190828211818310171561240057612400612b39565b8160405280935085815286868601111561241957600080fd5b858560208301376000602087830101525050509392505050565b60008083601f840112612444578182fd5b50813567ffffffffffffffff81111561245b578182fd5b60208301915083602082850101111561247357600080fd5b9250929050565b60006020828403121561248b578081fd5b8135611f0481612b4f565b600080604083850312156124a8578081fd5b82356124b381612b4f565b9150602083013567ffffffffffffffff8111156124ce578182fd5b8301601f810185136124de578182fd5b6124ed858235602084016123bd565b9150509250929050565b600060208284031215612508578081fd5b81518015158114611f04578182fd5b600060208284031215612528578081fd5b5035919050565b60008060408385031215612541578182fd5b82359150602083013561255381612b4f565b809150509250929050565b60006020828403121561256f578081fd5b81356001600160e01b031981168114611f04578182fd5b60008060006040848603121561259a578081fd5b83356125a581612b4f565b9250602084013567ffffffffffffffff8111156125c0578182fd5b6125cc86828701612433565b9497909650939450505050565b6000602082840312156125ea578081fd5b813567ffffffffffffffff811115612600578182fd5b8201601f81018413612610578182fd5b6121c4848235602084016123bd565b600060208284031215612630578081fd5b5051919050565b60008060408385031215612649578182fd5b50508035926020909101359150565b60008060008060006080868803121561266f578283fd5b853594506020860135935060408601359250606086013567ffffffffffffffff81111561269a578182fd5b6126a688828901612433565b969995985093965092949392505050565b81835281816020850137506000828201602090810191909152601f909101601f19169091010190565b600081518084526126f8816020860160208601612a8a565b601f01601f19169290920160200192915050565b6000825161271e818460208701612a8a565b9190910192915050565b8183823760009101908152919050565b600080835482600182811c91508083168061275457607f831692505b602080841082141561277457634e487b7160e01b87526022600452602487fd5b8180156127885760018114612799576127c5565b60ff198616895284890196506127c5565b60008a815260209020885b868110156127bd5781548b8201529085019083016127a4565b505084890196505b509498975050505050505050565b7f416363657373436f6e74726f6c3a206163636f756e742000000000000000000081526000835161280b816017850160208801612a8a565b7001034b99036b4b9b9b4b733903937b6329607d1b601791840191820152835161283c816028840160208801612a8a565b01602801949350505050565b60018060a01b03861681528460208201528360408201526080606082015260006123226080830184866126b7565b6020808252825182820181905260009190848201906040850190845b818110156128b75783516001600160a01b031683529284019291840191600101612892565b50909695505050505050565b6020815260006121c46020830184866126b7565b602081526000611f0460208301846126e0565b6020808252602c908201527f46756e6374696f6e206d7573742062652063616c6c6564207468726f7567682060408201526b19195b1959d85d1958d85b1b60a21b606082015260800190565b6020808252602c908201527f46756e6374696f6e206d7573742062652063616c6c6564207468726f7567682060408201526b6163746976652070726f787960a01b606082015260800190565b6020808252602e908201527f496e697469616c697a61626c653a20636f6e747261637420697320616c72656160408201526d191e481a5b9a5d1a585b1a5e995960921b606082015260800190565b87815286602082015285604082015284606082015283608082015260018060a01b03831660a082015260e060c08201526000612a0f60e08301846126e0565b9998505050505050505050565b60008219821115612a2f57612a2f612b23565b500190565b600082612a4f57634e487b7160e01b81526012600452602481fd5b500490565b6000816000190483118215151615612a6e57612a6e612b23565b500290565b600082821015612a8557612a85612b23565b500390565b60005b83811015612aa5578181015183820152602001612a8d565b838111156116895750506000910152565b600081612ac557612ac5612b23565b506000190190565b600181811c90821680612ae157607f821691505b60208210811415612b0257634e487b7160e01b600052602260045260246000fd5b50919050565b6000600019821415612b1c57612b1c612b23565b5060010190565b634e487b7160e01b600052601160045260246000fd5b634e487b7160e01b600052604160045260246000fd5b6001600160a01b038116811461100c57600080fdfe189ab7a9244df0848122154315af71fe140f3db0fe014031783b0946b8c9d2e3416464726573733a206c6f772d6c6576656c2064656c65676174652063616c6c206661696c6564a49807205ce4d355092ef5a8a18f56e8913cf4a201fbe287825b095693c21775a2646970667358221220f2818281e30c4c9723359694935830332888878a78c587830f02d25a689e951764736f6c63430008040033",
  "linkReferences": {},
  "deployedLinkReferences": {}
}