{
  "_format": "hh-sol-artifact-1",
  "contractName": "WorkQuestFactory",
  "sourceName": "contracts/WorkQuestFactory.sol",
  "abi": [
    {
      "inputs": [],
      "stateMutability": "nonpayable",
      "type": "constructor"
    },
    {
      "anonymous": false,
      "inputs": [
        {
          "indexed": false,
          "internalType": "address",
          "name": "previousAdmin",
          "type": "address"
        },
        {
          "indexed": false,
          "internalType": "address",
          "name": "newAdmin",
          "type": "address"
        }
      ],
      "name": "AdminChanged",
      "type": "event"
    },
    {
      "anonymous": false,
      "inputs": [
        {
          "indexed": true,
          "internalType": "address",
          "name": "beacon",
          "type": "address"
        }
      ],
      "name": "BeaconUpgraded",
      "type": "event"
    },
    {
      "anonymous": false,
      "inputs": [
        {
          "indexed": true,
          "internalType": "bytes32",
          "name": "role",
          "type": "bytes32"
        },
        {
          "indexed": true,
          "internalType": "bytes32",
          "name": "previousAdminRole",
          "type": "bytes32"
        },
        {
          "indexed": true,
          "internalType": "bytes32",
          "name": "newAdminRole",
          "type": "bytes32"
        }
      ],
      "name": "RoleAdminChanged",
      "type": "event"
    },
    {
      "anonymous": false,
      "inputs": [
        {
          "indexed": true,
          "internalType": "bytes32",
          "name": "role",
          "type": "bytes32"
        },
        {
          "indexed": true,
          "internalType": "address",
          "name": "account",
          "type": "address"
        },
        {
          "indexed": true,
          "internalType": "address",
          "name": "sender",
          "type": "address"
        }
      ],
      "name": "RoleGranted",
      "type": "event"
    },
    {
      "anonymous": false,
      "inputs": [
        {
          "indexed": true,
          "internalType": "bytes32",
          "name": "role",
          "type": "bytes32"
        },
        {
          "indexed": true,
          "internalType": "address",
          "name": "account",
          "type": "address"
        },
        {
          "indexed": true,
          "internalType": "address",
          "name": "sender",
          "type": "address"
        }
      ],
      "name": "RoleRevoked",
      "type": "event"
    },
    {
      "anonymous": false,
      "inputs": [
        {
          "indexed": true,
          "internalType": "address",
          "name": "implementation",
          "type": "address"
        }
      ],
      "name": "Upgraded",
      "type": "event"
    },
    {
      "anonymous": false,
      "inputs": [
        {
          "indexed": false,
          "internalType": "bytes32",
          "name": "jobHash",
          "type": "bytes32"
        },
        {
          "indexed": false,
          "internalType": "address",
          "name": "employer",
          "type": "address"
        },
        {
          "indexed": false,
          "internalType": "address",
          "name": "workquest",
          "type": "address"
        },
        {
          "indexed": false,
          "internalType": "uint256",
          "name": "createdAt",
          "type": "uint256"
        },
        {
          "indexed": false,
          "internalType": "uint256",
          "name": "nonce",
          "type": "uint256"
        }
      ],
      "name": "WorkQuestCreated",
      "type": "event"
    },
    {
      "inputs": [],
      "name": "ADMIN_ROLE",
      "outputs": [
        {
          "internalType": "bytes32",
          "name": "",
          "type": "bytes32"
        }
      ],
      "stateMutability": "view",
      "type": "function"
    },
    {
      "inputs": [],
      "name": "ARBITER_ROLE",
      "outputs": [
        {
          "internalType": "bytes32",
          "name": "",
          "type": "bytes32"
        }
      ],
      "stateMutability": "view",
      "type": "function"
    },
    {
      "inputs": [],
      "name": "DEFAULT_ADMIN_ROLE",
      "outputs": [
        {
          "internalType": "bytes32",
          "name": "",
          "type": "bytes32"
        }
      ],
      "stateMutability": "view",
      "type": "function"
    },
    {
      "inputs": [],
      "name": "UPGRADER_ROLE",
      "outputs": [
        {
          "internalType": "bytes32",
          "name": "",
          "type": "bytes32"
        }
      ],
      "stateMutability": "view",
      "type": "function"
    },
    {
      "inputs": [],
      "name": "feeEmployer",
      "outputs": [
        {
          "internalType": "uint256",
          "name": "",
          "type": "uint256"
        }
      ],
      "stateMutability": "view",
      "type": "function"
    },
    {
      "inputs": [],
      "name": "feeReceiver",
      "outputs": [
        {
          "internalType": "address payable",
          "name": "",
          "type": "address"
        }
      ],
      "stateMutability": "view",
      "type": "function"
    },
    {
      "inputs": [],
      "name": "feeTx",
      "outputs": [
        {
          "internalType": "uint256",
          "name": "",
          "type": "uint256"
        }
      ],
      "stateMutability": "view",
      "type": "function"
    },
    {
      "inputs": [],
      "name": "feeWorker",
      "outputs": [
        {
          "internalType": "uint256",
          "name": "",
          "type": "uint256"
        }
      ],
      "stateMutability": "view",
      "type": "function"
    },
    {
      "inputs": [
        {
          "internalType": "bytes32",
          "name": "role",
          "type": "bytes32"
        }
      ],
      "name": "getRoleAdmin",
      "outputs": [
        {
          "internalType": "bytes32",
          "name": "",
          "type": "bytes32"
        }
      ],
      "stateMutability": "view",
      "type": "function"
    },
    {
      "inputs": [
        {
          "internalType": "address",
          "name": "employer",
          "type": "address"
        }
      ],
      "name": "getWorkQuests",
      "outputs": [
        {
          "internalType": "address[]",
          "name": "",
          "type": "address[]"
        }
      ],
      "stateMutability": "view",
      "type": "function"
    },
    {
      "inputs": [
        {
          "internalType": "bytes32",
          "name": "role",
          "type": "bytes32"
        },
        {
          "internalType": "address",
          "name": "account",
          "type": "address"
        }
      ],
      "name": "grantRole",
      "outputs": [],
      "stateMutability": "nonpayable",
      "type": "function"
    },
    {
      "inputs": [
        {
          "internalType": "bytes32",
          "name": "role",
          "type": "bytes32"
        },
        {
          "internalType": "address",
          "name": "account",
          "type": "address"
        }
      ],
      "name": "hasRole",
      "outputs": [
        {
          "internalType": "bool",
          "name": "",
          "type": "bool"
        }
      ],
      "stateMutability": "view",
      "type": "function"
    },
    {
      "inputs": [
        {
          "internalType": "uint256",
          "name": "_feeEmployer",
          "type": "uint256"
        },
        {
          "internalType": "uint256",
          "name": "_feeWorker",
          "type": "uint256"
        },
        {
          "internalType": "address payable",
          "name": "_feeReceiver",
          "type": "address"
        },
        {
          "internalType": "address payable",
          "name": "_pensionFund",
          "type": "address"
        },
        {
          "internalType": "address payable",
          "name": "_referral",
          "type": "address"
        },
        {
          "internalType": "address",
          "name": "_wusd",
          "type": "address"
        }
      ],
      "name": "initialize",
      "outputs": [],
      "stateMutability": "nonpayable",
      "type": "function"
    },
    {
      "inputs": [
        {
          "internalType": "bytes32",
          "name": "jobHash",
          "type": "bytes32"
        },
        {
          "internalType": "uint256",
          "name": "cost",
          "type": "uint256"
        },
        {
          "internalType": "uint256",
          "name": "deadline",
          "type": "uint256"
        },
        {
          "internalType": "uint256",
          "name": "nonce",
          "type": "uint256"
        }
      ],
      "name": "newWorkQuest",
      "outputs": [],
      "stateMutability": "nonpayable",
      "type": "function"
    },
    {
      "inputs": [],
      "name": "pensionFund",
      "outputs": [
        {
          "internalType": "address payable",
          "name": "",
          "type": "address"
        }
      ],
      "stateMutability": "view",
      "type": "function"
    },
    {
      "inputs": [],
      "name": "proxiableUUID",
      "outputs": [
        {
          "internalType": "bytes32",
          "name": "",
          "type": "bytes32"
        }
      ],
      "stateMutability": "view",
      "type": "function"
    },
    {
      "inputs": [],
      "name": "referral",
      "outputs": [
        {
          "internalType": "address payable",
          "name": "",
          "type": "address"
        }
      ],
      "stateMutability": "view",
      "type": "function"
    },
    {
      "inputs": [
        {
          "internalType": "bytes32",
          "name": "role",
          "type": "bytes32"
        },
        {
          "internalType": "address",
          "name": "account",
          "type": "address"
        }
      ],
      "name": "renounceRole",
      "outputs": [],
      "stateMutability": "nonpayable",
      "type": "function"
    },
    {
      "inputs": [
        {
          "internalType": "bytes32",
          "name": "role",
          "type": "bytes32"
        },
        {
          "internalType": "address",
          "name": "account",
          "type": "address"
        }
      ],
      "name": "revokeRole",
      "outputs": [],
      "stateMutability": "nonpayable",
      "type": "function"
    },
    {
      "inputs": [
        {
          "internalType": "uint256",
          "name": "_fee",
          "type": "uint256"
        }
      ],
      "name": "setFeeEmployer",
      "outputs": [],
      "stateMutability": "nonpayable",
      "type": "function"
    },
    {
      "inputs": [
        {
          "internalType": "address payable",
          "name": "_feeReceiver",
          "type": "address"
        }
      ],
      "name": "setFeeReceiver",
      "outputs": [],
      "stateMutability": "nonpayable",
      "type": "function"
    },
    {
      "inputs": [
        {
          "internalType": "uint256",
          "name": "_fee",
          "type": "uint256"
        }
      ],
      "name": "setFeeWorker",
      "outputs": [],
      "stateMutability": "nonpayable",
      "type": "function"
    },
    {
      "inputs": [
        {
          "internalType": "address payable",
          "name": "_pensionFund",
          "type": "address"
        }
      ],
      "name": "setPensionFund",
      "outputs": [],
      "stateMutability": "nonpayable",
      "type": "function"
    },
    {
      "inputs": [
        {
          "internalType": "address payable",
          "name": "_referral",
          "type": "address"
        }
      ],
      "name": "setRefferal",
      "outputs": [],
      "stateMutability": "nonpayable",
      "type": "function"
    },
    {
      "inputs": [
        {
          "internalType": "address",
          "name": "_wusd",
          "type": "address"
        }
      ],
      "name": "setWusd",
      "outputs": [],
      "stateMutability": "nonpayable",
      "type": "function"
    },
    {
      "inputs": [
        {
          "internalType": "bytes4",
          "name": "interfaceId",
          "type": "bytes4"
        }
      ],
      "name": "supportsInterface",
      "outputs": [
        {
          "internalType": "bool",
          "name": "",
          "type": "bool"
        }
      ],
      "stateMutability": "view",
      "type": "function"
    },
    {
      "inputs": [
        {
          "internalType": "address",
          "name": "newImplementation",
          "type": "address"
        }
      ],
      "name": "upgradeTo",
      "outputs": [],
      "stateMutability": "nonpayable",
      "type": "function"
    },
    {
      "inputs": [
        {
          "internalType": "address",
          "name": "newImplementation",
          "type": "address"
        },
        {
          "internalType": "bytes",
          "name": "data",
          "type": "bytes"
        }
      ],
      "name": "upgradeToAndCall",
      "outputs": [],
      "stateMutability": "payable",
      "type": "function"
    },
    {
      "inputs": [
        {
          "internalType": "address",
          "name": "",
          "type": "address"
        }
      ],
      "name": "workquestValid",
      "outputs": [
        {
          "internalType": "bool",
          "name": "",
          "type": "bool"
        }
      ],
      "stateMutability": "view",
      "type": "function"
    },
    {
      "inputs": [
        {
          "internalType": "address",
          "name": "",
          "type": "address"
        },
        {
          "internalType": "uint256",
          "name": "",
          "type": "uint256"
        }
      ],
      "name": "workquests",
      "outputs": [
        {
          "internalType": "address",
          "name": "",
          "type": "address"
        }
      ],
      "stateMutability": "view",
      "type": "function"
    },
    {
      "inputs": [],
      "name": "wusd",
      "outputs": [
        {
          "internalType": "contract IERC20Upgradeable",
          "name": "",
          "type": "address"
        }
      ],
      "stateMutability": "view",
      "type": "function"
    }
  ],
  "bytecode": "0x60a0604052306080523480156200001557600080fd5b50600054610100900460ff16620000335760005460ff16156200003d565b6200003d620000e2565b620000a55760405162461bcd60e51b815260206004820152602e60248201527f496e697469616c697a61626c653a20636f6e747261637420697320616c72656160448201526d191e481a5b9a5d1a585b1a5e995960921b606482015260840160405180910390fd5b600054610100900460ff16158015620000c8576000805461ffff19166101011790555b8015620000db576000805461ff00191690555b506200010f565b6000620000fa306200010060201b62000f981760201c565b15905090565b6001600160a01b03163b151590565b6080516149426200014760003960008181610972015281816109b501528181610add01528181610b200152610bb801526149426000f3fe608060405260043610620001ff5760003560e01c8063643250651162000117578063bce515aa11620000a1578063d547741f116200006c578063d547741f1462000600578063de6b51651462000625578063efdcd9741462000659578063f72c0d8b146200067e57600080fd5b8063bce515aa1462000579578063c846dccb1462000591578063ce417cf214620005b6578063d1cbfe6514620005db57600080fd5b806391d1485411620000e257806391d148541462000503578063a1e597691462000528578063a217fddf1462000540578063b3f00674146200055757600080fd5b806364325065146200047c57806375b238fc14620004945780638d46f30914620004b95780638eab005b14620004de57600080fd5b80632f2ff15d116200019957806345c12b2d116200016457806345c12b2d14620003f25780634d104adf14620004175780634f1ef286146200044d57806352d1902d146200046457600080fd5b80632f2ff15d146200035e57806336568abe14620003835780633659cfe614620003a85780633f8f998514620003cd57600080fd5b806315c40eb011620001da57806315c40eb014620002a15780632372403c14620002c4578063248a9ca314620002f95780632cba90c7146200033c57600080fd5b806301ffc9a7146200020457806310e51e14146200023e5780631441a5a91462000265575b600080fd5b3480156200021157600080fd5b50620002296200022336600462001a19565b620006a3565b60405190151581526020015b60405180910390f35b3480156200024b57600080fd5b50620002636200025d36600462001a5b565b620006db565b005b3480156200027257600080fd5b506101005462000288906001600160a01b031681565b6040516001600160a01b03909116815260200162000235565b348015620002ae57600080fd5b506101015462000288906001600160a01b031681565b348015620002d157600080fd5b5062000229620002e336600462001ad4565b6101036020526000908152604090205460ff1681565b3480156200030657600080fd5b506200032d6200031836600462001af4565b60009081526065602052604090206001015490565b60405190815260200162000235565b3480156200034957600080fd5b5060ff5462000288906001600160a01b031681565b3480156200036b57600080fd5b50620002636200037d36600462001b0e565b620008b6565b3480156200039057600080fd5b5062000263620003a236600462001b0e565b620008e5565b348015620003b557600080fd5b5062000263620003c736600462001ad4565b62000967565b348015620003da57600080fd5b5062000263620003ec36600462001ad4565b62000a53565b348015620003ff57600080fd5b50620002636200041136600462001ad4565b62000a93565b3480156200042457600080fd5b506200032d7fbb08418a67729a078f87bbc8d02a770929bb68f5bfdf134ae2ead6ed38e2f4ae81565b620002636200045e36600462001b57565b62000ad2565b3480156200047157600080fd5b506200032d62000bab565b3480156200048957600080fd5b506200032d60fd5481565b348015620004a157600080fd5b506200032d600080516020620048ed83398151915281565b348015620004c657600080fd5b5062000263620004d836600462001af4565b62000c61565b348015620004eb57600080fd5b5062000263620004fd36600462001af4565b62000c83565b3480156200051057600080fd5b50620002296200052236600462001b0e565b62000ca5565b3480156200053557600080fd5b506200032d60fb5481565b3480156200054d57600080fd5b506200032d600081565b3480156200056457600080fd5b5060fe5462000288906001600160a01b031681565b3480156200058657600080fd5b506200032d60fc5481565b3480156200059e57600080fd5b5062000263620005b036600462001c27565b62000cd0565b348015620005c357600080fd5b5062000288620005d536600462001c5a565b62000e3c565b348015620005e857600080fd5b5062000263620005fa36600462001ad4565b62000e76565b3480156200060d57600080fd5b50620002636200061f36600462001b0e565b62000eb6565b3480156200063257600080fd5b506200064a6200064436600462001ad4565b62000ee0565b60405162000235919062001c89565b3480156200066657600080fd5b50620002636200067836600462001ad4565b62000f59565b3480156200068b57600080fd5b506200032d6000805160206200488683398151915281565b60006001600160e01b03198216637965db0b60e01b1480620006d557506301ffc9a760e01b6001600160e01b03198316145b92915050565b600054610100900460ff16620006f85760005460ff1615620006fc565b303b155b620007655760405162461bcd60e51b815260206004820152602e60248201527f496e697469616c697a61626c653a20636f6e747261637420697320616c72656160448201526d191e481a5b9a5d1a585b1a5e995960921b60648201526084015b60405180910390fd5b600054610100900460ff1615801562000788576000805461ffff19166101011790555b6200079262000fa7565b6200079c62000fa7565b620007a960003362001016565b620007c4600080516020620048ed8339815191523362001016565b620007df600080516020620048868339815191523362001016565b6200080960008051602062004886833981519152600080516020620048ed83398151915262001022565b620008447fbb08418a67729a078f87bbc8d02a770929bb68f5bfdf134ae2ead6ed38e2f4ae600080516020620048ed83398151915262001022565b60fb87905560fc86905560fe80546001600160a01b038088166001600160a01b03199283161790925560ff805487841690831617905561010080548684169083161790556101018054928516929091169190911790558015620008ad576000805461ff00191690555b50505050505050565b600082815260656020526040902060010154620008d481336200106d565b620008e08383620010dc565b505050565b6001600160a01b0381163314620009575760405162461bcd60e51b815260206004820152602f60248201527f416363657373436f6e74726f6c3a2063616e206f6e6c792072656e6f756e636560448201526e103937b632b9903337b91039b2b63360891b60648201526084016200075c565b62000963828262001166565b5050565b306001600160a01b037f0000000000000000000000000000000000000000000000000000000000000000161415620009b35760405162461bcd60e51b81526004016200075c9062001cd8565b7f00000000000000000000000000000000000000000000000000000000000000006001600160a01b0316620009fe600080516020620048a6833981519152546001600160a01b031690565b6001600160a01b03161462000a275760405162461bcd60e51b81526004016200075c9062001d24565b62000a3281620011d0565b6040805160008082526020820190925262000a5091839190620011ec565b50565b600080516020620048ed83398151915262000a6f81336200106d565b5061010180546001600160a01b0319166001600160a01b0392909216919091179055565b600080516020620048ed83398151915262000aaf81336200106d565b5060ff80546001600160a01b0319166001600160a01b0392909216919091179055565b306001600160a01b037f000000000000000000000000000000000000000000000000000000000000000016141562000b1e5760405162461bcd60e51b81526004016200075c9062001cd8565b7f00000000000000000000000000000000000000000000000000000000000000006001600160a01b031662000b69600080516020620048a6833981519152546001600160a01b031690565b6001600160a01b03161462000b925760405162461bcd60e51b81526004016200075c9062001d24565b62000b9d82620011d0565b6200096382826001620011ec565b6000306001600160a01b037f0000000000000000000000000000000000000000000000000000000000000000161462000c4d5760405162461bcd60e51b815260206004820152603860248201527f555550535570677261646561626c653a206d757374206e6f742062652063616c60448201527f6c6564207468726f7567682064656c656761746563616c6c000000000000000060648201526084016200075c565b50600080516020620048a683398151915290565b600080516020620048ed83398151915262000c7d81336200106d565b5060fb55565b600080516020620048ed83398151915262000c9f81336200106d565b5060fc55565b60009182526065602090815260408084206001600160a01b0393909316845291905290205460ff1690565b60008484843360405162000ce49062001a0b565b938452602084019290925260408301526001600160a01b03166060820152608001604051809103906000f08015801562000d22573d6000803e3d6000fd5b50336000908152610102602090815260408083208054600180820183559185528385200180546001600160a01b0319166001600160a01b03871690811790915584526101039092528220805460ff1916909117905560fb5491925090670de0b6b3a76400009062000d94908762001d86565b62000da0919062001da8565b6101015490915062000dbe906001600160a01b031633848862001374565b60fe546101015462000de0916001600160a01b03918216913391168462001374565b604080518781523360208201526001600160a01b038416818301524260608201526080810185905290517fc9fd97c1118b97a71931dc93489f048cb2e4fb431adac7bce7756f6165eea68a9181900360a00190a1505050505050565b610102602052816000526040600020818154811062000e5a57600080fd5b6000918252602090912001546001600160a01b03169150829050565b600080516020620048ed83398151915262000e9281336200106d565b5061010080546001600160a01b0319166001600160a01b0392909216919091179055565b60008281526065602052604090206001015462000ed481336200106d565b620008e0838362001166565b6001600160a01b0381166000908152610102602090815260409182902080548351818402810184019094528084526060939283018282801562000f4d57602002820191906000526020600020905b81546001600160a01b0316815260019091019060200180831162000f2e575b50505050509050919050565b600080516020620048ed83398151915262000f7581336200106d565b5060fe80546001600160a01b0319166001600160a01b0392909216919091179055565b6001600160a01b03163b151590565b600054610100900460ff16620010145760405162461bcd60e51b815260206004820152602b60248201527f496e697469616c697a61626c653a20636f6e7472616374206973206e6f74206960448201526a6e697469616c697a696e6760a81b60648201526084016200075c565b565b620009638282620010dc565b600082815260656020526040808220600101805490849055905190918391839186917fbd79b86ffe0ab8e8776151514217cd7cacd52c909f66475c3af44e129f0b00ff9190a4505050565b62001079828262000ca5565b620009635762001094816001600160a01b03166014620013d6565b620010a1836020620013d6565b604051602001620010b492919062001dfa565b60408051601f198184030181529082905262461bcd60e51b82526200075c9160040162001e73565b620010e8828262000ca5565b620009635760008281526065602090815260408083206001600160a01b03851684529091529020805460ff19166001179055620011223390565b6001600160a01b0316816001600160a01b0316837f2f8788117e7eff1d82e926ec794901d17c78024a50270940304540a733656f0d60405160405180910390a45050565b62001172828262000ca5565b15620009635760008281526065602090815260408083206001600160a01b0385168085529252808320805460ff1916905551339285917ff6391f5c32d9c69d2a47ea670b442974b53935d1edc7fd64eb21e047a839171b9190a45050565b600080516020620048868339815191526200096381336200106d565b7f4910fdfa16fed3260ed0e7147f7cc6da11a60208b5b9406d12a635614ffd91435460ff16156200122257620008e08362001597565b826001600160a01b03166352d1902d6040518163ffffffff1660e01b815260040160206040518083038186803b1580156200125c57600080fd5b505afa9250505080156200128f575060408051601f3d908101601f191682019092526200128c9181019062001ea8565b60015b620012f45760405162461bcd60e51b815260206004820152602e60248201527f45524331393637557067726164653a206e657720696d706c656d656e7461746960448201526d6f6e206973206e6f74205555505360901b60648201526084016200075c565b600080516020620048a68339815191528114620013665760405162461bcd60e51b815260206004820152602960248201527f45524331393637557067726164653a20756e737570706f727465642070726f786044820152681a58589b195555525160ba1b60648201526084016200075c565b50620008e083838362001636565b604080516001600160a01b0385811660248301528416604482015260648082018490528251808303909101815260849091019091526020810180516001600160e01b03166323b872dd60e01b179052620013d090859062001661565b50505050565b60606000620013e783600262001d86565b620013f490600262001ec2565b67ffffffffffffffff8111156200140f576200140f62001b41565b6040519080825280601f01601f1916602001820160405280156200143a576020820181803683370190505b509050600360fc1b8160008151811062001458576200145862001edd565b60200101906001600160f81b031916908160001a905350600f60fb1b816001815181106200148a576200148a62001edd565b60200101906001600160f81b031916908160001a9053506000620014b084600262001d86565b620014bd90600162001ec2565b90505b60018111156200153f576f181899199a1a9b1b9c1cb0b131b232b360811b85600f1660108110620014f557620014f562001edd565b1a60f81b8282815181106200150e576200150e62001edd565b60200101906001600160f81b031916908160001a90535060049490941c93620015378162001ef3565b9050620014c0565b508315620015905760405162461bcd60e51b815260206004820181905260248201527f537472696e67733a20686578206c656e67746820696e73756666696369656e7460448201526064016200075c565b9392505050565b6001600160a01b0381163b620016065760405162461bcd60e51b815260206004820152602d60248201527f455243313936373a206e657720696d706c656d656e746174696f6e206973206e60448201526c1bdd08184818dbdb9d1c9858dd609a1b60648201526084016200075c565b600080516020620048a683398151915280546001600160a01b0319166001600160a01b0392909216919091179055565b62001641836200173a565b6000825111806200164f5750805b15620008e057620013d083836200177c565b6000620016b8826040518060400160405280602081526020017f5361666545524332303a206c6f772d6c6576656c2063616c6c206661696c6564815250856001600160a01b0316620018799092919063ffffffff16565b805190915015620008e05780806020019051810190620016d9919062001f0d565b620008e05760405162461bcd60e51b815260206004820152602a60248201527f5361666545524332303a204552433230206f7065726174696f6e20646964206e6044820152691bdd081cdd58d8d9595960b21b60648201526084016200075c565b620017458162001597565b6040516001600160a01b038216907fbc7cd75a20ee27fd9adebab32041f755214dbc6bffa90cc0225b39da2e5c2d3b90600090a250565b60606001600160a01b0383163b620017e65760405162461bcd60e51b815260206004820152602660248201527f416464726573733a2064656c65676174652063616c6c20746f206e6f6e2d636f6044820152651b9d1c9858dd60d21b60648201526084016200075c565b600080846001600160a01b03168460405162001803919062001f31565b600060405180830381855af49150503d806000811462001840576040519150601f19603f3d011682016040523d82523d6000602084013e62001845565b606091505b5091509150620018708282604051806060016040528060278152602001620048c66027913962001892565b95945050505050565b60606200188a8484600085620018d0565b949350505050565b60608315620018a357508162001590565b825115620018b45782518084602001fd5b8160405162461bcd60e51b81526004016200075c919062001e73565b606082471015620019335760405162461bcd60e51b815260206004820152602660248201527f416464726573733a20696e73756666696369656e742062616c616e636520666f6044820152651c8818d85b1b60d21b60648201526084016200075c565b6001600160a01b0385163b6200198c5760405162461bcd60e51b815260206004820152601d60248201527f416464726573733a2063616c6c20746f206e6f6e2d636f6e747261637400000060448201526064016200075c565b600080866001600160a01b03168587604051620019aa919062001f31565b60006040518083038185875af1925050503d8060008114620019e9576040519150601f19603f3d011682016040523d82523d6000602084013e620019ee565b606091505b509150915062001a0082828662001892565b979650505050505050565b6129368062001f5083390190565b60006020828403121562001a2c57600080fd5b81356001600160e01b0319811681146200159057600080fd5b6001600160a01b038116811462000a5057600080fd5b60008060008060008060c0878903121562001a7557600080fd5b8635955060208701359450604087013562001a908162001a45565b9350606087013562001aa28162001a45565b9250608087013562001ab48162001a45565b915060a087013562001ac68162001a45565b809150509295509295509295565b60006020828403121562001ae757600080fd5b8135620015908162001a45565b60006020828403121562001b0757600080fd5b5035919050565b6000806040838503121562001b2257600080fd5b82359150602083013562001b368162001a45565b809150509250929050565b634e487b7160e01b600052604160045260246000fd5b6000806040838503121562001b6b57600080fd5b823562001b788162001a45565b9150602083013567ffffffffffffffff8082111562001b9657600080fd5b818501915085601f83011262001bab57600080fd5b81358181111562001bc05762001bc062001b41565b604051601f8201601f19908116603f0116810190838211818310171562001beb5762001beb62001b41565b8160405282815288602084870101111562001c0557600080fd5b8260208601602083013760006020848301015280955050505050509250929050565b6000806000806080858703121562001c3e57600080fd5b5050823594602084013594506040840135936060013592509050565b6000806040838503121562001c6e57600080fd5b823562001c7b8162001a45565b946020939093013593505050565b6020808252825182820181905260009190848201906040850190845b8181101562001ccc5783516001600160a01b03168352928401929184019160010162001ca5565b50909695505050505050565b6020808252602c908201527f46756e6374696f6e206d7573742062652063616c6c6564207468726f7567682060408201526b19195b1959d85d1958d85b1b60a21b606082015260800190565b6020808252602c908201527f46756e6374696f6e206d7573742062652063616c6c6564207468726f7567682060408201526b6163746976652070726f787960a01b606082015260800190565b634e487b7160e01b600052601160045260246000fd5b600081600019048311821515161562001da35762001da362001d70565b500290565b60008262001dc657634e487b7160e01b600052601260045260246000fd5b500490565b60005b8381101562001de857818101518382015260200162001dce565b83811115620013d05750506000910152565b7f416363657373436f6e74726f6c3a206163636f756e742000000000000000000081526000835162001e3481601785016020880162001dcb565b7001034b99036b4b9b9b4b733903937b6329607d1b601791840191820152835162001e6781602884016020880162001dcb565b01602801949350505050565b602081526000825180602084015262001e9481604085016020870162001dcb565b601f01601f19169190910160400192915050565b60006020828403121562001ebb57600080fd5b5051919050565b6000821982111562001ed85762001ed862001d70565b500190565b634e487b7160e01b600052603260045260246000fd5b60008162001f055762001f0562001d70565b506000190190565b60006020828403121562001f2057600080fd5b815180151581146200159057600080fd5b6000825162001f4581846020870162001dcb565b919091019291505056fe60c06040523480156200001157600080fd5b5060405162002936380380620029368339810160408190526200003491620000a4565b6000849055600183905560048290556001600160a01b03811660a052336080526003805460ff60a01b1916600160a01b1790556040518481527f1f3edb4d58a0796934b2fca1e84cec8a42269dc76c56c22b4489a77205ed6bcf9060200160405180910390a150505050620000f5565b60008060008060808587031215620000bb57600080fd5b845160208601516040870151606088015192965090945092506001600160a01b0381168114620000ea57600080fd5b939692955090935050565b60805160a05161271f620002176000396000818161023f01528181610338015281816104610152818161070b015281816107d80152818161093701528181610f1d01528181611037015281816110b0015281816115320152611e7b01526000818161026c01528181610381015281816104db01528181610592015281816106240152818161073a01528181610a1001528181610c0201528181610d6601528181610e7001528181610f4f015281816110d40152818161117f015281816113810152818161179c0152818161184e0152818161199f01528181611a3f01528181611b5701528181611bea01528181611c8e01528181611d2001528181611d7901528181611e9f01528181611ef801528181611ff10152612083015261271f6000f3fe6080604052600436106101355760003560e01c8063a758757d116100ab578063c72331fe1161006f578063c72331fe146103a3578063d295ef5c146103b8578063d5c4034e146103cd578063f3d86e4a146103ed578063f409abcb14610403578063f6faa7471461041857600080fd5b8063a758757d146102fc578063a77945b414610311578063ae200e7914610326578063b07c74751461035a578063c45a01551461036f57600080fd5b80634d547ada116100fd5780634d547ada146101df5780635a9b0b8914610217578063702d97491461029d578063897399ae146102bf5780639b732350146102df5780639b789b7e146102e757600080fd5b8063021a0b7d1461013a57806313faede614610163578063200d2ed21461017957806329dcb0cf146101a75780634d104adf146101bd575b600080fd5b34801561014657600080fd5b5061015060055481565b6040519081526020015b60405180910390f35b34801561016f57600080fd5b5061015060015481565b34801561018557600080fd5b5060035461019a90600160a01b900460ff1681565b60405161015a919061248b565b3480156101b357600080fd5b5061015060045481565b3480156101c957600080fd5b506101506000805160206126a083398151915281565b3480156101eb57600080fd5b506003546101ff906001600160a01b031681565b6040516001600160a01b03909116815260200161015a565b34801561022357600080fd5b5060005460015460025460035460045460405161015a959493927f0000000000000000000000000000000000000000000000000000000000000000926001600160a01b038216927f000000000000000000000000000000000000000000000000000000000000000092600160a01b900460ff16919061249f565b3480156102a957600080fd5b506102bd6102b83660046124f4565b61042e565b005b3480156102cb57600080fd5b506102bd6102da366004612525565b6107cd565b6102bd61092c565b3480156102f357600080fd5b506102bd610b2c565b34801561030857600080fd5b506102bd610bd9565b34801561031d57600080fd5b506102bd610d3d565b34801561033257600080fd5b506101ff7f000000000000000000000000000000000000000000000000000000000000000081565b34801561036657600080fd5b506102bd610fdc565b34801561037b57600080fd5b506101ff7f000000000000000000000000000000000000000000000000000000000000000081565b3480156103af57600080fd5b506102bd611156565b3480156103c457600080fd5b506102bd6112a8565b3480156103d957600080fd5b506102bd6103e83660046124f4565b611358565b3480156103f957600080fd5b5061015060025481565b34801561040f57600080fd5b506102bd611527565b34801561042457600080fd5b5061015060005481565b6001600354600160a01b900460ff16600681111561044e5761044e612453565b1480156104835750336001600160a01b037f000000000000000000000000000000000000000000000000000000000000000016145b6040518060600160405280602a81526020016126c0602a9139906104c35760405162461bcd60e51b81526004016104ba9190612572565b60405180910390fd5b506001548111156106fc576000670de0b6b3a76400007f00000000000000000000000000000000000000000000000000000000000000006001600160a01b031663bce515aa6040518163ffffffff1660e01b815260040160206040518083038186803b15801561053257600080fd5b505afa158015610546573d6000803e3d6000fd5b505050506040513d601f19601f8201168201806040525081019061056a91906125a5565b60015461057790856125d4565b61058191906125eb565b61058b919061260a565b90506106c37f00000000000000000000000000000000000000000000000000000000000000006001600160a01b031663b3f006746040518163ffffffff1660e01b815260040160206040518083038186803b1580156105e957600080fd5b505afa1580156105fd573d6000803e3d6000fd5b505050506040513d601f19601f82011682018060405250810190610621919061262c565b827f00000000000000000000000000000000000000000000000000000000000000006001600160a01b03166315c40eb06040518163ffffffff1660e01b815260040160206040518083038186803b15801561067b57600080fd5b505afa15801561068f573d6000803e3d6000fd5b505050506040513d601f19601f820116820180604052508101906106b3919061262c565b6001600160a01b031691906115fa565b6040518281527fa8142743f8f70a4c26f3691cf4ed59718381fb2f18070ec52be1f1022d8555579060200160405180910390a150610791565b600154811015610791576107917f00000000000000000000000000000000000000000000000000000000000000008260015461073891906125d4565b7f00000000000000000000000000000000000000000000000000000000000000006001600160a01b03166315c40eb06040518163ffffffff1660e01b815260040160206040518083038186803b15801561067b57600080fd5b60018190556040518181527fd1b5972bc4cfe8651dd4945f53542580e375118b79554778bda228502f49fd85906020015b60405180910390a150565b336001600160a01b037f00000000000000000000000000000000000000000000000000000000000000001614801561084957506001600354600160a01b900460ff16600681111561082057610820612453565b148061084957506002600354600160a01b900460ff16600681111561084757610847612453565b145b6040518060600160405280602a81526020016126c0602a9139906108805760405162461bcd60e51b81526004016104ba9190612572565b506001600160a01b0381166108d75760405162461bcd60e51b815260206004820152601a60248201527f576f726b51756573743a20496e76616c6964206164647265737300000000000060448201526064016104ba565b600380546001600160a01b0383166001600160a81b03199091168117600160a11b179091556040519081527f3c8974307e4abad0239998f9dc76add6b783cd52bf1337e9871763ce00f0e94b906020016107c2565b336001600160a01b037f00000000000000000000000000000000000000000000000000000000000000001614801561098157506004600354600160a01b900460ff16600681111561097f5761097f612453565b145b806109d657506003546001600160a01b0316331480156109be57506004600354600160a01b900460ff1660068111156109bc576109bc612453565b145b80156109d657506005546109d390603c612649565b42115b6040518060600160405280602a81526020016126c0602a913990610a0d5760405162461bcd60e51b81526004016104ba9190612572565b507f00000000000000000000000000000000000000000000000000000000000000006001600160a01b031663643250656040518163ffffffff1660e01b815260040160206040518083038186803b158015610a6757600080fd5b505afa158015610a7b573d6000803e3d6000fd5b505050506040513d601f19601f82011682018060405250810190610a9f91906125a5565b341015610aee5760405162461bcd60e51b815260206004820152601b60248201527f576f726b51756573743a20696e73756666696369656e7420666565000000000060448201526064016104ba565b6003805460ff60a01b1916600560a01b1790556040517f131074782b6ce325b67d3adcf196c9460c96c7006cc8b0db5f06168497d6aeea90600090a1565b6003546001600160a01b031633148015610b6357506002600354600160a01b900460ff166006811115610b6157610b61612453565b145b6040518060600160405280602a81526020016126c0602a913990610b9a5760405162461bcd60e51b81526004016104ba9190612572565b506003805460ff60a01b1916600360a01b1790556040517f09c75d41aa3ec09c07382b19acbb564b6194701c275a1e84c265b13c096bddc690600090a1565b604051632474521560e21b81526000805160206126a083398151915260048201523360248201527f00000000000000000000000000000000000000000000000000000000000000006001600160a01b0316906391d148549060440160206040518083038186803b158015610c4c57600080fd5b505afa158015610c60573d6000803e3d6000fd5b505050506040513d601f19601f82011682018060405250810190610c849190612661565b8015610cad57506005600354600160a01b900460ff166006811115610cab57610cab612453565b145b6040518060600160405280602a81526020016126c0602a913990610ce45760405162461bcd60e51b81526004016104ba9190612572565b50610cf2426203f480612649565b6004556003805460ff60a01b1916600360a01b179055610d123347611662565b6040517f449b7a58002dc78283b0936b451b2258380908c80a671d05cbfc6d5d73e7e84890600090a1565b604051632474521560e21b81526000805160206126a083398151915260048201523360248201527f00000000000000000000000000000000000000000000000000000000000000006001600160a01b0316906391d148549060440160206040518083038186803b158015610db057600080fd5b505afa158015610dc4573d6000803e3d6000fd5b505050506040513d601f19601f82011682018060405250810190610de89190612661565b8015610e1157506005600354600160a01b900460ff166006811115610e0f57610e0f612453565b145b6040518060600160405280602a81526020016126c0602a913990610e485760405162461bcd60e51b81526004016104ba9190612572565b50600380546006919060ff60a01b1916600160a01b8302179055506000670de0b6b3a76400007f00000000000000000000000000000000000000000000000000000000000000006001600160a01b031663bce515aa6040518163ffffffff1660e01b815260040160206040518083038186803b158015610ec757600080fd5b505afa158015610edb573d6000803e3d6000fd5b505050506040513d601f19601f82011682018060405250810190610eff91906125a5565b600154610f0c91906125eb565b610f16919061260a565b9050610f4a7f00000000000000000000000000000000000000000000000000000000000000008260015461073891906125d4565b610fa67f00000000000000000000000000000000000000000000000000000000000000006001600160a01b031663b3f006746040518163ffffffff1660e01b815260040160206040518083038186803b1580156105e957600080fd5b610fb03347611662565b6040517f517141fd66568d7da9d3afa22dbb1526b725c23ac9cf2d87afcdda39f43d244690600090a150565b6001600354600160a01b900460ff166006811115610ffc57610ffc612453565b148061102557506002600354600160a01b900460ff16600681111561102357611023612453565b145b80156110595750336001600160a01b037f000000000000000000000000000000000000000000000000000000000000000016145b6040518060600160405280602a81526020016126c0602a9139906110905760405162461bcd60e51b81526004016104ba9190612572565b50600380546006919060ff60a01b1916600160a01b83021790555061112b7f00000000000000000000000000000000000000000000000000000000000000006001547f00000000000000000000000000000000000000000000000000000000000000006001600160a01b03166315c40eb06040518163ffffffff1660e01b815260040160206040518083038186803b15801561067b57600080fd5b6040517f1a7b868a3587950cf797c54b284b8c24e1ed007035e305719a6cbdd34b0ea1a890600090a1565b604051632474521560e21b81526000805160206126a083398151915260048201523360248201527f00000000000000000000000000000000000000000000000000000000000000006001600160a01b0316906391d148549060440160206040518083038186803b1580156111c957600080fd5b505afa1580156111dd573d6000803e3d6000fd5b505050506040513d601f19601f820116820180604052508101906112019190612661565b801561122a57506005600354600160a01b900460ff16600681111561122857611228612453565b145b6040518060600160405280602a81526020016126c0602a9139906112615760405162461bcd60e51b81526004016104ba9190612572565b506003805460ff60a01b1916600360a11b17905561127d61177b565b6040517fd3690046db46e1a0fc4d2e65f824e35d9171c12fd0aabab5d3d76841e1d8b1f790600090a1565b6003546001600160a01b0316331480156112de575060038054600160a01b900460ff1660068111156112dc576112dc612453565b145b6040518060600160405280602a81526020016126c0602a9139906113155760405162461bcd60e51b81526004016104ba9190612572565b506003805460ff60a01b1916600160a21b179055426005556040517f3c350d18e479f5682191b9cdb4cdfa755c912f69d2d5ab94d910df38dec36a7290600090a1565b604051632474521560e21b81526000805160206126a083398151915260048201523360248201527f00000000000000000000000000000000000000000000000000000000000000006001600160a01b0316906391d148549060440160206040518083038186803b1580156113cb57600080fd5b505afa1580156113df573d6000803e3d6000fd5b505050506040513d601f19601f820116820180604052508101906114039190612661565b801561142c57506005600354600160a01b900460ff16600681111561142a5761142a612453565b145b6040518060600160405280602a81526020016126c0602a9139906114635760405162461bcd60e51b81526004016104ba9190612572565b506001548111156114d15760405162461bcd60e51b815260206004820152603260248201527f576f726b51756573743a20666f7266656974206d757374206265206c65617374604482015271081bdc88195c5d585b081a9bd88818dbdcdd60721b60648201526084016104ba565b6003805460ff60a01b1916600360a11b17905560028190556114f161177b565b6114fb3347611662565b6040517f520a8af2b3599291fb6be141ac83424cf1e51e71ca7fc767716248ae66c6aa5c90600090a150565b336001600160a01b037f00000000000000000000000000000000000000000000000000000000000000001614801561157c57506004600354600160a01b900460ff16600681111561157a5761157a612453565b145b6040518060600160405280602a81526020016126c0602a9139906115b35760405162461bcd60e51b81526004016104ba9190612572565b506003805460ff60a01b1916600360a11b1790556115cf61177b565b6040517ffe17fb508799412c4bf2b124b8292bcc9ca4ff8ab8ec830110fbcb1ae5cb312590600090a1565b6040516001600160a01b03831660248201526044810182905261165d90849063a9059cbb60e01b906064015b60408051601f198184030181529190526020810180516001600160e01b03166001600160e01b0319909316929092179091526120da565b505050565b804710156116b25760405162461bcd60e51b815260206004820152601d60248201527f416464726573733a20696e73756666696369656e742062616c616e636500000060448201526064016104ba565b6000826001600160a01b03168260405160006040518083038185875af1925050503d80600081146116ff576040519150601f19603f3d011682016040523d82523d6000602084013e611704565b606091505b505090508061165d5760405162461bcd60e51b815260206004820152603a60248201527f416464726573733a20756e61626c6520746f2073656e642076616c75652c207260448201527f6563697069656e74206d6179206861766520726576657274656400000000000060648201526084016104ba565b600060025460015461178d91906125d4565b90506000670de0b6b3a76400007f00000000000000000000000000000000000000000000000000000000000000006001600160a01b031663bce515aa6040518163ffffffff1660e01b815260040160206040518083038186803b1580156117f357600080fd5b505afa158015611807573d6000803e3d6000fd5b505050506040513d601f19601f8201168201806040525081019061182b91906125a5565b61183590846125eb565b61183f919061260a565b90506000670de0b6b3a76400007f00000000000000000000000000000000000000000000000000000000000000006001600160a01b0316632cba90c76040518163ffffffff1660e01b815260040160206040518083038186803b1580156118a557600080fd5b505afa1580156118b9573d6000803e3d6000fd5b505050506040513d601f19601f820116820180604052508101906118dd919061262c565b600354604051631711922960e31b81526001600160a01b03918216600482015291169063b88c91489060240160206040518083038186803b15801561192157600080fd5b505afa158015611935573d6000803e3d6000fd5b505050506040513d601f19601f8201168201806040525081019061195991906125a5565b61196390856125eb565b61196d919061260a565b600354909150611995906001600160a01b03168261198b85876125d4565b61073891906125d4565b8015611e6e5760007f00000000000000000000000000000000000000000000000000000000000000006001600160a01b03166315c40eb06040518163ffffffff1660e01b815260040160206040518083038186803b1580156119f657600080fd5b505afa158015611a0a573d6000803e3d6000fd5b505050506040513d601f19601f82011682018060405250810190611a2e919061262c565b6001600160a01b031663dd62ed3e307f00000000000000000000000000000000000000000000000000000000000000006001600160a01b0316632cba90c76040518163ffffffff1660e01b815260040160206040518083038186803b158015611a9657600080fd5b505afa158015611aaa573d6000803e3d6000fd5b505050506040513d601f19601f82011682018060405250810190611ace919061262c565b6040516001600160e01b031960e085901b1681526001600160a01b0392831660048201529116602482015260440160206040518083038186803b158015611b1457600080fd5b505afa158015611b28573d6000803e3d6000fd5b505050506040513d601f19601f82011682018060405250810190611b4c91906125a5565b1115611c8957611c897f00000000000000000000000000000000000000000000000000000000000000006001600160a01b0316632cba90c76040518163ffffffff1660e01b815260040160206040518083038186803b158015611bae57600080fd5b505afa158015611bc2573d6000803e3d6000fd5b505050506040513d601f19601f82011682018060405250810190611be6919061262c565b60007f00000000000000000000000000000000000000000000000000000000000000006001600160a01b03166315c40eb06040518163ffffffff1660e01b815260040160206040518083038186803b158015611c4157600080fd5b505afa158015611c55573d6000803e3d6000fd5b505050506040513d601f19601f82011682018060405250810190611c79919061262c565b6001600160a01b031691906121ac565b611d777f00000000000000000000000000000000000000000000000000000000000000006001600160a01b0316632cba90c76040518163ffffffff1660e01b815260040160206040518083038186803b158015611ce557600080fd5b505afa158015611cf9573d6000803e3d6000fd5b505050506040513d601f19601f82011682018060405250810190611d1d919061262c565b827f00000000000000000000000000000000000000000000000000000000000000006001600160a01b03166315c40eb06040518163ffffffff1660e01b815260040160206040518083038186803b158015611c4157600080fd5b7f00000000000000000000000000000000000000000000000000000000000000006001600160a01b0316632cba90c76040518163ffffffff1660e01b815260040160206040518083038186803b158015611dd057600080fd5b505afa158015611de4573d6000803e3d6000fd5b505050506040513d601f19601f82011682018060405250810190611e08919061262c565b600354604051638418cd9960e01b81526001600160a01b03918216600482015260248101849052911690638418cd9990604401600060405180830381600087803b158015611e5557600080fd5b505af1158015611e69573d6000803e3d6000fd5b505050505b60025415611ef657611ef67f00000000000000000000000000000000000000000000000000000000000000006002547f00000000000000000000000000000000000000000000000000000000000000006001600160a01b03166315c40eb06040518163ffffffff1660e01b815260040160206040518083038186803b15801561067b57600080fd5b7f00000000000000000000000000000000000000000000000000000000000000006001600160a01b0316631441a5a96040518163ffffffff1660e01b815260040160206040518083038186803b158015611f4f57600080fd5b505afa158015611f63573d6000803e3d6000fd5b505050506040513d601f19601f82011682018060405250810190611f87919061262c565b60035460405163c5e7ea2360e01b81526001600160a01b0391821660048201526024810186905291169063c5e7ea2390604401600060405180830381600087803b158015611fd457600080fd5b505af1158015611fe8573d6000803e3d6000fd5b5050505061165d7f00000000000000000000000000000000000000000000000000000000000000006001600160a01b031663b3f006746040518163ffffffff1660e01b815260040160206040518083038186803b15801561204857600080fd5b505afa15801561205c573d6000803e3d6000fd5b505050506040513d601f19601f82011682018060405250810190612080919061262c565b837f00000000000000000000000000000000000000000000000000000000000000006001600160a01b03166315c40eb06040518163ffffffff1660e01b815260040160206040518083038186803b15801561067b57600080fd5b600061212f826040518060400160405280602081526020017f5361666545524332303a206c6f772d6c6576656c2063616c6c206661696c6564815250856001600160a01b03166122d09092919063ffffffff16565b80519091501561165d578080602001905181019061214d9190612661565b61165d5760405162461bcd60e51b815260206004820152602a60248201527f5361666545524332303a204552433230206f7065726174696f6e20646964206e6044820152691bdd081cdd58d8d9595960b21b60648201526084016104ba565b8015806122355750604051636eb1769f60e11b81523060048201526001600160a01b03838116602483015284169063dd62ed3e9060440160206040518083038186803b1580156121fb57600080fd5b505afa15801561220f573d6000803e3d6000fd5b505050506040513d601f19601f8201168201806040525081019061223391906125a5565b155b6122a05760405162461bcd60e51b815260206004820152603660248201527f5361666545524332303a20617070726f76652066726f6d206e6f6e2d7a65726f60448201527520746f206e6f6e2d7a65726f20616c6c6f77616e636560501b60648201526084016104ba565b6040516001600160a01b03831660248201526044810182905261165d90849063095ea7b360e01b90606401611626565b60606122df84846000856122e9565b90505b9392505050565b60608247101561234a5760405162461bcd60e51b815260206004820152602660248201527f416464726573733a20696e73756666696369656e742062616c616e636520666f6044820152651c8818d85b1b60d21b60648201526084016104ba565b6001600160a01b0385163b6123a15760405162461bcd60e51b815260206004820152601d60248201527f416464726573733a2063616c6c20746f206e6f6e2d636f6e747261637400000060448201526064016104ba565b600080866001600160a01b031685876040516123bd9190612683565b60006040518083038185875af1925050503d80600081146123fa576040519150601f19603f3d011682016040523d82523d6000602084013e6123ff565b606091505b509150915061240f82828661241a565b979650505050505050565b606083156124295750816122e2565b8251156124395782518084602001fd5b8160405162461bcd60e51b81526004016104ba9190612572565b634e487b7160e01b600052602160045260246000fd5b6007811061248757634e487b7160e01b600052602160045260246000fd5b9052565b602081016124998284612469565b92915050565b88815260208101889052604081018790526001600160a01b0386811660608301528581166080830152841660a082015261010081016124e160c0830185612469565b8260e08301529998505050505050505050565b60006020828403121561250657600080fd5b5035919050565b6001600160a01b038116811461252257600080fd5b50565b60006020828403121561253757600080fd5b81356122e28161250d565b60005b8381101561255d578181015183820152602001612545565b8381111561256c576000848401525b50505050565b6020815260008251806020840152612591816040850160208701612542565b601f01601f19169190910160400192915050565b6000602082840312156125b757600080fd5b5051919050565b634e487b7160e01b600052601160045260246000fd5b6000828210156125e6576125e66125be565b500390565b6000816000190483118215151615612605576126056125be565b500290565b60008261262757634e487b7160e01b600052601260045260246000fd5b500490565b60006020828403121561263e57600080fd5b81516122e28161250d565b6000821982111561265c5761265c6125be565b500190565b60006020828403121561267357600080fd5b815180151581146122e257600080fd5b60008251612695818460208701612542565b919091019291505056febb08418a67729a078f87bbc8d02a770929bb68f5bfdf134ae2ead6ed38e2f4ae576f726b51756573743a204163636573732064656e696564206f7220696e76616c696420737461747573a2646970667358221220f4b1b2019df8ac50d77002cb1762526a0e778d7e9d5f379497398849d433729564736f6c63430008090033189ab7a9244df0848122154315af71fe140f3db0fe014031783b0946b8c9d2e3360894a13ba1a3210667c828492db98dca3e2076cc3735a920a3ca505d382bbc416464726573733a206c6f772d6c6576656c2064656c65676174652063616c6c206661696c6564a49807205ce4d355092ef5a8a18f56e8913cf4a201fbe287825b095693c21775a26469706673582212203a4149e288e7e28b524cf3003a3ffb2127d9da2242658063e780fcc6a4446b8e64736f6c63430008090033",
  "linkReferences": {},
  "deployedLinkReferences": {}
}